:020000040800F2
:10000000900400209D010008BB190008D9120008C7
:10001000B9190008A9020008991B00080000000097
:10002000000000000000000000000000AD1A000801
:10003000AB02000800000000BD190008AF1A00085C
:10004000B7010008B7010008B7010008B7010008B0
:10005000B7010008B7010008AD020008C902000896
:10006000CF020008D5020008DB020008B701000833
:10007000B7010008B7010008B7010008B701000880
:10008000B7010008B7010008B7010008B701000870
:10009000B7010008B7010008B7010008E102000835
:1000A000B7010008B7010008B7010008B701000850
:1000B000B7010008B7010008B7010008B701000840
:1000C000B7010008B7010008B7010008B701000830
:1000D000B7010008B7010008B7010008B701000820
:1000E000B3020008B7010008B7010008B701000813
:1000F000B7010008B7010008B7010008B701000800
:10010000B7010008B7010008B7010008B7010008EF
:10011000B7010008B7010008B7010008B7010008DF
:10012000B7010008B7010008B7010008B7010008CF
:10013000B7010008B7010008B7010008B7010008BF
:10014000B7010008B7010008B7010008B7010008AF
:10015000B7010008B7010008B7010008B70100089F
:10016000B7010008B7010008B7010008B70100088F
:10017000B7010008B7010008B7010008000000003F
:10018000B7010008B7010008DFF80CD000F07AF8DA
:1001900000480047C91B000890040020064880471B
:1001A00006480047FEE7FEE7FEE7FEE7FEE7FEE75C
:1001B000FEE7FEE7FEE7FEE73F1B000889010008B7
:1001C0002DE9F05F0546002092469B46884606468C
:1001D000814640241BE0284641464746224600F01F
:1001E00041F853465A46C01A914110D31146184659
:1001F000224600F028F82D1A67EB01084F462246E8
:100200000120002100F01FF817EB00094E41201ECD
:10021000A4F10104DFDC484631462A464346BDE8E6
:10022000F09FD2B201E000F8012B491EFBD27047CB
:100230000022F6E710B513460A4604461946FFF7B2
:10024000F0FF204610BD202A04DB203A00FA02F11C
:10025000002070479140C2F1200320FA03F31943B4
:1002600090407047202A04DB203A21FA02F0002156
:10027000704721FA02F3D040C2F1200291400843B6
:1002800019467047064C074D06E0E06840F0010350
:1002900094E8070098471034AC42F6D3FFF778FF94
:1002A0005C2601087C260108FEE77047012000F06B
:1002B000A6BA80B54FF4006000F0A1FA4FF4805068
:1002C000BDE8804000F09BBA022000F098BA0420FC
:1002D00000F095BA082000F092BA102000F08FBA12
:1002E000202000F08CBA7047B0B5044600F071FBD6
:1002F000054640F20800611CC2F20000007818BFF9
:10030000044400BF00F065FB401BA042FAD3B0BD1F
:1003100010B50F2832DC0138072800F26F82DFE8C1
:1003200010F0080089006D02CD006D026D026D02B3
:100330002101142001F046FC40F200400121C4F2EA
:10034000020000F5006000F033FB002800F0568248
:1003500040F22100C2F200000178012940F0E4815E
:1003600000210122017040F22000C2F20000027060
:1003700040F22200C2F200000170DCE1B0F5006F33
:100380003CDA102800F04681202840F03782142003
:1003900001F018FC40F200402021C4F2020000F5F8
:1003A000006000F005FB002800F0288240F22000E9
:1003B000C2F200000078002800F0208240F2150010
:1003C000C2F200000078002800F0188240F211000C
:1003D00040F21801C2F20000C2F200010078097870
:1003E000084340F00B8240F21F000021C2F20000DF
:1003F000017040F21C00C2F20000ACE000F04D8140
:10040000B0F5805F40F0FA81142001F0DBFB40F290
:1004100000444FF48051C4F2020404F5806000F0FF
:10042000C7FA002800F0EA8120460121BDE810400B
:1004300000F0C3BA142001F0C5FB40F200400221D5
:10044000C4F2020000F5805000F0B2FA002800F07B
:10045000D58140F200000121C2F20000017040F29B
:100460002100C2F20000017040F220000021C2F21F
:100470000000017040F21500C2F20000017040F26D
:100480001100C2F20000017040F21800C2F2000038
:10049000017040F21B00C2F20000017040F21A002D
:1004A000C2F20000017040F21200C2F200000170BE
:1004B00040F21900C2F20000017010BD142001F0DA
:1004C00081FB40F200400421C4F2020000F500600C
:1004D00000F06EFA002800F0918140F22100C2F293
:1004E0000000007801280FD140F222000021C2F262
:1004F0000000017040F20000C2F2000001784A1EC4
:10050000022938BF0322027040F22000C2F200002C
:100510000078002800F0728140F21500C2F200005D
:100520000078002800F06A8140F2110040F21801C2
:10053000C2F20000C2F2000100780978084340F0DE
:100540005D8140F21D000021C2F20000017040F206
:100550001E00C2F200000122027040F21700C2F237
:10056000000093E0142001F02DFB40F20040082130
:10057000C4F2020000F01CFA002800F03F8140F2B3
:100580002100C2F20000007801280FD140F22200C1
:100590000021C2F20000017040F20000C2F200002F
:1005A00001784A1C022988BF0122027040F2200013
:1005B000C2F200000078002800F0208140F215000F
:1005C000C2F200000078002800F0188140F211000B
:1005D00040F21801C2F20000C2F20001007809786E
:1005E000084340F00B8140F21D0000210122C2F2BD
:1005F0000000017040F21300C2F20000027040F2ED
:100600001700C2F20000017040F21F00C2F20000A9
:10061000017010BD142001F0D5FA40F20040102105
:10062000C4F2020000F5006000F0C2F9002800F0FA
:10063000E58040F22000C2F200000078002800F0BF
:10064000DD8040F21500C2F200000078002800F0C2
:10065000D58040F2110040F21801C2F20000C2F24F
:10066000000100780978084340F0C88040F21D007E
:1006700000210122C2F20000017040F21600C2F215
:100680000000027040F21F00C2F20000017040F250
:100690001400C2F20000017010BD142001F092FAA3
:1006A00040F200404FF40061C4F2020000F58060A7
:1006B00000F07EF9002800F0A18040F21500C2F29F
:1006C00000000178002900F0998040F21101C2F287
:1006D00000010A78002A5CD040F200020123C2F235
:1006E0000002137040F22102C2F2000213700023D4
:1006F00040F22002037040F21800C2F200020B70B8
:10070000C2F200001370037040F21B00C2F200003E
:10071000037040F21A00C2F20000037040F21200AF
:10072000C2F20000037010BD40F22000C2F20000CF
:100730000078002862D040F21500C2F20000007874
:1007400088B140F21101C2F20001097859B140F2BA
:1007500012010022C2F200010A7040F21B010122C4
:10076000C2F200010A70002848D040F21800C2F21C
:1007700000000078002841D040F219000021C2F2A8
:100780000000017040F210000121C2F2000001706F
:1007900010BD40F21802C2F200021378002B08BF0D
:1007A00010BD40F200030124C2F200031C7040F2AD
:1007B0002103C2F200031C70002440F220030470E5
:1007C00040F21B00C2F200030C701470C2F2000071
:1007D0001C70047040F21000C2F20000047040F27D
:1007E0001A00C2F20000047040F21200C2F20000CF
:1007F000047040F21900C2F20000047010BD43F60C
:100800001441C4F201010A68024214BF0860704733
:10081000FFF77EBD2DE9F04F82B041F6004343F66D
:10082000004B08224FF0010A00264FF0000CC4F2E2
:100830000203C4F2010B984200F13E4308BF0722B5
:1008400003F1FF734FEAB327072F4FF0000738BFBC
:100850004FEAB322009200BF0A680AFA0CF812EAC3
:10086000080F00F09A80D1F804E04EF01002122A2E
:1008700012D106F01C020F2303FA02F46FF00303F7
:1008800003EA5C0505442B6AA3430C6904FA02F2EF
:100890001A432A62D1F804E0032304680EF003022D
:1008A000BEF1120F03FA07F302FA07F224EA030477
:1008B0006FEA030942EA0402026014D80AFA0EF24F
:1008C00012F0061F0FD08268CB6802EA0902BB4013
:1008D0001A438260CEF30012436802FA0CF223EA54
:1008E00008031A434260C2688B6802EA0902BB40EF
:1008F0001A43C2605FEACE024FD5002206F00C0513
:100900000F24019243F64402AC40C4F202021346A3
:10091000126842F480421A601A6802F4804201921E
:100920002CF00302019B5A444FF60843CFF6FF73A5
:100930009E46D358A343009C04FA05F52B4342F886
:100940000E30DBF800204D6842EA0803EC0358BF84
:1009500022EA0803CBF80030AC03DBF8042042EABB
:10096000080358BF22EA0803CBF80430EC02DBF896
:10097000082042EA080358BF22EA080343F60C4263
:10098000CBF80830AD02C4F201021446126842EA04
:10099000080358BF22EA080323600CF1010C023758
:1009A0000436BCF1100F04BF02B0BDE8F08F53E76E
:1009B0000069084018BF0120704742690A408A4216
:1009C00008BF090481617047002A08BF09048161DA
:1009D000704740F28C00C2F200000068704740F29D
:1009E000080040F28C01C2F20000C2F2000100785F
:1009F0000A6810440860704780B543F60040C4F2AE
:100A00000200016841F400710160016841F48061F5
:100A10000160016841F480710160032000F086F8F4
:100A2000002000F004F800F028F8002080BDB0B5E8
:100A3000044640F208004FF47A71C2F200000078D8
:100A4000B1FBF0F040F20401C2F200010968B1FB11
:100A5000F0F000F02BFC01250F2C0CD858B94FF00A
:100A6000FF3021460022002500F032F840F20C0051
:100A7000C2F2000004602846B0BD82B043F64001D7
:100A800000200190C4F202014A6842F480424A60A8
:100A90004A6802F480420192019A0090086840F08E
:100AA00080500860086800F080500090009802B004
:100AB000704700280BDB00F01F010122400902FAF9
:100AC00001F14EF20012CEF2000242F820107047FF
:100AD00010B500F00F034EF60C5E00F1604CB0F163
:100AE000FF3FA3F10403CEF2000E734403F10C04A4
:100AF000C8BF0CF56444DEF800004FF0FF3CC0F3C3
:100B00000220C31E80F0070038BF0023042828BF3E
:100B100004200CFA00F021EA00000CFA03F19840DE
:100B200022EA010108430001207010BD4EF60C516D
:100B30004FF6FF03CEF200010A681A4060F30A2262
:100B400042F0806040F0FD70086070472DE9F04190
:100B5000002800F09C8043F6000804460D46C4F2CD
:100B60000208D8F8000400F00F00884208D288F884
:100B70000054D8F8000400F00F00A84240F087802D
:100B80002068810717D5410742BFD8F8081041F403
:100B9000E051C8F80810010742BFD8F8081041F426
:100BA0006041C8F80810D8F80810A26821F0F001D8
:100BB0001143C8F80810C0072FD06068811E0229B1
:100BC00004D2D8F8001089010BD460E0012804D1C8
:100BD000D8F80010890304D459E0D8F80010890728
:100BE00055D5D8F8081021F003010843C8F80800CB
:100BF000FFF7EFFE064641F2883700BFD8F808003D
:100C0000616800F00C00B0EB810F06D0FFF7E1FE49
:100C1000801BB842F2D903243AE0D8F8000400F06F
:100C20000F00A84207D988F80054D8F8000400F053
:100C30000F00A8422BD12068410707D5D8F808102B
:100C4000E26821F4E0511143C8F80810000708D504
:100C5000D8F80800216920F4604040EAC100C8F8D3
:100C6000080000F018F8D8F8081041F60C420024EB
:100C7000C0F60002C1F30311515CC84040F2040108
:100C8000C2F2000108600020FFF7D1FE00E001245D
:100C90002046BDE8F08110B543F60404C4F2020416
:100CA000606800F00C0008280AD0042819BF42F23E
:100CB0000040C0F2F40047F64000C0F27D1010BDC5
:100CC000226820680023400202F03F0247F64000FD
:100CD000C0F27D105CBF42F20040C0F2F400216817
:100CE000C1F38811A0FB0101FFF76AFA2168022213
:100CF000C1F3014102EB4101B0FBF1F010BD000076
:100D00002DE9F04182B0002800F0148104460078FB
:100D100043F60006C4F20206C0072FD0B06800F008
:100D20000C00042823D0B06800F00C00082802D181
:100D3000706840021BD46768B7F5803F07D0306801
:100D4000B7F5A02F40F01A8140F480203060306861
:100D500040F480303060FFF73CFE05463068800389
:100D60000CD4FFF736FE401B6428F7D9A8E03068A2
:100D7000800303D56068002800F0DC8020788007BD
:100D80002ED5B06810F00C0F07D0B06800F00C0042
:100D9000082809D17068400206D43068800718D549
:100DA000E068012815D0C5E0E1680020C4F24720C2
:100DB000002900F0878001210160FFF70AFE054647
:100DC0003068800705D4FFF704FE401B0228F7D9DE
:100DD00076E03068216920F0F80040EAC100306018
:100DE0002078000725D5606988B100200121C4F270
:100DF0004720C0F8801EFFF7ECFD0546706F8007A6
:100E000017D4FFF7E6FD401B0228F7D958E0002071
:100E10000021C4F24720C0F8801EFFF7DAFD054626
:100E2000706F800705D5FFF7D4FD401B0228F7D966
:100E300046E02078400775D5306C4FF00008C000C0
:100E40000CD4CDF804804FF00108306C40F0805095
:100E50003064306C00F080500190019847F2000738
:100E6000C4F200073868C0050FD4386840F48070B9
:100E70003860FFF7AEFD05463868C00505D4FFF7BA
:100E8000A8FD401B0228F7D91AE0A768012F05D05A
:100E9000306F052F27D140F004003067306F40F0ED
:100EA00001003067FFF795FD054641F2883700BF26
:100EB000306F80072FD4FFF78CFD401BB842F7D965
:100EC000032038E000210160FFF783FD054600BFE5
:100ED000306880077FF584AFFFF77BFD411B03205F
:100EE0000229F5D927E020F001003067306F20F0AB
:100EF00004003067FFF76DFD0546002FD5D141F2A4
:100F00008837306F800706D5FFF763FD411B03204C
:100F1000B942F6D90FE0B8F1000F1EBF306C20F0D7
:100F200080503064A769002F60D0B06800F00C00DA
:100F3000082803D1012002B0BDE8F08140F200088A
:100F40000020C4F24728C8F86000FFF742FD0546BC
:100F5000022F09D13068800128D5FFF73AFD411BE7
:100F600003200229F6D9E6E7306880013ED5FFF775
:100F700030FD411B03200329F6D3DCE720F4803049
:100F80003060306820F480203060FFF722FD054695
:100F9000002F7FF4E3AE306880037FF5EFAEFFF7FC
:100FA00018FD411B03206429F5D9C4E704F11C078F
:100FB0008FCF0843D90340EA82104FF6FF72914366
:100FC00040EA0760A1F58031084370600120C8F84D
:100FD0006000FFF7FEFC04463068800106D4FFF78E
:100FE000F8FC011B03200229F6D9A4E70020A2E7A0
:100FF000A0B110B50446407920B9002020712046E8
:1010000000F00EF8022060712068016841F00401D0
:101010000160012060710020A06010BD01207047B8
:1010200040F600010068C5F20601884218BF70470B
:1010300081B00020009043F63400C4F20200016841
:1010400041F040010160006800F04000009000980D
:1010500001B0704770B5C8B3002605464FF0000CCC
:10106000866290F8510030B9284685F8506000F04B
:1010700030F8D5F828C0022185F8511029680A688F
:1010800022F040020A60D5E90123D5E903041A439E
:1010900010436A6920431043AA6902F4007318439D
:1010A000EB6918432B6A184340EA0C0008600420DF
:1010B00000EA12406A6A10434860C86920F4006080
:1010C000C86101206E6585F8510000E001263046B8
:1010D00070BD10B586B0044601A81421FFF7A8F82A
:1010E00043F200002168C4F20100814226D143F698
:1010F0003002002100F550400091C4F20202536911
:1011000043F480535361536903F480530093009B6D
:101110000091136843F001031360126802F00102AA
:101120000092009A052205920322CDE903120221C2
:101130000291E021019101A9FFF76CFB06B010BDFF
:101140002DE9F04381B0044690F85000012801D108
:101150000220A8E04FF001091D4616460F4684F80C
:101160005090FFF736FC804694F85100012857D183
:101170000120002F00F09280002E00F08F800320CD
:1011800084F8510000206065E686A6862763A08764
:10119000A063C4E91000E087A1682068B1F5004FA2
:1011A00002BF016841F480410160016849065EBFE9
:1011B000016841F0400101606268711EE368B1FAA4
:1011C00081F1B2FA82F24909B3F5006F4FEA521287
:1011D00041EA020126D131B137F8021BC160276311
:1011E000E18E0139E186E18E00293FD06E1C00E0DE
:1011F00020688168890707D4FFF7EBFB66B1A0EB95
:101200000800A84208D348E0216B31F8022BC260E5
:101210002163E08E0138E086E08E0028E8D125E0E9
:1012200002203BE039B139780173206B0130206333
:10123000E08E0138E086E08EC0B16E1C20688168C7
:10124000890707D4FFF7C5FB6EB1A0EB0800A842E1
:1012500009D322E0216B09780173206B01302063F0
:10126000E08E0138E086E08E0028E7D1204629464E
:10127000424600F0A5FB08B120206065A06838B99F
:10128000002000902068C16800918068009000985C
:10129000606D002818BF012000E00320002184F8C1
:1012A000501084F8519001B0BDE8F083411E002039
:1012B000B0EB116F1CBF012070474EF21002F023FB
:1012C000CEF2000251604EF62351CEF200010B70B7
:1012D0000721906011607047FEE700002DE9F04F94
:1012E00081B0EBB19A469046894607464FF0000B15
:1012F000002400BFB8B2494600F0A9F9B8F1000FC8
:101300000AD00A98454600EB4B06C34436F8020B58
:1013100000F0DCF9013DF9D1013401375445E9D140
:1013200001B0BDE8F08F9379012B0FD15378102BCA
:1013300018BF704780B582B002F1080C93885288BC
:10134000CDF800C0FFF7CAFF02B080BD704780B57E
:1013500082B0FF20102101228DF8070040F6000026
:10136000C4F20200FFF730FB3220FEF7BDFF40F26F
:1013700034000DF1070101220323C2F20000FFF740
:10138000DFFE02B080BD0000F0B581B00546002050
:10139000002140F23F12EF23002600F02EF92C0A24
:1013A000EDB200BFF02700BF204600F06BF92846E1
:1013B00000F068F9013FF7D10136B6F5A07F04BF10
:1013C00001B0F0BDEEE780B5FFF7C1FF00F0FEF819
:1013D000CB2000F085F9392000F054F92C2000F0E2
:1013E00051F9002000F04EF9342000F04BF90220B2
:1013F00000F048F9CF2000F073F9002000F042F926
:10140000C12000F03FF9302000F03CF9E82000F066
:1014100067F9852000F036F9002000F033F97820D4
:1014200000F030F9EA2000F05BF9002000F02AF922
:10143000002000F027F9ED2000F052F9642000F0C0
:1014400021F9032000F01EF9122000F01BF9812081
:1014500000F018F9F72000F043F9202000F012F90D
:10146000C02000F03DF9232000F00CF9C12000F06D
:1014700037F9102000F006F9C52000F031F93E20C0
:1014800000F000F9282000F0FDF8C72000F028F94E
:10149000862000F0F7F8362000F022F9E82000F06E
:1014A000F1F83A2000F01CF9552000F0EBF8B120DB
:1014B00000F016F9002000F0E5F8182000F0E2F83E
:1014C000B62000F00DF9082000F0DCF8822000F0D2
:1014D000D9F8272000F0D6F8F22000F001F900201A
:1014E00000F0D0F8262000F0FBF8012000F0CAF848
:1014F000E02000F0F5F80F2000F0C4F8312000F0F3
:10150000C1F82B2000F0BEF80C2000F0BBF80E2034
:1015100000F0B8F8082000F0B5F84E2000F0B2F85E
:10152000F12000F0AFF8372000F0ACF8072000F011
:10153000A9F8102000F0A6F8032000F0A3F80E2070
:1015400000F0A0F8092000F09DF8002000F09AF8C3
:10155000E12000F0C5F8002000F094F80E2000F023
:1015600091F8142000F08EF8032000F08BF8112081
:1015700000F088F8072000F085F8312000F082F8AC
:10158000C12000F07FF8482000F07CF8082000F02F
:1015900079F80F2000F076F80C2000F073F8312075
:1015A00000F070F8362000F06DF80F2000F06AF8B7
:1015B000112000F095F87820FEF796FE292000F023
:1015C0008FF82C20BDE8804000F08AB810B540F6B6
:1015D000000410210022C4F202042046FFF7F4F9AF
:1015E0006420FEF781FE204610210122FFF7ECF96E
:1015F0003220BDE81040FEF777BEF0B581B0074657
:101600002A201C4616460D4600F06AF8380A00F0FB
:1016100039F8F8B200F036F8300A00F033F8F0B2DA
:1016200000F030F82B2000F05BF8280A00F02AF8D0
:10163000E8B200F027F8200A00F024F8E0B200F049
:1016400021F82C2001B0BDE8F04000F049B8B0B559
:1016500005462A200C4600F043F8280A00F012F84C
:10166000E8B200F00FF82B2000F03AF8200A00F062
:1016700009F8E0B200F006F82C20BDE8B04000F018
:101680002FB80000B0B540F6000405462021002226
:10169000C4F202042046FFF797F9A4F50060102178
:1016A0000122FFF791F940F23400C2F20000006815
:1016B00081688907FCD5C56081688907FCD520460B
:1016C00020210122BDE8B040FFF77EB910B50446E5
:1016D000000AFFF7D7FFE0B2BDE81040FFF7D2BF26
:1016E000B0B540F60004054620210022C4F20204F1
:1016F0002046FFF769F9A4F5006010210022FFF7EA
:1017000063F940F23400C2F2000000688168890782
:10171000FCD5C56081688907FCD5204620210122BF
:10172000BDE8B040FFF750B92DE9F04F87B043F660
:101730003000002540F200090022CDE90555019551
:10174000C4F20200C4F20209016841F02001016004
:10175000016801F02001019101990195016841F0B2
:1017600080010160016801F08001019101990195FA
:10177000016841F001010160016801F0010101917E
:1017800001990195016841F004010160016801F0CF
:101790000401019101990195016841F00201016084
:1017A000016801F00201019101990195016841F080
:1017B00008010160016801F008010191019901959A
:1017C000016841F0400101601021006800F0400014
:1017D000019001984846FFF7F7F809F500643021B9
:1017E00000224FF0300B2046FFF7EEF809F580603D
:1017F000012101224FF001080646FFF7E5F809F53F
:10180000C05A4FF4F84101225046FFF7DDF802209C
:1018100002AF02900020CDF810803946C1F21100CD
:10182000039009F5A050FEF7F5FF1020CDE904550F
:101830003946CDE902084846FEF7ECFFCDF808B07E
:101840004FF0030B20463946CDF814B0CDE903859F
:10185000FEF7E0FF30463946CDE9045BCDE902886A
:10186000B346FEF7D7FF00264FF4C050394602902A
:101870002046C1F21106CDF810800396FEF7CAFF8C
:101880003520CDE903683946029009F54060FEF73E
:10189000C1FF4FF470500595CDE90385394602909C
:1018A0005046FEF7B7FF1120CDE9045539460390A5
:1018B0004FF4804002905046FEF7ACFF0820CDE97F
:1018C0000368394602905846FEF7A4FF062000211F
:1018D0000022FFF7FDF80620FFF7EBF807200021B4
:1018E0000022FFF7F5F80720FFF7E3F808200021B2
:1018F0000022FFF7EDF80820FFF7DBF809200021B0
:101900000022FFF7E5F80920FFF7D3F80A200021AD
:101910000022FFF7DDF80A20FFF7CBF8172000219F
:101920000022FFF7D5F81720FFF7C3F82820002181
:101930000022FFF7CDF82820FFF7BBF807B0BDE87D
:10194000F08F80B540F2240040F60001C2F20000A2
:10195000C5F206010160FFF74BFB002814BFBDE88C
:10196000804080BDFEF7BFBC10B540F2340043F2AA
:1019700000044FF482724FF4007C4FF0010E0223FA
:101980000021C2F20000C4F20104C0E900420A22B0
:10199000C0E90211C0E9043EC0E906C1C0E908116E
:1019A000C0E90A12FFF756FB002814BFBDE810403B
:1019B00010BDFEF798BC0000FEE7704770470000BE
:1019C00010B582B0044640F2040013460A4649F6B8
:1019D0008171C2F20000C1F25E610068A0FB0101EA
:1019E000480D4FF47A71484301906068B0F5827FEA
:1019F0000AD12046802100F013F870B1606D40F0EC
:101A000020006065032009E0019830B10198013899
:101A10000190206880680006F6D4002002B010BD56
:101A20002DE9F041804600680F4681683940B9428F
:101A30000ED11D461646541C34B1FEF7CAFF411B99
:101A4000D8F80000B14206D281683940B942F3D0DB
:101A50000020BDE8F081416821F0E0014160D8F844
:101A60000410B1F5827F0BD1D8F80810B1F5004F02
:101A700002D0B1F5806F03D1016821F0400101600F
:101A8000D8F82810B1F5005F07D1016821F40051A2
:101A90000160016841F400510160002088F85000A5
:101AA000012088F851000320BDE8F0817047FEF75F
:101AB00096BF70B592B006AC1421201DFEF7B8FB9E
:101AC00043F64000002502260195C4F20200016899
:101AD00041F080510160006800F080500190019851
:101AE000019547F20000C4F20000016841F4804112
:101AF0000160006800F48040019001980720119077
:101B0000A82010960F9008200E901020CDE90C65AB
:101B10000A900120099020460696FFF7F1F84FF44D
:101B20008050052105904FF4A05004900F20CDE97E
:101B30000265019001A8FFF709F812B070BD4EF6DA
:101B400008504FF0000CCEF20000D0F8801041F4A5
:101B50007001C0F8801043F60001C4F202010A6867
:101B600042F001020A60C1F808C04FF6FF720B682C
:101B7000CFF6F6621A400A6043F21002C2F2004247
:101B80004A600A6822F480220A60C1F80CC04FF053
:101B90000061016070470000FEE700004FF6FF7033
:101BA000FFF7F2FB40F2210041F61C440121C2F292
:101BB0000000C0F600040170002000212246FFF75B
:101BC000B2FBF9E770470000FEF716FFFFF771FF61
:101BD000FFF7AAFDFFF7C8FEFFF7B3FEFFF7F3FB21
:101BE0004FF6FF70FFF7D0FBFFF7D8FFFCE702E0EE
:101BF00008C8121F08C1002AFAD170477047002098
:101C000001E001C1121F002AFBD170470000000053
:101C1000000000000102030406070809080840014B
:101C2000D50060606080808080808080808080803F
:101C30008080808080A0C0C0C4C0C0C0E0E0E0E080
:101C4000E0E0E0C0C0C0C0C0C0C0E0E0C0E0C0A0F4
:101C5000A0A0A0A0A0A0C0C0C0A0A08080806080E4
:101C60008080808080A0C0C0C0C4E0E0E0E0E0E010
:101C7000E0C0C0A0808060808080A0C0C0E0E0E0C4
:101C8000C0C0A0C0C0E0C0C0A48080A0A0A08060F0
:101C90006060A0C0C0C0C0A0A0A0A0A0A0A0C0C004
:101CA000A0A0A0A08080A0C0C0C0A0606080A0A0B4
:101CB000A0C0E0E0E0E0C0C0C0E0E0E0C0E0E0E004
:101CC000E0C0C0C0C0A04020606080A080604040F4
:101CD000406080C0C0C0C0A08060406080C0C0E0E4
:101CE000C0C080606080A0A080606080A0A0C0C0F4
:101CF000C0A0A0808080606060606080A0C0C0E004
:101D0000E0E0E0C0A0A0A0A0808080C0E0E0E0C053
:101D1000C0C08020000040A0A06080A0C0C0A0A0E3
:101D2000A0C0C0C0A0A0A0A0A0C0C0E0E0E0C0A033
:101D30008060406080A0A0A0A0A0A0A0A0A0A0A0C3
:101D4000A0A0A0A0A0A080A0A0A0A0A080A0A0A0D3
:101D5000A080A0C0C0E0E0E0E0E0E0E0C0E0C0C003
:101D6000C0C460606080808080808080808080804F
:101D7000808080A0A0C0C0C0C0C0E0E0E0E0E0C0C3
:101D8000C0E0C0C0C0C0C0C0C0C0C0E0E0E0C0C0D3
:101D9000A0A0A0A0A0A0C0C0C0A0A08080606080C3
:101DA0008080808080A0C0C0C0C4E0E0E0E0E0E0CF
:101DB000E0C0C0A0808080808080A0C0C0E0E0E063
:101DC000C0C0C0C0C0E0C0E0A06080A0A0806060D3
:101DD0006080C0C0C0C0A0A0A0A0A0A0A0A0C0C0A3
:101DE000C0C0C0A0A0A0A0A0C0C0A080608080A0F3
:101DF000A0C0E0E0E0E0E0C0C0E0E0E0C0E0E0E0A3
:101E0000E0E0C0C0C0A0806040606080A080604012
:101E100040406080A0A0C0C0C0A0A0A0C0C0C0C002
:101E2000C0A060406080A08080608080A0A0C0C012
:101E3000C0A0A0A0808060606060606080A0C0E002
:101E4000E0E0E0C0A0A0A0A0808080A0E0E0E0C032
:101E5000C0C0A04000002060A0604060A0C0C0C022
:101E6000A0A0808060608080A0A0C0C0C0C0E0E072
:101E7000C0A080606080A0A0A0A0A0A0A0A0C0C0C2
:101E8000A0A0A0A0A0808060604060608080A0A032
:101E900080A0C0C0E0E0E0E0E0E0E0E0E0E4C0C05E
:101EA000C0C48060808080808080808080808080CE
:101EB000808080A0C0C0E0E0E0E0E0E0E0E0E0C0E2
:101EC000C0C0C0C0C0C0C0C0C0C0C0E0E0E0E0E072
:101ED000C0C0A080A0A0A0A0C0C0C0A08080606042
:101EE0008060808080A0C0C0C0C0E0E0E0E0E0E0B2
:101EF000E0C0C0A0808080808080A0C0C0E0E0E022
:101F0000C0C0C0C0C0E0E0E08060A0A080604060D1
:101F100080C0C0C0C0A08080A0A0A0A0A0A0A0C081
:101F2000E0E0C0C0C0C0A0A0C0C0C080608080A0F1
:101F3000A0C0C0E0E0E0E0C0C0E0E0E0C0C0E0E0A1
:101F4000E0E0C0C0C0C0A0A060606080A0A0604011
:101F50004040406060608080A0A0C0C0C0C0C0C0E1
:101F6000A080608080A0808060808080A0A0C0C0B1
:101F7000C0A0A0A080806060606060606080C0E001
:101F8000E0E0E0C0A080A0A080806080A0C0E0C0B1
:101F9000C0C0A08040000040808040406080C0C041
:101FA000A0806040404040608080A0A0A0C0C0E011
:101FB000E0C0C0A08080808080A0A0A0A0A0A0A041
:101FC000A0A0A0A0A0806040404060608080808091
:101FD000A0C0C0E0E0E0E0E0E0E0E0E0E0C0C0C0E1
:101FE000C0C08080808080A0A080808080A0808011
:101FF0008080A0C0C0E0E0E0E0E0E0E0E0C0C0C081
:10200000C0C0C0C0A0A0A0A0C0C0C0E0E0E0E0E0B0
:10201000E0C0A0A080A0A0A0A0C0A0A0A0808060E0
:102020006060606080A0C0C0C0C0E0E0E0E0E0E0D0
:10203000E0C0C0A0808080808080A0C0C0E0E0C000
:10204000C0C0C0C0C0E0E0C08080A08060404080D0
:10205000C0E0C0A080606060808080A0A0A0A0C020
:10206000E0E0C0C0C0C0A0A0C0C0C0A080608080B0
:10207000A0C0C0C0E0E0E0C0C0E0E0E0C0C0E0E080
:10208000E0E0E0C0C0C0C0A0A08060808080808010
:102090006060606060808080A0A0C0C0C0C0A0A060
:1020A0008080A0A0A0A0806080808080A0A0C0C010
:1020B000C0A0A0A080806040408060606060A0C040
:1020C000E0E0E0C0A08080A0A080606080A0C0C0F0
:1020D000C0C0C0A0804000006080604020206080C0
:1020E000A08060404040404060608080A0A0C0E090
:1020F000E0E0C0C4C4C0A0A0808080A0A0A0A0A038
:10210000A0A0A0A080604020204060808080A0A08F
:10211000C0C0C0E0E0E0E0E0E0E0E0E0E0C0C0C07F
:10212000C0C08080808080A0A0A0808080A0A0808F
:102130008080A0C0C0E0E0E0E0E0E0E0C0C0C0C05F
:10214000C0A0A0A0A0A0A0A0A0A0C0C0E0E0E0E02F
:10215000E0E0C0A0A08080A0A0A0A0A0A0A0A0605F
:102160006060606080A0C0C0C0E0E0E0E0E0E0E06F
:10217000E0C0C0A0808080808080A0C0C0E0E0C0BF
:10218000C0C0C0C0C0E0E0C0A0808080404060A06F
:10219000C0C0A0606060604040406080A0A0C0C03F
:1021A000C0C0C0A0C0C0C0A0A0C0E0C0808080806F
:1021B000A0C0C0C0E0E0E0C0C0E0E0E0C0C0E0E03F
:1021C000E0E0E0C0C0C0C0C0C0A0A080606080806F
:1021D0008080808080A0A0A0A0C0C0C0C0C0A0A0FF
:1021E00080A0A0A0A0808080808080A0A0A0C0C08F
:1021F000C0A0A0A08080604040806060406080C03F
:10220000C0E0C0C0A0808080A08080404060A0A0CE
:10221000A0A0C0C0C080602040808060200000205E
:102220004060606060604040404040608080A0A0AE
:10223000A0A0A0A0A0C0C0C0A0A0808080808080FE
:1022400080A080806040202040608080A0A0C0C02E
:10225000C0E0E0E0E0E0E0E0E0E0E0E0E0E0E0C0BE
:10226000C0C080808080A0A0A0A0A0808080A0802E
:10227000A080A0C0E0E0E0E0E0E0C0C0C0C0A0A05E
:10228000A0A0A0A080808080A0A0A0C0C0C0C0E00E
:10229000E0E0E0C0C0808080A0A0A0A0A0A0A080BE
:1022A0006060606080A0C0C0C0E0E0E0E0E0E0E02E
:1022B000E0C0C0A0A080A0808080A0C0C0E0E0C03E
:1022C000C0C0C0C0E0E0C0C0A0808060406080C0EE
:1022D000C0A06060806040404040606080A0A0C0BE
:1022E000A0C0C0C0A0C0C0A0A0C0C0C0A08080804E
:1022F000A0C0C0C0E0E0E0E0C0C0E0E0C0E0E0E0DE
:10230000E0E0C0C0C0C0C0C0C0C0A0A0806060602D
:102310006060606060808080A0A0C0C0A08080807D
:10232000A0A0806060808080808080A0A0A0C0C0CD
:10233000C0A0A0808080604040606060404060A09D
:10234000C0C0C0C0A0606080A0808040204080A04D
:10235000A0A0C0C0C0C0A080A0A0C0C0A08060805D
:1023600080A0A0A0A0A0808080808080806060602D
:1023700060404060608080A0A0A0A0A0808080809D
:1023800080806060402020406080A0C0C0E0E0E02D
:10239000E0E0E0E0E0E0E0E0E0E0E0E0E0E0E0E03D
:1023A000C0C0A0808080A0A0A0A0A0808080A080CD
:1023B000A0A0C0C0E0E0E0E0C0C0C0C0A0A0A0A05D
:1023C00080808080808080808080A0A0A0C0C0C0ED
:1023D000E0E0E0E0C0A0808080A0A0A0A0A0A0A03D
:1023E0008060606080A0C0C0C0E0E0E0E0E0E0E0CD
:1023F000E0C0C0C0A080A0A08080A0C0C0E0E0C0BD
:10240000C0C0C0C0E0E0C0C0A08060606080C0C04C
:10241000A080608080606080808080808080A0C09C
:10242000C0C0C0C0A0A0C0A0A0C0C0C0C0808080EC
:10243000A0A0C0C0C0E0E0E0C0C0E0E0C0E0E0E0DC
:10244000E0E0C0C0C0C0C0C0C0C0C0A0A08080804C
:1024500080806060404060606080808080808060BC
:10246000606060608080A080806080A0A0A0A0C02C
:10247000A0A0A0808080604040606060404060809C
:10248000A0A0C0A08060608080A08060406080C00C
:10249000C0C0C0C0C0C0C0A0A0C0C0C0C0C0C0A09C
:1024A000C0C0C0C0A0A0A0A0A0A0A0A0808080604C
:1024B0004040404040406060608080A0A0A0A0A05C
:1024C0008080606060608080A0C0C0C0E0E0E0E02C
:1024D000E0E0E0E0E0E0E0E0E0E0C0C0C0E0E0C07C
:1024E000C0C0A0A080A0A0A0A0A0A080608080808C
:1024F000A0A0C0C0E0E0E0C0C0C0A0A0A0808080DC
:102500008080808080808080808080A0A0A0C0C0EB
:10251000C0C0C0E0E0C0A0A08080A0A0A0A0A0A0FB
:102520008080606080A0C0C0C0E0E0E0E0E0E0E06B
:10253000E0C0C0C0A0A0A0A08080A0C0C0E0E0C05B
:10254000C0C0C0C0E0E0C0C0A080606080A0C0C0CB
:10255000806080A0808080A080808080606080A07B
:10256000C0C0C0C0C0A0A0C0A0A0C0E0C0A080806B
:10257000A0A0C0C0C0E0E0C0C0C0E0C0E0E0E0E0BB
:10258000E0C0C0A0A0C0C0C0C0C0C0C0C0A080800B
:10259000A0A08080604040404060404040404020DB
:1025A000204080A0A0808080606080A0A0A0A0A02B
:1025B000A0A08080806060404060606060404060BB
:1025C00080A0A0A08060406080A080808080A0C0AB
:1025D000C0C0C0C0C0C0C0C0C0A0A0C0C0C0C0C03B
:1025E000C0C0C0C0C0C0C0A0A0A0A0A0A0A0A0802B
:1025F00060606060404040606060608080A0A0A03B
:10260000A0808080A0A0C0C0C0C0C0C0C0E0E0E08A
:10261000C0C0C0C0C0C0C0C0C0C0C0C0C0C0C0C0BA
:10262000C0C0A0A080A0A0A0A0A0A080606060A06A
:10263000A0C0C0C0E0E0C0C0C0A0A0A080808080DA
:10264000808080806060606060808080A0A0A0C08A
:10265000C0C0C0E0E0C0C0C0A080808080A0A0A0BA
:10266000A080808080A0A0C0C0C0E0E0E0E0E0E00A
:10267000E0C0C0C0A0A0A0A08080A0C0C0C0C0C05A
:10268000C0C0C0C0E0E0C0C08060406080C0C0A0EA
:102690006080A0A0A0C0A0A0A0A0A0A0806060803A
:1026A000A0C0C0C0C0A0A0C0A0A0C0E0C0C0A0800A
:1026B000A0A0C0C0C0E0E0C0C0C0C0C0E0E0E0E09A
:1026C000E0C0C0A0A0A0C0C0C0C0C0C0C0A0A080CA
:1026D000A0A0A0808060404020202020200020403A
:1026E0006080A0A0A0808060606080A0A0A0A0A06A
:1026F000A0808080806060404060606060404040BA
:102700006080A0A08060406080A0A0A0A0A0C0C009
:10271000C0C0C0C0C0C0C0C0C0C0C0C0C0C0C0C0B9
:10272000C0C0C0C0C0C0C0C0C0C0C0A0A0A0A0A049
:1027300080808080806060406060606060608080D9
:1027400080A0A0A0A0C0C0C0C0C0C0C0C0C0C0C049
:10275000C0C0A0A0A0C0C0C0C0C0C0C0C0C0C0C0D9
:10276000C0A0A0A0A0A0A0A0A0A0A080606060A029
:10277000A0C0C0C0C0C0C0C0C0A0A08080808080F9
:10278000808080606060606060608080A0A0A0A0A9
:10279000C0C0C0C0C0E0E0C0A0808080808080A0B9
:1027A000A0A0808080A0A0C0C0C0E0E0E0E0E0E0A9
:1027B000E0C0C0C0A0A0A0A08080A0C0C0C0C0C019
:1027C000C0C0C0C0E0C0C0A080404060A0C0A08029
:1027D00060A0A0A0C0A0A0A0A080808080808080F9
:1027E000A0C0C0A0C0C0C0C0A0A0C0E0E0C0C0A049
:1027F000A0A0C0C0E0E0E0C0C0C0C0C0E0E0E0E039
:10280000C0C0C0A0A0A0A0C0C0C0C0C0C0C0C0C048
:10281000A0A0A0A0A0A0A080604020204060608078
:102820008080A0A0808060404060808080A0A0A0C8
:10283000A080808080606040204060606060404098
:1028400040608080806040608080A0A0C0C0C0C028
:10285000C0C0C0C0C0C0C0C0C0C0A0A0A0A0A0A038
:10286000A0A0A0A0A0A0A0A0A0A0A0A0A0A0A0A068
:10287000808080A0A0A0A0806060606060606040F8
:102880006060A0C0A0A0808080A0A08080A0A0A048
:10289000A0A0A0A0A0A0A0A0A0A0A0A0A0A0A0A038
:1028A000A0A0A0A0A0A0A0A0A0A0A080806080A0C8
:1028B000A0C0C0C0C0C0C0C0A0A0A08080808080D8
:1028C0006060606060606060606060808080A0A028
:1028D000A0C0C0C0C0C0C0C0C0A0A08060608080D8
:1028E00080808080A0A0A0C0C0C0E0E0E0E0E0E088
:1028F000E0C0C0C0A0A0A0A0A080A0C0C0E0C0C098
:10290000C0A0C0C0C0C0C08060404080C0C0A06047
:1029100080A0A0C0A0A0A0A0A0A080606080A0A077
:10292000A0A0C0C0A0A0C0C0C0A0C0C0E0E0E0C0E7
:10293000A0A0C0C0E0E0E0C0C0C0C0C0C0C0E0E037
:10294000C0C0C0A0A0A0A0A0C0C0C0C0C0C0C0C027
:10295000C4C4C0C0C0C0A0A0A0A08080808080806F
:1029600080808060604020204060808080A0A080C7
:1029700080808080606040402020406060604040F7
:1029800040406080806060406080A0C0C0C0C0C027
:10299000C0C0C0C0C0C0A0A0A0A0A0A0A0A0C0C037
:1029A000C0C0C0C0C0C0A0A0A0A0A08080A0A0A0A7
:1029B000A0A080A0A0A0A0A0A0A080604020202077
:1029C000202060A4C0C0A06060608460608080A09F
:1029D000A0A0A0A0A0A0A0A0A0A0A0A0A0A0C0A0D7
:1029E000A0A0A0A0A0A0A0A0A0A0A0808080A0A047
:1029F000A0C0C0C0C0C0C0A0A0A0808080808080D7
:102A00008080808080808080606080808080808006
:102A100080A0A0A0C0C0C0C0C0C0A0A080606080D6
:102A200080808080A0A0A0C0C0C0C0E0E0E0E0E066
:102A3000E0C0C0C0A0A0A0A0A0A0A0C0C0E0C0A056
:102A4000C0A0C0C0C0C0C08040404080C0C0806046
:102A500080A0A0C0A080A0A0C0C0A0808080A0C096
:102A6000A0A0C0C0A0A0C0C0C0A0C0C0E0E0E0C0A6
:102A7000A0A0C0C0E0E0C0C0C0C0C0C0C0C0E0E016
:102A8000C0C0C0A0A0A0A0A0C0C0C0C0C0C0C0C0E6
:102A9000C0C0C0C0C0C0C0C0C0C0C0A0A0A0A0A0D6
:102AA000A08080604020002040606080A0A0A080C6
:102AB00080808080606040402020204060606040D6
:102AC00040406080808060606080A0A0C0C0A0C0E6
:102AD000C0C0C0A0A0A0A0A0A0A0A0A0A0A0C0C056
:102AE000C0C0C0C0A0A0A0A0A0A080808080A0A0E6
:102AF000A0808080A0A0A0A0A0A0A08060402020F6
:102B000000002080A0C0C080602020406060608005
:102B1000808080808080A0A0A0A0A0C0C0C0A0A015
:102B2000A0A0A0A0A0A0A0A0A0A0A08080A0A0A0E5
:102B3000A0C0C0C0C0C0C0A0A0A0A0A0808080A035
:102B4000A0C0C0C4C4C4C0C0A0A0A0A08080606059
:102B5000608080A0A0C0C0C0C0C0C0A080806060F5
:102B600080808080A0A0A0C0C0C0C0E0E0E0E0E025
:102B7000E0C0C0C0A080A0A0A0A0A0C0C0E0C0A035
:102B8000C0A0C0C0C0C0A08040406080C0C0804025
:102B900080A0A0C0A080A0C0C0A0806080A0A0A095
:102BA000A0A0C0A0A0A0C0C0C0A0C0C0E0E0E0E065
:102BB000C0A0C0C0E0E0C0C0C0C0C0C0C0C0E0E0B5
:102BC000C0C0C0A0A0A0C0C0C0C0C0C0C0C0C0C065
:102BD000C0C0C0C0C0C0C0C0C0C0C0C0C0C0C0C0F5
:102BE000C0C0A0804020202040608080A0A08080C5
:102BF0008080808060604040202020406060606075
:102C000060808080808080606080A0A0C0C0A0A024
:102C1000A0A0A0A0A0A08080808080A0A0C0C0C0F4
:102C2000C0C0C0A0A0A0A0A0A0A080808080808004
:102C30008080808080A08080A0A0A0A08060404094
:102C40002020204060A0C0A0604020404040606044
:102C500080808080A0A0A0A0A0A0A0C0C0A0A0C094
:102C6000C0C0A0A0A0A0A0A0A0A080A0A0A0A0A044
:102C7000A0C0C0C0C0C0C0A0A0A0A0A0A0C0C0C034
:102C8000E0E0E0E0E0E0E0E0E0E0C0C0C0A08060C4
:102C900060608080A0A0C0C0C0C0C0C0A0808060B4
:102CA00060808080A0A0C0C0C0C0C0E0E0E0E0E0E4
:102CB000E0C0C0C08080A0A0A0A0A0C0C0C0C0A034
:102CC000A0A0C0C0E0C0A08040606080C0C08060A4
:102CD000A0A0A0C0A0A0A0A0A080606080A0A0A094
:102CE000A0A0A0A080A0C0C0A0A0C0C0E0E0E0E084
:102CF000C0A0C0C0C0E0C0C0C0C0C0C0C0E0E0E074
:102D0000C0C0C0C0C0C0C0C0C0C0C0C0C0C0C0C0C3
:102D1000C0C0C0C0C0C0C0C0C0C0C0C0C0C0C0C0B3
:102D2000C0C0C0C0C0A4A4A080808080806060803B
:102D300080808080606060404020202040608080F3
:102D4000808080A0A0808080A0A0A0A0A0A0A0A043
:102D5000A0A0A0A0808080808080A0A0A0C0C0C0D3
:102D6000C0C0C0A0A0A0A0A0A0A0808080808080C3
:102D70008080808080A08080808060404020408073
:102D80008080808080808080806060606060608003
:102D9000808080A0A0A0A0A0A0A0A0A0A0A0C0C053
:102DA000C0C080A0A0A0A0A0A0A0A0A0C0C0A0A0C3
:102DB000A0C0C0C0C0C0C0A0A0A0C0C0C0E0E0E033
:102DC000E0E0E0E0E0E0E0E0E0E0E0E0E0C0C0A083
:102DD0008080808080A0A0C0C0C0C0C0A0A0806053
:102DE00060608080A0A0C0C0C0C0C0C0E0E0E0E0E3
:102DF000C0C0C0C08080A0A0A0A0A0C0C0C0C0A013
:102E0000A0A0C0C0E0C0C08040406080C0C0806062
:102E1000A0A0A0C0A0A0A0A08060606080A0A0A092
:102E2000A0A0C0A080A0C0C0A0A0C0C0E0E0E0E022
:102E3000E0C0C0C0C0C0C0C0A0A0C0C0E0E0E0C052
:102E4000C0C0C0C0C0C0C0C0C0C0C0C0C0C0C0C082
:102E5000C0C0C0C0C0C0C0C0C0C0C0C0C0C0C0E052
:102E6000E0E0C0C0C0C0C0C0C0A0A0A08080808082
:102E70008080808080606060404020202060808072
:102E800080808080808080A0A0A0A0A0A0A0A0A022
:102E9000A0A080808080606080A0A0C0C0C0C0C0B2
:102EA000C0C0C0C0A0A0A0A0A0A0A0A0A080808002
:102EB00080808080808080808080602020202060D2
:102EC000A0A0A0A0A0A08080606060606060606042
:102ED00060808080808080808080A0A0C0C0C0C0D2
:102EE000C0C080A0A0A0A0A0A0A0A0C4C0C0A0A05E
:102EF000C0C0C0C0C0C0A0A0A0C0C0C0E0E0E0E0B2
:102F0000E0E0E0E0E0C0C0C0C0C0C0E0E0C0C0C0E1
:102F1000C0A080808080A0A0C0C0C0C0C0A0A08091
:102F200060606080A0A0C0C0C0C0C0C0E0E0C0C001
:102F3000C0C0C0C0A080A0A0A0A0A0C0C0C0C0A0B1
:102F4000A0A0C0C0E0C0C480604040A0E0C0A0809D
:102F500080A0A0C0A0A0A0A08060608080A0A0A051
:102F600080A0C0A080A0C0C0A0A0C0C0E0E0E0E001
:102F7000E0C0C0C0C0C0C0A0A0C0C0C0E0E0E0C011
:102F8000C0C0C0C0C0C0C0C0C0C0C0C0C0C0C0C041
:102F9000C0C0C0C0C0C0C0C0C0C0C0C0C0C0C0C031
:102FA000C0C0C0C0C0C0C0C0C0C0C0C0C0A0A0A081
:102FB000A08080808080606060404020206080A091
:102FC000A0A080A0A0A0A0A0A0A0A0A0A0A0A0A021
:102FD000A080808080606080A0A0C0C0C0C0C0C051
:102FE000C0C0C0C0C0C0A0A0A0A0A0A0A0C0A0A001
:102FF0008080808080806060808080604020202091
:103000004060808080808060404040404020204080
:1030100040406060606080808080A0A0C0C0C0C070
:10302000C0C080A080A0A0A0A0A0C0C0C0C0A0A020
:10303000C0C0C0C0C0C0A0C0C0C0C0C0C0E0E0E050
:10304000C0C0C0C0C0C0C0C0C0C0C0C0C0C0C0C080
:10305000C0C0A080608080A0A0C0C0C0C0A0A08070
:1030600060606080A0A0A0C0C0C0C0C0C0C0C0C020
:10307000C0C0C0C0A08080A0A0A0A0A0C0C0C0A0B0
:10308000A0A0C0C0E0E0C0A4604040A0C0C0C0A0FC
:1030900080A0A0A0A0A0A0A080808080A0A0A080F0
:1030A000A0A0A080A0C0C0A0A0A0C0C0E0E0E0E0C0
:1030B000E0C0C0C0C0C0C0A0A0A0C0C0C0E0E0C010
:1030C000C0C0C0C0C0C0C0C0C0C0A0C0C0C0C0C020
:1030D000C0C0C0E0E0E0C0C0C0C0C0C0C0C0C0C090
:1030E000C0C0C0C0C0C0C0C0C0C0C0C0C0C0A0A020
:1030F000A0A0A0A0A080808080606040406080A0F0
:10310000A0A080A0A0A0A0A0A0A0A0A0808080805F
:1031100080808060606080A0C0C0C0C0C0C0C0C0EF
:10312000C0C0C0C0C0C0C0A0A0A0A0A0C0C0C0C03F
:10313000C0A080808060608080A0A080804020202F
:10314000202020404040404020200000000020205F
:10315000404060608080808080A0A0C0C0C0C0C0AF
:10316000C0C080A080A0A0A0A0C0C4C0C0C0A0A0BB
:10317000C0C0C0C0C0C0C0C0C0E0C0C0C0C0C0C02F
:10318000C0A0A0A0A0A0A0A0A0A0A0A0A0C0C0C0BF
:10319000C0A0A08060608080A0A0C0C0C0A0A0A08F
:1031A00080606080A0A0A0A0A0C0C0C0C0C0C0C0FF
:1031B000C0C0C0C0C0A080A0A0A0A0A0C0C0C0A02F
:1031C000A0A0A0C0E0E0C0C4A46060A0C0A0A0C057
:1031D000A0A0C0C0A080A0A0A08080A0C0C0A0A0CF
:1031E000C0C08080A0C0A08080A0C0C0E0E0E0E0BF
:1031F000E0C0C0C0C0C0A0A0A0A0C0C0C0C0E0C00F
:10320000C0C0C0C0C0C0C0C0C0A0A0A0A0C0C0C03E
:10321000C0C0C0C0C0C0C0C0C0C0C0C0A0A0A0A02E
:10322000A0C0C0A0C0C0C0C0C0C0C0C0A0A0A0807E
:10323000808080808080808080808060608080A0AE
:10324000A0A0A0A0A0A0A0A0A0A0A080808080603E
:103250006060606080A0A0A0C0C0C0C0C0C0C0C08E
:10326000C0C0C0C0C0A0A0A0A0A0A0A0C0C0C0C03E
:10327000C0C4C0A080606080A0A0A0A0A0804020AA
:10328000202020000000000000000000002020405E
:10329000406080808080808080A0C0C0C0C0C0C0EE
:1032A000C0C0A0A0A0A0A0A0A0C0C4C0C0C0A0A03A
:1032B000C0C0C0C0A0C0C0C0C0C0C0C0C0C0C0A04E
:1032C000A0A0A080808080A0A0A0A0C0C0C0C0C0DE
:1032D000C0C0A0A08060608080A0A0A0C0C0A0A04E
:1032E0008080608080A0A0A0A0C0C0C0C0C0C0C0BE
:1032F000C0C0C0C0C0A0A0A0A0A0A0C0C0C0C0A0AE
:10330000A0A0A0C0C0E0E0C0C0A080A0C08080A0FD
:10331000A0A0C0C0A08080A0C0C0C0C0C0C0A0C0CD
:10332000C0A06080C0C0808080A0C0C0E0E0E0E0BD
:10333000E0C0C0C0C0C0A0A0A0A0C0C0C0C0E0E0AD
:10334000C0C0C0C0C0C0C0C0A0A0A0C0C0C0E0E09D
:10335000C0C0C0C0C0C0C0C0C0C0C0C0C0A0A0A0CD
:10336000A0A0A0A0A0C0C0C0C0C0C0C0A0A0A0809D
:10337000808080808080808080808080808080A02D
:10338000A0A0A0A0A0A0A0A0A0A08080806060605D
:1033900060606080A0A0C0C0C0C0C0C0C0C0C0C0CD
:1033A000C0C0A0A0A0A0A0A0A0A0A0A0A0C0C0C07D
:1033B000C0E0C0C0806060808080A0A0A0A08040ED
:1033C00020200000000000000000000020404060BD
:1033D000808080A0A08080A0C0C0C0C0C0C0C0C08D
:1033E000C0C0A0A0A0A0A0A0C0C4E0E0C0C0A0A099
:1033F000C0C0C0C0C0C0C0E0C0C0C0C0C0A0A0802D
:10340000808080808080A0A0A0A0C0C0C0C0C0C0BC
:10341000C0C0C0C0C08060608080A0A0A0A0A0A0EC
:10342000A080606080A0A0A0A0C0C0C0C0C0C0C07C
:10343000C0C0C0C0C0C0A0A0A0A0A0A0C0C0C0A06C
:10344000A0A0A0C0C0E0E0E0E0E0C0A0A08060805C
:10345000C0C0C0C0A0A0A4C0C0C0C0E0E0C0E0E048
:10346000C08080A0C0A0608080A0A0C0E0E0E0E0BC
:10347000E0C0C0C0C0C0A0A0A0A0C0C0C0C0E0E06C
:10348000E0C0C0A0A0A0C0C0C0C0C0C0E0E0E0E0FC
:10349000E0E0E0C0C0C0C0C0C0C0C0C0C0A0A0A02C
:1034A000A0A0A0A0A0A0A0A0A0A0A0A0A0A080805C
:1034B000808080808080808080808080808080A0EC
:1034C000A0A0A0A0A0A0A0A08080808060604040BC
:1034D000406080A0A0C0C0C0C0C0C0C0A0A0C0C08C
:1034E000C0C0A0A0A0A0A0A0A0A0A0A0A0A0A0C07C
:1034F000C0E0E0C0A0606060606080A0A0A0A0808C
:1035000040000000000000000000202040406060FB
:10351000808080808080A0C0C0C0C0C0C0C0A0A08B
:10352000C0C0A0A0A0A0A0C0E0E0E0E0C0C0A0A0FB
:10353000C0C0A0C0C0C0C0E0C0C0C0A0A08080808B
:10354000808080808080A0A0A0C0C0E0E0E0E0E0BB
:10355000E0C0A0A0C0A08060608080A0A0A0A0A0CB
:10356000A080808080A0A0A0A0C0C0C0C0C0C0C0FB
:10357000C0C0C0C0C0C0A0A0A0C0A0A0A0A0C0A04B
:10358000A0A0A0C0C0E0E0E0E0E0E0E0A06040601B
:10359000A0C0C0C0A0A0A0C0E0E0E0E0E0E0E0C0CB
:1035A000A080A0C0C0806080A0A0A0C0E0E0E0E05B
:1035B000E0C0C0C0C0C0A0A0A0C0C0C0C0C0C0C04B
:1035C000C0C0C0C0C0C0C0C0E0E0E0E0E0E0E0E0FB
:1035D000E0C0C0C0C0C0C0C0C0A0A0A0A0A0A0A0AB
:1035E000A0A0A0A0A0A0A0A0A0A0A0A0A0A080801B
:1035F000808080808080808080808080808080A0AB
:10360000A0A0C0C0A0A0A0808080606040404040DA
:103610006080A0C0C0C0C0C0C0C0A0A0A0A0A0A02A
:10362000A0A0A0A0A0A0A0A0A0A0A0A0A0A0A0A09A
:10363000C0E0E0E0C080606060608080A0A0A0A0EA
:1036400080400000000000000020404040606060BA
:103650006060606080A0C0C0E0C0C0C0C0C0C0C02A
:10366000E0E0A0A0A0A0A0E0E0E0E0E0C0C0A0A05A
:10367000A0A0C0C0C0C0C0C0C0C0A0A0808060600A
:103680006080808080A0A0A0C0C0E0C0C0C0C0E0BA
:10369000C0C0A0A0A0C0A08080808080A0A0A0A06A
:1036A000A08080808080A0A0A0A0C0A0A0A0A0A09A
:1036B000A0A0C0C0C0C0C0A0A0C0C0C0A0A0A0A00A
:1036C000A0A0A0C0C0E0E0E0C0E0E0E0C0804040DA
:1036D00080A0A080A0A0C0C0C0E0E0E0E0C0C080AA
:1036E00060A0C0C0A0808080A0A0C0C0E0E0E0E0FA
:1036F000C0C0C0C0C0A0A0A0C0C0C0C0C0C0C0C02A
:10370000C0C0C0C0C0C0C0C0E0E0E0E0E0E0C0C0F9
:10371000C0C0C0C0C0C0A0A0A0A0A0A0A0A0A0A0E9
:1037200080A0A0A0A0A0A0A0A0A0A0A0A0A08080F9
:103730006060606080808060606060808080A0A049
:10374000A0A0C0C0A0A080808060604040204060F9
:1037500080A0C0C0C0C0C0C0C0C0A0A0A0A0A0A089
:10376000A0A080808080A0A0A0A0A0A080A0A0A0F9
:10377000C0C0E0E0C0A0604060608080A0A0A0A0C9
:10378000A0800000000000000020404060606060F9
:1037900060606080A0C0C0C0E0C0C0C0C4E0E0E025
:1037A000E0E0A0A0A0A0C0E4E0E0E0E0C0C0A0A0F5
:1037B000A0A0C0C0C0C0C0C0C0A0A0A080806060E9
:1037C0006080808080A0C0C0C0C0C0C0C0C0A0A0B9
:1037D000A0C0C0C0A0A0A0A0A0A0808080A0A0A0E9
:1037E000A0808080808080A0A0A0A0A0A0A0A0A099
:1037F000A0A0A0C0C0C0C0A0A0C0C0C0C0A0A0A0C9
:10380000A080A0C0C0E0E0C0C0C0E0E0E0C0806038
:10381000606080A080606080A0A0C0C0A080608048
:10382000A0C0A0A0A0A08080A0A0C0E0E0E0E0E058
:10383000C0C0C0C0C0A0A0A0C0C0C0C0C0C0C0C0E8
:10384000C0C0C0C0C0C0C0C0C0E0E0C0C0C0C0C038
:10385000C0C0C0C0C0A0A0A0A0A0A0A0A0C0C0C068
:10386000C0C0C0A0C0C0C0A0A0A080808080808058
:1038700060606060606060606060608080A0A0A048
:10388000A0A0C0A0A0A0808060604040404080A078
:10389000C0C0C0C0C0C0C0C0C0C0A0A0A080808048
:1038A00080808080808080A0A0A0A080808080A078
:1038B000A0C0C0E0C0C0806060608080A0A0A0C048
:1038C000A0A0400000000000202040406060604058
:1038D000406060A0C0C0C0C0C0C0C0C0C0C0E0E008
:1038E000E0E0A0A0A0A0C4E0E0E0E0E0C0A0A0A0D4
:1038F000A0A0C0C0C0C0C0A0A0A0A08080808080C8
:1039000080808080A0C0C0C0C0C0C0C0C0A0808077
:10391000A0C0C0E0C0A0A0A0C0C080808080A0A047
:10392000A080808080808080A0A0A0A0A0A0A0A077
:10393000A0A0A0C0C0C0C0C0A0C0C0C0C0C0A0A047
:10394000A08080A0C0C0E0E0C0A0C0E0E0E0C080F7
:1039500060406080A0A0A0A0A0A0A080606080C007
:10396000C0A0A0C0C0A080A0A0C0E0E0E0E0E0E077
:10397000C0C0C0C0A0A0A0A0C0C0C0C0C0C0C0C0C7
:10398000C0C0C0C0C0C0C0C0C0C0C0C0C0C0C0C037
:10399000A0A0A0A0A0A0A0A0A0A0C0C0E0E0E0E0E7
:1039A000C0C0C0A0A0C0C0A0A0A080808080808037
:1039B000606060606060606040606080A0A0A0A007
:1039C000A0A0A0A0A0A080604040404060A0C0C0D7
:1039D000C0C0C0C0C0C0C0A0A0A0A0A08080808087
:1039E00080808080A0A0C0C0C4C4C0A0A08080800F
:1039F000A0A0C0C0C0C0A0606060608080A0A0C067
:103A0000C0A0802000000000204040606040404096
:103A1000406080C0C0C0C0C0A0A0C0C0C0C0C0C006
:103A2000C0C0A0A0A0C0C0E0E0E0E0E0C0A0A0A0B6
:103A3000A0C0C0C0C0C0C0A0A0A0808080608080A6
:103A4000808080A0C0C0C0C0C0C0C0A0A080606096
:103A50006080A0C0C0C0A0A0C0C0A08080808080C6
:103A6000A0A080808080808080808080808080A0F6
:103A7000A0A0A0C0C0C0C0C0A0C0C0C0E0C0C0A0C6
:103A8000A0808080A0C0E0E0C0A0A0C0C0E0E4C0F2
:103A9000A0806060606080808060608080A0C0C026
:103AA000A0A0C0C0C0A0A0A0C0C0E0E0E0E0E0C016
:103AB000C0C0C0C0A0A0A0A0C0C0C0C0C0C0C0C086
:103AC000C0C0C0C0C0C0C0C0C0C0C0C0C0C0C0A016
:103AD000A0A0A0A0A0C0C0C0C0C0C0E0E0E0E0E0E6
:103AE000E0C0C0C0A0C0A0A0A0A0808080808080D6
:103AF000606060606060404040608080A0A0A0A0E6
:103B0000A0A0A0A0A080604040404080A0C0E0C035
:103B1000C0C0C0C0C0A0A0A0A08080808080A0A0A5
:103B2000A0A0C0C0C0E0E0E0E0E0E0E0C0A0A08075
:103B300080A0C0C0C0E0A0806060608080A0A0A025
:103B4000C0A0A060200020202040406040404040B5
:103B50004060A0C0E0E0C0A0A0A0C0C0C0C0C0C085
:103B6000C0A0A0A0C0C0E0E0E0E0C0C0C0A0A0A095
:103B7000A0C0C0C0C0C0C0A0A0A0808060606080A5
:103B80008080A0C0C0C0C0C0C0A0A0808060402015
:103B9000204060A0C0C0C0A0A0A0808080808080A5
:103BA000A0808080808080808080808080808080F5
:103BB000A0A0A0C0C0C0C0C4A0A0C0C0E0E0C0A081
:103BC000A080808080A0C0E0E0C0C0A0A0C0C0E015
:103BD000E0C0806060406060608080A0A0A0A080A5
:103BE000A0C0C0C0A080A0C0C0E0E0E0E0E0E0C0B5
:103BF000C0C0C0A0A0A0A0A0C0C0C0C0C0C0C0C065
:103C0000C0C0C0C0C0C0C0C0C0C0A0A0A0A0A0A074
:103C1000A0C0C0C0C0C0C0C0C0C0C0E0E0E0E0E024
:103C2000E0C0C0A0A0A0A0A0A0A0A08080808080B4
:103C30006040404040404040406080A0A0A0A0A024
:103C4000A0A0A0A080806040406080C0C0C0E0C054
:103C5000C0C0C0C0A0A0A0A08080A0A0A0C0C0C0C4
:103C6000E0E0E0E0E0E0E0E0E0E0E0E0E0E0C0A0B4
:103C7000A0A0A0C0C0E0C0A0A08080808080A0A044
:103C8000A0A0C0A0402020404040404040404040D4
:103C90006080A0C0C0C0C0A0A0A0C0E0E0C0C0A024
:103CA0008080A0A0C0C0E0E0E0C0C0C0C0A0A0A0D4
:103CB000A0C0C0C0C0C0C0C0A0A080606060606084
:103CC00080A0C0C0C0C0C0C0A0A080606040202054
:103CD00000002060A0C0C0A0A0A08080A080808044
:103CE0008080808080808060608080808080808014
:103CF000A0A0A0C0C0C0C0C4C0A0C0C0E0E0C0C000
:103D0000A08080808080C0E0E0E4E4E4C0C0C0E047
:103D1000E0E0E0C0A0808080A0A0A0A08060408003
:103D2000C0E0C0A080A0A0C0E0E0E0E0E0E0E0C033
:103D3000A0C0C0A0A0A0A0A0C0C0C0C0C0C0C0C043
:103D4000C0C0A0A0A0A0C0C0A0A0A0A0A0C0C0C093
:103D5000C0C0C0C0E0E0E0E0E0E0C0C0C0C0C0C0A3
:103D6000C0C0C0A0A0A0A0A0A0A0A0A08080808073
:103D70006040404040404040406080A0A0A0C0A0C3
:103D8000A0A0A0A08060606080A0C0C0C0C0C0C073
:103D9000C0C0C0A0A0A0A08080A0A0C0C0C0E0E023
:103DA000E0E0E0E0E0E0E0E0E0E0E0E0E0E0E0E40F
:103DB000C0C0C0C0C0E0E0C0C0A0A080808080A023
:103DC000A0A0C0A060204040404040202020406093
:103DD00080A0C0C0C0C0A080A0A0C0E0E0C0C06003
:103DE000606080C0C0E0E0C0C0C0C0C0A080A0A033
:103DF000A0C0C0C0C0C0C0C0C0A080604060608023
:103E0000A0C0C0C0C0C0C0A0A08080808060604052
:103E10002000004080C0C0A0A0A0A080A080808022
:103E20008080808080808060606080806080808012
:103E300080A0A0C0C0C0C0C4C0A0C0C0E0E0C0C0DE
:103E4000C0A080806080A0C0E0E0E0E0E0E0E0E0D2
:103E5000E0C0C0E0E4C4C0C0A0A080606080A0C09A
:103E6000C0C4A08080C0C0E0E0E0E0E0E0E0C0C00E
:103E7000C0C0C0A0A0A0A0C0C0C0C0C0C0C0C0C0C2
:103E8000C0A0A0A0A0A0A0A0A0A0A0C0C0C0C0C072
:103E9000C0C0C0C0C0C0E0E0E0E0C0C0C0C0C0C0A2
:103EA000C0C0A0A0A080A0A0A0A0A0A0A080806072
:103EB0006040404040404040408080A0A0A0A0A082
:103EC000A0A0A080808080A0C0E0E0C0C0C0C0C032
:103ED000C0C0A0A0A0A0A0A0A0C0C0C0C0C0C0E0A2
:103EE000E0E0E0E0E0E0E0E0E0E0E0E0E0E0E0E0D2
:103EF000E0E0E0C0C0E0E0E0C0C0A0A0808080A022
:103F0000A0A0C0C080404040402020202020408011
:103F1000A0A0C0C0C0A0A080A0C0C0E0E0C0A060C1
:103F20006060A0C4C0E0E0C0C0C0C0A0A08080802D
:103F3000A0C0C0C0C0C0C0C0C0A06040404060A021
:103F4000C0C0C0C0C0C0A0A0A0A0A0A0A0A0A080D1
:103F50006040404080C0C0C0A0A08080A0A0808001
:103F60008080808080808060606080806060608011
:103F70008080A0A0C0C0C0C0C4A0A0C0E0E0E0C0DD
:103F8000C0A08060606080A0C0E0E0E0E0E0E0E031
:103F9000E0E0E0E0E0E0E0E4E4C0C0C0C0C0E0E0B9
:103FA000C4A080A0C0C0E0E0E0E0E0E0E0C0C0C0AD
:103FB000C0C0A0A0A0A0A0C0C0C0C0C0C0C0C0C0A1
:103FC000C0A0A0A0A0A0A0A0A0A0C0C0C0C0C0C011
:103FD000C0C0C0C0E0E0E0E0E0E0C0C0C0C0C0A041
:103FE000A0A0A0A0A080A0A0A0A0A0A080806060B1
:103FF00060404020204040404080A0A0A0A0A0A061
:10400000A0A0A08080A0C0C0C0E0E0C0C0C0C0C070
:10401000C0C0C0C0C0C0C0C0C0C0C0C0C0C0C0C0A0
:10402000C0C0C0C0C0C0C0C0C0C0C0C0E0E0E0E010
:10403000E0E0E0E0E0E0E0E0C0C0C0C0A0A0A0A000
:10404000A0A0C0C0A06040404020200000204080D0
:10405000A0C0C0C0A0A48080A0C0E0E0C0C08060BC
:104060006060C4C4C0E0E0E0C0C0A0A0808080A0C8
:10407000A0C0C0C0C0C0C0C0A0806040404080C0E0
:10408000C0C0C0C0C0C0C0C0A0A0A0C0C0C0C0A0B0
:104090008080606080C0C0C0A0A0806080A0A08040
:1040A0008080808080808060606080808060808090
:1040B0008080A0A0C0C0C0C0C0A0A0C0E0E0E0E080
:1040C000C0C0806060606080A0C0E0E0E0E0E0E050
:1040D000E0E0E0E0E0E0E0E0E0E0E0E0E4C4C48074
:1040E0008080A0C0E4E4E0E0E0E0E0E0E0C0A0C068
:1040F000C0C0A0A0A0A0C0C0C0C0C0C0C0C0C0C040
:10410000C0A0A0A0A0A08080A0A0C0C0C0E0C0C0EF
:10411000C0C0C0C0C0C0C0C0C0C0C0C0C0C0A0A0DF
:10412000A0A0A0A0A0A0A0A0C0C0A0A0806060602F
:1041300060402020204040406080A0A0A0A0A0A01F
:10414000A0A0A0C0C0C0C0C0C0C0C0C0C0C0E0E08F
:10415000E0E0E0E0C0C0C0C0C0C0C0E0E0E0E0E03F
:10416000E0E0E0E0E0C0C0C0C0C0C0C0C0C0E0E06F
:10417000E0E0E0E0E0E0E0E0E0C0C0A0A0C0C0C05F
:10418000C0A0A0C0A08040402020000000204080AF
:10419000A0C0C0C0A0806080A0C0E0E0C0A080A09F
:1041A0008060C4C0C0E0E0E0C0C0A0A0808080A06B
:1041B000A0C0C0C0C0C0C0C0A0804020204080C0FF
:1041C000C0C0C0A0C0C0C0C0A0A0A08080A0A0806F
:1041D0006080808060C0C0C0C0A0806080A0A080DF
:1041E000608080808080806060608080808080804F
:1041F0008080A0A0C0C0C0C0C0C4A0C0C0E0E0C05B
:10420000C0C0A0806060606080A0C0C0E0E0E0E06E
:10421000E0E0E0E0E0E0E0E0E0E0E0C4A480404096
:1042200060C0E0E0E4E4E0E0E0E0E0E0E0C0A0C0A6
:10423000C0C0A0A0A0A0C0C0C0C0C0C0C0C0C0C0FE
:10424000A0A0A0A0A0A080A0C0C0C0E0E0E0E0E0EE
:10425000E0C0C0C0C0C0C0C0C0C0C0C0C0C0C0C03E
:10426000C0A0A0A0A0A0A0A0C0C0C0A080604040EE
:1042700040402020202040406080A0A0A0A0A0A01E
:10428000C0C0C0C0C0C0C0C0C0C0C0E0E0E0E0E08E
:10429000E0E0E0E0C0C0C0C0E0E0E0E0E0E0E0E09E
:1042A000E0E0E0E0E0E0C0C0C0C0C0C0C0C0C0E02E
:1042B000E0E0E0E0E0E0E0E0E0E0C0C0C0A0A0A01E
:1042C000A0A0A0A0A0A0804020000000002040806E
:1042D000A0C0C0A0A0404080C0C0E0E0E0C0A0A05E
:1042E0008080E0C0C0E0E0C0C0C0A0A0808080A00E
:1042F000C0C0C0C0C0C0C0C0C06020202060A0C07E
:10430000C0C0A0A0C0E0C0A0A0806060606080804D
:104310004040608060A0C0C0C0A08060A0A0A0801D
:10432000608080808080808060608080808080600D
:104330006080A0A0C0C0C0C0C0C0A0A0C0E0E0E03D
:10434000C0C0A0808060404080A0A0C0C0C0C0C0ED
:10435000C0C0C0C0E0E0E0E0C0C0A08040406080DD
:10436000A0E0E0E0E0E0E0E0E0E0E0E0C0A0A0A06D
:10437000A0A0A0A0C0C0C0C0C0C0C0C0C0C0C0C0BD
:10438000A0A0A0A0A0A0A0C0E0E0E0E0E0E0C0E02D
:10439000E0C0C0C0C0C0C0C0C0C0C0C0C0C0E0E0BD
:1043A000C0C0A0A0A08080A0A0C0C0C0A0604040AD
:1043B00040404020202040408080A0A0A08080A0DD
:1043C000C0C0A0C0C0C0E0E0E0E0E0E0E0E0E0E0CD
:1043D000E0E0C0C0C0E0E0E0E0E0E0E0E0E0E0E03D
:1043E000E0E0C0E0E0E0E0E0C0C0A0A0A0C0C0C04D
:1043F000C0C0C0C0E0E0E0E0E0E0E0E0E0C0C0A0BD
:10440000A0A0A0A0A0C0C08020000000002040808C
:10441000A0A0A080602040A0C0C0C0E0E0E0C0A09C
:104420008080C0C0E0E0E0E0C0C0A0A08080A0C06C
:10443000C0C0C0C0C0C0C0C0C06020204080A0C0FC
:10444000C0A0C0C0C0E0C0C0A0606060604060A00C
:104450008040206080A0C0C0C0A08060A0A0A080DC
:1044600060608080808080806060808080808060EC
:104470006080A0A0C0C0C0C0C0C0A0A0C0C0E0E01C
:10448000E0E0C0A0806060406060A0C0E0E0E0E0EC
:10449000C0A0806040404040404040406080A0C09C
:1044A000C4E4E0E0E0E0E0E0E0E0E0C0A0A0A0A044
:1044B000A0A0A0C0C0C0C0C0C0C0C0C0C0C0C0A07C
:1044C000A0A0A0A0A0C0C0E0E0E0E0E4C0C0C0C0E8
:1044D000C0C0C0E0E0E0E0C0C0C0A0A0C0C0C0C09C
:1044E000C0C0C0A080808080A0A0C0C0A0A080402C
:1044F000404040202020406080A0A0A0A08080A05C
:10450000A0C0A0C0C0C0E0E0E0E0E0E0E0C0C0C00B
:10451000C0C0C0E0E0E0E0E0E0E0E0E0E0E0E0E0FB
:10452000E0C0C0C0C0C0E0E0E0C0C0A0A0A0A0A0AB
:10453000A0C0C0C0C0C0E0E0E0E0E0E0E0E0C0C09B
:10454000A0A0A0A0A0A0C08020000020202040802B
:10455000A0A08060402060A0C0C0C0E0E0E0C0A09B
:10456000A0A0C0C0E0E0E0E0C0C0A0A08080A0C0EB
:10457000C0C0E0C0C0C0C0C0C060202060A0C0A05B
:10458000A0A0E0C0C0C0A0C080604040606060A04B
:10459000A0602020A0A0C0C0C0A08080A0C0A0803B
:1045A00060608080808080808060608080808060AB
:1045B0006080A0A0C0C0C0C0C0C0A0A0A0C0C0E01B
:1045C000E0E0E0C0A0808060404060C0E0E0E0E06B
:1045D000E4E4C4806060606060608080A0C0E0E06F
:1045E000E0E0E0E0E0E0E0E0E0E0E0C0A0A080802B
:1045F000A0A0C0C0C0C0C0C0C0C0C0C0C0C0C0A01B
:10460000A0A0A0A0C0E0E0E0E0E0E0C0C0C0E0C04A
:10461000C0C0E0E0E0E0E0C0C0A0A0A0A0C0C0C07A
:10462000C0C0C0A0A080808080A0C0C0C0C0A0804A
:10463000606040404040406080A0A0A0A08080A07A
:10464000A0A0A0C0C0C0E0E0E0E0E0E0C0C0A0A04A
:10465000C0C0E0E0C0C0C0C0C0C0C0C0C0C0C0C01A
:10466000C0C0C0C0C0C0C0C0C0C0E0C0A0A0A0A0AA
:10467000A0A0A0C0C0C0C0E0E0E0E0E0E0C0C0C0DA
:10468000C0A0A0A0A0C0C0A040202020202040604A
:1046900080806020204080C0E0E0E0E0E0E0C0A05A
:1046A000C0C0E0E0E0E0E0E0C0C0A0A08080C0C00A
:1046B000C0C0E0C0C0C0E0C0C080204080A0A0A0BA
:1046C00080A0E0C0A0C0A0A080604040606080A04A
:1046D000C0602020A0A0C0C0C0A08080A0C0A080DA
:1046E000606080808080808080606080808080804A
:1046F000608080A0A0C0C0C0C0C0C0A0A0A0C0C03A
:10470000C0E0E0E0C0C0A08060404060A0C0E0E049
:10471000E0E0E0E0C0C0A0A0A0A0C0C0E0E0E4E015
:10472000E0E0E0E0E0E0E0E0E0E0C0A0808080A049
:10473000A0C0C0C0C0C0C0C0C0C0C0C0C0C0C0A0B9
:10474000A0A0C0E0E0E0E0E0E0E0C0A0A0C0C0C009
:10475000C0E0E0E0E0E0E0C0A0A0A0A0A0A0A0C079
:10476000C0C0C0C0A080808080A0C0C0C0C0C0A0A9
:10477000808060404040608080A0A0A0A08080A099
:10478000A0A0C0C0C0E0E0E0E0E0E0C0C0A080A029
:10479000C0C0C0C0C0C0C0A0A0A0A0C0C0A0A0A0F9
:1047A000A0A0A0A0A0A0A0A0C0C0C0E0C0A0A0A049
:1047B000A0A0A0A0C0C0C0C0C0E0E0E0E0E0C0C0D9
:1047C000C0C0A0A0A0C0C0A04020202020204060E9
:1047D000806020202060A0C0E0E0E0E0E0E0C0C019
:1047E000C0C0E0E0E0E0E0E0C0C0A0A08080C0C0C9
:1047F000C0C0C0E0C0C0E0E0C080404080A0A08059
:1048000080A0E0A080C080A0A0806040608080C4C4
:10481000A0602060A0C0A0C0C0A08080C0C0A06078
:104820004060608080808080806060808080808048
:10483000808080A0A0C0C0C0C0C0C0A08080A0A058
:10484000C0C0E0E0E0C0C4C4A08040204080C0E020
:10485000E0E0E0E0E0E0E4E4E4E4E4E0E4E4E4E038
:10486000E0E0E0E0E0E0E0E0C0C0A0808080A0A068
:10487000C0C0C0C0C0C0C0C0C0C0C0C0C0C0C0C038
:10488000C0C0E0E0E0E0E0E0C0C0A0A0C0C0C0C0A8
:10489000E0E0E0E0E0E0C0A0A0A080A0A0A0A0A098
:1048A000A0C0C0C0C0A0808080A0A0C0E0E0E0C0E8
:1048B000A080606040406080A0A0C0C0A08080A0B8
:1048C000A0A0C0C0E0E0E0E0E0E0C0C0A080608068
:1048D000C0C0C0C0A0A0A0A08080A0A0A0A0A080B8
:1048E0008080A0A0808080A0A0A0C0C0C0C0C0A0C8
:1048F000A0A0A0A0C0C0C0C0C0C0C0E0E0E0C0C0D8
:10490000C0C0C0C0C0C0C0A0604020202020204047
:10491000604020202080A0C0E0E0C0E0E0E0C0C017
:10492000C0C0E0E0E0E0E0E0C0C0A0A08080C0C087
:10493000C0C0C0C0C0C0E0E0C0804060A0A0A080F7
:10494000A0C0C08060A06080A0A0A0808080A0C027
:10495000A0604080C0C0A0A0A0A080A0C0C0A060F7
:1049600040606080808080808080608080808080E7
:10497000808080A0A0C0C0C0C0C0C0A0A08080A017
:10498000A0C0C0C0C0C0C0C4C4C4A460404080C0F7
:10499000E0E0E0E0E0E0E0E0E0E0E4E4E4E4E4E003
:1049A000E0E0E0E0E0E0E0C0A0A0808080A0A0C067
:1049B000C0C0C0C0C0C0C0C0C0C0C0C0C0C0C0C0F7
:1049C000C0E0E0E0E0E0E0E0C0A080C0C0C0C0E047
:1049D000E0E0E0E0E0C0A08080808080A0A0A0A017
:1049E000A0A0A0C0C0C0A0808080A0C0C0E0E0C0E7
:1049F000A0808060606080A0A0C0C0A0A0808080F7
:104A0000A0C0C0C0E0E0E0E0E0E0C0A0808060A026
:104A1000C0C0C0C0A0808080A0A0A0A0A0A0A0A076
:104A2000A08080808080808080A0A0A0C0C0C0A026
:104A3000A0A0A0A0A0A0C0C0C0C0C0C0C0C0C0C036
:104A4000C0C0C0C0C0C0C0A08040402020202040C6
:104A5000604020204080A0C0C0C0C0E0E0E0C0A016
:104A6000A0A0E0E0E0E0E0E0C0C0A0A08080C0A0A6
:104A7000C0C0C0C0C0C0E0E0C0A06060A0A08060B6
:104A8000A4C0C06060A0608080A0A0A080A0A0A002
:104A9000806080A0C0A0A0A0A0A0A0A0C0C0A06076
:104AA00040406080808080808080608080808080C6
:104AB000808080A0A0C0C0C0C0C0C0A0A0808080F6
:104AC000A0A0A0C0C0C0C0C0C4C4C4C4A080808016
:104AD000A0C0E0E0E0E0E0E0E0E0E0E4C0E0E0E052
:104AE000E0C0C0C0C0A0A0A080808080A0A0C0C046
:104AF000C0C0C0C0C0C0C0C0C0C0C0C0C0C0C0C0B6
:104B0000C0E0E0E0E0E0C4C0A08080C0E0C0C0E061
:104B1000E0E0E0E0C0A080808080808080A0A0A055
:104B2000A0A0A0C0C0C0C0A08080A0A0C0C0E0C0A5
:104B3000A08080808080A0A0C0A0A0A0A080808055
:104B4000A0C0C0C0E0E0E0E0C0C0A080606080A085
:104B5000C0C0C0C0808080A0C0C0C0C0C0C0C0C035
:104B6000C0A0A08080808080808080A0C0C0C0C0A5
:104B7000A0A0A0A0A0A0A0A0C0C0C0C0C0C0C0C035
:104B8000C0C0C0C0C0C0C0C0A06040202020404005
:104B90006060404060A0C0C0C0C0C0E0E0C0A0A055
:104BA0008080C0C0E0E0E0C0C0C0C0A08080A0C0E5
:104BB000C0C0C0C0C0E0C0E0E0C080608080606075
:104BC00080C0C0606080806080A0A0A0A0A0A08005
:104BD0008080C0C080A0A0A0A0A0A0A0C0C0A04015
:104BE0004040608080808080808060808080808085
:104BF000808080A0A0A0C0C0C0C0C0C0A0A0808095
:104C000080A08080808080A0C0C0C0C0C0C0C0A084
:104C1000C0C0C0C0E0E0E0E0E0E0E0E0C0E0C0C074
:104C2000C0C0A0A0808060808080A0A0C0C0C0C0A4
:104C3000C0E0E0E0E0C0C0C0C0C0C0C0C0C0C0C0F4
:104C4000C0E0E0E0E0E0C0A08060A0C0E0C0E0E044
:104C5000E0E0E0C0A080A0A0A0C0A0A0A08080A0B4
:104C6000A0A0A0A0C0C0C0A0808080A0C0C0E0C0A4
:104C7000A0808080A0A0A0A0A0A0A0A0808060A014
:104C8000C0C0C0E0E0E0E0E0C0A080604060A0C044
:104C9000C0C0C0A08080C0C0E0E0E0C0C0C0C0C054
:104CA000C0C0A0A08080808080808080A0A0A0C0A4
:104CB000C0C0C0C0A0A0A0A0A0C0C0C0C0C0C0C094
:104CC000C0C0C0C0C0C0C0C0C08040402040406024
:104CD0006060606080A0C0C0C0C0C0E0C0A0806054
:104CE0006060C0C0C0E0E0C0C0C0C0A08080A0C400
:104CF000C0C0C0C0C0C0C0E0E0C080808080604054
:104D000060A0A0806080808080808080A0A0A0A023
:104D1000A0C0C0A080A0A0A0A0A0A0C0C0C0804093
:104D20002040608080808080808060808080808063
:104D3000808080A0A0A0A0C0C0C0C0C0A0A0A0A033
:104D4000808080806060606080A0C0C0E0E0E0C0E3
:104D5000C0E0E0C0C0C0C0C0C0C0C0C0C0C0C0A033
:104D6000A080806060608080A0A0A0C0C0C0C0C0E3
:104D7000C0E0E0E0E0C0C0C0C0C0C0C0C0C0C0C0B3
:104D8000E0E0E0E0E0C0C0806080A0C0C0C0E0E043
:104D9000E0E0C0A0A0A0C0C4C0C0A0A0A08080804F
:104DA000A0A0A0A0C0C0C0C0A08080A0C0C0C0C043
:104DB000A0808080A0A0A0C0A0A0A0A0808060A0B3
:104DC000C0E0E0E0E0E0E0C0C0A060402060A0C043
:104DD000C0E0C0A0A0C4E0E0E0E0C0C0C0C0C0E04F
:104DE000E0E0C0C0C0A0A0808080808080A0A0A0A3
:104DF000C0A0C0C0C0C0A0A0A0A0A0A0A0A0A0A013
:104E0000A0C0C0C0C0C0A0C0C0A0604040404060C2
:104E100080606080A0C0C0C0C0C0E0C0C0806060D2
:104E20006060C0C0C0E0E0C0C0C0C0A0808080C0E2
:104E3000C0E0C0C0C0C0C0C0C0C0A0808060604032
:104E40004080A0A0808080808080808080A0A0A002
:104E5000C0C0A08060A0A0A0A0A0A0C0C0A08040B2
:104E60002040608080808080808060608080808042
:104E7000808080A0A0A0A0A0C0C0C0C0A0A0A0A012
:104E8000A0808060606060606080A0C0C0C0E0E022
:104E9000E0E0E0E0C0C0C0A0A0A0A0A0A080808012
:104EA00060606060808080A0A0C0C0C0C0C0C0C082
:104EB000C0C0E0E0E0E0C0E0C0C0C0C0C0C0C0C052
:104EC000E0E0E0E0E0C0C0806080C0C0C0E0E0E0C2
:104ED000E0E0C0A0C0C4C0C0A0A0A0A0808080802E
:104EE00080A0A0A0A0C0C0C0A08080A0C0C0C0C042
:104EF000A0A08080A0A0C0C0A0A0A0A0808080A012
:104F0000C0E0E0E0E0E0E0C0A08040202060C0C061
:104F1000C0E0C0C0C0E0E0E0E0C0C0A0A0C0C0C031
:104F2000C0E0E0E0E0C0C0C0A0A08080808080A0A1
:104F3000C0A0A0A0A0C0C0C0A0A0A0A0A0A0A0A0F1
:104F4000A0C0C0C0C0C0A0C0C0C060404040606041
:104F500080806080A0C0C0C0C0C0E0C0A0606060B1
:104F60008080C0C0C0E0E0E0E0C0C0C0A08080A001
:104F7000C0E0E0C0C0E0E0C0C0E0C0A08060604031
:104F80004080A0A0A0A0A0A0A0A0A0A0A08080C0C1
:104F9000E0C0806060A0A0A0A0A0A0C0C0A06020D1
:104FA00040606080A0A0A0A0808060608080A0A001
:104FB0008080808080A0A0A0A0A0A0A0A0A0A080B1
:104FC000808080808080808060608080A0A0C0C061
:104FD000C0C0C0C0C0C0C0C0A08080606060606051
:104FE0006060808080A0A0A0C0C0C0C0E0E0E0E021
:104FF000E0E0E0E0E0E0E0E0E0E0E0C0C0C0C0E031
:10500000E0E0E0E0E4C0C0A06080C0E0C0C0E0E05C
:10501000E0C0C0E0C4A0A0808080808080808080CC
:1050200080808080A0A0C0C0C0A080A0C0C0C0C040
:10503000A0A080A0A0A0C0A0A0A0A0808080A0C0B0
:10504000E0E0E0E0E0E0E0C08040204060A0C0C0E0
:10505000C0E0E0E0E0E0E0C0C0A0A0A0C0C0C0C0F0
:10506000C0C0E0E0E0E0E0C0C0C0C0C080808080A0
:10507000A0A0A080A0C0C0E0C0A0A0A0A0A0A0A0B0
:10508000A0C0C0C0C0A0C0C0C0C0A0404060608080
:1050900080806080A0C0A0A0C0E0E0C0A080608050
:1050A0008080A0C0C0C0E0E0E0E0C0C0C0A080A0A0
:1050B000C0E0E0E0C0C0E0E0C0E0E0C08060606070
:1050C000406080A0A0A0A0A0A0A0A0A08080A0C0C0
:1050D000C080604060A0A0A0A0A0C0C0C0A06040F0
:1050E000406080A0A0A0A0A0A08060608080A0A060
:1050F000A08080808080808080A0A0A0A0A0A0A0B0
:10510000A0A0A080808080806060606060808080DF
:1051100080A0A0A0A0A0A0A080808060606060802F
:10512000808080A0A0A0C0C0C0C0C0C0C0E0E0E03F
:10513000E0E0E0E0E0E0E0E0E0C0C0C0C0C0E0E00F
:10514000E0E0E0E0E4C0C0A06080E0E0C0C0E0E0FB
:10515000C0C0E0C0A46060808080A0A0A0A0A080AB
:1051600080A08080A0A0C0C0C0A080A0A0C0C0A01F
:10517000A0A0A0A0A0A0A0A0A0A0A0808080C0C04F
:10518000E0E0E0C0C0E0C0A06020406080C0C0C0DF
:10519000C0E0E0E0E0E0C0A0A0A0C0E0E0E0E0E02F
:1051A000C0C0E0E0E0E0E0E0E0E0C0E0C0A080807F
:1051B00080A0808080A0C0C0C0C0A0A0A0A0A0A0EF
:1051C000A0C0C0C0C0A0C0C0C0C0A060406060801F
:1051D00080808080A0C0A0A0A0E0E0C0A0808080EF
:1051E0008080A0A0C0C0C0E0E0E0E0C0C0A080809F
:1051F000C0E0E0E0C0C0E0E0C0C0C0C0806060408F
:1052000040406080A0A0A0A08080808080A0C0C01E
:10521000A060404080A0A0A0A0A0C0C0C0A06040EE
:105220006080A0A0A0A0A0A0A08060608080A0A0BE
:10523000A0A08080808080808080808080A0A0A0CE
:10524000A0A0A080808080806060606060608080BE
:10525000808080808080808080808080808080804E
:1052600080A0A0A0C0C0C0C0C0C0C0E0E0E0E0E03E
:10527000E0E0E0E0E0E0C0C0C0C0C0C0C0C0E0E02E
:10528000E0E0E0E4E0C0C0A06080E0C0C0E0E0E0BA
:10529000C0E0C0C060606080A0A0A0A0A0C0C0A00E
:1052A000A0A0A0A0A0A0C0C0C0A0A080A0A0C0A09E
:1052B000A0A0A0A0A0A0A0A0A0A0808080A0C0C00E
:1052C000E0E0C0C0C0C0C08060606080A0C0C0C05E
:1052D000E4E0E0E0C0A08080A0C0C0C0C0C0C0C00A
:1052E000C0C0C0C0C0E0E0E0E0E0E0E0E0C0A0801E
:1052F0008080808080A0A0C0C0E0C0A0A0A0A0A0AE
:10530000C0C0C0C0C0A0A0C0C0C0C080606080805D
:10531000808080A0C0C0A080A0E0C0C0A0808080AD
:1053200080A080A0A0C0C0C0E0E0E0E0C0A080807D
:10533000A0E0E0E0E0C0C0E0C0C0C0C0A4808060E9
:1053400020406080A0A0A080808080A0A0C0C0A0DD
:105350006040206080A0A0A0C0C0C0C0C0806060CD
:105360008080A0A0A0A0A0A08080606080A0A0A05D
:10537000A0A0A0A080808080808080808080A0A06D
:1053800080808080808080808080606060606080BD
:1053900080A0A080808080A0A0A0A0A0A0A0A0A0AD
:1053A000A0C0C0C0C0C0C0C0E0E0E0E0E0E0E0E01D
:1053B000E0E0E0E0E0C0C0C0C0C0A0A0C0C0E0E04D
:1053C000E0E0E0E4C0C0C08060A0E0C0C0E0E0A0D9
:1053D000A0C4C480608080A0A0A0A0A0A0A0A0C005
:1053E000C0A0A0A0A0A0A0C0C0C0A08080A0C0A05D
:1053F000A0A0A0A0A0A0A0A0A0A08080A0C0C0E06D
:10540000E0E0C0C0C0C0A060608080A0A0C0E0E0BC
:10541000E0E0E0C0A06080A0C0C0C0C0A0808080EC
:10542000A0C0A0A0C0C0C0E0E0E0E0E0E0E0C0A01C
:105430008080808080A0A0C0C0E0E0C0A0A0A0C00C
:10544000C0C0C0C0C0A0A0C0C0C0C0A080808080BC
:10545000806080A0A0A08080A0E0C0C0A0A08080CC
:10546000A0A08080A0A0C0C0C0E0E0E0C0C0A0803C
:10547000A0C0E0E0E0C0C0C0C0E0E0C0C4A0806068
:105480004020406060808080808080A0A0A0A080BC
:1054900060204060A0A0A0A0C0C0C0C0A08060806C
:1054A000A0A0A0A0A0A0A0A08080608080A0A0A0BC
:1054B000A0A0A0A0A08080808080808080606060AC
:1054C000606080808080808080806060404040603C
:1054D0008080A0A0A0A0A0A0A0C0C0C0C0C0C0C02C
:1054E000C0C0C0C0C0C0E0C0E0E0E0E0E0E0E0E09C
:1054F000E0E0E0E0C0C0C0C0A0A0A0A0C0C0E0E06C
:10550000E0E0E0E4C0C0C08040A0E0C0C0E0C0A0D7
:10551000C0C4A08080808080A0A0A0C0C0C0C0A067
:10552000C0C0A0A0C0A0A0A0C0C0A08080A0C0A0FB
:10553000A0A0A0A0A0A0A0A0A0A080A0C0C0C0E0EB
:10554000E0C0C0C0C0C08080808080A0C0C0E0E05B
:10555000E0E0C0806060A0C0C0C0C0A080606060AB
:105560008080A0A0A0A0C0C0E0E0E0E0E0E0E0C05B
:10557000C08060608080A0A0C0E0E0E0C0A0A0C0CB
:10558000C0C0C0C0C0A0A0C0C0C0C0C0A08080803B
:10559000606080A0A0A08080A0C0C0C0A0A0A0A08B
:1055A000A0A0808080A0A0C0C0C0E0E0E0C0A0A01B
:1055B000A0C0E0E0E0E0C0A0C0E0E0E0C0C0A080AB
:1055C000602020406060606080A0A0A0808080603B
:1055D00040204060A0A0A0C0C0C0C0C0A08080800B
:1055E000A0A0A0A0A0A0A0808080808080A0A0A07B
:1055F000A0A0A0A0A0A0A0A0A0A0A080808060608B
:10560000404040606060808080606060404040401A
:105610006080A0A0A0A0C0C0C0C0C0C0C0C0C0C0AA
:10562000C0E0E0E0E0E0E0E0E0E0E0E0E0E0E0E09A
:10563000E0E0C0C0C0A0A080808080A0C0E0E0E02A
:10564000E0E0E0C4A0C0C46040A0E0C0C0E0A0A012
:10565000C0C08060606060A0A0A0C0C0C0C0C0C06A
:10566000C0A0A0A0A0C0A0A0C0C0A08080A0A0A0FA
:10567000A0A0A0A0A0A0A0A0A080A0A0C0C0E0E08A
:10568000E0C0C0C0C0A08080A080A0A0C0E0E0E0DA
:10569000E0E0A0606080C0C0C0A0A080808080806A
:1056A00080808080A0A0A0C0C0C0E0E0E0E0E0E09A
:1056B000C0A08080808080A0C0E0E0E0C0A0A0C04A
:1056C000C0C0C0C0C0A0A0A0C0C0C0C0A08080603A
:1056D000406080A0A0A08080A0C0C0A080A0A0A0AA
:1056E000A0A080808080A0A0C0C0C0C0C0C0C0A05A
:1056F000A0C0E0E0E0E0C0A0A0C0E0E0E0C0A0808A
:105700008060404040606060808080806060404099
:105710004040608080A0A0C0C0C0C0C0A080A0A049
:10572000C0C0A0A0A0A0A0808080808080A0A0A0F9
:10573000A0A0A0A0A0A0A0A0A0A0A0A0A0808060E9
:1057400060604040404040406060604040404040B9
:10575000406080A0A0C0C0C0C0C0C0C0C0C0C0E089
:10576000E0E0E0E0E0E0E0E0E0E0E0E0E0E0E0E039
:10577000E0C0C0A0A0806060808080A0C0E0E0E0C9
:10578000E0E0C0C0A0C4C06040A0E0C0C0C0A0A015
:10579000E0C080606080A0A0A0A0A0A0C0A0C0C009
:1057A000C0C0A0A0A0A0A0A0A0A0A08080A0A0A0F9
:1057B000A0A0A0A0A0A0A0A080A0A0C0C0C0E0E029
:1057C000E0C0C0C0C0A080A0A0A0A0A0C0E0E0E059
:1057D000C0A06060A0C0C0C0A08060808080A0A089
:1057E000A0A0A08080A0A0A0C0C0C0E0E0E0E0E059
:1057F000C0C0C0A080808080A0C0E0E0E0C0C0C089
:10580000C0C0C0C0C0A0A0A0C0C0C0E0C0A08040B8
:10581000406080A0A0808080A0C0C0A080A0A0A088
:10582000A0A0808080808080A0C0C0C0C0C0C0C058
:10583000A0A0C0E0E0E0E0C0A0A0C0C0C0E0C08088
:1058400060A0A080806060606060606060404040F8
:1058500040406080A0C0C0C0C0C0C0A0A0A0A0C088
:10586000C0C0C0A0A0A0808080808080A0A0A0A098
:10587000A0A0A0A0A0A0C0C0C0C0C0A0A0A0A080A8
:1058800080606040404020204040404040404040D8
:1058900040406080A0A0C0C0C0C0C0C0C0C0C0E0C8
:1058A000E0E0E0E0E0E0E0E0E0E0E0E0E0E0C0C038
:1058B000C0A08060404040406080A0C0C0E0E0E008
:1058C000E0E0C0A080C4C4604080C0C0E0C080A050
:1058D000C0A0606080A0A0A4806080A0A0A0A0C0A4
:1058E000C0C0A0A080A0A0A0A0A0A0808080A0A0F8
:1058F000A0A0A0A0A0A0A08080A0C0C0C0E0E0E0C8
:10590000E0C0C0C0C0A0A0A0A0A0A0C0E0E0E0C0D7
:10591000A0606080C0C0C0A060606060608080A047
:10592000A0A0A0A0A0A0A0A0A0C0C0C0C0E0E0E037
:10593000C0C0E0C0A0808080A0C0C0E0E0E0C0C0E7
:10594000C0C0C0E0C08080A0C0C0C0C0C0A08040B7
:105950004060A0A0A0808080A0C0C0A080A0A0A027
:10596000A0A080808080606080A0C0C0C0C0C0C097
:10597000A080A0C0E0E0E0E0A48080A0A0C0C0A023
:1059800080A0C4C0C0A08060606060606060606033
:105990008080A0A0C0C0C0C0C0C0C0A0A0A0C0C027
:1059A000A0C0C0A0A0A08080A0A08080A0A0A0A037
:1059B000A0A0A0A0A0C0C0C0C0C0C0C0C0A0A0A0E7
:1059C000A080606060404040402020404040404017
:1059D000202020406080A0C0C0C0C0C0C0C0C0C0E7
:1059E000C0C0E0E0E0E0E0E0E0E0E0E0C0C0C4A48F
:1059F000A0806040202020406080C0C0E0E0E0E067
:105A0000E0E0C4A080C4C4604080C0C0E0C080A00A
:105A1000C0806060A0A0C0A060606080A0A0A0A0C6
:105A2000C0C0A0A08080A0C0A0A08080808080A0F6
:105A3000A0A0A0A0A0A0A08080A0C0C0E0E0E0E066
:105A4000E0E0C0C0A0A0A0A0A0A0C0C0E0E0E0A096
:105A5000604080A0C0C0A06060608080606080A066
:105A6000C0C0C0C0C0A0A0A0A0A0A0C0C0C0E0E0B6
:105A7000C0C0C0E0C0A08080A0A0C0E0E0E0C0C086
:105A8000A0C0C0E0C08080A0A0C0C0C0C0A06040D6
:105A90006080A0A0A0808080A0C0C08080A0A0A0C6
:105AA000A0A08080808060606080A0A0C0C0C0C0D6
:105AB000A08080A0C0C0C0E0C0C0A0606080A0A0E6
:105AC000A080A0C0C0C0C0A0A0A0A0A0A0A0C0C036
:105AD000A0C0C0C0C0C0C0C0C0C0C0A0A0A0C0C046
