:020000040800F2
:10000000381000209D010008F13D0008952D0008E2
:100010003D3A00087D070008D14B000800000000B1
:100020000000000000000000000000008144000803
:100030007F07000800000000F33D00088745000826
:10004000B7010008B7010008B7010008B7010008B0
:10005000B7010008B7010008210900083D090008A0
:1000600043090008490900084F090008B7010008C2
:10007000B7010008B7010008B7010008B701000880
:10008000B7010008B7010008B7010008B701000870
:10009000B7010008B7010008B701000855090008BA
:1000A000B7010008B7010008B7010008B701000850
:1000B000B7010008B7010008B7010008B701000840
:1000C000B7010008B7010008B7010008B701000830
:1000D000B7010008B7010008B7010008B701000820
:1000E00027090008B7010008B7010008B701000898
:1000F000B7010008B7010008B7010008B701000800
:10010000B7010008B7010008B7010008B7010008EF
:10011000B7010008B7010008B7010008B7010008DF
:10012000B7010008B7010008B7010008B7010008CF
:10013000B7010008B7010008B7010008B7010008BF
:10014000B7010008B7010008B7010008B7010008AF
:10015000B7010008B7010008B7010008B70100089F
:10016000B7010008B7010008B7010008B70100088F
:10017000B7010008B7010008B7010008000000003F
:10018000B7010008B7010008DFF80CD000F0D2FA80
:1001900000480047FD4B0008381000200648804703
:1001A00006480047FEE7FEE7FEE7FEE7FEE7FEE75C
:1001B000FEE7FEE7FEE7FEE71B46000889010008B0
:1001C0002DE9F05F0546002092469B46884606468C
:1001D000814640241BE0284641464746224600F01F
:1001E000F5F853465A46C01A914110D311461846A5
:1001F000224600F0DCF82D1A67EB01084F46224634
:100200000120002100F0D3F817EB00094E41201E19
:10021000A4F10104DFDC484631462A464346BDE8E6
:10022000F09FD2B201E000F8012B491EFBD27047CB
:100230000022F6E710B513460A4604461946FFF7B2
:10024000F0FF204610BD2DE9FE4F81EA030404F0C3
:10025000004421F0004100944FF0000B23F00043D4
:1002600050EA01045ED052EA03045BD0C3F30A549F
:10027000C1F30A552C44A4F2F3340194A0FB0254B8
:10028000C1F3130141F48011C3F3130343F480134A
:1002900001FB024400FB034E840A970A44EA81549E
:1002A00047EA8357A4FB076802958D0A05FB07857B
:1002B0004FEA932C04FB0C542705029D4FEA065885
:1002C00047EA1637B5EB08056EEB070C870E920E62
:1002D00047EA811742EA8312A7FB0201B6EB0B0142
:1002E00064EB00042B0D43EA0C335E1844EB1C5006
:1002F000DA465146E7FB0201C5F313044FEA0B331C
:1003000043EA14534FEA0432019C43EA0603A4F182
:100310000C040294009CCDE900B400F076F803B020
:10032000BDE8F08F00200146F9E730B5041E71F1F9
:10033000000404DB4FF00044404264EB0101141E52
:1003400073F1000405DB1C464FF00043524263EB9F
:100350000403801A994101D3012030BD002030BD33
:100360000EB5C10F80EAE0700844CA07002140F2D0
:1003700033438DE80E000A460B4600F046F803B002
:1003800000BD30B50B46014600202022012409E0C3
:1003900021FA02F59D4205D303FA02F5491B04FA3E
:1003A00002F52844151EA2F10102F1DC30BD202A1D
:1003B00004DB203A00FA02F1002070479140C2F1BC
:1003C000200320FA03F3194390407047202A04DBEE
:1003D000203A21FA02F00021704721FA02F3D040BE
:1003E000C2F12002914008431946704710B5141E0F
:1003F00073F1000408DA401C41F1000192185B41DE
:100400001A4301D120F0010010BD2DE9F04D9246B4
:100410009B4611B1B1FA81F202E0B0FA80F22032CB
:100420009046FFF7C4FF04460F4640EA0A0041EA3F
:100430000B0153465A46084313D0114653EA0100B4
:1004400019D0C8F140025046FFF7C0FF05460E46DE
:10045000504659464246FFF7AAFF084305D00120FF
:1004600004E020463946BDE8F08D0020054346EA09
:10047000E0762C4337430A986305E40AA0EB0800B2
:100480000022FD0A44EA47540A3002D50020014602
:10049000E9E7010510196941DDE9084500196941DD
:1004A000BDE8F04DA2E72DE9FE4F804681EA03004A
:1004B000C00F0C46009021F0004123F00045B8EB3E
:1004C0000200A94105D24046214690461C460B46F3
:1004D000024623F00040104347D0270DC7F30A001F
:1004E000C3F30A510290401A019040286BDAC3F31B
:1004F000130040F4801B0098924620B10023D2EBF9
:10050000030A63EB0B0B01985946C0F140025046B9
:10051000FFF74DFF06460D4650465946019A00F03A
:100520001BF910EB08006141002487EA115284EAAC
:10053000E7731A4340D0009A62B3019A012A4FEA46
:10054000075215DC001B61EB02014FF0004202EA8A
:100550000752CDE90042001C41F5801132462B467E
:10056000FFF753FF03B0BDE8F08F40462146F9E79F
:10057000001B61EB0201001C41F5801300185B4178
:100580002018A2F5001747EB030140EAD570B61911
:100590006D4111E06D084FEA360645EAC0754FEA35
:1005A0000752001B61EB0201001C41F58011490854
:1005B0004FEA30000019514132462B4603B0BDE8E6
:1005C000F04FFFF713BF0098012240000023D0EB4B
:1005D000020263EBE073009821464FEAE074B8EB47
:1005E000000061EB0401E9E783F000435BE781F081
:1005F000004158E72DE9F04D81EA030404F0004B77
:1006000021F0004514464FF0000A23F0004150EA63
:10061000050220D054EA01021DD0C5F30A57024654
:10062000C5F31303C1F31300C1F30A5640F4801558
:1006300043F48013A7EB0608101BD64608F2FD38DA
:1006400073EB050002D308F1010801E092185B4149
:10065000B8F1000F03DA00200146BDE8F08D00205C
:100660004FF48011064684460EE0171B73EB050716
:1006700005D3121B63EB050306434CEA010C490842
:100680004FEA300092185B4150EA0107EDD152EA7F
:10069000030012D082EA040083EA0501084305D072
:1006A000101BAB4106D20122002306E000224FF0CE
:1006B000004302E06FF0010253101AEB06004CEB0E
:1006C000085110EB0A0041EB0B01BDE8F04DFFF7BC
:1006D0008DBEC1F30A52C1F3130140F2FF3341F45E
:1006E00080119A4202DA00200146704740F23343FB
:1006F0009A42A2F2334202DC5242FFF767BEFFF792
:1007000056BE000030B5041E71F1000404DB4FF04A
:100710000044404264EB0101141E73F1000405DB48
:100720001C464FF00043524263EB0403994208BF5A
:10073000904230BD064C074D06E0E06840F00103F2
:1007400094E8070098471034AC42F6D3FFF720FD39
:1007500094630008B4630008202A06DBCB17203A14
:1007600041FA02F043EAE07306E041FA02F3D040B6
:10077000C2F120029140084319467047FEE77047D6
:10078000F0B581B040F2173440F218350120C2F2C2
:100790000004C2F200052070287828B9002002F079
:1007A00019FC2878013028704FF4784000214FF46C
:1007B000A072F02300260090002002F0B9FB17A0E1
:1007C00064214FF6FF7200230090642000F0B6F918
:1007D00015A096214FF6FF72002300903C2000F0F8
:1007E000ADF918A0AA214FF6FF72002300903C201B
:1007F00000F0A4F940F22337C2F20007387850B174
:1008000040F62D00C2F20000A0F8826002F0C4FAA7
:100810003E7026702E7001B0F0BD00BF47414D45BF
:10082000204F564552212000507265737320274394
:100830004F4E4649524D2720746F205265737461A4
:1008400072740000507265737320275245545552DC
:100850004E272020746F204D656E7500F0B581B075
:1008600040F21F34012040F22035C2F20004C2F2EF
:100870000005207040F62D00C2F2000090F88310B1
:10088000013180F88310287828B9002002F0A2FBFB
:100890002878013028704FF4FC6000214FF4A072DA
:1008A000F02300260090002002F042FB0FA06421FC
:1008B0004FF6E07200230090642000F03FF910A092
:1008C00096214FF6E072002300903C2000F036F9AC
:1008D00040F21637C2F20007387820B102F05CFA15
:1008E0003E7026702E7001B0F0BD00BF4D495353CD
:1008F000494F4E20535543434553532100000000B8
:10090000507265737320E28098436F6E6669726DF2
:10091000E2809920746F20436F6E746975650000E2
:10092000012001F01FB980B54FF4006001F01AF901
:100930004FF48050BDE8804001F014B9022001F06E
:1009400011B9042001F00EB9082001F00BB91020F4
:1009500001F008B9202001F005B9000000000000F6
:100960002DE9F04182B003F0AFF940F2294832207E
:100970003C214CF2F8724CF2F873C2F20008CDF848
:10098000008000F0DBF840F6B105322078214CF20F
:10099000F8724CF2F873C2F20005009500F0CEF840
:1009A00040F210063220B4214CF2F8724CF2F87387
:1009B000C2F20006009600F0C1F840F6204045F66D
:1009C000E537C2F20000C0F6000790ED000B40468C
:1009D000394653EC102B04F033F940F628442846EE
:1009E0003946C2F2000494ED000B53EC102B04F0D6
:1009F00027F994ED000B3046394653EC102B04F0E8
:100A00001FF932203C214FF478424CF2F873CDF8B4
:100A1000008000F093F8322078214FF478424CF2B5
:100A2000F873009500F08AF83220B4214FF4784230
:100A30004CF2F873009600F081F89FED0B0B94EDEB
:100A4000001B53EC102B51EC110BFFF76EFC20B97F
:100A500002B0BDE8F04102F0A2BC02B0BDE8F04136
:100A600002F07EBC00BF00BF00000000000000409C
:100A70007047000010B582B0032819D002281FD09B
:100A800001281BD140F21B3040F222340121C2F276
:100A90000000C2F200040170207820B902F07CF955
:100AA00020780130207002B0BDE8104003F0A2B9F8
:100AB00040F22B500121C2F20000017002B010BDC3
:100AC00040F2101040F211140121C2F20000C2F2F3
:100AD000000401702078C8B94CF2F87002F07AFA7C
:100AE0001F2000214FF4A072F0230090002002F09C
:100AF0001FFA0BA014214FF478424CF2F8730090C7
:100B0000142000F01BF8207801302070FFF728FF38
:100B10004FF4FA7002B0BDE8104000F005BD00BF10
:100B2000456E7669726F6E6D656E7420496E666F84
:100B3000726D6174696F6E3A000000002DE9F04F2C
:100B400089B01546129A019005911078002800F09E
:100B5000C580019F1C464FF0800800BF41B2089736
:100B6000B1F1FF3F06DD0D2876D10598019F1030C9
:100B70000590AEE007F1080A0021029202E000BFF2
:100B80000298007845F64D32039101EB0111C0F651
:100B9000000212F81120824256D145F64D30C0F6BF
:100BA000000000EB410B02999BF801004978884254
:100BB0004AD10021CDF810B005980026079100EB2E
:100BC00001090BEB410090F902B04800069000BF0C
:100BD00028FA06F010EA0B0F04D0B8191FFA89F1B1
:100BE0002A4605E0A54206D0B8191FFA89F1224627
:100BF00080B200F00EFA0136082EE9D10698DDF831
:100C000010B0002740F00100584490F9026000BF86
:100C100028FA07F0304205D00AEB07001FFA89F1E5
:100C20002A4606E0A54207D00AEB07001FFA89F121
:100C3000224680B200F0EDF90137082FE8D107997C
:100C4000089F01311029B7D103990131322997D179
:100C5000029A103702323DE04FF6006102924FF0E7
:100C6000000A4FF000092028C0F20F010A4601EBEC
:100C7000001102F5F87288BF01EA0209059845F2F1
:100C80005C510027C0F6000100EB0A0B0AEB0900DB
:100C90000E5C00BF28FA07F0304205D008981FFA12
:100CA0008BF12A4606E000BFA54207D008981FFA3C
:100CB0008BF12246384480B200F0ABF90137082F9F
:100CC000E8D10AF1010ABAF1100FD7D1089F029AB0
:100CD00008370132107800287FF440AF09B0BDE832
:100CE000F08F00002DE9F04F89B00446129805916D
:100CF00001900078002800F0D9804FF600619A46F4
:100D000015464FF08009C0F20F0101F5F87100910E
:100D100041B20894B1F1FF3F38DD4FF600614FF06A
:100D2000000B4FF000082028C0F20F0101EB00116A
:100D3000009888BF01EA0008059845F25C5100243C
:100D4000C0F600010BEB00060BEB08000F5C00BFC8
:100D500029FA04F0384203D00898B1B22A4604E0D8
:100D6000554506D00898B1B25246204480B200F0F2
:100D700050F90134082CEBD10BF1010BBBF1100F32
:100D8000DAD1089C0820012188E000BF04F1100896
:100D900004F1080B0022CDF80C8001E001980078E6
:100DA0004A210292514345F66F32C0F60002515C6F
:100DB00081426CD145F66F31029A4A20C0F600019B
:100DC00002FB0010019904904078497888425ED176
:100DD000002200BF049902EB42000027069208445B
:100DE000079090F902800598161800BF29FA07F0BD
:100DF00010EA080F04D0E019B1B22A4605E000BF9E
:100E0000554505D0E019B1B2524680B200F001F963
:100E10000137082FEAD10798DDF80C80002490F9FB
:100E2000037000BF29FA04F0384205D00BEB040030
:100E3000B1B22A4606E000BF554506D00BEB0400D0
:100E4000B1B2524680B200F0E4F80134082CE9D186
:100E50000798002490F9047029FA04F0384205D06C
:100E600008EB0400B1B22A4606E000BF554506D0A3
:100E700008EB0400B1B2524680B200F0CAF8013467
:100E8000082CE9D1069A089C0132182AA2D1029AAC
:100E90000132142A7FF482AF182002210444019801
:100EA0004218405C019200287FF432AF09B0BDE8DF
:100EB000F08F00002DE9F04F85B0CDE9010145F636
:100EC00010410E981C4615468026C0F6000101EB25
:100ED000C0100021009000BF0298DDF804A04FF080
:100EE000000903910F18009800EB8100049000BFE7
:100EF00004984FF0000810F809B000BF26FA08F077
:100F000010EA0B0F04D00AEB0800B9B22A4605E03C
:100F1000A54206D00AEB0800B9B2224680B200F022
:100F200078F808F10108B8F1080FE7D109F10109D3
:100F30000AF1080AB9F1040FDAD103990131202925
:100F400004BF05B0BDE8F08FC6E700002DE9F04F03
:100F500083B01E4690460C46054602F09EF9311BB2
:100F60004FF0FF3AA8EB05084FF0FF39B1F1FF3F12
:100F7000C8BF4FF0010AB8F1FF3FC8BF4FF00109E9
:100F8000002900D54942B8F1000F4FEA410048BF9F
:100F9000C8F1000802904FEA4800884501901ADD28
:100FA00002984FF0FF36A0EB080B0198474200BFB4
:100FB0000C9AA8B2A1B200F02CF80298BBF1FF3F46
:100FC00006F101064D445844C4BF384454444645D4
:100FD0008346EDDB1AE001984FF0FF36471A02987E
:100FE000C0F1000B0C9A8846A8B2A1B200F011F82B
:100FF0000198B7F1FF3F06F10106414654443844D9
:10100000C4BF58444D4446450746EBDB03B0BDE83A
:10101000F08F10B5144602F040F9200A02F058F99A
:10102000E0B2BDE8104002F053B9000070B581B0E5
:101030000022009290F83C20012A01D1022176E0A2
:10104000012280F83C20D1F800E01FFA8EFCBEF1AE
:101050000A0F4FEA4C0212FA8EF204D303681E3ACA
:1010600003F10C0402E0036803F11004072526686D
:10107000954026EA050525608D6805FA02F2256887
:101080002A4322604A68062A05D802EB820203F14D
:101090003401053A0BE002EB82040C2A87BF03F10E
:1010A0002C01A4F1410203F13001A4F123021F2419
:1010B0000D6894400CFA02F225EA04040C600E68F4
:1010C00032430A6042F20431C4F20101A1F54172D7
:1010D000934229D1BEF1120F04D10A6842F4800272
:1010E0000A6021E02EF00102102A1DD10A68BEF12B
:1010F000100F42F400020A6016D140F204014DF6CE
:101100008362C2F20001C4F21B320968A1FB021221
:10111000910C01EB8101490002E000BF0099013907
:10112000009100990029F9D1002180F83C1008466F
:1011300001B070BD0068C06C7047002847D010B582
:101140000446006C30B9204600F09BF8002084F87B
:101150003C006064206CC0063BD4206C41F202115C
:101160000123C0F6007388430230206442F2043049
:10117000C4F20100016821F4403101606168026835
:10118000114301602068416821F480714160216948
:10119000426842EA01214160416821F040714160AA
:1011A000A168426811434160816821F40061816057
:1011B000E168826811438160A16A826822F07062EE
:1011C00099428260826806D122F040510CE00120F1
:1011D0007047012051E011438160816821F0405146
:1011E0008160E16A826811438160816821F00201B7
:1011F0008160217E826842EA4101816094F820206A
:10120000416882B141F400614EF200024160CFF6C4
:10121000FF72416821F460414160616A02EB413133
:101220004268114301E021F4006141600022C16A7B
:10123000CFF6F07221F47001C162E16902EB015155
:10124000C26A1143C162816821F40071816094F81F
:101250003010826842EA41218160816821F4806116
:1012600081606169826842EA8121012281600020F7
:101270006064216C62F301012164002184F83C1058
:1012800010BD10B586B0044601A81421FEF7D0FFAA
:1012900042F200212068C4F20101884229D042F2C2
:1012A0000011C4F20101884247D042F20001C4F2A9
:1012B0000101884265D143F6300100200090C4F25C
:1012C00002014A6942F480724A614A6902F48072FA
:1012D0000092009A00900A6842F001020A600968D0
:1012E00001F0010100910099039003200290022077
:1012F00040E043F6300100200090C4F202014A6948
:1013000042F480624A614A6902F480620092009A63
:1013100000900A6842F004020A60096801F00401C2
:101320000091009903900320029008200190002072
:10133000C4F2020000F5006020E043F63001002016
:101340000090C4F202014A6942F400724A614A699B
:1013500002F400720092009A00900A6842F00102C2
:101360000A60096801F001010091009903900320CF
:101370000290042001900020C4F2020001A900F0B4
:10138000FDFB06B010BD0000F0B581B0044600685A
:101390000D468168490544BF80685FEAC0500AD4A1
:1013A00000F0CBFC064620680168890718D4CDB34D
:1013B0006F1C09D00DE0002084F83C00206C40F048
:1013C0002000206401202BE00168890708D4002F49
:1013D000FAD000F0B2FC801BA84223D82068F3E7C3
:1013E0006FF012010160216C41F400712164816889
:1013F00011F0405F13D1217E89B9C16A11F4700FD9
:1014000002D0806840050AD4206C20F480702064EB
:10141000206CC0045EBF206C40F0010020640020FE
:1014200001B0F0BD002084F83C00206C40F00400C6
:1014300020640320F4E7000081B00021009190F8BF
:101440003C10012901D102206CE0012180F83C1000
:1014500001688A68D20719D18A684DF68363C4F29D
:101460001B3342F001028A6040F20402C2F2000221
:101470001268A2FB03239A0C02EB420202E000BFB7
:10148000009A013A0092009A002AF9D18A68D2079C
:1014900047D0026C40F201739A4302F580720264F5
:1014A0004A68520504D5026C012363F30D320264CD
:1014B000026C0023D20444BF436C23F006030022D5
:1014C00080F83C2043646FF02200086042F2000084
:1014D000C4F20100D0F80423D20603D0814220D107
:1014E000806817E0814214D042F20022C4F2010267
:1014F00091420AD042F20012C4F20102914210D18C
:10150000D0F80403C0060CD103E0D0F80403C006F1
:1015100007D4886810F0405F03D1886840F08040AD
:101520008860002001B07047B0B5044600F005FCAB
:10153000054640F20800611CC2F20000007818BFA6
:10154000044400BF00F0F9FB401BA042FAD3B0BD39
:1015500010B50F2832DC0138072800F20283DFE8DB
:1015600010F008009B000003F300000300030003D9
:101570005901142003F041FB40F200400121C4F264
:10158000020000F5006000F0C7FB002800F0E982CF
:1015900040F22950C2F200000178012940F0448253
:1015A00000210122017040F21530C2F200000270E9
:1015B00040F22A50C2F2000001703DE2B0F5006F27
:1015C0004EDA102800F09081202840F0CA823220A4
:1015D00003F013FB40F200402021C4F2020000F5AA
:1015E000006000F099FB002800F0BB8240F215304B
:1015F000C2F200000078002800F0B38240F21B30F5
:10160000C2F200000078002800F0AB8240F21730F0
:1016100040F21F31C2F20000C2F2000100780978E6
:10162000084340F22631C2F200010978084340F233
:101630001931C2F200010978084340F21D31C2F2AB
:1016400000010978084340F08C8240F227300021E5
:10165000C2F20000017040F22430C2F20000D2E079
:1016600000F09781B0F5805F40F07B82322003F07C
:10167000C4FA40F200444FF48051C4F2020404F56D
:10168000806000F049FB002800F06B8220460121B9
:10169000BDE8104000F045BB142003F0AEFA40F264
:1016A00000400221C4F2020000F5805000F034FB3B
:1016B000002800F0568240F200000121C2F2000032
:1016C000017040F22950C2F20000017040F2153062
:1016D0000021C2F20000017040F21B30C2F2000093
:1016E000017040F21730C2F20000017040F21F306A
:1016F000C2F20000017040F22330C2F2000001701B
:1017000040F22230C2F20000017040F21830C2F202
:101710000000017040F22030C2F20000017040F27F
:101720001010C2F20000017040F21110C2F200006D
:10173000017040F22B50C2F20000017040F22C50B8
:10174000C2F20000017010BD322003F056FA40F2E0
:1017500000400421C4F2020000F5006000F0DCFA51
:10176000002800F0FE8140F22950C2F2000000780B
:1017700001280FD140F22A500021C2F2000001706E
:1017800040F20000C2F2000001784A1E022938BF70
:101790000322027040F21530C2F2000000780028E7
:1017A00000F0DF8140F21B30C2F200000078002818
:1017B00000F0D78140F2173040F21F31C2F2000032
:1017C000C2F2000100780978084340F21931C2F2F0
:1017D00000010978084340F21D31C2F20001097886
:1017E000084340F22431C2F200010978084340F076
:1017F000B88140F225300021C2F20000017040F2B1
:101800002630C2F200000122027040F21E30C2F205
:101810000000B7E0322003F0F0F940F20040082168
:10182000C4F2020000F078FA002800F09A8140F239
:101830002950C2F20000007801280FD140F22A504E
:101840000021C2F20000017040F20000C2F200006C
:1018500001784A1C022988BF0122027040F215302B
:10186000C2F200000078002800F07B8140F21B30BB
:10187000C2F200000078002800F0738140F21730B7
:1018800040F21F31C2F20000C2F200010078097874
:10189000084340F22631C2F200010978084340F2C1
:1018A0001D31C2F200010978084340F22431C2F22E
:1018B00000010978084340F0548140F225300021AE
:1018C0000122C2F20000017040F21930C2F20000A1
:1018D000027040F21E30C2F20000017040F2273068
:1018E000C2F20000017010BD322003F086F940F210
:1018F00000401021C4F2020000F5006000F00CFA74
:10190000002800F02E8140F21530C2F2000000786D
:10191000002800F0268140F21B30C2F2000000785F
:10192000002800F01E8140F2173040F21F31C2F251
:101930000000C2F2000100780978084340F2263125
:10194000C2F200010978084340F21931C2F20001E5
:101950000978084340F22431C2F2000109780843B3
:1019600040F0FF8040F2253000210122C2F2000049
:10197000017040F21D30C2F20000027040F22730C8
:10198000C2F20000017040F21A30C2F20000017091
:1019900010BD322003F031F940F200404FF40061F5
:1019A000C4F2020000F5806000F0B6F9002800F0F3
:1019B000D88040F21530C2F200000178002900F012
:1019C000D08040F21B31C2F200010A78002A00F0F8
:1019D000948040F21732C2F200021378002B59D0E3
:1019E00040F200030124C2F200031C7040F22953AC
:1019F000C2F200031C700023037040F21F300B7012
:101A00001370C2F20000037040F22330C2F20000F3
:101A1000037040F22230C2F20000037040F218302E
:101A2000C2F20000037010BD40F21530C2F2000097
:101A30000078002800F0958040F21B30C2F20000D0
:101A4000007888B140F21731C2F20001097859B12B
:101A500040F218310022C2F200010A7040F2233134
:101A60000122C2F200010A7000287AD040F21F3031
:101A7000C2F200000078002873D040F2203000212C
:101A8000C2F20000017040F216300121C2F20000E3
:101A9000017010BD40F21F33C2F200031C7864B322
:101AA00040F229544FF0010E40F2000CC2F2000443
:101AB000C2F2000C84F800E000248CF800E004700E
:101AC00040F223300C7014701C70C2F200000470DD
:101AD00040F21630C2F20000047040F22230C2F22E
:101AE0000000047040F21830C2F20000047040F2AE
:101AF0002030C2F20000047010BD40F21011C2F29A
:101B000000010A7892B140F200020123C2F2000201
:101B1000137040F22952C2F20002137000220270C8
:101B200040F211100A70C2F2000019E040F22B518D
:101B3000C2F200010A78002A08BF10BD40F200027C
:101B40000123C2F20002137040F22952C2F20002D5
:101B500013700022027040F22C500A70C2F2000092
:101B6000027010BD43F61441C4F201010A6802423A
:101B700014BF08607047FFF7EBBC00002DE9F04F81
:101B800082B041F6004343F6004B08224FF0010AB1
:101B900000264FF0000CC4F20203C4F2010B98427D
:101BA00000F13E4308BF072203F1FF734FEAB3275A
:101BB000072F4FF0000738BF4FEAB322009200BF53
:101BC0000A680AFA0CF812EA080F00F09A80D1F8B5
:101BD00004E04EF01002122A12D106F01C020F236C
:101BE00003FA02F46FF0030303EA5C0505442B6A71
:101BF000A3430C6904FA02F21A432A62D1F804E002
:101C0000032304680EF00302BEF1120F03FA07F378
:101C100002FA07F224EA03046FEA030942EA040223
:101C2000026014D80AFA0EF212F0061F0FD0826872
:101C3000CB6802EA0902BB401A438260CEF300126D
:101C4000436802FA0CF223EA08031A434260C268AE
:101C50008B6802EA0902BB401A43C2605FEACE0207
:101C60004FD5002206F00C050F24019243F64402E2
:101C7000AC40C4F202021346126842F480421A6079
:101C80001A6802F4804201922CF00302019B5A442C
:101C90004FF60843CFF6FF739E46D358A343009CEC
:101CA00004FA05F52B4342F80E30DBF800204D68AE
:101CB00042EA0803EC0358BF22EA0803CBF80030DD
:101CC000AC03DBF8042042EA080358BF22EA080309
:101CD000CBF80430EC02DBF8082042EA080358BFD6
:101CE00022EA080343F60C42CBF80830AD02C4F2F6
:101CF00001021446126842EA080358BF22EA0803A8
:101D000023600CF1010C02370436BCF1100F04BF44
:101D100002B0BDE8F08F53E70069084018BF01200A
:101D2000704742690A408A4208BF090481617047CE
:101D3000002A08BF09048161704740F63040C2F2B2
:101D4000000000687047B0B568B3044690F83D00E5
:101D500028B9002084F83C00204600F0B9F824207F
:101D600084F83D002068016821F00101016000F065
:101D700044FA48F2804140F600120023C0F21E01EE
:101D8000C0F23D0288424FF0000138BF012190426D
:101D900048F2A16238BF01236568C0F20102954292
:101DA00038BF0B460BB10120B0BD4DF68361C4F2C4
:101DB0001B31A0FB011221684B6823F03F0343EA6B
:101DC00092434B60930C0A6A22F03F0C48F2A062E7
:101DD000C0F20102954213D85A1C01384CF6FF7329
:101DE00042EA0C020A626A00B0FBF2F001306FF3C3
:101DF0001F30042898BF0420CA6922EA030C3EE081
:101E00004FF49672A0F1010E5A4344F6D353C1F237
:101E10006203A2FB0323012202EB93124CF6FF7331
:101E200042EA0C020A62CA6922EA030CA36843B1BF
:101E3000192004226843BEFBF0F0013062F31F302A
:101E400006E005EB4500BEFBF0F001306FF31F30FC
:101E5000000509D053B1192004226843BEFBF0F0FD
:101E6000013062F31F3008E0012008E005EB450077
:101E7000BEFBF0F001306FF31F3040F4004040EA49
:101E80000C00C8610868D4E9072320F0C0001043A3
:101E900048F2FF321843086088689043D4E903236E
:101EA000184310438860C868D4E9052320F0FF0078
:101EB00010431843C860086840F001000860002023
:101EC0002021206484F83D10206384F83E00B0BDDA
:101ED000B0B586B0044601A81421FEF7A9F945F271
:101EE00000402168C4F20000814227D143F630044B
:101EF000002500F5D8300095C4F20204216841F0B5
:101F000002012160216801F0020100910099042181
:101F10000591032104910121039112210291C02115
:101F2000019101A9FFF72AFE0095206940F40010F5
:101F30002061206900F400100090009806B0B0BD48
:101F400040F2080040F63041C2F20000C2F2000147
:101F500000780A6810440860704780B543F6004076
:101F6000C4F20200016841F400710160016841F4AB
:101F700080610160016841F480710160032000F01C
:101F800086F8002000F004F800F028F8002080BD5A
:101F9000B0B5044640F208004FF47A71C2F2000076
:101FA0000078B1FBF0F040F20401C2F200010968D0
:101FB000B1FBF0F000F08AFC01250F2C0CD858B9C9
:101FC0004FF0FF3021460022002500F032F840F2A9
:101FD0000C00C2F2000004602846B0BD82B043F697
:101FE000400100200190C4F202014A6842F480429C
:101FF0004A604A6802F480420192019A009008689F
:1020000040F080500860086800F080500090009810
:1020100002B0704700280BDB00F01F0101224009CD
:1020200002FA01F14EF20012CEF2000242F8201044
:10203000704710B500F00F034EF60C5E00F1604CD7
:10204000B0F1FF3FA3F10403CEF2000E734403F19D
:102050000C04C8BF0CF56444DEF800004FF0FF3CF0
:10206000C0F30220C31E80F0070038BF00230428FD
:1020700028BF04200CFA00F021EA00000CFA03F15A
:10208000984022EA010108430001207010BD4EF67D
:102090000C514FF6FF03CEF200010A681A4060F3BC
:1020A0000A2242F0806040F0FD7008607047000036
:1020B0002DE9F041002800F09C8043F6000804461A
:1020C0000D46C4F20208D8F8000400F00F00884260
:1020D00008D288F80054D8F8000400F00F00A84295
:1020E00040F087802068810717D5410742BFD8F8A4
:1020F000081041F4E051C8F80810010742BFD8F8B1
:10210000081041F46041C8F80810D8F80810A26817
:1021100021F0F0011143C8F80810C0072FD0606803
:10212000811E022904D2D8F8001089010BD460E086
:10213000012804D1D8F80010890304D459E0D8F854
:102140000010890755D5D8F8081021F0030108437D
:10215000C8F80800FFF7F1FD064641F2883700BFD6
:10216000D8F80800616800F00C00B0EB810F06D0D1
:10217000FFF7E3FD801BB842F2D903243AE0D8F818
:10218000000400F00F00A84207D988F80054D8F8DE
:10219000000400F00F00A8422BD12068410707D5AA
:1021A000D8F80810E26821F4E0511143C8F808108B
:1021B000000708D5D8F80800216920F4604040EAFB
:1021C000C100C8F8080000F03EF8D8F8081045F241
:1021D00044520024C0F60002C1F30311515CC84010
:1021E00040F20401C2F2000108600020FFF7D0FEB7
:1021F00000E001242046BDE8F08140F2040043F6EF
:10220000080145F25452C2F20000C4F20201C0F6C5
:10221000000200680968C1F38221515CC840704720
:1022200040F2040043F6080145F25452C2F20000A5
:10223000C4F20201C0F6000200680968C1F342312D
:10224000515CC840704710B543F60404C4F2020460
:10225000606800F00C0008280AD0042819BF42F278
:102260000040C0F2F40047F64000C0F27D1010BDFF
:10227000226820680023400202F03F0247F6400037
:10228000C0F27D105CBF42F20040C0F2F400216851
:10229000C1F38811A0FB0101FDF792FF2168022222
:1022A000C1F3014102EB4101B0FBF1F010BD0000B0
:1022B0002DE9F04182B0002800F014810446007836
:1022C00043F60006C4F20206C0072FD0B06800F043
:1022D0000C00042823D0B06800F00C00082802D1BC
:1022E000706840021BD46768B7F5803F07D030683C
:1022F000B7F5A02F40F01A8140F48020306030689C
:1023000040F480303060FFF718FD054630688003E8
:102310000CD4FFF712FD401B6428F7D9A8E0306801
:10232000800303D56068002800F0DC8020788007F7
:102330002ED5B06810F00C0F07D0B06800F00C007C
:10234000082809D17068400206D43068800718D583
:10235000E068012815D0C5E0E1680020C4F24720FC
:10236000002900F0878001210160FFF7E6FC0546A7
:102370003068800705D4FFF7E0FC401B0228F7D93E
:1023800076E03068216920F0F80040EAC100306052
:102390002078000725D5606988B100200121C4F2AA
:1023A0004720C0F8801EFFF7C8FC0546706F800705
:1023B00017D4FFF7C2FC401B0228F7D958E00020D1
:1023C0000021C4F24720C0F8801EFFF7B6FC054686
:1023D000706F800705D5FFF7B0FC401B0228F7D9C6
:1023E00046E02078400775D5306C4FF00008C000FB
:1023F0000CD4CDF804804FF00108306C40F08050D0
:102400003064306C00F080500190019847F2000772
:10241000C4F200073868C0050FD4386840F48070F3
:102420003860FFF78AFC05463868C00505D4FFF719
:1024300084FC401B0228F7D91AE0A768012F05D0B9
:10244000306F052F27D140F004003067306F40F027
:1024500001003067FFF771FC054641F2883700BF85
:10246000306F80072FD4FFF768FC401BB842F7D9C4
:10247000032038E000210160FFF75FFC054600BF44
:10248000306880077FF584AFFFF757FC411B0320BE
:102490000229F5D927E020F001003067306F20F0E5
:1024A00004003067FFF749FC0546002FD5D141F203
:1024B0008837306F800706D5FFF73FFC411B0320AC
:1024C000B942F6D90FE0B8F1000F1EBF306C20F012
:1024D00080503064A769002F60D0B06800F00C0015
:1024E000082803D1012002B0BDE8F08140F20008C5
:1024F0000020C4F24728C8F86000FFF71EFC05461C
:10250000022F09D13068800128D5FFF716FC411B46
:1025100003200229F6D9E6E7306880013ED5FFF7AF
:102520000CFC411B03200329F6D3DCE720F48030A8
:102530003060306820F480203060FFF7FEFB0546F5
:10254000002F7FF4E3AE306880037FF5EFAEFFF736
:10255000F4FB411B03206429F5D9C4E704F11C07EF
:102560008FCF0843D90340EA82104FF6FF729143A0
:1025700040EA0760A1F58031084370600120C8F887
:102580006000FFF7DAFB04463068800106D4FFF7ED
:10259000D4FB011B03200229F6D9A4E70020A2E7FF
:1025A00070B504460079012804BF022070BD0120E7
:1025B00020716079012813D102200D466071FFF768
:1025C000BCFB064620684168C9070DD1FFF7B5FB83
:1025D000801B0328F6D3012002216071A16009E06D
:1025E0000420A060012005E08068E06028600120F0
:1025F000607100200021217170BD10B500F10C0444
:102600002146FFF7CDFF00280CBF2068002010BD39
:10261000A0B110B50446407920B9002020712046B1
:1026200000F00EF8022060712068016841F004019A
:102630000160012060710020A06010BD0120704782
:1026400040F600010068C5F20601884218BF7047D5
:1026500081B00020009043F63400C4F2020001680B
:1026600041F040010160006800F0400000900098D7
:1026700001B0704770B5C8B3002605464FF0000C96
:10268000866290F8510030B9284685F8506000F015
:1026900030F8D5F828C0022185F8511029680A6859
:1026A00022F040020A60D5E90123D5E903041A4368
:1026B00010436A6920431043AA6902F40073184367
:1026C000EB6918432B6A184340EA0C0008600420A9
:1026D00000EA12406A6A10434860C86920F400604A
:1026E000C86101206E6585F8510000E00126304682
:1026F00070BD10B586B0044601A81421FDF798FD01
:1027000043F200002168C4F20100814226D143F661
:102710003002002100F550400091C4F202025369DA
:1027200043F480535361536903F480530093009B37
:102730000091136843F001031360126802F0010274
:102740000092009A052205920322CDE9031202218C
:102750000291E021019101A9FFF710FA06B010BD26
:102760002DE9F04381B0044690F85000012801D1D2
:102770000220A8E04FF001091D4616460F4684F8D6
:102780005090FFF7DAFA804694F85100012857D1AB
:102790000120002F00F09280002E00F08F80032097
:1027A00084F8510000206065E686A6862763A0872E
:1027B000A063C4E91000E087A1682068B1F5004F6C
:1027C00002BF016841F480410160016849065EBFB3
:1027D000016841F0400101606268711EE368B1FA6E
:1027E00081F1B2FA82F24909B3F5006F4FEA521251
:1027F00041EA020126D131B137F8021BC1602763DB
:10280000E18E0139E186E18E00293FD06E1C00E0A7
:1028100020688168890707D4FFF78FFA66B1A0EBBB
:102820000800A84208D348E0216B31F8022BC260AF
:102830002163E08E0138E086E08E0028E8D125E0B3
:1028400002203BE039B139780173206B01302063FD
:10285000E08E0138E086E08EC0B16E1C2068816891
:10286000890707D4FFF769FA6EB1A0EB0800A84208
:1028700009D322E0216B09780173206B01302063BA
:10288000E08E0138E086E08E0028E7D12046294618
:10289000424601F07FFD08B120206065A06838B98C
:1028A000002000902068C168009180680090009826
:1028B000606D002818BF012000E00320002184F88B
:1028C000501084F8519001B0BDE8F083411E002003
:1028D000B0EB116F1CBF012070474EF21002F023C5
:1028E000CEF2000251604EF62351CEF200010B7081
:1028F000072190601160704790F83C300222012B54
:1029000019D010B580F83D200268D2F804E0D2F862
:1029100008C0D1E900342EF07001194351602CF049
:102920008001214391600022012180F83C2080F841
:102930003D10BDE8104010467047B0B110B50446D8
:1029400090F83D0028B9002084F83C00204600F0B3
:102950000EF80220211D84F83D00206801F089FE58
:10296000012084F83D00002010BD0120704782B096
:1029700040F200410068C4F20001884212D0B0F178
:10298000804F1ED10020019043F64000C4F20200A7
:10299000016841F001010160006800F00100019050
:1029A00001980EE00020009043F64000C4F20200BF
:1029B000016841F002010160006800F0020000902F
:1029C000009802B0704790F83C300222012B00F0D2
:1029D000BF8080B580F83D20012280F83C204FF672
:1029E0007772D0F800C0DCF8083023EA0202CCF895
:1029F00008200B683F2B1BDD5F2B1FDD602B4DD0AC
:102A0000B3F5005F69D0702B40F09A80D1E90123C3
:102A1000C9681A4342EA0121DCF8082022F47F4207
:102A20001143CCF80810DCF8081041F0770185E07C
:102A30001F2B27DC53B3102B28D081E0402B5ED016
:102A4000502B7DD1D1F804E0C968DCF82030DCF8E7
:102A5000202022F00102CCF82020DCF8182022F0FF
:102A6000F00242EA0111CCF8181023F00A0141EA01
:102A70000E01CCF82010DCF8081041F0570121F0CD
:102A800020015BE0202B01D0302B59D1DCF808105D
:102A900021F07001194341F007014FE04A68C9680D
:102AA000DCF8203023F01003CCF82030DCF81830AC
:102AB00023F4704343EA0131DCF82030CCF81810DD
:102AC00023F0A00141EA0211CCF82010DCF8081034
:102AD00041F0670121F0100130E0D1E90123C9681C
:102AE0001A4342EA0121DCF8082022F47F42114314
:102AF000CCF80810DCF8081041F480411EE0D1F851
:102B000004E0C968DCF82030DCF8202022F0010263
:102B1000CCF82020DCF8182022F0F00242EA011163
:102B2000CCF8181023F00A0141EA0E01CCF820106D
:102B3000DCF8081041F0470121F03001CCF8081012
:102B40000022012180F83C2080F83D10BDE8804043
:102B50001046704710B586B0044601A81421FDF751
:102B600067FB40F200412068C4F2000188421DD09A
:102B7000B0F1804F39D143F6300100200090C4F20B
:102B800002010A6842F001020A60096801F00101CD
:102B90000091009901210591CDE9030002200290E6
:102BA000082001900020C4F202001BE043F630012F
:102BB00000200090C4F202010A6842F004020A6098
:102BC000096801F00401009100990221CDE9040196
:102BD000CDE902104FF4E07001900020C4F2020031
:102BE00000F5006001A9FEF7C9FF06B010BD0000A6
:102BF00070B50D4690F83C1004460220012908BF2C
:102C000070BD84F83D004FEAB2000126032884F825
:102C10003C6036D8DFE800F0020A1222206829461C
:102C200001F0B6FD206850F8181F0EE02068294614
:102C300001F0DEFD206850F8181F16E020682946D4
:102C400001F00AFE206850F81C1F41F008010160E5
:102C5000016821F00401016029690FE0206829461C
:102C600001F02EFE206850F81C1F41F40061016045
:102C7000016821F480610160296909020268114339
:102C80000160002084F83C0084F83D6070BDB0B164
:102C900010B5044690F83D0028B9002084F83C00A7
:102CA000204600F00EF80220211D84F83D00206827
:102CB00001F0DFFC012084F83D00002010BD012060
:102CC0007047704750B310B5044690F8390028B9E2
:102CD000002084F83800204600F022F8242084F8F0
:102CE00039002068C16821F40051C160204601F01C
:102CF0000FFE2068016921F490410161416921F0D2
:102D00002A014161C16841F40051C16000202021C5
:102D1000E06384F8391084F83A1010BD0120704740
:102D200010B586B0044601A81421FDF781FA41F2DE
:102D300000002168C4F20100814228D143F630022C
:102D4000002100F570400091C4F20202536943F083
:102D500010035361536903F010030093009B00912B
:102D6000116841F001011160116801F00101009149
:102D7000009907210591032104910121039102216A
:102D800002914FF4C061019101A9FEF7F7FE06B070
:102D900010BD0000FEE70000F0B581B040F21E302B
:102DA0000024C2F20000047040F22530C2F200009C
:102DB000047040F21A30C2F20000047040F2273072
:102DC000C2F20000047040F22130C2F20000047030
:102DD000002000F0FFF86FF01F000021F022F02328
:102DE0001F3080B20090002000F0A2F83BA0142118
:102DF0004FF6E07200230090FA20FDF79FFE39A005
:102E000046214FF6E07200230090FA20FDF796FE6F
:102E100040F62D070220C2F20007A7F8800040F21A
:102E20001C30C2F20000017811B197F8824003E033
:102E3000012187F88240017040F2123040F22D5596
:102E400045F60D4601212246C2F20000C2F20005FD
:102E5000C0F6000681702846314601F0F1FE40F2CE
:102E6000293497F883203146C2F20004204601F04D
:102E7000E7FEFA2028214FF6E07200230095FDF7C7
:102E80005DFEFA205A214FF6E07200230094FDF710
:102E900055FE97F88000F8B10020782100EB800201
:102EA00078323A543A18013082F8401097F880206E
:102EB0009042F3D382B100244FF478453919385D3C
:102EC00005220523009591F8401000F00FF897F8BF
:102ED000800001348442F1D301B0F0BD53434F521E
:102EE000453A00004C4556454C3A00002DE9F04368
:102EF00081B005461044B0F5A07F16D88946194424
:102F0000F02912D8DDF820805F1C002486B200BFB3
:102F100004EB09003246CDF8008081B228460B460A
:102F2000FEF714F80134A742F2D101B0BDE8F083F6
:102F30002DE9F04182B004461044B0F5A07F2AD8B4
:102F40005F180D46F02F26D886B2DDF82080204687
:102F500029462B463246CDF80080FDF7F7FFB9B27F
:102F600020463246CDF800800B46FDF7EFFF681C87
:102F70002246CDF8008085B2781E87B220462946C9
:102F80003B46FDF7E3FF3046294632463B46CDF847
:102F90000080FDF7DBFF02B0BDE8F08180B582B0B4
:102FA000FF20102101228DF8070040F60000C4F236
:102FB0000200FEF7BDFE3220FEF7B6FA40F60430FE
:102FC0000DF1070101220323C2F20000FFF7C8FB45
:102FD00002B080BDF0B581B005460020002140F26E
:102FE0003F12EF23002600F02EF92C0AEDB200BFAD
:102FF000F02700BF204600F06BF9284600F068F982
:10300000013FF7D10136B6F5A07F04BF01B0F0BD96
:10301000EEE780B5FFF7C2FF00F0FEF8CB2000F02E
:103020007BF9392000F054F92C2000F051F90020F0
:1030300000F04EF9342000F04BF9022000F048F97E
:10304000CF2000F069F9002000F042F9C12000F023
:103050003FF9302000F03CF9E82000F05DF98520D0
:1030600000F036F9002000F033F9782000F030F954
:10307000EA2000F051F9002000F02AF9002000F0C9
:1030800027F9ED2000F048F9642000F021F9032031
:1030900000F01EF9122000F01BF9812000F018F951
:1030A000F72000F039F9202000F012F9C02000F0DC
:1030B00033F9232000F00CF9C12000F02DF9102085
:1030C00000F006F9C52000F027F93E2000F000F9D5
:1030D000282000F0FDF8C72000F01EF9862000F03F
:1030E000F7F8362000F018F9E82000F0F1F83A205F
:1030F00000F012F9552000F0EBF8B12000F00CF9C7
:10310000002000F0E5F8182000F0E2F8B62000F00A
:1031100003F9082000F0DCF8822000F0D9F827201D
:1031200000F0D6F8F22000F0F7F8002000F0D0F818
:10313000262000F0F1F8012000F0CAF8E02000F0AD
:10314000EBF80F2000F0C4F8312000F0C1F82B207C
:1031500000F0BEF80C2000F0BBF80E2000F0B8F82C
:10316000082000F0B5F84E2000F0B2F8F12000F091
:10317000AFF8372000F0ACF8072000F0A9F81020D5
:1031800000F0A6F8032000F0A3F80E2000F0A0F84D
:10319000092000F09DF8002000F09AF8E12000F0EE
:1031A000BBF8002000F094F80E2000F091F81420F5
:1031B00000F08EF8032000F08BF8112000F088F862
:1031C000072000F085F8312000F082F8C12000F0DF
:1031D0007FF8482000F07CF8082000F079F80F20F4
:1031E00000F076F80C2000F073F8312000F070F851
:1031F000362000F06DF80F2000F06AF8112000F082
:103200008BF87820FEF790F9292000F085F82C2023
:10321000BDE8804000F080B810B540F600041021F1
:103220000022C4F202042046FEF782FD6420FEF76D
:103230007BF9204610210122FEF77AFD3220BDE8FD
:103240001040FEF771B9F0B581B007462A201C4640
:1032500016460D4600F060F8380A00F039F8F8B26A
:1032600000F036F8300A00F033F8F0B200F030F831
:103270002B2000F051F8280A00F02AF8E8B200F0FC
:1032800027F8200A00F024F8E0B200F021F82C2002
:1032900001B0BDE8F04000F03FB8B0B505462A20C7
:1032A0000C4600F039F8280A00F012F8E8B200F0F5
:1032B0000FF82B2000F030F8200A00F009F8E0B2F7
:1032C00000F006F82C20BDE8B04000F025B8000062
:1032D000B0B540F60004054620210022C4F20204E5
:1032E0002046FEF725FDA4F5006010210122FEF71F
:1032F0001FFD40F60430C2F20000006881688907B3
:10330000FCD5C56081688907FCD5204620210122B3
:10331000BDE8B040FEF70CBDB0B540F60004054670
:1033200020210022C4F202042046FEF701FDA4F58C
:10333000006010210022FEF7FBFC40F60430C2F2D0
:103340000000006881688907FCD5C560816889072D
:10335000FCD5204620210122BDE8B040FEF7E8BCA4
:1033600010B541F600044FF480610122C4F202045A
:103370002046FEF7DDFC20464FF400610122FEF7F7
:10338000D7FC20464FF480510122FEF7D1FC2046A5
:103390004FF400510122BDE81040FEF7C9BC10B542
:1033A00041F600044FF480610022C4F2020420467A
:1033B000FEF7BEFC20464FF400610022FEF7B8FC89
:1033C00020464FF480510022FEF7B2FC20464FF415
:1033D00000510022BDE81040FEF7AABC10B540F233
:1033E0002954C2F20004207801280DD140F2153092
:1033F000C2F200000078C0B940F20000C2F2000042
:10340000007800F01DFB207878B940F21530C2F248
:1034100000000078012808D140F20000C2F200004C
:103420000078BDE81040FDF725BB10BDB0B584B0F5
:1034300040F6C81042F200020123002401254FF497
:103440008031C2F20000C4F20102C0F60073C4620F
:1034500080F820400576836280F83040C561C0E97D
:103460000021C0E90244C0E90445CDE90244CDE9A8
:103470000044FDF762FE08B1FDF7FAFA40F6C81005
:1034800069460294CDE90055C2F20000FDF7CEFD79
:1034900008B1FDF7EDFA04B0B0BDB0B584B040F6A8
:1034A000102042F200120123002401254FF4803144
:1034B000C2F20000C4F20102C0F60073C46280F8D8
:1034C00020400576836280F83040C561C0E9002164
:1034D000C0E90244C0E90445CDE90244CDE9004415
:1034E000FDF72BFE08B1FDF7C3FA0220CDE9015428
:1034F0006946009040F61020C2F20000FDF796FDEC
:1035000008B1FDF7B5FA04B0B0BDB0B584B040F66F
:10351000582042F200220123002401254FF480317B
:10352000C2F20000C4F20102C0F60073C46280F867
:1035300020400576836280F83040C561C0E90021F3
:10354000C0E90244C0E90445CDE90244CDE90044A4
:10355000FDF7F3FD08B1FDF78BFA0D20CDE901541D
:103560006946009040F65820C2F20000FDF75EFD6B
:1035700008B1FDF77DFA04B0B0BD2DE9F04F87B07A
:1035800043F63000002600250022CDE905660196AD
:10359000C4F20200C4F20205016841F0200101609A
:1035A000016801F02001019101990196016841F043
:1035B00080010160016801F080010191019901968B
:1035C000016841F004010160016801F0040101910A
:1035D00001990196016841F001010160016801F063
:1035E0000101019101990196016841F00201016018
:1035F000016801F00201019101990196016841F011
:1036000008010160016801F008010191019901962A
:10361000016841F0400101601021006800F04000A5
:10362000019001982846FEF783FB05F500683021DC
:1036300000224FF0300B4046FEF77AFB05F5806A1A
:103640000721012201245046FEF772FB05F5C059FF
:103650004FF4F84101224846FEF76AFB022002AF10
:103660000290002004943946C1F21100039005F540
:10367000A050FEF783FA102002A9059651C12846F2
:103680003946FEF77BFA03A8CDF808B04FF0030BDC
:10369000394680E850084046FEF770FA50463946F1
:1036A000CDE9046BCDE90244FEF768FA06200596E1
:1036B000CDE90346394602905046FEF75FFA0025F1
:1036C0004FF4C050394602904046C1F211050494AF
:1036D0000395FEF753FA3520394602900020CDE9D4
:1036E0000354C4F2020000F54060FEF747FA4FF4BD
:1036F000705002A9059651C148463946FEF73EFA78
:103700001120394603904FF4804002904846CDE99D
:103710000466FEF733FA0820CDE9035439460290D7
:103720005046FEF72BFA062000210022FEF781FC0E
:103730000620FEF76FFC072000210022FEF779FC2F
:103740000720FEF767FC082000210022FEF771FC2D
:103750000820FEF75FFC092000210022FEF769FC2B
:103760000920FEF757FC0A2000210022FEF761FC29
:103770000A20FEF74FFC172000210022FEF759FC1B
:103780001720FEF747FC282000210022FEF751FCFD
:103790002820FEF73FFC07B0BDE8F08F80B540F66B
:1037A000A02048F2A06345F200414FF4804C002273
:1037B000C2F20000C0F20103C4F200010262C0E9DB
:1037C0000013C0E90222C0E904C2C0E90622FEF7E4
:1037D000BAFA002814BFBDE8804080BDFDF748B9A3
:1037E00080B540F6F42040F60001C2F20000C5F2B8
:1037F00006010160FEF70CFF002814BFBDE8804001
:1038000080BDFDF735B910B540F6043043F2000431
:103810004FF482724FF4007C4FF0010E022300211E
:10382000C2F20000C4F20104C0E900420A22C0E969
:103830000211C0E9043EC0E906C1C0E90811C0E9AF
:103840000A12FEF717FF002814BFBDE8104010BD94
:10385000FDF70EB910B58EB0002401A81C21CDE9EA
:103860000C44CDE90A44CDE90844FCF7E1FC40F6FC
:103870005C3040F2E73153224FF08043C2F2000047
:103880008461C0E90032C0E902410461FFF755F8E4
:1038900008B1FDF7EDF84FF480500AA90A9040F600
:1038A0005C30C2F20000FFF78EF808B1FDF7E0F8D7
:1038B00040F65C30C2F20000FFF7E9F908B1FDF70D
:1038C000D7F840F65C30002408A9C2F20000CDE928
:1038D0000844FFF711F808B1FDF7CAF84FF4FA7081
:1038E0000594039401A90C2202906020019040F6F7
:1038F0005C30C2F20000FFF77BF908B1FDF7B8F8C1
:1039000040F65C30C2F20000FFF724F90EB010BDA3
:1039100010B58EB0002401A81C21CDE90C44CDE9DE
:103920000A44CDE90844FCF783FC40F69C3040F2A1
:1039300000434FF47A715322C2F20000C4F2000334
:103940008461C0E90032C0E902410461FEF7F5FF7D
:1039500008B1FDF78DF84FF480500AA90A9040F69F
:103960009C30C2F20000FFF72EF808B1FDF780F896
:1039700040F69C30C2F20000FFF789F908B1FDF76C
:1039800077F840F69C30002408A9C2F20000CDE987
:103990000844FEF7B1FF08B1FDF76AF84FF4FA707A
:1039A0000594039401A9002202906020019040F642
:1039B0009C30C2F20000FFF71BF908B1FDF758F880
:1039C00040F69C3001A90422C2F20000FFF710F972
:1039D00008B1FDF74DF840F69C3001A90822C2F26B
:1039E0000000FFF705F908B1FDF742F840F69C30FA
:1039F000C2F20000FFF7AEF80EB010BD80B540F681
:103A0000DC3041F2000200214FF00C0C4FF4E133A6
:103A1000C2F20000C4F20102C0E90023C0E90211B1
:103A2000C0E9041CC0E90611FFF74CF9002814BFD7
:103A3000BDE8804080BDFDF71BB80000FEE7000038
:103A400010B582B003285CD0022800F0B1800128B4
:103A500040F00E8140F22A54C2F20004207830B9BE
:103A60004FF6FF70FFF7B6FA20780130207045F668
:103A7000B93005214BF204124FF6FF73C0F6000077
:103A800000906E20FDF72EF94FF6A0601E214FF436
:103A900096721E2300901420FDF758FA83A032215D
:103AA0004BF204124FF6FF7300901420FDF71AF941
:103AB00045F6F5305A214BF204124FF6FF73C0F66B
:103AC000000000901420FDF70DF945F6E930822141
:103AD0004BF204124FF6FF73C0F600000090142062
:103AE000FDF700F945F6C730DC214BF204124FF622
:103AF000FF73C0F600000090E120FDF71FF80120E1
:103B0000ACE040F22A54C2F20004207830B94FF6FB
:103B1000FF70FFF75FFA20780130207045F6B9306A
:103B200005214BF204124FF6FF73C0F6000000901F
:103B30006E20FDF7D7F84FF6A0601E214FF4967265
:103B40001E2300901420FDF701FA45F6CF303221F4
:103B50004BF204124FF6FF73C0F6000000901420E1
:103B6000FDF7C0F845F6F5305A214BF204124FF636
:103B7000FF73C0F6000000901420FDF7B3F83DA0DD
:103B800082214BF204124FF6FF7300901420FDF7D0
:103B9000A9F845F6C730DC214BF204124FF6FF734B
:103BA000C0F600000090E120FCF7C8FF032055E0BC
:103BB00040F22A54C2F20004207830B94FF6FF7068
:103BC000FFF708FA20780130207045F6B93005215A
:103BD0004BF204124FF6FF73C0F6000000906E2007
:103BE000FDF780F84FF6A0601E214FF496721E2359
:103BF00000901420FDF7AAF945F6CF3032214BF2A0
:103C000004124FF6FF73C0F6000000901420FDF779
:103C100069F81FA05A214BF204124FF6FF7300906F
:103C20001420FDF75FF845F6E93082214BF20412CB
:103C30004FF6FF73C0F6000000901420FDF752F815
:103C400045F6C730DC214BF204124FF6FF73C0F685
:103C500000000090E120FCF771FF022000904FF47B
:103C60008C70C8214FF478424FF6FF73FDF722F9AC
:103C700002B010BD4C454420436F6E74726F6C20CF
:103C80002020202020202020202020203C2D00004B
:103C9000456E7669726F6E6D656E7420496E666FE3
:103CA000726D6174696F6E203C2D000047616D6517
:103CB0003A476C7574746F6E6F757320536E616BD9
:103CC0006520203C2D00000010B540F6C814C2F25B
:103CD00000042046FDF7B0FB40F61020C2F20000C1
:103CE000FDF7AAFB2046FF21FDF74EFB08BB40F67F
:103CF000C810C2F20000FDF71DFA0446FCF730FBC5
:103D00009FED370B53EC102BFCF79DFA9FED360B14
:103D100053EC102BFCF797FA40F6B41241EC100B61
:103D200040F62040C2F20002C2F20000146080EDB2
:103D3000000B40F61020FF21C2F20000FDF724FB2B
:103D400008BB40F61020C2F20000FDF7F3F904466C
:103D5000FCF706FB9FED220B53EC102BFCF773FADC
:103D60009FED210B53EC102BFCF76DFA40F6B812C7
:103D700041EC100B40F62840C2F20002C2F20000F3
:103D8000146080ED000B40F65820FF21C2F20000C5
:103D9000FDF7FAFA00B110BD40F65820C2F200005B
:103DA000FDF7C8F90446FCF7DBFA9FED0D0B53EC69
:103DB000102BFCF748FA9FED0C0B53EC102BFCF783
:103DC00042FA40F6BC1241EC100B40F6C010C2F2B1
:103DD0000002C2F20000146080ED000B10BD00BFB5
:103DE0006666666666660A40000000000000303FB6
:103DF000704770472DE9F04F81B040F22634C2F28F
:103E00000004207828B140F227300121C2F20000DE
:103E1000017040F2193BC2F2000B9BF8000028B180
:103E200040F21A300121C2F20000017040F21D3947
:103E3000C2F2000999F8000028B140F21E300121B9
:103E4000C2F20000017040F2243AC2F2000A9AF86D
:103E5000000028B140F225300121C2F200000170BB
:103E600000F00FFB40F62D07C2F2000797F8800024
:103E70000138395C0539E12906D8384490F840000A
:103E80000538E228C0F07F82012087F88100FCF726
:103E900077FC97F88100002840F0678140F22731D5
:103EA00040F22138C2F20001C2F20008097898F805
:103EB0000000012901D1022805D101284DD19BF82C
:103EC0000010012949D1387897F8401000220523C5
:103ED00000920522FFF70AF897F88000411E012999
:103EE00010DB002307F14002002600BF581C0136FA
:103EF000395CF954105CD054F3B297F88000411E3D
:103F00009942F3DC384410F8020C785497F880009A
:103F1000384490F83E10053980F83F1097F880003B
:103F200080B100254FF478467919785D0522052384
:103F300091F840100096FEF7D9FF97F88000013500
:103F40008542F1D39BF800000021002806BF012024
:103F500088F8000098F80000217040F21A31C2F28F
:103F600000010978012901D1012804D102284CD18E
:103F70002178012949D1387897F84010002205238B
:103F800000920522FEF7B2FF97F88000411E01293A
:103F900010DB002307F14002002600BF581C013649
:103FA000395CF954105CD054F3B297F88000411E8C
:103FB0009942F3DC384410F8020C785497F88000EA
:103FC000384490F83E10053180F83F1097F8800093
:103FD00080B100254FF478467919785D05220523D4
:103FE00091F840100096FEF781FF97F880000135A8
:103FF0008542F1D320780021002806BF022088F8EE
:10400000000098F800008BF8001040F21E31C2F258
:1040100000010978012901D1042805D103284DD1D7
:104020009AF80010012949D1387897F840100022F9
:10403000052300920522FEF759FF97F88010481ECD
:1040400001280FDB002307F140020026581C01362F
:10405000395CF954105CD054F3B297F88010481EC4
:104060009842F3DC394411F8021C0539395497F8A9
:104070008000384490F83E1080F83F1097F8800098
:1040800080B100244FF478453919385D05220523A5
:1040900091F840100095FEF729FF97F88000013451
:1040A0008442F1D39AF800000021002806BF0320C3
:1040B00088F8000098F8000089F8001040F22531D7
:1040C000C2F200010978012901D1032805D1042891
:1040D0004BD199F80000012847D1387897F8401063
:1040E0000022052300920522FEF700FF97F88010BA
:1040F000481E012810DB002307F14002002600BF04
:10410000581C0136395CF954105CD054F3B297F85E
:104110008010481E9842F3DC394411F8021C053126
:10412000395497F88000384490F83E1080F83F10DA
:1041300097F8800080B100244FF478453919385D34
:104140000522052391F840100095FEF7CFFE97F861
:10415000800001348442F1D399F8000010B90420A2
:1041600088F8000000208AF8000097F880000428F2
:1041700019D33978002301221E463B44DD788D4255
:1041800007D193F8433097F84050AB4208BF87F807
:104190008120731C04368642EED3402803D1FCF7FD
:1041A0005DFB97F8800040F2123A0138C2F2000A33
:1041B000395C9AF80020914275D138449AF8011080
:1041C00090F8400088426ED140F22D5845F60D44DB
:1041D00097F88220C2F20008C0F60004404621464B
:1041E00000F02EFDFA20282100220023CDF80080C7
:1041F0004FF00009FCF7A2FC40F2293697F8832023
:104200002146C2F20006304600F01AFDFA205A217B
:10421000002200230096FCF791FC9AF800009AF81F
:10422000011005220523CDF80090FEF75FFE97F8F8
:1042300080009AF80010013087F8800057FA80F06B
:1042400000F8011C9AF8011097F88000384480F8B3
:104250003F1097F8820097F8831001310A3087F8F1
:10426000831087F88200C2B24046214600F0E8FC85
:1042700097F883203046214600F0E2FCFA202821FE
:104280004FF6E0720023CDF80080FCF757FCFA20CF
:104290005A214FF6E07200230096FCF74FFC0120F4
:1042A0008AF8020005E09AF80200002856D001289A
:1042B00062D140F6F4244AF6AB264CF6CD48C2F261
:1042C0000004CAF6AA26CCF6CC4800BF2046FEF76A
:1042D00094F9002800D54042A0FB0612510901EBD9
:1042E0004101A0EB011000EB8000C1B2A1FB08234B
:1042F0009A0802EB8202891A042908BF01308AF861
:1043000000002046FEF779F9002800D54042A0FBC6
:104310000612510901EB4101A0EB011000EB8000F6
:104320008AF8010097F88000A8B19AF800300022BE
:10433000002100BFBD5CAB4204D1BD1895F84050D0
:10434000AB4205D0013201318242F3D301E000BF1C
:10435000D1B28142BAD100208AF8020097F88100D8
:1043600050B99AF800009AF801104FF4FC62052346
:1043700000920522FEF7BAFD4FF4FA7001B0BDE8D5
:10438000F04FFDF7D1B897F8810001283FF47FADD9
:1043900081E5000010B582B0044640F204001346E7
:1043A0000A4649F68171C2F20000C1F25E610068FE
:1043B000A0FB0101480D4FF47A71484301906068F9
:1043C000B0F5827F0AD12046802100F013F870B149
:1043D000606D40F020006065032009E0019830B175
:1043E000019801380190206880680006F6D400200A
:1043F00002B010BD2DE9F041804600680F4681688B
:104400003940B9420ED11D461646541C34B1FDF751
:1044100094FC411BD8F80000B14206D281683940B3
:10442000B942F3D00020BDE8F081416821F0E001FD
:104430004160D8F80410B1F5827F0BD1D8F808108C
:10444000B1F5004F02D0B1F5806F03D1016821F0C2
:1044500040010160D8F82810B1F5005F07D101686C
:1044600021F400510160016841F400510160002015
:1044700088F85000012088F851000320BDE8F08141
:1044800070472DE9F04381B040F22D68FA20B42145
:1044900000220023C2F20008CDF80080FCF74EFB9A
:1044A00040F22D794FF49170B42100220023C2F222
:1044B0000009CDF80090FCF741FB40F21216FA20FB
:1044C000DC2100220023C2F200060096FCF736FB36
:1044D00040F212274FF49170DC2100220023C2F237
:1044E00000070097FCF72AFB40F62D0545F60D4422
:1044F000C2F20005C0F6000495F880002146284469
:1045000010F8012C404600F09BFB95F880002146F6
:10451000284490F83F20484600F092FB40F21235C4
:1045200030462146C2F200052A7800F089FB6A78FD
:104530003846214600F084FBFA20B4214FF6FF7282
:104540000023CDF80080FCF7F9FA4FF49170B42104
:104550004FF6FF720023CDF80090FCF7EFFAFA2037
:10456000DC214FF6FF7200230096FCF7E7FA4FF4C8
:104570009170DC214FF6FF7200230097FCF7DEFA02
:1045800001B0BDE8F083FDF7DBBCB0B592B043F6F7
:10459000400000240225CDE90A44CDE908440194F5
:1045A000C4F20200016841F080510160006800F02F
:1045B000805001900198019447F20000C4F200007D
:1045C000016841F480410160006800F4804001907E
:1045D0000198072011904FF4A87010950F901920A2
:1045E0000E904FF48000CDE90C504FF4A0200790BE
:1045F0000120069006A8FDF75BFE4FF480500521D0
:1046000005904FF4A05004900F20CDE90254019082
:1046100001A8FDF74DFD12B0B0BD4EF608504FF0A9
:10462000000CCEF20000D0F8801041F47001C0F808
:10463000801043F60001C4F202010A6842F0010250
:104640000A60C1F808C04FF6FF720B68CFF6F66239
:104650001A400A6043F21002C2F200424A600A683D
:1046600022F480220A60C1F80CC04FF000610160A2
:10467000704740F6FF3C0268C4F2000C60450DDC58
:10468000B0F1804F1BD040F20043C4F200039842C7
:1046900015D040F60003C4F200030EE040F60043DC
:1046A000C4F2000398420AD040F20043C4F201036E
:1046B000984204D00023C4F20103984203D14B680E
:1046C00022F070021A4341F6FF73C4F200039842CD
:1046D0000DDC60451FDCB0F1804F3FD040F200435D
:1046E000C4F20003984239D040F6000321E043F6BB
:1046F000FF73C4F2010398421EDC42F20003C4F2CD
:10470000000398422AD00023C4F20103984225D026
:1047100040F200431EE040F60043C4F2000398421A
:104720001CD041F60003C4F20003984216D041F6B3
:104730000043C4F200030FE044F20003C4F201039B
:1047400098420BD044F60003C4F20103984205D00E
:1047500044F20043C4F20103984203D1CB6822F42F
:1047600040721A434B6922F080021A4340F2004320
:104770000260C4F201038A68C2620A68826240F47D
:1047800080629A4204BF0969016301214161704757
:1047900070B5026A22F001020262036AD0F804E0F6
:1047A00082698C68D1F800C023F0020322F0730202
:1047B000234340F200444CEA020C40F48062C4F20D
:1047C0000104A2420CD1CE68D1E905452EF4407215
:1047D000224342EA050E23F00C0226F004031343A1
:1047E000C0F804E0C0F818C049684163036270BDB6
:1047F00070B5026A22F010020262026AD0F804E088
:1048000083698C68D1F800C022F0200223F4E643CB
:1048100042EA041240F2004443EA0C2C40F4806364
:10482000C4F20104A3420FD1CE68D1E905452EF4AC
:10483000406322F0C00243EA840343EA850E6FF02E
:10484000400303EA06131A43C0F804E0C0F818C096
:1048500049688163026270BD70B5026A22F4807299
:104860000262026AD0F804E0C3698C68D1F800C023
:1048700022F4007223F0730342EA042240F200445F
:104880004CEA030C40F48063C4F20104A3420FD14C
:10489000CE68D1E905452EF4405322F4406243EA44
:1048A000041340F2FF4443EA051E3302A3431A43B4
:1048B000C0F804E0C0F81CC04968C163026270BD62
:1048C000B0B5026A22F480520262D0F820C0436878
:1048D000D0F81CE08A680D682CF4005444EA023CCD
:1048E0002EF4E64240F2004442EA052240F480659C
:1048F000C4F20104A54202BF4D6923F4804343EA98
:1049000085134360C26149680164C0F820C0B0BD2E
:104910002DE9F04381B00446006849F20C65016955
:10492000E26821F4405111430161A168D4E90423F4
:10493000E769C6681143AE43B7F5004F41EA03018A
:1049400041EA070141EA0601C1604169A26921F417
:10495000407141EA0201416141F2004140F480604E
:10496000C4F2010145D1884240F08880FDF758FC2F
:10497000D4F804808146FDF753FC65680646FDF7D0
:104980004FFC6168192778434900B0FBF1F048F209
:104990001F51C5F2EB11A0FB01235A09642302FB4E
:1049A000130206FB07F36E00B3FBF6F3181A4FEA87
:1049B00048031044322202EBC000A0FB01024FF476
:1049C000F87000EA121009FB07F2B2FBF3F2A2FB47
:1049D00001126FF00F0101EA520100EB0108FDF72F
:1049E0001FFC616878434900B0FBF1F6FDF718FC45
:1049F00086E0884240F08A80FDF712FCD4F80480FB
:104A00008146FDF70DFC65680646FDF709FC616807
:104A1000192778438900B0FBF1F048F21F51C5F225
:104A2000EB11A0FB01235A09642302FB130206FBCE
:104A300007F3AE00B3FBF6F3181A4FEA88031044ED
:104A4000322202EB0010A0FB0102F02000EA52101B
:104A500009FB07F2B2FBF3F2A2FB01126FF00F01A8
:104A600001EA520100EB0108FDF7DAFB61687843C7
:104A70008900B0FBF1F6FDF7D3FB88E0FDF7BDFB45
:104A8000D4F804808146FDF7B8FB65680646FDF75B
:104A9000B4FB6168192778434900B0FBF1F048F294
:104AA0001F51C5F2EB11A0FB01235A09642302FB3D
:104AB000130206FB07F36E00B3FBF6F3181A4FEA76
:104AC00048031044322202EBC000A0FB01024FF465
:104AD000F87000EA121009FB07F2B2FBF3F2A2FB36
:104AE00001126FF00F0101EA520100EB0108FDF71E
:104AF00084FB616878434900B0FBF1F6FDF77DFB6C
:104B00006168784307220323490045E0FDF775FB00
:104B1000D4F804808146FDF770FB65680646FDF712
:104B20006CFB6168192778438900B0FBF1F048F20B
:104B30001F51C5F2EB11A0FB01235A09642302FBAC
:104B4000130206FB07F3AE00B3FBF6F3181A4FEAA5
:104B500088031044322202EB0010A0FB0102F02077
:104B600000EA521009FB07F2B2FBF3F2A2FB0112BA
:104B70006FF00F0101EA520100EB0108FDF73DFB68
:104B8000616878438900B0FBF1F6FDF736FB616898
:104B900078430F2204238900B0FBF1F0311A48F268
:104BA0001F57C5F2EB17A0FB07656E09642506FBCE
:104BB0001500084498403230A0FB070102EA51106A
:104BC000216840EA0800886001B0BDE8F083000079
:104BD000FEE700004FF6FF70FEF7FCF940F22830C8
:104BE0000121C2F20000017040F22950C2F200001F
:104BF000017000BFFEF7F2FBFCE77047FDF7ADF96F
:104C0000FFF7C3FCFEF7B9FCFEF7FDFDFEF7E8FD7C
:104C1000FEF70CFCFEF741FCFEF7C0FDFEF71AFEA6
:104C2000FEF776FEFEF7EAFEFEF76FFCFEF7F1F9FF
:104C30004FF6FF70FEF7CEF9FFF7CCFFFCE7000060
:104C40000FB4084B10B504A902AA039800F0DEF8CF
:104C5000044602A9002000F070FC204610BC5DF85C
:104C600014FB00003B55000802E008C8121F08C1F1
:104C7000002AFAD170477047002001E001C1121FDD
:104C8000002AFBD1704700002DE9FF5F82B00021B0
:104C9000DDE90430020DDDF840B0034318D044F6DE
:104CA0001050A2F2FF3242431514119801281FD070
:104CB000A5EB0B00401C5FEA000A4FF000064E4FC8
:104CC000DFF83891B046504615D5CAF1000413E01C
:104CD000119801244AA3012801D16FEA0B0102981F
:104CE000119AC0E90031C0E9024206B0BDE8F09F68
:104CF000CBF10000DFE704460021404A491842EBAF
:104D00000450CDE9001012E0E00707D032463B46E0
:104D100040464946FBF797FA8046894632463B466D
:104D200010461946FBF78FFA06460F466410002C12
:104D3000EAD1DDE90401DDE90023BAF1000F06DA6A
:104D4000FBF781FA42464B46FBF77DFA05E0FBF79D
:104D500051FC42464B46FBF74DFC04460E460022F2
:104D6000284BFBF7CFFC03D84FF0FF30014607E09C
:104D70000022254B20463146FBF795FBFBF7A9FCAB
:104D8000102409E0002C0ADB0A220023FBF718FAA2
:104D9000039B30321A55641E50EA0102F2D1641CA2
:104DA000039AC4F111031444119A012A03D0012279
:104DB00008430DD10AE0084304D000204FF0110B46
:104DC000119072E7A3EB0B056D1E0DE05B4504DD52
:104DD0004FF0000205F1010504E003DA4FF0000294
:104DE000A5F10105002AECD002981199C0E9023121
:104DF000C0E9004579E70000000014400000F03FE2
:104E0000300000000000F0430000E03F2DE9FF4FBC
:104E100095B09B468946064600250FE2252877D1A6
:104E200000242746F84A0121059400E0044316F8BF
:104E3000013F203B01FA03F01042F7D130782A28D5
:104E400011D06FF02F033078A0F13002092A16D864
:104E5000059A44F0020402EB820203EB4202104482
:104E6000761C0590EFE759F8042B0592002A03DA27
:104E7000504244F40054059044F00204761C30780B
:104E80002E2816D116F8010F44F004042A280DD05C
:104E90006FF02F023078A0F13003092B09D807EB0F
:104EA000870302EB4303C718761CF3E759F8047B2A
:104EB000761C30786C280FD006DC4C2817D0682878
:104EC0000DD06A2814D104E0742810D07A280FD1AC
:104ED0000DE044F400140AE044F4801401E044F4CA
:104EE00040147278824202D104F58014761C761C3C
:104EF000307866280BD013DC582877D009DC0028DE
:104F000075D04528F6D04628F4D047281AD19DE11F
:104F100018E0632835D0642879D0652812D195E14E
:104F2000702873D008DC6728F1D069286FD06E280C
:104F30000DD06F2806D1B5E073282CD0752875D018
:104F4000782874D05A46179990476D1C75E1C4F3C0
:104F50000250022809D003280DD0D9F800100428E7
:104F60000DD00D6009F1040967E1D9F80010EA17C6
:104F7000C1E90052F6E7D9F800100D80F2E70D7094
:104F8000F0E719F8041B8DF8001000208DF80100DF
:104F9000EA46012003E059F804AB4FF0FF30610707
:104FA0004FF0000102D40DE008F101018846B9423A
:104FB0000FDA8045F8DB1AF808100029F4D108E070
:104FC00008F1010188468142FADB1AF8081000292D
:104FD000F6D105985B46A0EB080721463846179A9C
:104FE00000F094FA284400EB080507E04DE029E1C1
:104FF0000DE01AF8010B5A4617999047B8F10108CD
:10500000F7D25B4621463846179A13E142E00A225E
:105010000092C4F302524FF0000A022A08D059F855
:1050200004CB032A4FEAEC710AD00DE029E02AE014
:1050300009F1070121F00702F2E802C1914609E0F7
:105040000FFA8CFC4FEAEC71042A03D14FFA8CFC66
:105050004FEAEC71002907DA0A460021DCF1000C66
:1050600061EB02012D2202E0220504D52B228DF8EE
:105070000420012203E0E20701D02022F7E7904656
:1050800059E00A2102E010220DE010214FF0000A41
:1050900000910BE010224FF0000A44F004040827AE
:1050A000009203E008224FF0000A0092C4F302527B
:1050B000022A05D059F804CB0021032A08D009E0C0
:1050C00009F1070121F00702F2E802C1914605E06B
:1050D0001FFA8CFC042A01D10CF0FF0C4FF00008E1
:1050E000220728D5702806D0009B83F0100353EACE
:1050F0000A0305D00EE040228DF80420012208E0CA
:105100005CEA010206D030228DF804208DF80500FB
:1051100002229046009B83F0080353EA0A030AD157
:105120005CEA010201D1620705D530228DF8042026
:105130004FF001087F1E582804D034A003900EA819
:1051400002900DE036A0F9E753466046009AFBF75F
:1051500037F884460398825C0298401E02900270E1
:105160005CEA0100F0D1029806A9081A00F1200AB1
:10517000600702D524F4803400E00127574502DDA2
:10518000A7EB0A0000E0002000EB0A010090059860
:105190004144401A0590E00306D45B462146179A25
:1051A000059800F0B3F90544002706E001A85A4627
:1051B000C05D179990476D1C7F1C4745F6DBE003E7
:1051C0000CD55B462146179A059800F09FF90544D7
:1051D00004E030205A46179990476D1C0099481EEC
:1051E00000900029F5DC08E0029802995A46007800
:1051F000491C0291179990476D1CBAF10001AAF160
:10520000010AF1DC65E10000092801003031323388
:1052100034353637383961626364656600000000F2
:1052200030313233343536373839414243444546DC
:105230000000000000F058F90544761C3078002882
:105240007FF4ECAD19B02846BDE8F08F620700D4BA
:10525000062709F1070222F0070CFCE80223E146C9
:1052600003F000485FEA080C02D00FF2702C0DE04A
:105270005FEA045C02D50FF2682C07E05FEAC47CA9
:1052800002D00FF2602C01E0AFF2700C4FF0FF384B
:1052900023F00043CDF850C065280CD006DC45282B
:1052A00009D046281DD047283DD13DE0662818D0BA
:1052B00067287ED138E00021112F01DB112000E0AA
:1052C000781CCDE9000106A90EA8FFF7DDFCDDE999
:1052D0000F010E9A03910021009207F1010A049137
:1052E0004DE04FF000400097CDE9011006A90EA84F
:1052F000FFF7CAFCDDE90F0203920E9B1199002211
:10530000DDF80CA00093049211B9791C00EB010A9E
:10531000B7EB0A0004D4C0F1FF3007F1010A049092
:10532000AAEB0700019044E0012F00DA01270021D9
:10533000112F01DD112000E03846CDE9000106A95A
:105340000EA8FFF7A1FCDDE90F010E9A03910021E1
:1053500004910092BA4621070CD40399514500DA12
:105360008A46BAF1010F05DD009AAAF10101515CEC
:10537000302908D0B84202DA10F1040F06DA012110
:10538000CDE9011015E0AAF10101E9E7002805DCEB
:10539000049901440491AAEB000102E0411C51452B
:1053A00000DD8A460499401A401C01904FF00040ED
:1053B0000290200704D40198504501DBCDF8048009
:1053C00000208DF84F0002980DF14F07B0F1004F0B
:1053D00025D02B200E9002984FF0020800280CDAFE
:1053E000404202902D200E9007E00A210298FAF721
:1053F000C8FF3031029007F8011DB8F10001A8F193
:105400000108F2DC02980028EFD1791E0E9808708E
:10541000307800F0200040F0450007F8020D12A897
:10542000C01B00F107081498007800B1012000EBC0
:105430000A01019801EBE07105984144401A401EB1
:105440000590E00306D45B462146179A059800F0C4
:105450005DF805441498007818B15A46179990479A
:105460006D1CE00324D55B462146179A059800F091
:105470004DF805441CE00498002807DBDDE9030132
:10548000884203DD0098405C179901E017993020AD
:105490005A469047049805F10105401C0490019874
:1054A000401E019004D12E205A46179990476D1C3A
:1054B000BAF10001AAF1010ADDDC05E017F8010BE1
:1054C0005A46179990476D1CB8F10001A8F10108E0
:1054D000F4DC5B462146179A0598ABE62D000000E8
:1054E0002B000000200000002DE9F04104460025BB
:1054F0001E461746880404D405E039462020B047EC
:105500006D1C641EF9D52846BDE8F0812DE9F041F7
:10551000044600251E469046C80301D5302700E00A
:105520002027880404D505E041463846B0476D1C65
:10553000641EF9D52846BDE8F0810A68531C0B604B
:10554000107070470000000000000000010203041A
:105550000607080900000000010203040000000023
:10556000000000000000000000000000001010100B
:1055700010101010101000001010000000006C6CD3
:105580002424000000000100000000000024242466
:1055900024FE48484848FC909090900000103C54ED
:1055A0009290503814121292547810000000225C2D
:1055B00094A8481010242A52548800000000304853
:1055C0004850206E54948C888A740000000030305B
:1055D000101000000000000000000000000408108F
:1055E00010202020202020101008040000804020DF
:1055F000201010101010102020408000000000002B
:105600001054381038541000000000000000001042
:10561000101010FE1010101000000000000000001C
:10562000000000000000000010102000000000003A
:10563000000000FE0000000000000000000000006C
:105640000000000000000000101000000000040432
:1056500008081010202040408080000000003844DE
:10566000828282828282828244380000000010702E
:105670001010101010101010107C000000003844A2
:10568000828204081020408284FC0000000038441C
:105690008202043804020282443800000000040C34
:1056A000141424244444FE04040E00000000FC8072
:1056B0008080B8C4820202828478000000003C42EC
:1056C0008280B8C4828282824438000000007E4218
:1056D000820404080808101010100000000038446C
:1056E0008282443844828282443800000000384478
:1056F00082828282463A0282443800000000000022
:105700001010000000001010000000000000000059
:105710001010000000000010102000000000000029
:1057200006186080601806000000000000000000FD
:105730000000FE0000FE000000000000000000006D
:10574000C0300C020C30C000000000000038448261
:1057500082020408101010001010000000003844ED
:10576000829AAAAAAAAAAA9680423C000000101017
:105770001028282844447C4444EE00000000FC42E9
:105780004242427C4242424242FC000000003C4411
:105790008280808080808282443800000000F8444B
:1057A000424242424242424244F800000000FC446D
:1057B0004240447C4440404244FC00000000FC4421
:1057C0004240447C4440404040F000000000344CE3
:1057D000828080808E8484844C3400000000EE44FB
:1057E0004444447C4444444444EE000000007C10A3
:1057F0001010101010101010107C000000003E0857
:105800000808080808080888887000000000EE44AE
:10581000484850605048484444EE00000000E040D2
:10582000404040404040404244FC00000000C6442C
:105830006C6C6C545454444444EE00000000CE445C
:1058400064646454544C4C4C44E4000000003844FC
:105850008282828282828282443800000000F84480
:10586000424242447840404040E00000000038445A
:1058700082828282828282BA443C02000000F04826
:10588000444444487048444444E6000000003C441A
:10589000828040300C0202824478000000007C5478
:1058A0009210101010101010103800000000EE447C
:1058B0004444444444444444443800000000EE441A
:1058C0004444442828282810101000000000EE440A
:1058D0005454545454542828282800000000EE44FE
:1058E000442828101028284444EE00000000EE440C
:1058F00044282828101010101038000000007E44A2
:10590000840808102020408284FC0000001C101035
:10591000101010101010101010101C000000EE4499
:105920005454FE54545428282828000000701010A5
:10593000101010101010101010107000003048845B
:105940000000000000000000000000000000000057
:1059500000000000000000000000FE0000402000E9
:105960000000000000000000000000000000000037
:1059700000007884047C84848C7600000000C040A1
:105980004040586442424242645800000000000017
:1059900000003844808080804438000000000C04FF
:1059A0000404344C848484844C36000000000000DD
:1059B0000000788484FC8080847800000000182433
:1059C0002020F8202020202020700000000000006F
:1059D00000003A444478807C82827C000000C04011
:1059E000404058644444444444EE00000000101019
:1059F00000003010101010101038000000001010BF
:105A00000000301010101010109060000000C04016
:105A100040405C485060504844EE000000003010A8
:105A200010101011101010101039000000000000AC
:105A30000000ACD29292929292D600000000000038
:105A4000000058E44444444444EE000000000000D8
:105A50000000384482828282443800000000000046
:105A60000000D864424242645840E0000000000058
:105A70000000364C8484844C34040E000000000086
:105A800000006C302020202020700000000000006A
:105A900000007888846018844478000000000020AA
:105AA0002020F820202020202418000000000000E2
:105AB0000000C64242424242463A00000000000056
:105AC0000000EE44442828281010000000000000C8
:105AD0000000EE4444545428282800000000000030
