:020000040800F2
:10000000180B00209D010008C1290008891E000866
:1000100035270008250700084132000800000000CD
:100020000000000000000000000000005130000847
:100030002707000800000000C32900085731000806
:10004000B7010008B7010008B7010008B7010008B0
:10005000B7010008B7010008C9080008E508000852
:10006000EB080008F1080008F7080008B7010008CD
:10007000B7010008B7010008B7010008B701000880
:10008000B7010008B7010008B7010008B701000870
:10009000B7010008B7010008B7010008FD08000813
:1000A000B7010008B7010008B7010008B701000850
:1000B000B7010008B7010008B7010008B701000840
:1000C000B7010008B7010008B7010008B701000830
:1000D000B7010008B7010008B7010008B701000820
:1000E000CF080008B7010008B7010008B7010008F1
:1000F000B7010008B7010008B7010008B701000800
:10010000B7010008B7010008B7010008B7010008EF
:10011000B7010008B7010008B7010008B7010008DF
:10012000B7010008B7010008B7010008B7010008CF
:10013000B7010008B7010008B7010008B7010008BF
:10014000B7010008B7010008B7010008B7010008AF
:10015000B7010008B7010008B7010008B70100089F
:10016000B7010008B7010008B7010008B70100088F
:10017000B7010008B7010008B7010008000000003F
:10018000B7010008B7010008DFF80CD000F048FA0A
:100190000048004761320008180B002006488047DD
:1001A00006480047FEE7FEE7FEE7FEE7FEE7FEE75C
:1001B000FEE7FEE7FEE7FEE7E731000889010008F9
:1001C0002DE9F05F0546002092469B46884606468C
:1001D000814640241BE0284641464746224600F01F
:1001E00057F853465A46C01A914110D31146184643
:1001F000224600F03EF82D1A67EB01084F462246D2
:100200000120002100F035F817EB00094E41201EB7
:10021000A4F10104DFDC484631462A464346BDE8E6
:10022000F09FD2B201E000F8012B491EFBD27047CB
:100230000022F6E710B513460A4604461946FFF7B2
:10024000F0FF204610BD30B50B46014600202022AD
:10025000012409E021FA02F59D4205D303FA02F5D3
:10026000491B04FA02F52844151EA2F10102F1DC33
:1002700030BD202A04DB203A00FA02F1002070474A
:100280009140C2F1200320FA03F3194390407047D4
:10029000202A04DB203A21FA02F00021704721FADB
:1002A00002F3D040C2F12002914008431946704742
:1002B0002DE9FE4F804681EA0300C00F0C460090F6
:1002C00021F0004123F00045B8EB0200A94105D21E
:1002D0004046214690461C460B46024623F000400D
:1002E000104347D0270DC7F30A00C3F30A51029009
:1002F000401A019040286BDAC3F3130040F4801BCE
:100300000098924620B10023D2EB030A63EB0B0B5B
:1003100001985946C0F140025046FFF7AAFF064631
:100320000D4650465946019A00F08CF910EB080032
:100330006141002487EA115284EAE7731A4340D0EE
:10034000009A62B3019A012A4FEA075215DC001B9A
:1003500061EB02014FF0004202EA0752CDE9004290
:10036000001C41F5801132462B4600F08CF903B099
:10037000BDE8F08F40462146F9E7001B61EB020122
:10038000001C41F5801300185B412018A2F50017EE
:1003900047EB030140EAD570B6196D4111E06D08D5
:1003A0004FEA360645EAC0754FEA0752001B61EB7B
:1003B0000201001C41F5801149084FEA3000001984
:1003C000514132462B4603B0BDE8F04F00F04CB926
:1003D0000098012240000023D0EB020263EBE0739F
:1003E000009821464FEAE074B8EB000061EB04018D
:1003F000E9E783F000435BE781F0004158E72DE92E
:10040000FE4F81EA030404F0004421F0004100940F
:100410004FF0000B23F0004350EA01045ED052EA93
:1004200003045BD0C3F30A54C1F30A552C44A4F26D
:10043000F3340194A0FB0254C1F3130141F4801181
:10044000C3F3130343F4801301FB024400FB034E88
:10045000840A970A44EA815447EA8357A4FB076851
:1004600002958D0A05FB07854FEA932C04FB0C547B
:100470002705029D4FEA065847EA1637B5EB0805EF
:100480006EEB070C870E920E47EA811742EA831241
:10049000A7FB0201B6EB0B0164EB00042B0D43EA52
:1004A0000C335E1844EB1C50DA465146E7FB020160
:1004B000C5F313044FEA0B3343EA14534FEA0432F3
:1004C000019C43EA0603A4F10C040294009CCDE9CC
:1004D00000B400F0D8F803B0BDE8F08F002001466A
:1004E000F9E72DE9F04D81EA030404F0004B21F017
:1004F000004514464FF0000A23F0004150EA05027F
:1005000020D054EA01021DD0C5F30A570246C5F3B4
:100510001303C1F31300C1F30A5640F4801543F4EA
:100520008013A7EB0608101BD64608F2FD3873EBC4
:10053000050002D308F1010801E092185B41B8F10F
:10054000000F03DA00200146BDE8F08D00204FF4D3
:100550008011064684460EE0171B73EB050705D392
:10056000121B63EB050306434CEA010C49084FEAF2
:10057000300092185B4150EA0107EDD152EA0300C6
:1005800012D082EA040083EA0501084305D0101B5B
:10059000AB4106D20122002306E000224FF00043C7
:1005A00002E06FF0010253101AEB06004CEB085109
:1005B00010EB0A0041EB0B01BDE8F04D00F054B820
:1005C000C1F30A52C1F3130140F2FF3341F4801129
:1005D0009A4202DA00200146704740F233439A42C1
:1005E000A2F2334202DC5242FFF752BEFFF741BE95
:1005F00030B5041E71F1000404DB4FF000444042AA
:1006000064EB0101141E73F1000405DB1C464FF07E
:100610000043524263EB0403994208BF904230BD4D
:10062000064C074D06E0E06840F0010394E807003F
:1006300098471034AC42F6D3FFF7AAFDC049000832
:10064000E0490008202A06DBCB17203A41FA02F0E5
:1006500043EAE07306E041FA02F3D040C2F120021F
:10066000914008431946704710B5141E73F10004F9
:1006700008DA401C41F1000192185B411A4301D194
:1006800020F0010010BD2DE9F04D92469B4611B1BE
:10069000B1FA81F202E0B0FA80F220329046FFF720
:1006A000E8FD04460F4640EA0A0041EA0B015346C2
:1006B0005A46084313D0114653EA010019D0C8F135
:1006C00040025046FFF7E4FD05460E4650465946A7
:1006D0004246FFF7CEFD084305D0012004E0204646
:1006E0003946BDE8F08D0020054346EAE0762C430C
:1006F00037430A986305E40AA0EB08000022FD0ACC
:1007000044EA47540A3002D500200146E9E70105D2
:1007100010196941DDE9084500196941BDE8F04D4E
:10072000A2E70000FEE77047F0B581B040F2142464
:1007300040F215250120C2F20004C2F2000520702B
:10074000287828B9002001F0BFFC287801302870F3
:100750004FF4784000214FF4A072F023002600905F
:10076000002001F05FFC17A064214FF6FF72002308
:100770000090642000F0E0F815A096214FF6FF727B
:10078000002300903C2000F0D7F818A0AA214FF6D3
:10079000FF72002300903C2000F0CEF840F22027AA
:1007A000C2F20007387850B140F22860C2F200006F
:1007B000A0F8826001F06AFB3E7026702E7001B0D6
:1007C000F0BD00BF47414D45204F56455221200006
:1007D00050726573732027434F4E4649524D272070
:1007E000746F205265737461727400005072657387
:1007F00073202752455455524E272020746F204DA8
:10080000656E7500F0B581B040F21C24012040F205
:100810001D25C2F20004C2F20005207040F22860DB
:10082000C2F2000090F88310013180F8831028781C
:1008300028B9002001F048FC2878013028704FF4D6
:10084000FC6000214FF4A072F023002600900020ED
:1008500001F0E8FB0FA064214FF6E0720023009046
:10086000642000F069F810A096214FF6E072002392
:1008700000903C2000F060F840F21327C2F200071D
:10088000387820B101F002FB3E7026702E7001B066
:10089000F0BD00BF4D495353494F4E20535543437C
:1008A0004553532100000000507265737320E280AD
:1008B00098436F6E6669726DE2809920746F204371
:1008C0006F6E746975650000012000F038BD80B559
:1008D0004FF4006000F033FD4FF48050BDE88040DD
:1008E00000F02DBD022000F02ABD042000F027BD3D
:1008F000082000F024BD102000F021BD202000F0D1
:100900001EBD7047012818BF704710B540F218206F
:1009100040F21F240121C2F20000C2F20004017063
:10092000207820B901F0B2FA207801302070BDE8BB
:10093000104002F047B800002DE9F04F89B015468D
:10094000129A019005911078002800F0C580019F4F
:100950001C464FF0800800BF41B20897B1F1FF3F3D
:1009600006DD0D2876D10598019F10300590AEE088
:1009700007F1080A0021029202E000BF0298007805
:1009800044F28D12039101EB0111C0F6000212F83E
:100990001120824256D144F28D10C0F6000000EBC7
:1009A000410B02999BF80100497888424AD1002105
:1009B000CDF810B005980026079100EB01090BEB6C
:1009C000410090F902B04800069000BF28FA06F0F6
:1009D00010EA0B0F04D0B8191FFA89F12A4605E076
:1009E000A54206D0B8191FFA89F1224680B200F05C
:1009F0000EFA0136082EE9D10698DDF810B000276E
:100A000040F00100584490F9026000BF28FA07F056
:100A1000304205D00AEB07001FFA89F12A4606E0AA
:100A2000A54207D00AEB07001FFA89F1224680B2DF
:100A300000F0EDF90137082FE8D10799089F01313F
:100A40001029B7D103990131322997D1029A103771
:100A500002323DE04FF6006102924FF0000A4FF083
:100A600000092028C0F20F010A4601EB001102F52F
:100A7000F87288BF01EA0209059843F69C31002705
:100A8000C0F6000100EB0A0B0AEB09000E5C00BF88
:100A900028FA07F0304205D008981FFA8BF12A4651
:100AA00006E000BFA54207D008981FFA8BF1224646
:100AB000384480B200F0ABF90137082FE8D10AF1D1
:100AC000010ABAF1100FD7D1089F029A08370132F4
:100AD000107800287FF440AF09B0BDE8F08F000027
:100AE0002DE9F04F89B004461298059101900078E5
:100AF000002800F0D9804FF600619A4615464FF065
:100B00008009C0F20F0101F5F871009141B208941B
:100B1000B1F1FF3F38DD4FF600614FF0000B4FF0B1
:100B200000082028C0F20F0101EB0011009888BFD7
:100B300001EA0008059843F69C310024C0F6000144
:100B40000BEB00060BEB08000F5C00BF29FA04F06A
:100B5000384203D00898B1B22A4604E0554506D081
:100B60000898B1B25246204480B200F050F90134E6
:100B7000082CEBD10BF1010BBBF1100FDAD1089C63
:100B80000820012188E000BF04F1100804F1080BDF
:100B90000022CDF80C8001E0019800784A210292F1
:100BA000514344F2AF12C0F60002515C81426CD155
:100BB00044F2AF11029A4A20C0F6000102FB001075
:100BC000019904904078497888425ED1002200BFA4
:100BD000049902EB4200002706920844079090F91E
:100BE00002800598161800BF29FA07F010EA080FCE
:100BF00004D0E019B1B22A4605E000BF554505D042
:100C0000E019B1B2524680B200F001F90137082F65
:100C1000EAD10798DDF80C80002490F9037000BF3A
:100C200029FA04F0384205D00BEB0400B1B22A4691
:100C300006E000BF554506D00BEB0400B1B25246AA
:100C400080B200F0E4F80134082CE9D107980024C0
:100C500090F9047029FA04F0384205D008EB04003A
:100C6000B1B22A4606E000BF554506D008EB0400A5
:100C7000B1B2524680B200F0CAF80134082CE9D172
:100C8000069A089C0132182AA2D1029A0132142A2B
:100C90007FF482AF18200221044401984218405C7E
:100CA000019200287FF432AF09B0BDE8F08F000058
:100CB0002DE9F04F85B0CDE9010144F23D210E98B8
:100CC0001C4615468026C0F6000101EBC01000212D
:100CD000009000BF0298DDF804A04FF000090391D6
:100CE0000F18009800EB8100049000BF04984FF0AB
:100CF000000810F809B000BF26FA08F010EA0B0F40
:100D000004D00AEB0800B9B22A4605E0A54206D095
:100D10000AEB0800B9B2224680B200F078F808F178
:100D20000108B8F1080FE7D109F101090AF1080A31
:100D3000B9F1040FDAD103990131202904BF05B0BC
:100D4000BDE8F08FC6E700002DE9F04F83B01E46E6
:100D500090460C46054601F01AFB311B4FF0FF3A56
:100D6000A8EB05084FF0FF39B1F1FF3FC8BF4FF0C6
:100D7000010AB8F1FF3FC8BF4FF00109002900D5B3
:100D80004942B8F1000F4FEA410048BFC8F10008DE
:100D900002904FEA4800884501901ADD02984FF012
:100DA000FF36A0EB080B0198474200BF0C9AA8B28F
:100DB000A1B200F02CF80298BBF1FF3F06F101064A
:100DC0004D445844C4BF3844544446458346EDDB43
:100DD0001AE001984FF0FF36471A0298C0F1000B55
:100DE0000C9A8846A8B2A1B200F011F80198B7F1A8
:100DF000FF3F06F10106414654443844C4BF5844FD
:100E00004D4446450746EBDB03B0BDE8F08F10B517
:100E1000144601F0BCFA200A01F0D4FAE0B2BDE8B1
:100E2000104001F0CFBA0000B0B5044600F071FBED
:100E3000054640F20800611CC2F20000007818BFAD
:100E4000044400BF00F065FB401BA042FAD3B0BDD4
:100E500010B50F2832DC0138072800F26F82DFE876
:100E600010F0080089006D02CD006D026D026D0268
:100E70002101142002F0F3F940F200400121C4F2F4
:100E8000020000F5006000F033FB002800F05682FD
:100E900040F22630C2F200000178012940F0E481DE
:100EA00000210122017040F22520C2F200000270F0
:100EB00040F22730C2F200000170DCE1B0F5006FB3
:100EC0003CDA102800F04681202840F037821420B8
:100ED00002F0C5F940F200402021C4F2020000F502
:100EE000006000F005FB002800F0288240F2252079
:100EF000C2F200000078002800F0208240F21820A2
:100F0000C2F200000078002800F0188240F214209D
:100F100040F21C21C2F20000C2F200010078097800
:100F2000084340F00B8240F224200021C2F200006E
:100F3000017040F22120C2F20000ACE000F04D81CF
:100F4000B0F5805F40F0FA81142002F088F940F299
:100F500000444FF48051C4F2020404F5806000F0B4
:100F6000C7FA002800F0EA8120460121BDE81040C0
:100F700000F0C3BA142002F072F940F200400221DE
:100F8000C4F2020000F5805000F0B2FA002800F030
:100F9000D58140F200000121C2F20000017040F250
:100FA0002630C2F20000017040F225200021C2F27A
:100FB0000000017040F21820C2F20000017040F2FF
:100FC0001420C2F20000017040F21C20C2F20000A6
:100FD000017040F22020C2F20000017040F21F2098
:100FE000C2F20000017040F21520C2F20000017050
:100FF00040F21D20C2F20000017010BD142002F06A
:101000002EF940F200400421C4F2020000F5006015
:1010100000F06EFA002800F0918140F22630C2F212
:101020000000007801280FD140F227300021C2F2E1
:101030000000017040F20000C2F2000001784A1E78
:10104000022938BF0322027040F22520C2F20000BC
:101050000078002800F0728140F21820C2F20000EF
:101060000078002800F06A8140F2142040F21C2130
:10107000C2F20000C2F2000100780978084340F093
:101080005D8140F222200021C2F20000017040F296
:101090002320C2F200000122027040F21B20C2F2A3
:1010A000000093E0142002F0DAF840F2004008213A
:1010B000C4F2020000F01CFA002800F03F8140F268
:1010C0002630C2F20000007801280FD140F227300C
:1010D0000021C2F20000017040F20000C2F20000E4
:1010E00001784A1C022988BF0122027040F22520A3
:1010F000C2F200000078002800F0208140F21820A1
:10110000C2F200000078002800F0188140F214209C
:1011100040F21C21C2F20000C2F2000100780978FE
:10112000084340F00B8140F2222000210122C2F24C
:101130000000017040F21620C2F20000027040F27E
:101140001B20C2F20000017040F22420C2F2000015
:10115000017010BD142002F082F840F2004010210E
:10116000C4F2020000F5006000F0C2F9002800F0AF
:10117000E58040F22520C2F200000078002800F04F
:10118000DD8040F21820C2F200000078002800F054
:10119000D58040F2142040F21C21C2F20000C2F2BD
:1011A000000100780978084340F0C88040F222200E
:1011B00000210122C2F20000017040F21A20C2F2A6
:1011C0000000027040F22420C2F20000017040F2E0
:1011D0001720C2F20000017010BD142002F03FF889
:1011E00040F200404FF40061C4F2020000F580605C
:1011F00000F07EF9002800F0A18040F21820C2F231
:1012000000000178002900F0998040F21421C2F218
:1012100000010A78002A5CD040F200020123C2F2E9
:101220000002137040F22632C2F200021370002353
:1012300040F22522037040F21C20C2F200020B7023
:10124000C2F200001370037040F22020C2F20000CE
:10125000037040F21F20C2F20000037040F215201C
:10126000C2F20000037010BD40F22520C2F200005F
:101270000078002862D040F21820C2F20000007806
:1012800088B140F21421C2F20001097859B140F24C
:1012900015210022C2F200010A7040F22021012231
:1012A000C2F200010A70002848D040F21C20C2F2AD
:1012B00000000078002841D040F21D200021C2F239
:1012C0000000017040F213200121C2F20000017001
:1012D00010BD40F21C22C2F200021378002B08BF9E
:1012E00010BD40F200030124C2F200031C7040F262
:1012F0002633C2F200031C70002440F22523047040
:1013000040F22020C2F200030C701470C2F2000000
:101310001C70047040F21320C2F20000047040F20E
:101320001F20C2F20000047040F21520C2F200003B
:10133000047040F21D20C2F20000047010BD43F69C
:101340001441C4F201010A68024214BF08607047E8
:10135000FFF77EBD2DE9F04F82B041F6004343F622
:10136000004B08224FF0010A00264FF0000CC4F297
:101370000203C4F2010B984200F13E4308BF07226A
:1013800003F1FF734FEAB327072F4FF0000738BF71
:101390004FEAB322009200BF0A680AFA0CF812EA78
:1013A000080F00F09A80D1F804E04EF01002122AE3
:1013B00012D106F01C020F2303FA02F46FF00303AC
:1013C00003EA5C0505442B6AA3430C6904FA02F2A4
:1013D0001A432A62D1F804E0032304680EF00302E2
:1013E000BEF1120F03FA07F302FA07F224EA03042C
:1013F0006FEA030942EA0402026014D80AFA0EF204
:1014000012F0061F0FD08268CB6802EA0902BB40C7
:101410001A438260CEF30012436802FA0CF223EA08
:1014200008031A434260C2688B6802EA0902BB40A3
:101430001A43C2605FEACE024FD5002206F00C05C7
:101440000F24019243F64402AC40C4F20202134658
:10145000126842F480421A601A6802F480420192D3
:101460002CF00302019B5A444FF60843CFF6FF735A
:101470009E46D358A343009C04FA05F52B4342F83B
:101480000E30DBF800204D6842EA0803EC0358BF39
:1014900022EA0803CBF80030AC03DBF8042042EA70
:1014A000080358BF22EA0803CBF80430EC02DBF84B
:1014B000082042EA080358BF22EA080343F60C4218
:1014C000CBF80830AD02C4F201021446126842EAB9
:1014D000080358BF22EA080323600CF1010C02370D
:1014E0000436BCF1100F04BF02B0BDE8F08F53E723
:1014F0000069084018BF0120704742690A408A42CB
:1015000008BF090481617047002A08BF090481618E
:10151000704740F21470C2F200000068704740F259
:10152000080040F21471C2F20000C2F2000100781B
:101530000A6810440860704780B543F60040C4F262
:101540000200016841F400710160016841F48061AA
:101550000160016841F480710160032000F086F8A9
:10156000002000F004F800F028F8002080BDB0B59D
:10157000044640F208004FF47A71C2F2000000788D
:10158000B1FBF0F040F20401C2F200010968B1FBC6
:10159000F0F000F063FC01250F2C0CD858B94FF087
:1015A000FF3021460022002500F032F840F20C0006
:1015B000C2F2000004602846B0BD82B043F640018C
:1015C00000200190C4F202014A6842F480424A605D
:1015D0004A6802F480420192019A0090086840F043
:1015E00080500860086800F080500090009802B0B9
:1015F000704700280BDB00F01F010122400902FAAE
:1016000001F14EF20012CEF2000242F820107047B3
:1016100010B500F00F034EF60C5E00F1604CB0F117
:10162000FF3FA3F10403CEF2000E734403F10C0458
:10163000C8BF0CF56444DEF800004FF0FF3CC0F377
:101640000220C31E80F0070038BF0023042828BFF3
:1016500004200CFA00F021EA00000CFA03F1984093
:1016600022EA010108430001207010BD4EF60C5122
:101670004FF6FF03CEF200010A681A4060F30A2217
:1016800042F0806040F0FD70086070472DE9F04145
:10169000002800F09C8043F6000804460D46C4F282
:1016A0000208D8F8000400F00F00884208D288F839
:1016B0000054D8F8000400F00F00A84240F08780E2
:1016C0002068810717D5410742BFD8F8081041F4B8
:1016D000E051C8F80810010742BFD8F8081041F4DB
:1016E0006041C8F80810D8F80810A26821F0F0018D
:1016F0001143C8F80810C0072FD06068811E022966
:1017000004D2D8F8001089010BD460E0012804D17C
:10171000D8F80010890304D459E0D8F800108907DC
:1017200055D5D8F8081021F003010843C8F808007F
:10173000FFF7EFFE064641F2883700BFD8F80800F1
:10174000616800F00C00B0EB810F06D0FFF7E1FEFE
:10175000801BB842F2D903243AE0D8F8000400F024
:101760000F00A84207D988F80054D8F8000400F008
:101770000F00A8422BD12068410707D5D8F80810E0
:10178000E26821F4E0511143C8F80810000708D5B9
:10179000D8F80800216920F4604040EAC100C8F888
:1017A000080000F018F8D8F8081043F68C3200242E
:1017B000C0F60002C1F30311515CC84040F20401BD
:1017C000C2F2000108600020FFF7D1FE00E0012412
:1017D0002046BDE8F08110B543F60404C4F20204CB
:1017E000606800F00C0008280AD0042819BF42F2F3
:1017F0000040C0F2F40047F64000C0F27D1010BD7A
:10180000226820680023400202F03F0247F64000B1
:10181000C0F27D105CBF42F20040C0F2F4002168CB
:10182000C1F38811A0FB0101FEF7CAFC2168022266
:10183000C1F3014102EB4101B0FBF1F010BD00002A
:101840002DE9F04182B0002800F0148104460078B0
:1018500043F60006C4F20206C0072FD0B06800F0BD
:101860000C00042823D0B06800F00C00082802D136
:10187000706840021BD46768B7F5803F07D03068B6
:10188000B7F5A02F40F01A8140F480203060306816
:1018900040F480303060FFF73CFE0546306880033E
:1018A0000CD4FFF736FE401B6428F7D9A8E0306857
:1018B000800303D56068002800F0DC802078800772
:1018C0002ED5B06810F00C0F07D0B06800F00C00F7
:1018D000082809D17068400206D43068800718D5FE
:1018E000E068012815D0C5E0E1680020C4F2472077
:1018F000002900F0878001210160FFF70AFE0546FC
:101900003068800705D4FFF704FE401B0228F7D992
:1019100076E03068216920F0F80040EAC1003060CC
:101920002078000725D5606988B100200121C4F224
:101930004720C0F8801EFFF7ECFD0546706F80075A
:1019400017D4FFF7E6FD401B0228F7D958E0002026
:101950000021C4F24720C0F8801EFFF7DAFD0546DB
:10196000706F800705D5FFF7D4FD401B0228F7D91B
:1019700046E02078400775D5306C4FF00008C00075
:101980000CD4CDF804804FF00108306C40F080504A
:101990003064306C00F080500190019847F20007ED
:1019A000C4F200073868C0050FD4386840F480706E
:1019B0003860FFF7AEFD05463868C00505D4FFF76F
:1019C000A8FD401B0228F7D91AE0A768012F05D00F
:1019D000306F052F27D140F004003067306F40F0A2
:1019E00001003067FFF795FD054641F2883700BFDB
:1019F000306F80072FD4FFF78CFD401BB842F7D91A
:101A0000032038E000210160FFF783FD054600BF99
:101A1000306880077FF584AFFFF77BFD411B032013
:101A20000229F5D927E020F001003067306F20F05F
:101A300004003067FFF76DFD0546002FD5D141F258
:101A40008837306F800706D5FFF763FD411B032001
:101A5000B942F6D90FE0B8F1000F1EBF306C20F08C
:101A600080503064A769002F60D0B06800F00C008F
:101A7000082803D1012002B0BDE8F08140F200083F
:101A80000020C4F24728C8F86000FFF742FD054671
:101A9000022F09D13068800128D5FFF73AFD411B9C
:101AA00003200229F6D9E6E7306880013ED5FFF72A
:101AB00030FD411B03200329F6D3DCE720F48030FE
:101AC0003060306820F480203060FFF722FD05464A
:101AD000002F7FF4E3AE306880037FF5EFAEFFF7B1
:101AE00018FD411B03206429F5D9C4E704F11C0744
:101AF0008FCF0843D90340EA82104FF6FF7291431B
:101B000040EA0760A1F58031084370600120C8F801
:101B10006000FFF7FEFC04463068800106D4FFF742
:101B2000F8FC011B03200229F6D9A4E70020A2E754
:101B300070B504460079012804BF022070BD012061
:101B400020716079012813D102200D466071FFF7E2
:101B5000E0FC064620684168C9070DD1FFF7D9FCB3
:101B6000801B0328F6D3012002216071A16009E0E7
:101B70000420A060012005E08068E060286001206A
:101B8000607100200021217170BD10B500F10C04BE
:101B90002146FFF7CDFF00280CBF2068002010BDB4
:101BA000A0B110B50446407920B90020207120462C
:101BB00000F00EF8022060712068016841F0040115
:101BC0000160012060710020A06010BD01207047FD
:101BD00040F600010068C5F20601884218BF704750
:101BE00081B00020009043F63400C4F20200016886
:101BF00041F040010160006800F040000090009852
:101C000001B0704770B5C8B3002605464FF0000C10
:101C1000866290F8510030B9284685F8506000F08F
:101C200030F8D5F828C0022185F8511029680A68D3
:101C300022F040020A60D5E90123D5E903041A43E2
:101C400010436A6920431043AA6902F400731843E1
:101C5000EB6918432B6A184340EA0C000860042023
:101C600000EA12406A6A10434860C86920F40060C4
:101C7000C86101206E6585F8510000E001263046FC
:101C800070BD10B586B0044601A81421FEF7D0FA45
:101C900043F200002168C4F20100814226D143F6DC
:101CA0003002002100F550400091C4F20202536955
:101CB00043F480535361536903F480530093009BB2
:101CC0000091136843F001031360126802F00102EF
:101CD0000092009A052205920322CDE90312022107
:101CE0000291E021019101A9FFF734FB06B010BD7C
:101CF0002DE9F04381B0044690F85000012801D14D
:101D00000220A8E04FF001091D4616460F4684F850
:101D10005090FFF7FEFB804694F85100012857D100
:101D20000120002F00F09280002E00F08F80032011
:101D300084F8510000206065E686A6862763A087A8
:101D4000A063C4E91000E087A1682068B1F5004FE6
:101D500002BF016841F480410160016849065EBF2D
:101D6000016841F0400101606268711EE368B1FAE8
:101D700081F1B2FA82F24909B3F5006F4FEA5212CB
:101D800041EA020126D131B137F8021BC160276355
:101D9000E18E0139E186E18E00293FD06E1C00E022
:101DA00020688168890707D4FFF7B3FB66B1A0EB11
:101DB0000800A84208D348E0216B31F8022BC2602A
:101DC0002163E08E0138E086E08E0028E8D125E02E
:101DD00002203BE039B139780173206B0130206378
:101DE000E08E0138E086E08EC0B16E1C206881680C
:101DF000890707D4FFF78DFB6EB1A0EB0800A8425E
:101E000009D322E0216B09780173206B0130206334
:101E1000E08E0138E086E08E0028E7D12046294692
:101E2000424601F09FF808B120206065A06838B9EB
:101E3000002000902068C1680091806800900098A0
:101E4000606D002818BF012000E00320002184F805
:101E5000501084F8519001B0BDE8F083411E00207D
:101E6000B0EB116F1CBF012070474EF21002F0233F
:101E7000CEF2000251604EF62351CEF200010B70FB
:101E80000721906011607047FEE70000F0B581B057
:101E900040F21B200024C2F20000047040F2222015
:101EA000C2F20000047040F21720C2F20000047079
:101EB00040F22420C2F20000047040F21E20C2F260
:101EC00000000470002000F0FFF86FF01F000021F8
:101ED000F022F0231F3080B20090002000F0A2F822
:101EE0003BA014214FF6E07200230090FA20FEF789
:101EF00023FD39A046214FF6E07200230090FA201E
:101F0000FEF71AFD40F228670220C2F20007A7F888
:101F1000800040F21920C2F20000017811B197F858
:101F2000824003E0012187F88240017040F21020D6
:101F300040F2283544F23A2601212246C2F200003E
:101F4000C2F20005C0F6000681702846314601F055
:101F50009BF940F2262497F883203146C2F2000410
:101F6000204601F091F9FA2028214FF6E072002373
:101F70000095FEF7E1FCFA205A214FF6E0720023AB
:101F80000094FEF7D9FC97F88000F8B10020782182
:101F900000EB800278323A543A18013082F840104F
:101FA00097F880209042F3D382B100244FF4784513
:101FB0003919385D05220523009591F8401000F08D
:101FC0000FF897F8800001348442F1D301B0F0BDDE
:101FD00053434F52453A00004C4556454C3A000099
:101FE0002DE9F04381B005461044B0F5A07F16D826
:101FF00089461944F02912D8DDF820805F1C00249E
:1020000086B200BF04EB09003246CDF8008081B2F1
:1020100028460B46FEF798FE0134A742F2D101B0E4
:10202000BDE8F0832DE9F04182B004461044B0F5DC
:10203000A07F2AD85F180D46F02F26D886B2DDF88B
:102040002080204629462B463246CDF80080FEF7F8
:102050007BFEB9B220463246CDF800800B46FEF733
:1020600073FE681C2246CDF8008085B2781E87B2C8
:10207000204629463B46FEF767FE30462946324653
:102080003B46CDF80080FEF75FFE02B0BDE8F08170
:1020900080B582B0FF20102101228DF8070040F6A4
:1020A0000000C4F20200FFF72FFA3220FEF7BCFE58
:1020B00040F2BC600DF1070101220323C2F20000CF
:1020C000FFF716FE02B080BDF0B581B005460020D6
:1020D000002140F23F12EF23002600F02EF92C0AD7
:1020E000EDB200BFF02700BF204600F06BF9284694
:1020F00000F068F9013FF7D10136B6F5A07F04BFC3
:1021000001B0F0BDEEE780B5FFF7C2FF00F0FEF8CA
:10211000CB2000F07BF9392000F054F92C2000F09E
:1021200051F9002000F04EF9342000F04BF9022064
:1021300000F048F9CF2000F069F9002000F042F9E2
:10214000C12000F03FF9302000F03CF9E82000F019
:102150005DF9852000F036F9002000F033F9782091
:1021600000F030F9EA2000F051F9002000F02AF9DF
:10217000002000F027F9ED2000F048F9642000F07D
:1021800021F9032000F01EF9122000F01BF9812034
:1021900000F018F9F72000F039F9202000F012F9CA
:1021A000C02000F033F9232000F00CF9C12000F02A
:1021B0002DF9102000F006F9C52000F027F93E2087
:1021C00000F000F9282000F0FDF8C72000F01EF90B
:1021D000862000F0F7F8362000F018F9E82000F02B
:1021E000F1F83A2000F012F9552000F0EBF8B12098
:1021F00000F00CF9002000F0E5F8182000F0E2F8FB
:10220000B62000F003F9082000F0DCF8822000F08E
:10221000D9F8272000F0D6F8F22000F0F7F80020D7
:1022200000F0D0F8262000F0F1F8012000F0CAF804
:10223000E02000F0EBF80F2000F0C4F8312000F0AF
:10224000C1F82B2000F0BEF80C2000F0BBF80E20E7
:1022500000F0B8F8082000F0B5F84E2000F0B2F811
:10226000F12000F0AFF8372000F0ACF8072000F0C4
:10227000A9F8102000F0A6F8032000F0A3F80E2023
:1022800000F0A0F8092000F09DF8002000F09AF876
:10229000E12000F0BBF8002000F094F80E2000F0E0
:1022A00091F8142000F08EF8032000F08BF8112034
:1022B00000F088F8072000F085F8312000F082F85F
:1022C000C12000F07FF8482000F07CF8082000F0E2
:1022D00079F80F2000F076F80C2000F073F8312028
:1022E00000F070F8362000F06DF80F2000F06AF86A
:1022F000112000F08BF87820FEF796FD292000F0E1
:1023000085F82C20BDE8804000F080B810B540F67C
:10231000000410210022C4F202042046FFF7F4F862
:102320006420FEF781FD204610210122FFF7ECF822
:102330003220BDE81040FEF777BDF0B581B007460A
:102340002A201C4616460D4600F060F8380A00F0B8
:1023500039F8F8B200F036F8300A00F033F8F0B28D
:1023600000F030F82B2000F051F8280A00F02AF88D
:10237000E8B200F027F8200A00F024F8E0B200F0FC
:1023800021F82C2001B0BDE8F04000F03FB8B0B516
:1023900005462A200C4600F039F8280A00F012F809
:1023A000E8B200F00FF82B2000F030F8200A00F01F
:1023B00009F8E0B200F006F82C20BDE8B04000F0CB
:1023C00025B80000B0B540F60004054620210022E3
:1023D000C4F202042046FFF797F8A4F5006010212C
:1023E0000122FFF791F840F2BC60C2F200000068E1
:1023F00081688907FCD5C56081688907FCD52046BE
:1024000020210122BDE8B040FFF77EB8B0B540F60C
:102410000004054620210022C4F202042046FFF7F2
:1024200073F8A4F5006010210022FFF76DF840F268
:10243000BC60C2F20000006881688907FCD5C560F5
:1024400081688907FCD5204620210122BDE8B040E3
:10245000FFF75AB810B540F22634C2F200042078D3
:1024600001280DD140F22520C2F20000007880B989
:1024700040F20000C2F20000007800F05DF9207820
:1024800040F22521C2F200010978012908BF002885
:1024900000D010BD40F20000C2F200000078BDE89C
:1024A0001040FEF72FBA2DE9F04F87B043F6300009
:1024B000002540F200090022CDE905550195C4F23E
:1024C0000200C4F20209016841F0200101600168C4
:1024D00001F02001019101990195016841F080010D
:1024E0000160016801F08001019101990195016885
:1024F00041F001010160016801F0010101910199C0
:102500000195016841F004010160016801F00401D6
:10251000019101990195016841F002010160016892
:1025200001F00201019101990195016841F0080152
:102530000160016801F008010191019901950168AC
:1025400041F0400101601021006800F0400001905E
:1025500001984846FEF7D8FF09F5006430210022B3
:102560004FF0300B2046FEF7CFFF09F580600121C8
:1025700001224FF001080646FEF7C6FF09F5C05AD2
:102580004FF4F84101225046FEF7BEFF022002AF91
:1025900002900020CDF810803946C1F2110003905E
:1025A00009F5A050FEF7D6FE1020CDE904553946B6
:1025B000CDE902084846FEF7CDFECDF808B04FF051
:1025C000030B20463946CDF814B0CDE90385FEF75C
:1025D000C1FE30463946CDE9045BCDE90288B346F9
:1025E000FEF7B8FE00264FF4C05039460290204650
:1025F000C1F21106CDF810800396FEF7ABFE352030
:10260000CDE903683946029009F54060FEF7A2FE65
:102610004FF470500595CDE9038539460290504638
:10262000FEF798FE1120CDE90455394603904FF48A
:10263000804002905046FEF78DFE0820CDE90368E9
:10264000394602905846FEF785FE062000210022FA
:10265000FEF7DEFF0620FEF7CCFF07200021002258
:10266000FEF7D6FF0720FEF7C4FF08200021002256
:10267000FEF7CEFF0820FEF7BCFF09200021002254
:10268000FEF7C6FF0920FEF7B4FF0A200021002252
:10269000FEF7BEFF0A20FEF7ACFF17200021002244
:1026A000FEF7B6FF1720FEF7A4FF28200021002226
:1026B000FEF7AEFF2820FEF79CFF07B0BDE8F08FC5
:1026C00080B540F2AC6040F60001C2F20000C5F2F5
:1026D00006010160FFF764FA002814BFBDE88040DE
:1026E00080BDFEF70EB910B540F2BC6043F20004A5
:1026F0004FF482724FF4007C4FF0010E0223002150
:10270000C2F20000C4F20104C0E900420A22C0E99A
:102710000211C0E9043EC0E906C1C0E90811C0E9E0
:102720000A12FFF76FFA002814BFBDE8104010BD71
:10273000FEF7E7B8FEE7000010B582B003285CD0D2
:10274000022800F0B180012840F00E8140F22734C9
:10275000C2F20004207830B94FF6FF70FFF7B4FCE6
:1027600020780130207044F2F91005214BF2041258
:102770004FF6FF73C0F6000000906E20FEF7B0F930
:102780004FF6A0601E214FF496721E230090142075
:10279000FEF7DAFA83A032214BF204124FF6FF73F0
:1027A00000901420FEF79CF944F22D205A214BF2A0
:1027B00004124FF6FF73C0F6000000901420FEF7DD
:1027C0008FF944F2072082214BF204124FF6FF7377
:1027D000C0F6000000901420FEF782F944F20E20AB
:1027E000DC214BF204124FF6FF73C0F6000000909C
:1027F000E120FEF7A1F80120ACE040F22734C2F25C
:102800000004207830B94FF6FF70FFF75DFC2078A8
:102810000130207044F2F91005214BF204124FF6FA
:10282000FF73C0F6000000906E20FEF759F94FF6D6
:10283000A0601E214FF496721E2300901420FEF714
:1028400083FA44F2162032214BF204124FF6FF7342
:10285000C0F6000000901420FEF742F944F22D204B
:102860005A214BF204124FF6FF73C0F6000000909D
:102870001420FEF735F93DA082214BF204124FF6E9
:10288000FF7300901420FEF72BF944F20E20DC2198
:102890004BF204124FF6FF73C0F600000090E120E7
:1028A000FEF74AF8032055E040F22734C2F2000454
:1028B000207830B94FF6FF70FFF706FC2078013022
:1028C000207044F2F91005214BF204124FF6FF7309
:1028D000C0F6000000906E20FEF702F94FF6A060EF
:1028E0001E214FF496721E2300901420FEF72CFA3E
:1028F00044F2162032214BF204124FF6FF73C0F659
:10290000000000901420FEF7EBF81FA05A214BF2B4
:1029100004124FF6FF7300901420FEF7E1F844F222
:10292000072082214BF204124FF6FF73C0F600001D
:1029300000901420FEF7D4F844F20E20DC214BF274
:1029400004124FF6FF73C0F600000090E120FDF77F
:10295000F3FF022000904FF48C70C8214FF47842AE
:102960004FF6FF73FEF7A4F902B010BD47616D6525
:10297000333A20202020202020202020202020202A
:1029800020203C2D0000000047616D65323A5465FF
:102990007472697320202020202020202020203CD9
:1029A0002D00000047616D65313A476C7574746F96
:1029B0006E6F757320536E616B65203C2D000000B7
:1029C000704770472DE9F04F81B040F22324C2F2E6
:1029D0000004207828B140F224200121C2F2000036
:1029E000017040F2162BC2F2000B9BF8000028B1D8
:1029F00040F217200121C2F20000017040F21A29B2
:102A0000C2F2000999F8000028B140F21B20012110
:102A1000C2F20000017040F2212AC2F2000A9AF8C4
:102A2000000028B140F222200121C2F20000017012
:102A300000F00FFB40F22867C2F2000797F8800011
:102A40000138395C0539E12906D8384490F840004E
:102A50000538E228C0F07F82012087F88100FDF769
:102A600063FE97F88100002840F0678140F224213E
:102A700040F21E28C2F20001C2F20008097898F85C
:102A80000000012901D1022805D101284DD19BF870
:102A90000010012949D1387897F840100022052309
:102AA00000920522FFF79CFA97F88000411E012949
:102AB00010DB002307F14002002600BF581C01363E
:102AC000395CF954105CD054F3B297F88000411E81
:102AD0009942F3DC384410F8020C785497F88000DF
:102AE000384490F83E10053980F83F1097F8800080
:102AF00080B100254FF478467919785D05220523C9
:102B000091F840100096FFF76BFA97F880000135B6
:102B10008542F1D39BF800000021002806BF012068
:102B200088F8000098F80000217040F21721C2F2E6
:102B300000010978012901D1012804D102284CD1D2
:102B40002178012949D1387897F8401000220523CF
:102B500000920522FFF744FA97F88000411E0129F0
:102B600010DB002307F14002002600BF581C01368D
:102B7000395CF954105CD054F3B297F88000411ED0
:102B80009942F3DC384410F8020C785497F880002E
:102B9000384490F83E10053180F83F1097F88000D7
:102BA00080B100254FF478467919785D0522052318
:102BB00091F840100096FFF713FA97F8800001355E
:102BC0008542F1D320780021002806BF022088F832
:102BD000000098F800008BF8001040F21B21C2F2B0
:102BE00000010978012901D1042805D103284DD11C
:102BF0009AF80010012949D1387897F8401000223E
:102C0000052300920522FFF7EBF997F88010481E84
:102C100001280FDB002307F140020026581C013673
:102C2000395CF954105CD054F3B297F88010481E08
:102C30009842F3DC394411F8021C0539395497F8ED
:102C40008000384490F83E1080F83F1097F88000DC
:102C500080B100244FF478453919385D05220523E9
:102C600091F840100095FFF7BBF997F88000013408
:102C70008442F1D39AF800000021002806BF032007
:102C800088F8000098F8000089F8001040F222212E
:102C9000C2F200010978012901D1032805D10428D5
:102CA0004BD199F80000012847D1387897F84010A7
:102CB0000022052300920522FFF792F997F8801071
:102CC000481E012810DB002307F14002002600BF48
:102CD000581C0136395CF954105CD054F3B297F8A3
:102CE0008010481E9842F3DC394411F8021C05316B
:102CF000395497F88000384490F83E1080F83F101F
:102D000097F8800080B100244FF478453919385D78
:102D10000522052391F840100095FFF761F997F817
:102D2000800001348442F1D399F8000010B90420E6
:102D300088F8000000208AF8000097F88000042836
:102D400019D33978002301221E463B44DD788D4299
:102D500007D193F8433097F84050AB4208BF87F84B
:102D60008120731C04368642EED3402803D1FDF740
:102D700049FD97F8800040F2102A0138C2F2000A9B
:102D8000395C9AF80020914275D138449AF80110C4
:102D900090F8400088426ED140F2283844F23A243C
:102DA00097F88220C2F20008C0F60004404621468F
:102DB00000F06AFAFA20282100220023CDF80080D2
:102DC0004FF00009FDF7B8FD40F2262697F8832062
:102DD0002146C2F20006304600F056FAFA205A2187
:102DE000002200230096FDF7A7FD9AF800009AF84C
:102DF000011005220523CDF80090FFF7F1F897F8B0
:102E000080009AF80010013087F8800057FA80F0AF
:102E100000F8011C9AF8011097F88000384480F8F7
:102E20003F1097F8820097F8831001310A3087F835
:102E3000831087F88200C2B24046214600F024FA8F
:102E400097F883203046214600F01EFAFA20282108
:102E50004FF6E0720023CDF80080FDF76DFDFA20FB
:102E60005A214FF6E07200230096FDF765FD012020
:102E70008AF8020005E09AF80200002856D00128DE
:102E800062D140F2AC644AF6AB264CF6CD48C2F2B1
:102E90000004CAF6AA26CCF6CC4800BF2046FEF7AE
:102EA00074FE002800D54042A0FB0612510901EB38
:102EB0004101A0EB011000EB8000C1B2A1FB08238F
:102EC0009A0802EB8202891A042908BF01308AF8A5
:102ED00000002046FEF759FE002800D54042A0FB26
:102EE0000612510901EB4101A0EB011000EB80003B
:102EF0008AF8010097F88000A8B19AF80030002203
:102F0000002100BFBD5CAB4204D1BD1895F8405014
:102F1000AB4205D0013201318242F3D301E000BF60
:102F2000D1B28142BAD100208AF8020097F881001C
:102F300050B99AF800009AF801104FF4FC6205238A
:102F400000920522FFF74CF84FF4FA7001B0BDE88B
:102F5000F04FFDF769BF97F8810001283FF47FAD7E
:102F600081E5000010B582B0044640F2040013462B
:102F70000A4649F68171C2F20000C1F25E61006842
:102F8000A0FB0101480D4FF47A714843019060683D
:102F9000B0F5827F0AD12046802100F013F870B18D
:102FA000606D40F020006065032009E0019830B1B9
:102FB000019801380190206880680006F6D400204E
:102FC00002B010BD2DE9F041804600680F468168CF
:102FD0003940B9420ED11D461646541C34B1FEF795
:102FE00098FA411BD8F80000B14206D281683940F6
:102FF000B942F3D00020BDE8F081416821F0E00142
:103000004160D8F80410B1F5827F0BD1D8F80810D0
:10301000B1F5004F02D0B1F5806F03D1016821F006
:1030200040010160D8F82810B1F5005F07D10168B0
:1030300021F400510160016841F400510160002059
:1030400088F85000012088F851000320BDE8F08185
:1030500070472DE9F04381B040F22848FA20B421AE
:1030600000220023C2F20008CDF80080FDF764FCC6
:1030700040F228594FF49170B42100220023C2F28B
:103080000009CDF80090FDF757FC40F21006FA2039
:10309000DC2100220023C2F200060096FDF74CFC62
:1030A00040F210174FF49170DC2100220023C2F28D
:1030B00000070097FDF740FC40F2286544F23A24EF
:1030C000C2F20005C0F6000495F8800021462844AD
:1030D00010F8012C404600F0D7F895F88000214602
:1030E000284490F83F20484600F0CEF840F21025E2
:1030F00030462146C2F200052A7800F0C5F86A7809
:103100003846214600F0C0F8FA20B4214FF6FF728D
:103110000023CDF80080FDF70FFC4FF49170B4212F
:103120004FF6FF720023CDF80090FDF705FCFA2062
:10313000DC214FF6FF7200230096FDF7FDFB4FF4F4
:103140009170DC214FF6FF7200230097FDF7F4FB2E
:1031500001B0BDE8F083FEF7E2B970B592B006ACFD
:103160001421201DFDF764F843F6400000250226D7
:103170000195C4F20200016841F0805101600068CD
:1031800000F0805001900198019547F20000C4F2D0
:103190000000016841F480410160006800F4804053
:1031A0000190019807201190A82010960F900820F8
:1031B0000E901020CDE90C650A9001200990204660
:1031C0000696FEF73DFB4FF48050052105904FF425
:1031D000A05004900F20CDE90265019001A8FEF7F0
:1031E00055FA12B070BD4EF608504FF0000CCEF2FA
:1031F0000000D0F8801041F47001C0F8801043F650
:103200000001C4F202010A6842F001020A60C1F83A
:1032100008C04FF6FF720B68CFF6F6621A400A60DC
:1032200043F21002C2F200424A600A6822F480228D
:103230000A60C1F80CC04FF00061016070470000E7
:10324000FEE700004FF6FF70FEF73EFF40F226302B
:103250000121C2F200000170FFF7FCF8FCE77047A3
:10326000FEF76AF9FFF779FFFFF71DF9FFF73BFA61
:10327000FFF726FAFEF747FF4FF6FF70FEF724FF31
:10328000FFF7E0FFFCE700000FB4084B10B504A9FE
:1032900002AA039800F0DEF8044602A9002000F01C
:1032A00070FC204610BC5DF814FB0000833B000856
:1032B00002E008C8121F08C1002AFAD170477047FF
:1032C000002001E001C1121F002AFBD1704700005D
:1032D0002DE9FF5F82B00021DDE90430020DDDF849
:1032E00040B0034318D044F61050A2F2FF324243DC
:1032F0001514119801281FD0A5EB0B00401C5FEAA4
:10330000000A4FF000064E4FDFF83891B0465046A5
:1033100015D5CAF1000413E0119801244AA301282D
:1033200001D16FEA0B010298119AC0E90031C0E99E
:10333000024206B0BDE8F09FCBF10000DFE7044693
:103340000021404A491842EB0450CDE9001012E038
:10335000E00707D032463B4640464946FDF74FF866
:103360008046894632463B4610461946FDF747F8E7
:1033700006460F466410002CEAD1DDE90401DDE9C0
:103380000023BAF1000F06DAFDF739F842464B4642
:10339000FDF735F805E0FDF7A4F842464B46FDF78A
:1033A000A0F804460E460022284BFDF721F903D869
:1033B0004FF0FF30014607E00022254B2046314602
:1033C000FCF776FFFDF7FCF8102409E0002C0ADB7F
:1033D0000A220023FCF7F4FE039B30321A55641EC8
:1033E00050EA0102F2D1641C039AC4F1110314449F
:1033F000119A012A03D0012208430DD10AE00843A3
:1034000004D000204FF0110B119072E7A3EB0B05D5
:103410006D1E0DE05B4504DD4FF0000205F1010576
:1034200004E003DA4FF00002A5F10105002AECD018
:1034300002981199C0E90231C0E9004579E700001E
:10344000000014400000F03F300000000000F04396
:103450000000E03F2DE9FF4F95B09B4689460646A8
:1034600000250FE2252877D100242746F84A0121BC
:10347000059400E0044316F8013F203B01FA03F0F5
:103480001042F7D130782A2811D06FF02F0330780E
:10349000A0F13002092A16D8059A44F0020402EB82
:1034A000820203EB42021044761C0590EFE759F8C4
:1034B000042B0592002A03DA504244F4005405908C
:1034C00044F00204761C30782E2816D116F8010F2D
:1034D00044F004042A280DD06FF02F023078A0F1B8
:1034E0003003092B09D807EB870302EB4303C71806
:1034F000761CF3E759F8047B761C30786C280FD0E3
:1035000006DC4C2817D068280DD06A2814D104E0B6
:10351000742810D07A280FD10DE044F400140AE08A
:1035200044F4801401E044F440147278824202D1E1
:1035300004F58014761C761C307866280BD013DCDA
:10354000582877D009DC002875D04528F6D04628C1
:10355000F4D047281AD19DE118E0632835D06428BB
:1035600079D0652812D195E1702873D008DC6728DE
:10357000F1D069286FD06E280DD06F2806D1B5E044
:1035800073282CD0752875D0782874D05A4617998E
:1035900090476D1C75E1C4F30250022809D003283E
:1035A0000DD0D9F8001004280DD00D6009F10409E0
:1035B00067E1D9F80010EA17C1E90052F6E7D9F837
:1035C00000100D80F2E70D70F0E719F8041B8DF87C
:1035D000001000208DF80100EA46012003E059F8B0
:1035E00004AB4FF0FF3061074FF0000102D40DE053
:1035F00008F101018846B9420FDA8045F8DB1AF874
:1036000008100029F4D108E008F101018846814240
:10361000FADB1AF808100029F6D105985B46A0EBF2
:10362000080721463846179A00F094FA284400EB20
:10363000080507E04DE029E10DE01AF8010B5A46B4
:1036400017999047B8F10108F7D25B4621463846F2
:10365000179A13E142E00A220092C4F302524FF09B
:10366000000A022A08D059F804CB032A4FEAEC7169
:103670000AD00DE029E02AE009F1070121F0070254
:10368000F2E802C1914609E00FFA8CFC4FEAEC71B6
:10369000042A03D14FFA8CFC4FEAEC71002907DAB7
:1036A0000A460021DCF1000C61EB02012D2202E050
:1036B000220504D52B228DF80420012203E0E20725
:1036C00001D02022F7E7904659E00A2102E01022BB
:1036D0000DE010214FF0000A00910BE010224FF096
:1036E000000A44F004040827009203E008224FF087
:1036F000000A0092C4F30252022A05D059F804CB02
:103700000021032A08D009E009F1070121F007028E
:10371000F2E802C1914605E01FFA8CFC042A01D1AF
:103720000CF0FF0C4FF00008220728D5702806D0B7
:10373000009B83F0100353EA0A0305D00EE04022F9
:103740008DF80420012208E05CEA010206D0302254
:103750008DF804208DF8050002229046009B83F02E
:10376000080353EA0A030AD15CEA010201D16207A5
:1037700005D530228DF804204FF001087F1E58280F
:1037800004D034A003900EA802900DE036A0F9E713
:1037900053466046009AFCF713FD84460398825C0A
:1037A0000298401E029002705CEA0100F0D102987B
:1037B00006A9081A00F1200A600702D524F4803413
:1037C00000E00127574502DDA7EB0A0000E00020DA
:1037D00000EB0A01009005984144401A0590E0036F
:1037E00006D45B462146179A059800F0B3F90544C4
:1037F000002706E001A85A46C05D179990476D1C46
:103800007F1C4745F6DBE0030CD55B462146179A43
:10381000059800F09FF9054404E030205A461799B6
:1038200090476D1C0099481E00900029F5DC08E0C7
:10383000029802995A460078491C029117999047BC
:103840006D1CBAF10001AAF1010AF1DC65E100008A
:103850000928010030313233343536373839616266
:10386000636465660000000030313233343536372A
:1038700038394142434445460000000000F058F901
:103880000544761C307800287FF4ECAD19B028464A
:10389000BDE8F08F620700D4062709F1070222F085
:1038A000070CFCE80223E14603F000485FEA080C3D
:1038B00002D00FF2702C0DE05FEA045C02D50FF22B
:1038C000682C07E05FEAC47C02D00FF2602C01E0B4
:1038D000AFF2700C4FF0FF3823F00043CDF850C02A
:1038E00065280CD006DC452809D046281DD047287D
:1038F0003DD13DE0662818D067287ED138E0002110
:10390000112F01DB112000E0781CCDE9000106A990
:103910000EA8FFF7DDFCDDE90F010E9A03910021EF
:10392000009207F1010A04914DE04FF0004000972A
:10393000CDE9011006A90EA8FFF7CAFCDDE90F02C8
:1039400003920E9B11990022DDF80CA000930492C3
:1039500011B9791C00EB010AB7EB0A0004D4C0F1DD
:10396000FF3007F1010A0490AAEB0700019044E040
:10397000012F00DA01270021112F01DD112000E0C5
:103980003846CDE9000106A90EA8FFF7A1FCDDE944
:103990000F010E9A0391002104910092BA4621076B
:1039A0000CD40399514500DA8A46BAF1010F05DDBE
:1039B000009AAAF10101515C302908D0B84202DA1C
:1039C00010F1040F06DA0121CDE9011015E0AAF18A
:1039D0000101E9E7002805DC049901440491AAEB00
:1039E000000102E0411C514500DD8A460499401A5D
:1039F000401C01904FF000400290200704D4019831
:103A0000504501DBCDF8048000208DF84F0002986E
:103A10000DF14F07B0F1004F25D02B200E900298EA
:103A20004FF0020800280CDA404202902D200E9040
:103A300007E00A210298FCF706FC3031029007F8F3
:103A4000011DB8F10001A8F10108F2DC029800287C
:103A5000EFD1791E0E980870307800F0200040F009
:103A6000450007F8020D12A8C01B00F107081498C2
:103A7000007800B1012000EB0A01019801EBE07130
:103A800005984144401A401E0590E00306D45B4669
:103A90002146179A059800F05DF8054414980078BF
:103AA00018B15A46179990476D1CE00324D55B4620
:103AB0002146179A059800F04DF805441CE004983B
:103AC000002807DBDDE90301884203DD0098405C44
:103AD000179901E0179930205A469047049805F14C
:103AE0000105401C04900198401E019004D12E2035
:103AF0005A46179990476D1CBAF10001AAF1010AC4
:103B0000DDDC05E017F8010B5A46179990476D1C4C
:103B1000B8F10001A8F10108F4DC5B462146179AD0
:103B20000598ABE62D0000002B00000020000000EF
:103B30002DE9F041044600251E461746880404D4AA
:103B400005E039462020B0476D1C641EF9D5284693
:103B5000BDE8F0812DE9F041044600251E4690465F
:103B6000C80301D5302700E02027880404D505E0EC
:103B700041463846B0476D1C641EF9D52846BDE85D
:103B8000F0810A68531C0B60107070470000000041
:103B900000000000010203040607080900000000FD
:103BA00000000000000000000000000000101010E5
:103BB00010101010101000001010000000006C6CAD
:103BC0002424000000000100000000000024242440
:103BD00024FE48484848FC909090900000103C54C7
:103BE0009290503814121292547810000000225C07
:103BF00094A8481010242A5254880000000030482D
:103C00004850206E54948C888A7400000000303034
:103C10001010000000000000000000000004081068
:103C200010202020202020101008040000804020B8
:103C30002010101010101020204080000000000004
:103C4000105438103854100000000000000000101C
:103C5000101010FE101010100000000000000000F6
:103C60000000000000000000101020000000000014
:103C7000000000FE00000000000000000000000046
:103C8000000000000000000010100000000004040C
:103C900008081010202040408080000000003844B8
:103CA0008282828282828282443800000000107008
:103CB0001010101010101010107C0000000038447C
:103CC000828204081020408284FC000000003844F6
:103CD0008202043804020282443800000000040C0E
:103CE000141424244444FE04040E00000000FC804C
:103CF0008080B8C4820202828478000000003C42C6
:103D00008280B8C4828282824438000000007E42F1
:103D10008204040808081010101000000000384445
:103D20008282443844828282443800000000384451
:103D300082828282463A02824438000000000000FB
:103D40001010000000001010000000000000000033
:103D50001010000000000010102000000000000003
:103D600006186080601806000000000000000000D7
:103D70000000FE0000FE0000000000000000000047
:103D8000C0300C020C30C00000000000003844823B
:103D900082020408101010001010000000003844C7
:103DA000829AAAAAAAAAAA9680423C0000001010F1
:103DB0001028282844447C4444EE00000000FC42C3
:103DC0004242427C4242424242FC000000003C44EB
:103DD0008280808080808282443800000000F84425
:103DE000424242424242424244F800000000FC4447
:103DF0004240447C4440404244FC00000000FC44FB
:103E00004240447C4440404040F000000000344CBC
:103E1000828080808E8484844C3400000000EE44D4
:103E20004444447C4444444444EE000000007C107C
:103E30001010101010101010107C000000003E0830
:103E40000808080808080888887000000000EE4488
:103E5000484850605048484444EE00000000E040AC
:103E6000404040404040404244FC00000000C64406
:103E70006C6C6C545454444444EE00000000CE4436
:103E800064646454544C4C4C44E4000000003844D6
:103E90008282828282828282443800000000F8445A
:103EA000424242447840404040E000000000384434
:103EB00082828282828282BA443C02000000F04800
:103EC000444444487048444444E6000000003C44F4
:103ED000828040300C0202824478000000007C5452
:103EE0009210101010101010103800000000EE4456
:103EF0004444444444444444443800000000EE44F4
:103F00004444442828282810101000000000EE44E3
:103F10005454545454542828282800000000EE44D7
:103F2000442828101028284444EE00000000EE44E5
:103F300044282828101010101038000000007E447B
:103F4000840808102020408284FC0000001C10100F
:103F5000101010101010101010101C000000EE4473
:103F60005454FE545454282828280000007010107F
:103F70001010101010101010101070000030488435
:103F80000000000000000000000000000000000031
:103F900000000000000000000000FE0000402000C3
:103FA0000000000000000000000000000000000011
:103FB00000007884047C84848C7600000000C0407B
:103FC00040405864424242426458000000000000F1
:103FD00000003844808080804438000000000C04D9
:103FE0000404344C848484844C36000000000000B7
:103FF0000000788484FC808084780000000018240D
:104000002020F82020202020207000000000000048
:1040100000003A444478807C82827C000000C040EA
:10402000404058644444444444EE000000001010F2
:104030000000301010101010103800000000101098
:104040000000301010101010109060000000C040F0
:1040500040405C485060504844EE00000000301082
:104060001010101110101010103900000000000086
:104070000000ACD29292929292D600000000000012
:10408000000058E44444444444EE000000000000B2
:104090000000384482828282443800000000000020
:1040A0000000D864424242645840E0000000000032
:1040B0000000364C8484844C34040E000000000060
:1040C00000006C3020202020207000000000000044
:1040D0000000788884601884447800000000002084
:1040E0002020F820202020202418000000000000BC
:1040F0000000C64242424242463A00000000000030
:104100000000EE44442828281010000000000000A1
:104110000000EE4444545428282800000000000009
:104120000000EE442810102844EE000000000000BB
:104130000000EE444428281010A0C0000000000039
:1041400000007E448810204284FC0000000C101007
:10415000101010601010101010100C000010101033
:1041600010101010101010101010100000C020209F
:1041700020202018202020202020C0000000000047
:10418000000000728C000000000000000000000031
:10419000000000000000000000000000000000001F
:1041A000000000000000000000000000000000000F
:1041B00000000000000000000000000000000000FF
:1041C00000000000000000000000000000000000EF
:1041D00000000000000000000000000000000000DF
:1041E00000000000000000000000000000000000CF
:1041F0000000000000000000002D48616E6448656A
:104200006C64436F6E2D0047616D65333A004368FF
:104210006F6F73653A0047616D65313A476C75742D
:10422000746F6E6F757320536E616B650047616DBF
:1042300065323A54657472697300256400000000A9
:1042400000001FE000003FF000003FF000001FE012
:10425000000180060003C00F0003C00F0003C00F61
:104260000003C00F0003C00F0003C00F0003C00F06
:104270000003C00F00030003000000000000000066
:1042800000000000000300030003C00F0003C00F84
:104290000003C00F0003C00F0003C00F0003C00FD6
:1042A0000003C00F0003C00F0001800600001FE0E4
:1042B00000003FF000003FF000001FE000000000A1
:1042C000000000000000008000000180000003806A
:1042D00000000780000007800000078000000780C2
:1042E00000000780000007800000078000000780B2
:1042F00000000780000001800000000000000000B6
:10430000000000000000018000000780000007801E
:104310000000078000000780000007800000078081
:104320000000078000000780000007800000038075
:10433000000001800000008000000000000000007C
:1043400000001FE000003FF00000FFF00001FFE070
:10435000000000060000000F0000000F0000000F2A
:104360000000000F0000000F0000000F0000000F11
:104370000000000F00001FE300007FF800007FF83E
:1043800000001FE0000300000003C0000003C000A5
:104390000003C0000003C0000003C0000003C00011
:1043A0000003C0000003C0000001800000001FF0F7
:1043B00000003FF800003FFC00001FFE000000006E
:1043C0000003FF800001FFC00000FFC000007F80ED
:1043D000000000180000003C0000003C0000003C11
:1043E0000000003C0000003C0000003C0000003CDD
:1043F0000000003C00007F8C0001FFE00001FFF0A6
:1044000000007F800000000C0000003C0000003C29
:104410000000003C0000003C0000003C0000003CAC
:104420000000003C0000003C0000001800007F80FD
:104430000000FFC00001FFC00003FF80000000007B
:1044400000000000000200010003000300038007D9
:104450000003C00F0003C00F0003C00F0003C00F14
:104460000003C00F0003C00F0003C00F0003C00F04
:104470000003C00F00031FE300007FF800007FFC73
:1044800000001FE0000000030000000F0000000F0C
:104490000000000F0000000F0000000F0000000FE0
:1044A0000000000F0000000F0000000F00000007D8
:1044B00000000003000000010000000000000000F8
:1044C00000001FFC00003FF800003FF000001FE06C
:1044D000000180000003C0000003C0000003C00012
:1044E0000003C0000003C0000003C0000003C000C0
:1044F0000003C00000031FE000007FF800007FF809
:1045000000001FE0000000030000000F0000000F8B
:104510000000000F0000000F0000000F0000000F5F
:104520000000000F0000000F0000000600003FE048
:1045300000007FF00000FFF00001FFE0000000003D
:1045400000001FFC00003FF800003FF000001FE0EB
:10455000000180000003C0000003C0000003C00091
:104560000003C0000003C0000003C0000003C0003F
:104570000003C00000031FE000007FF800007FFC84
:1045800000001FE0000300030003C00F0003C00F82
:104590000003C00F0003C00F0003C00F0003C00FD3
:1045A0000003C00F0003C00F0001800600001FE0E1
:1045B00000003FF000003FF000001FE0000000009E
:1045C0000007FFE00003FFC00001FF880000FF18A4
:1045D000000000380000007800000078000000783B
:1045E00000000078000000780000007800000078EB
:1045F000000000780000001800000000000000002B
:1046000000000000000000180000007800000078A2
:1046100000000078000000780000007800000078BA
:1046200000000078000000780000007800000038EA
:10463000000000180000000800000000000000005A
:1046400000001FE000003FF000003FF000001FE00E
:10465000000180060003C00F0003C00F0003C00F5D
:104660000003C00F0003C00F0003C00F0003C00F02
:104670000003C00F00031FE300007FF800007FFC71
:1046800000001FE0000300030003C00F0003C00F81
:104690000003C00F0003C00F0003C00F0003C00FD2
:1046A0000003C00F0003C00F0001800600001FE0E0
:1046B00000003FF000003FF000001FE0000000009D
:1046C00000001FE000003FF000003FF000001FE08E
:1046D000000180060003C00F0003C00F0003C00FDD
:1046E0000003C00F0003C00F0003C00F0003C00F82
:1046F0000003C00F00031FE300007FF800007FFCF1
:1047000000001FE0000000030000000F0000000F89
:104710000000000F0000000F0000000F0000000F5D
:104720000000000F0000000F0000000600001FE066
:1047300000003FF000007FF00000FFE000000000FC
:104740000000000000000000000000000000000069
:104750000000000000000000000000000000000059
:104760000000000000000000000000000000000049
:104770000000000000000000000000000000000039
:104780000000000000000000000000000000000029
:104790000000780000007800000078000000780039
:1047A0000000780000007800000000000000000019
:1047B00000000000000000000000000000000000F9
:1047C00000000000000000000000000000000000E9
:1047D00000000000000000000000000000000700D2
:1047E00000000F8000000F8000000F800000070015
:1047F00000000000000000000000000000000000B9
:1048000000000000000000000000070000000F8012
:1048100000000F8000000F80000007000000000073
:104820000000000000000000000000000000000088
:104830000000000000000000000000000000000078
:104840000000000000000000000000000007C0069B
:10485000000FE0060000000C003018180030181897
:10486000003018300030183000301860003008C0B8
:104870000007C0C0000FE080000000000000000F33
:10488000E0000607C000063018000C3018000C309D
:104890001800183018003030180030301800600050
:1048A0000000C00FE000C007C000000000000000D2
:1048B00000000000000000000000000000000000F8
:1048C00000000000000000000000000000000000E8
:1048D00000000000000700E0000887FC00088E03CD
:1048E00000089801800718008000300000003000A8
:1048F0000000700000006000000060000000600028
:104900000000600000006000000070000000300047
:1049100000003000000038000000180100000C0307
:10492000000007FC000001F0000000000000000093
:104930000000000000000000000000000000000077
:104940000000000000000000000000000000000067
:104950000000000000000000000000000000000057
:104960000000000000000000000000000000000047
:10497000000000000000000000003FF000007FF099
:1049800000007FE00000FFC0000000000000000009
:104990000000000000000000000000000000000017
:1049A0000000000000000000000000000000000007
:1049B00000000000000000000000000000000000F7
:1049C000E04900080000002010000000B03200089C
:1049D000F049000810000020080B0000C032000859
:1049E000010000000024F40001000000100000009D
:040000050800018965
:00000001FF
