:020000040800F2
:10000000600E00209D01000899480008AD350008E9
:10001000E1430008550800083D5B000800000000AF
:100020000000000000000000000000008D530008E8
:100030009F08000800000000C54B0008935400080A
:10004000B7010008B7010008B7010008B7010008B0
:10005000B7010008B7010008A90A0008C50A00088E
:10006000CB0A0008D10A0008D70A0008B701000827
:10007000B7010008B7010008B7010008B701000880
:10008000B7010008B7010008B7010008B701000870
:10009000B7010008B7010008B7010008DD0A000831
:1000A000B7010008B7010008B7010008B701000850
:1000B000B7010008B7010008B7010008B701000840
:1000C000B7010008B7010008B7010008B701000830
:1000D000B7010008B7010008B7010008B701000820
:1000E000AF0A0008B7010008B7010008B70100080F
:1000F000B7010008B7010008B7010008B701000800
:10010000B7010008B7010008B7010008B7010008EF
:10011000B7010008B7010008B7010008B7010008DF
:10012000B7010008B7010008B7010008B7010008CF
:10013000B7010008B7010008B7010008B7010008BF
:10014000B7010008B7010008B7010008B7010008AF
:10015000B7010008B7010008B7010008B70100089F
:10016000B7010008B7010008B7010008B70100088F
:10017000B7010008B7010008B7010008000000003F
:10018000B7010008B7010008DFF80CD000F03EFB13
:1001900000480047C15B0008600E00200648804709
:1001A00006480047FEE7FEE7FEE7FEE7FEE7FEE75C
:1001B000FEE7FEE7FEE7FEE7275500088901000895
:1001C0002DE9F05F0546002092469B46884606468C
:1001D000814640241BE0284641464746224600F01F
:1001E000D1F953465A46C01A914110D311461846C8
:1001F000224600F0B8F92D1A67EB01084F46224657
:100200000120002100F0AFF917EB00094E41201E3C
:10021000A4F10104DFDC484631462A464346BDE8E6
:10022000F09FD2B201E000F8012B491EFBD27047CB
:100230000022F6E710B513460A4604461946FFF7B2
:10024000F0FF204610BD2DE9FE4F81EA030404F0C3
:10025000004421F0004100944FF0000B23F00043D4
:1002600050EA01045ED052EA03045BD0C3F30A549F
:10027000C1F30A552C44A4F2F3340194A0FB0254B8
:10028000C1F3130141F48011C3F3130343F480134A
:1002900001FB024400FB034E840A970A44EA81549E
:1002A00047EA8357A4FB076802958D0A05FB07857B
:1002B0004FEA932C04FB0C542705029D4FEA065885
:1002C00047EA1637B5EB08056EEB070C870E920E62
:1002D00047EA811742EA8312A7FB0201B6EB0B0142
:1002E00064EB00042B0D43EA0C335E1844EB1C5006
:1002F000DA465146E7FB0201C5F313044FEA0B331C
:1003000043EA14534FEA0432019C43EA0603A4F182
:100310000C040294009CCDE900B400F052F903B043
:10032000BDE8F08F00200146F9E72DE9F04D81EAA4
:10033000030404F0004B21F0004514464FF0000A7E
:1003400023F0004150EA050220D054EA01021DD0FA
:10035000C5F30A570246C5F31303C1F31300C1F3F3
:100360000A5640F4801543F48013A7EB0608101BCF
:10037000D64608F2FD3873EB050002D308F10108F8
:1003800001E092185B41B8F1000F03DA002001464A
:10039000BDE8F08D00204FF48011064684460EE043
:1003A000171B73EB050705D3121B63EB050306430D
:1003B0004CEA010C49084FEA300092185B4150EAC0
:1003C0000107EDD152EA030012D082EA040083EA69
:1003D0000501084305D0101BAB4106D201220023C2
:1003E00006E000224FF0004302E06FF001025310DC
:1003F0001AEB06004CEB085110EB0A0041EB0B0125
:10040000BDE8F04D00F0CEB830B5041E71F1000427
:1004100004DB4FF00044404264EB0101141E73F111
:10042000000405DB1C464FF00043524263EB04031B
:10043000801A994101D3012030BD002030BD30B574
:10044000041E71F1000404DB4FF00044404264EBF1
:100450000101141E73F1000405DB1C464FF000433C
:10046000524263EB0403101A8B4101D2012030BDCC
:10047000002030BD30B5041E71F1000404DB4FF0E4
:100480000044404264EB0101141E73F1000405DBDB
:100490001C464FF00043524263EB0403101A8B4199
:1004A00001D3012030BD002030BD30B5041E71F1F4
:1004B000000404DB4FF00044404264EB0101141ED1
:1004C00073F1000405DB1C464FF00043524263EB1E
:1004D0000403801A994101D2012030BD002030BDB3
:1004E00030B5041E71F1000404DB4FF000444042BB
:1004F00064EB0101141E73F1000405DB1C464FF090
:100500000043524263EB040342404B401A4301D084
:10051000002030BD012030BD0EB5C10F80EAE07073
:100520000844CA07002140F233438DE80E000A4612
:100530000B4600F046F803B000BD30B50B4601464F
:1005400000202022012409E021FA02F59D4205D372
:1005500003FA02F5491B04FA02F52844151EA2F11C
:100560000102F1DC30BD202A04DB203A00FA02F15E
:10057000002070479140C2F1200320FA03F3194391
:1005800090407047202A04DB203A21FA02F0002133
:10059000704721FA02F3D040C2F120029140084393
:1005A0001946704710B5141E73F1000408DA401C98
:1005B00041F1000192185B411A4301D120F0010082
:1005C00010BD2DE9F04D92469B4611B1B1FA81F272
:1005D00002E0B0FA80F220329046FFF7C4FF0446F2
:1005E0000F4640EA0A0041EA0B0153465A460843C7
:1005F00013D0114653EA010019D0C8F14002504609
:10060000FFF7C0FF05460E46504659464246FFF7E3
:10061000AAFF084305D0012004E020463946BDE882
:10062000F08D0020054346EAE0762C4337430A98D4
:100630006305E40AA0EB08000022FD0A44EA4754DF
:100640000A3002D500200146E9E701051019694189
:10065000DDE9084500196941BDE8F04DA2E72DE943
:10066000FE4F804681EA0300C00F0C46009021F047
:10067000004123F00045B8EB0200A94105D24046F5
:10068000214690461C460B46024623F0004010438C
:1006900047D0270DC7F30A00C3F30A510290401A4E
:1006A000019040286BDAC3F3130040F4801B0098DC
:1006B000924620B10023D2EB030A63EB0B0B0198A7
:1006C0005946C0F140025046FFF74DFF06460D4621
:1006D00050465946019A00F0ABF810EB0800614112
:1006E000002487EA115284EAE7731A4340D0009A43
:1006F00062B3019A012A4FEA075215DC001B61EB35
:1007000002014FF0004202EA0752CDE90042001C0C
:1007100041F5801132462B46FFF753FF03B0BDE889
:10072000F08F40462146F9E7001B61EB0201001CF7
:1007300041F5801300185B412018A2F5001747EB24
:10074000030140EAD570B6196D4111E06D084FEA1A
:10075000360645EAC0754FEA0752001B61EB0201FD
:10076000001C41F5801149084FEA30000019514141
:1007700032462B4603B0BDE8F04FFFF713BF009899
:10078000012240000023D0EB020263EBE0730098EB
:1007900021464FEAE074B8EB000061EB0401E9E7A1
:1007A00083F000435BE781F0004158E7C1F30A5250
:1007B000C1F3130140F2FF3341F480119A4202DA8F
:1007C00000200146704740F233439A42A2F233427E
:1007D00002DC5242FFF7D6BEFFF7C5BE30B5041E9D
:1007E00071F1000404DB4FF00044404264EB01016E
:1007F000141E73F1000405DB1C464FF00043524207
:1008000063EB0403994208BF904230BD064C074D8C
:1008100006E0E06840F0010394E8070098471034D0
:10082000AC42F6D3FFF7B4FC207500084075000811
:10083000202A06DBCB17203A41FA02F043EAE073A4
:1008400006E041FA02F3D040C2F120029140084391
:1008500019467047FEE700002DE9F041E8B141F686
:10086000000790460D4606460024C4F2020700BF6A
:1008700038464FF48041002201F0ECFD284601F09B
:1008800031F938464FF48041012201F0E3FD404642
:1008900001F028F90134B442EAD3BDE8F081704791
:1008A000F0B581B040F2190040F2292440F22A2527
:1008B0000021C2F20000C2F20004C2F20005017081
:1008C00001202070287828B9002002F0F3FF287852
:1008D000013028704FF4784000214FF4A072F023CB
:1008E00000260090002002F051FF18A064214FF66E
:1008F000FF7200230090642000F0FEFB17A09621F9
:100900004FF6FF72002300903C2000F0F5FB1AA088
:10091000AA214FF6FF72002300903C2000F0ECFB70
:100920001BA005F001FE40F23527C2F2000738781F
:1009300050B140F24B60C2F20000A0F8826002F0B9
:1009400037FE3E7026702E7001B0F0BD4D495353F6
:100950004F4E204641494C4544212000507265735A
:10096000732027434F4E4649524D2720746F205223
:10097000657374617274000050726573732027523E
:10098000455455524E272020746F204D656E7500DA
:10099000E6B8B8E6888FE5A4B1E8B4A5EFBC81E776
:1009A000AD89E5BE85E794A8E688B7E6938DE4BDFA
:1009B0009C2E2E2E200D0000F0B581B040F2312487
:1009C000012040F23225C2F20004C2F2000520707C
:1009D00040F24B60C2F2000090F88310013180F8C1
:1009E0008310287828B9002002F064FF28780130AD
:1009F00028704FF4FC6000214FF4A072F023002611
:100A00000090002002F0C2FE10A064214FF6E072B8
:100A100000230090642000F06FFB11A096214FF698
:100A2000E072002300903C2000F066FB14A005F06B
:100A30007BFD40F22827C2F20007387820B102F08F
:100A4000B7FD3E7026702E7001B0F0BD4D49535376
:100A5000494F4E2053554343455353210000000056
:100A6000507265737320E28098436F6E6669726D91
:100A7000E2809920746F20436F6E74697565000081
:100A8000E6B8B8E6888FE8839CE588A9EFBC81E7E3
:100A9000AD89E5BE85E794A8E688B7E6938DE4BD09
:100AA0009C2E2E2E200D0000012001F0EDBB80B504
:100AB0004FF4006001F0E8FB4FF48050BDE8804047
:100AC00001F0E2BB022001F0DFBB042001F0DCBB3F
:100AD000082001F0D9BB102001F0D6BB202001F086
:100AE000D3BB0000000000002DE9F04F85B003F0FB
:100AF000EFFD40F23D37C2F200073878022807D0F8
:100B000001280FD0D8B946F66D50C0F600000DE0B0
:100B100046F68B503C2142F24342C0F60000009062
:100B2000642008E046F66450C0F60000009064209F
:100B30003C2149F6D37249F6D37300F0DDFA40F256
:100B40001808C2F2000898F80000022807D001280F
:100B50000AD0B0B946F64350C0F6000008E046F6A9
:100B60009250C0F6000003E046F64D50C0F600007B
:100B700000906420B42149F6D37249F6D37300F093
:100B8000BBFA40F2CF646420782149F6D37249F66B
:100B9000D373C2F20004009400F0AEFA40F2D07AAF
:100BA0008BA12046C2F2000A9AED000B53EC102BE9
:100BB00005F038F840F648299FED770BC2F200099E
:100BC00099ED001B53EC102B55EC116B3046294668
:100BD000FFF71AFC70B946F68B503C2142F24342B3
:100BE00049F6D373C0F600000090642000F084FA48
:100BF00002202EE09FED6A0B3046294653EC102B65
:100C0000FFF702FCB8B99FED680B3046294653EC5C
:100C1000102BFFF72FFC70B946F664503C2142F2CE
:100C2000434249F6D373C0F600000090642000F000
:100C300063FA01200DE046F66D503C2142F243423A
:100C400049F6D373C0F600000090642000F054FA17
:100C500000209FED570B9AED001B387053EC102BC2
:100C600051EC110BFFF73CFC28B90094642078216B
:100C700042F2434205E057A078214FF478420090B9
:100C8000642049F6D37300F037FA40F2E87B9FED19
:100C90004A0BC2F2000B9BED001B56EC107B3A4650
:100CA000334654EC115B28462146FFF7E3FB70B94D
:100CB00046F69250B42142F2434249F6D373C0F64D
:100CC00000000090642000F017FA02202BE0284674
:100CD00021463A463346FFF797FBB0B99FED380BF4
:100CE0002846214653EC102BFFF7C4FB68B946F6A3
:100CF0004D50B4211F2249F6D373C0F60000009076
:100D0000642000F0F9F901200DE046F64350B421CB
:100D10004FF4784249F6D373C0F600000090642087
:100D200000F0EAF900209FED280B9AED001B88F8EF
:100D3000000053EC102B51EC110BFFF765FB10B9C1
:100D400002F09CFF01E002F083FF9FED150B99ED8F
:100D5000001B53EC102B51EC110BFFF78BFB10B960
:100D600002F07EFF01E002F06BFF40F6502099EDAB
:100D7000000B9BED002BC2F2000090ED001B53EC2A
:100D8000102B16A08DEC041B04F03CFF05B0BDE851
:100D9000F08F00BF00BF00BF9A9999999999C93FF8
:100DA0009A9999999999B93F333333333333C33F80
:100DB0000000000000D084409A9999999999E93FE0
:100DC000666666666666F63F000000000000364014
:100DD000256C66004552524F52000000E58589E7B8
:100DE00085A73A256C66202020E6B8A9E5BAA63A80
:100DF000256C66202020E7A9BAE6B0943A256C66F7
:100E00000D0A00007047F0B581B0054640F23A2067
:100E100016460C46C2F20000007890B940F6C4179E
:100E2000C2F20007384602F0C4FA3846002102F048
:100E3000DBFA3846042102F0D7FA3846082102F0DE
:100E4000D3FA40F6C41006EB8601C2F20000490056
:100E50000068416305EB85014900816304EB84016F
:100E60004900C16301B0F0BD70B582B003281CD049
:100E7000022800F0858001281CBF02B070BD40F23E
:100E80002D2040F234240121C2F20000C2F20004FD
:100E90000170207820B902F08BFB2078013020709F
:100EA00002B0BDE8704003F08FBE40F2413040F226
:100EB00042340121C2F20000C2F200040170207825
:100EC000002858D14BF6BA2002F0F4FC6FF0420033
:100ED00000214FF4A072F0230025423086B200209A
:100EE000009602F053FC642000216422F023009657
:100EF00000F00AFB58A03C214FF6BD724BF6BA2316
:100F000000901E2000F0F8F855A03C214FF47842E4
:100F10004BF6BA230090782000F0EEF851A03C2167
:100F20004FF4FC624BF6BA230090B42000F0E4F8D2
:100F30004EA03C211F224BF6BA230090F02000F077
:100F4000DBF84CA005F0F0FA40F24630C2F20000A7
:100F5000057040F24530C2F20000057040F24430A6
:100F6000C2F20000057040F24330C2F2000005708A
:100F700020780130207002B0BDE8704003F08EBCD4
:100F800040F2220040F223040121C2F20000C2F22A
:100F9000000401702078002854D149F6D37002F083
:100FA00089FC4CF6C34000214FF4A072F02300905E
:100FB000002002F0EBFB4EF6A45003214FF49D728B
:100FC000EA230090032002F0E1FB4EF6A450062134
:100FD0004FF49A72E423CFF6FF7000F5835080B28D
:100FE0000090062002F0D2FB2BA03C2142F24342AB
:100FF00049F6D3730090282000F07EF828A07821CD
:1010000042F2434249F6D3730090282000F074F86E
:1010100025A0B42142F2434249F6D3730090282020
:1010200000F06AF822A014214FF4784249F6D373F5
:101030000090142000F060F824A005F075FA2078E4
:1010400001302070FFF750FD4FF4FA7002B0BDE898
:10105000704000F047BD00BF4C454450574D000064
:1010600052656400477265656E000000426C7565EC
:1010700000000000E6ADA3E59CA8E4BDBFE794A88E
:1010800050574DE6B3A2E8B083E58589E58A9FE82D
:1010900083BD2E2E2E0D00004C756D6900000000E2
:1010A00054656D700000000041697271000000001D
:1010B000456E7669726F6E6D656E7420496E666FEF
:1010C000726D6174696F6E3A00000000E6ADA3E5D1
:1010D0009CA8E4BDBFE794A8E78EAFE5A283E4BF78
:1010E000A1E681AFE98787E99B86E58A9FE883BD12
:1010F0002E2E2E0D000000002DE9F04F89B0154670
:10110000129A019005911078002800F0C580019F87
:101110001C464FF0800800BF41B20897B1F1FF3F75
:1011200006DD0D2876D10598019F10300590AEE0C0
:1011300007F1080A0021029202E000BF029800783D
:1011400046F65532039101EB0111C0F6000212F888
:101150001120824256D146F65530C0F6000000EB11
:10116000410B02999BF80100497888424AD100213D
:10117000CDF810B005980026079100EB01090BEBA4
:10118000410090F902B04800069000BF28FA06F02E
:1011900010EA0B0F04D0B8191FFA89F12A4605E0AE
:1011A000A54206D0B8191FFA89F1224680B200F094
:1011B0000EFA0136082EE9D10698DDF810B00027A6
:1011C00040F00100584490F9026000BF28FA07F08F
:1011D000304205D00AEB07001FFA89F12A4606E0E3
:1011E000A54207D00AEB07001FFA89F1224680B218
:1011F00000F0EDF90137082FE8D10799089F013178
:101200001029B7D103990131322997D1029A1037A9
:1012100002323DE04FF6006102924FF0000A4FF0BB
:1012200000092028C0F20F010A4601EB001102F567
:10123000F87288BF01EA0209059846F26451002756
:10124000C0F6000100EB0A0B0AEB09000E5C00BFC0
:1012500028FA07F0304205D008981FFA8BF12A4689
:1012600006E000BFA54207D008981FFA8BF122467E
:10127000384480B200F0ABF90137082FE8D10AF109
:10128000010ABAF1100FD7D1089F029A083701322C
:10129000107800287FF440AF09B0BDE8F08F00005F
:1012A0002DE9F04F89B0044612980591019000781D
:1012B000002800F0D9804FF600619A4615464FF09D
:1012C0008009C0F20F0101F5F871009141B2089454
:1012D000B1F1FF3F38DD4FF600614FF0000B4FF0EA
:1012E00000082028C0F20F0101EB0011009888BF10
:1012F00001EA0008059846F264510024C0F6000196
:101300000BEB00060BEB08000F5C00BF29FA04F0A2
:10131000384203D00898B1B22A4604E0554506D0B9
:101320000898B1B25246204480B200F050F901341E
:10133000082CEBD10BF1010BBBF1100FDAD1089C9B
:101340000820012188E000BF04F1100804F1080B17
:101350000022CDF80C8001E0019800784A21029229
:10136000514346F64342C0F60002515C81426CD1C3
:1013700046F64341029A4A20C0F6000102FB0010E3
:10138000019904904078497888425ED1002200BFDC
:10139000049902EB4200002706920844079090F956
:1013A00002800598161800BF29FA07F010EA080F06
:1013B00004D0E019B1B22A4605E000BF554505D07A
:1013C000E019B1B2524680B200F001F90137082F9E
:1013D000EAD10798DDF80C80002490F9037000BF73
:1013E00029FA04F0384205D00BEB0400B1B22A46CA
:1013F00006E000BF554506D00BEB0400B1B25246E3
:1014000080B200F0E4F80134082CE9D107980024F8
:1014100090F9047029FA04F0384205D008EB040072
:10142000B1B22A4606E000BF554506D008EB0400DD
:10143000B1B2524680B200F0CAF80134082CE9D1AA
:10144000069A089C0132182AA2D1029A0132142A63
:101450007FF482AF18200221044401984218405CB6
:10146000019200287FF432AF09B0BDE8F08F000090
:101470002DE9F04F85B0CDE9010146F69F510E9858
:101480001C4615468026C0F6000101EBC010002165
:10149000009000BF0298DDF804A04FF0000903910E
:1014A0000F18009800EB8100049000BF04984FF0E3
:1014B000000810F809B000BF26FA08F010EA0B0F78
:1014C00004D00AEB0800B9B22A4605E0A54206D0CE
:1014D0000AEB0800B9B2224680B200F078F808F1B1
:1014E0000108B8F1080FE7D109F101090AF1080A6A
:1014F000B9F1040FDAD103990131202904BF05B0F5
:10150000BDE8F08FC6E700002DE9F04F83B01E461E
:1015100090460C46054602F030FB311B4FF0FF3A77
:10152000A8EB05084FF0FF39B1F1FF3FC8BF4FF0FE
:10153000010AB8F1FF3FC8BF4FF00109002900D5EB
:101540004942B8F1000F4FEA410048BFC8F1000816
:1015500002904FEA4800884501901ADD02984FF04A
:10156000FF36A0EB080B0198474200BF0C9AA8B2C7
:10157000A1B200F02CF80298BBF1FF3F06F1010682
:101580004D445844C4BF3844544446458346EDDB7B
:101590001AE001984FF0FF36471A0298C0F1000B8D
:1015A0000C9A8846A8B2A1B200F011F80198B7F1E0
:1015B000FF3F06F10106414654443844C4BF584435
:1015C0004D4446450746EBDB03B0BDE8F08F10B550
:1015D000144602F0D2FA200A02F0EAFAE0B2BDE8BC
:1015E000104002F0E5BA000070B581B00022009210
:1015F00090F83C20012A01D1022176E0012280F8F6
:101600003C20D1F800E01FFA8EFCBEF10A0F4FEA31
:101610004C0212FA8EF204D303681E3A03F10C0452
:1016200002E0036803F1100407252668954026EAC6
:10163000050525608D6805FA02F225682A432260B7
:101640004A68062A05D802EB820203F13401053A02
:101650000BE002EB82040C2A87BF03F12C01A4F1FA
:10166000410203F13001A4F123021F240D689440CC
:101670000CFA02F225EA04040C600E6832430A6098
:1016800042F20431C4F20101A1F54172934229D121
:10169000BEF1120F04D10A6842F480020A6021E010
:1016A0002EF00102102A1DD10A68BEF1100F42F47B
:1016B00000020A6016D140F208014DF68362C2F2C0
:1016C0000001C4F21B320968A1FB0212910C01EB6C
:1016D0008101490002E000BF0099013900910099A1
:1016E0000029F9D1002180F83C10084601B070BDF6
:1016F0000068C06C7047002847D010B50446006CE5
:1017000030B9204600F09BF8002084F83C0060646B
:10171000206CC0063BD4206C41F202110123C0F6BC
:10172000007388430230206442F20430C4F20100A6
:10173000016821F440310160616802681143016071
:101740002068416821F4807141602169426842EA61
:1017500001214160416821F040714160A168426807
:1017600011434160816821F400618160E168826811
:1017700011438160A16A826822F07062994282609E
:10178000826806D122F040510CE001207047012010
:1017900051E011438160816821F040518160E16A2C
:1017A000826811438160816821F002018160217E9D
:1017B000826842EA4101816094F82020416882B148
:1017C00041F400614EF200024160CFF6FF724168C1
:1017D00021F460414160616A02EB4131426811438A
:1017E00001E021F4006141600022C16ACFF6F0728D
:1017F00021F47001C162E16902EB0151C26A114337
:10180000C162816821F40071816094F830108268AF
:1018100042EA41218160816821F4806181606169CF
:10182000826842EA81210122816000206064216C8B
:1018300062F301012164002184F83C1010BD10B551
:1018400086B0044601A81421FEF7F2FC42F2002102
:101850002068C4F20101884229D042F20011C4F28A
:101860000101884247D042F20001C4F201018842DE
:1018700065D143F6300100200090C4F202014A69AC
:1018800042F480724A614A6902F480720092009ABE
:1018900000900A6842F001020A60096801F0010143
:1018A00000910099039003200290022040E043F64B
:1018B000300100200090C4F202014A6942F48062C3
:1018C0004A614A6902F480620092009A00900A68B4
:1018D00042F004020A60096801F0040100910099D5
:1018E000039003200290082001900020C4F202001F
:1018F00000F5006020E043F6300100200090C4F2C3
:1019000002014A6942F400724A614A6902F40072B3
:101910000092009A00900A6842F001020A60096889
:1019200001F001010091009903900320029004202E
:1019300001900020C4F2020001A900F0B1FC06B041
:1019400010BD0000F0B581B0044600680D46816806
:10195000490544BF80685FEAC0500AD400F07FFDAB
:10196000064620680168890718D4CDB36F1C09D0DA
:101970000DE0002084F83C00206C40F02000206442
:1019800001202BE00168890708D4002FFAD000F06D
:1019900066FD801BA84223D82068F3E76FF0120190
:1019A0000160216C41F400712164816811F0405F95
:1019B00013D1217E89B9C16A11F4700F02D08068F9
:1019C00040050AD4206C20F480702064206CC00490
:1019D0005EBF206C40F001002064002001B0F0BD2B
:1019E000002084F83C00206C40F0040020640320B8
:1019F000F4E7000081B00021009190F83C1001292B
:101A000001D102206CE0012180F83C1001688A6855
:101A1000D20719D18A684DF68363C4F21B3342F0B2
:101A200001028A6040F20802C2F200021268A2FBC0
:101A300003239A0C02EB420202E000BF009A013A33
:101A40000092009A002AF9D18A68D20747D0026C26
:101A500040F201739A4302F5807202644A685205AB
:101A600004D5026C012363F30D320264026C00237F
:101A7000D20444BF436C23F00603002280F83C20CC
:101A800043646FF02200086042F20000C4F20100DB
:101A9000D0F80423D20603D0814220D1806817E019
:101AA000814214D042F20022C4F2010291420AD0D3
:101AB00042F20012C4F20102914210D1D0F80403A4
:101AC000C0060CD103E0D0F80403C00607D4886830
:101AD00010F0405F03D1886840F0804088600020AB
:101AE00001B07047B0B5044600F0B9FC054640F2BD
:101AF0000C00611CC2F20000007818BF044400BF53
:101B000000F0ADFC401BA042FAD3B0BD10B50F28C9
:101B100037DC0138072800F2B683DFE810F0080050
:101B2000BB00B4032701B403B403B403AD01282000
:101B300004F032F840F200400121C4F2020000F546
:101B4000006000F07BFC002800F09D8340F23E30F6
:101B5000C2F200000178012940F0C3820021012275
:101B6000017040F22720C2F20000027040F24030C3
:101B7000C2F20000017040F23F30C2F2000001707A
:101B8000B7E2B0F5006F69DA102800F0F98120287B
:101B900040F07983282003F0FFFF40F2004020212D
:101BA000C4F2020000F5006000F048FC002800F0DC
:101BB0006A8340F22720C2F200000078002800F07B
:101BC000628340F22D20C2F200000078A8B340F2F8
:101BD000292040F23121C2F20000C2F20001007857
:101BE0000978084340F23821C2F20001097808431D
:101BF00040F22B21C2F200010978084340F22F2164
:101C0000C2F200010978014340F23020C2F2000024
:101C10000278114311D140F2392100220123C2F28E
:101C20000001027040F22C200A7040F23621C2F20C
:101C30000000C2F2000102700B7040F24130C2F2AB
:101C400000000078002800F01E8340F20500C2F278
:101C500000000178042980F07982FEE200F0F6812C
:101C6000B0F5805F40F00F83282003F095FF40F22D
:101C700000444FF48051C4F2020404F5806000F087
:101C8000DDFB002800F0FF8220460121BDE8104066
:101C900000F0D9BB282003F07FFF40F20040022172
:101CA000C4F2020000F5805000F0C8FB002800F0EC
:101CB000EA8240F2040101200022C2F20001087011
:101CC00040F23E31C2F20001087040F24031C2F2EF
:101CD00000010A7040F23F31C2F200010A7040F286
:101CE0002721C2F200010A7040F22D21C2F2000148
:101CF0000A7040F22921C2F200010A7040F231213B
:101D0000C2F200010A7040F23521C2F200010A70ED
:101D100040F23421C2F200010A7040F22A21C2F2DC
:101D200000010A7040F23221C2F200010A7040F252
:101D30002201C2F200010A7040F22301C2F2000146
:101D40000A7040F24131C2F200010A7040F24231A1
:101D5000C2F200010A7040F20501C2F200010870EF
:101D600001F076FFBDE8104001F06ABF282003F0C3
:101D700013FF40F200400421C4F2020000F50060AD
:101D800000F05CFB002800F07E8240F23E30C2F2A0
:101D90000000007801280FD140F23F300021C2F24C
:101DA0000000017040F20400C2F2000001784A1EF7
:101DB000022938BF0322027040F22720C2F200003D
:101DC0000078002800F05F8240F22D20C2F200006F
:101DD0000078A8B340F2292040F23121C2F200007D
:101DE000C2F2000100780978084340F22B21C2F2C8
:101DF00000010978084340F22F21C2F2000109785E
:101E0000084340F23621C2F200010978014340F252
:101E10002C20C2F200000278114311D140F2372188
:101E200000220123C2F2000102700A7040F2382140
:101E3000C2F200010B7040F23021C2F200010A70C0
:101E400040F24130C2F200000078002800F01B820E
:101E500040F20500C2F2000000780138032800F2C9
:101E60001282DFE810F00400E901EE01F30140F214
:101E70001A00C2F20000EDE1282003F08DFE40F2CE
:101E800000400821C4F2020000F0D8FA002800F057
:101E9000FA8140F23E30C2F20000007801280FD1F2
:101EA00040F23F300021C2F20000017040F2040015
:101EB000C2F2000001784A1C022988BF0122027088
:101EC00040F22720C2F200000078002800F0DB81F9
:101ED00040F22D20C2F200000078A8B340F2292081
:101EE00040F23121C2F20000C2F20001007809780C
:101EF000084340F23821C2F200010978084340F259
:101F00002F21C2F200010978084340F23621C2F2C3
:101F100000010978014340F23920C2F20000027842
:101F2000114311D140F2372100220123C2F20001F6
:101F300002700A7040F22B21C2F200010B7040F2D5
:101F40003021C2F200010A7040F24130C2F20000BA
:101F50000078002800F0978140F20500C2F20000EE
:101F600000780138032800F28E81DFE810F00400C9
:101F700079017E01830140F21A00C2F200007DE186
:101F8000282003F009FE40F200401021C4F20200B4
:101F900000F5006000F052FA002800F0748140F271
:101FA0002720C2F200000078002800F06C8140F287
:101FB0002D20C2F200000078A8B340F2292040F2A0
:101FC0003121C2F20000C2F2000100780978084312
:101FD00040F23821C2F200010978084340F22B2177
:101FE000C2F200010978084340F23621C2F2000132
:101FF0000978014340F23720C2F200000278114311
:1020000011D100210122017040F22F20C2F2000004
:10201000027040F23920C2F20000017040F22C2020
:10202000C2F20000017040F24130C2F200000078BC
:10203000002800F0288140F20500C2F2000001787B
:1020400001299EBF0421017010BD19E1282003F071
:10205000A3FD40F200404FF40061C4F2020000F51D
:10206000806000F0EBF9002800F00D8140F2272499
:10207000C2F200042078002800F0058140F22D21F2
:10208000C2F200010A78002A00F0958040F229226D
:10209000C2F200021378002B5BD040F2040001234F
:1020A000C2F20000037040F23E30C2F20000037042
:1020B0000020087040F2312120701070C2F200013F
:1020C000087040F23521C2F20001087040F234215C
:1020D000C2F20001087040F22A21C2F20001087029
:1020E00010BD40F22720C2F200000078002800F066
:1020F000CA8040F22D20C2F20000007888B140F280
:102100002921C2F20001097859B140F22A210022A6
:10211000C2F200010A7040F235210122C2F2000130
:102120000A70002800F0AF8040F23120C2F20000B7
:102130000078002800F0A78040F232200021C2F28F
:102140000000017040F22820C2F20000012101705D
:1021500010BD40F2312CC2F2000C9CF8003053B399
:1021600040F204000123C2F20000037040F23E304E
:10217000C2F2000003700020087040F23521207088
:1021800010708CF80000C2F20001087040F22821A3
:10219000C2F20001087040F23421C2F2000108705E
:1021A00040F22A21C2F20001087040F23221C2F24C
:1021B0000001087010BD40F22201C2F200010A784D
:1021C000BAB140F204000122C2F20000027040F2F3
:1021D0003E30C2F2000002700020087040F223017D
:1021E0002070C2F20001087001F032FD01F028FDFC
:1021F0002078002847D040F24130C2F20000017838
:10220000002908BF10BD40F204010122C2F2000102
:102210000A7040F23E31C2F200010A7000210170E2
:1022200040F242302170C2F20000017040F205001D
:10223000C2F20000027026E040F22100C2F200006B
:1022400008E040F21F00C2F2000003E040F21E006E
:10225000C2F200000178092915D80131017010BDC2
:1022600040F22100C2F2000008E040F21F00C2F27A
:10227000000003E040F21E00C2F20000017811B13C
:102280000139017010BD10BD43F61441C4F20101C3
:102290000A68024214BF08607047FFF737BC0000AD
:1022A0002DE9F04F82B041F6004343F6004B08227F
:1022B0004FF0010A00264FF0000CC4F20203C4F2F2
:1022C000010B984200F13E4308BF072203F1FF7360
:1022D0004FEAB327072F4FF0000738BF4FEAB3226A
:1022E000009200BF0A680AFA0CF812EA080F00F020
:1022F0009A80D1F804E04EF01002122A12D106F0B2
:102300001C020F2303FA02F46FF0030303EA5C05D7
:1023100005442B6AA3430C6904FA02F21A432A62A9
:10232000D1F804E0032304680EF00302BEF1120F9B
:1023300003FA07F302FA07F224EA03046FEA030937
:1023400042EA0402026014D80AFA0EF212F0061FE2
:102350000FD08268CB6802EA0902BB401A43826050
:10236000CEF30012436802FA0CF223EA08031A4380
:102370004260C2688B6802EA0902BB401A43C2602D
:102380005FEACE024FD5002206F00C050F24019221
:1023900043F64402AC40C4F202021346126842F40F
:1023A00080421A601A6802F4804201922CF0030203
:1023B000019B5A444FF60843CFF6FF739E46D3580D
:1023C000A343009C04FA05F52B4342F80E30DBF8DA
:1023D00000204D6842EA0803EC0358BF22EA0803D4
:1023E000CBF80030AC03DBF8042042EA080358BF06
:1023F00022EA0803CBF80430EC02DBF8082042EABA
:10240000080358BF22EA080343F60C42CBF8083011
:10241000AD02C4F201021446126842EA080358BF32
:1024200022EA080323600CF1010C02370436BCF1E8
:10243000100F04BF02B0BDE8F08F53E700690840F9
:1024400018BF0120704742690A408A4208BF090448
:1024500081617047002A08BF09048161704740F616
:102460005820C2F2000000687047B0B568B3044657
:1024700090F83D0028B9002084F83C00204600F088
:10248000B9F8242084F83D002068016821F001019A
:10249000016000F044FA48F2804140F60012002347
:1024A000C0F21E01C0F23D0288424FF0000138BF69
:1024B0000121904248F2A16238BF01236568C0F251
:1024C0000102954238BF0B460BB10120B0BD4DF65D
:1024D0008361C4F21B31A0FB011221684B6823F019
:1024E0003F0343EA92434B60930C0A6A22F03F0C8D
:1024F00048F2A062C0F20102954213D85A1C01387A
:102500004CF6FF7342EA0C020A626A00B0FBF2F07A
:1025100001306FF31F30042898BF0420CA6922EAF3
:10252000030C3EE04FF49672A0F1010E5A4344F6BC
:10253000D353C1F26203A2FB0323012202EB9312E5
:102540004CF6FF7342EA0C020A62CA6922EA030CE3
:10255000A36843B1192004226843BEFBF0F00130A8
:1025600062F31F3006E005EB4500BEFBF0F00130E2
:102570006FF31F30000509D053B1192004226843BE
:10258000BEFBF0F0013062F31F3008E0012008E0EC
:1025900005EB4500BEFBF0F001306FF31F3040F457
:1025A000004040EA0C00C8610868D4E9072320F025
:1025B000C000104348F2FF32184308608868904317
:1025C000D4E90323184310438860C868D4E905237D
:1025D00020F0FF0010431843C860086840F0010075
:1025E000086000202021206484F83D10206384F8D6
:1025F0003E00B0BDB0B586B0044601A81421FDF779
:1026000017FE45F200402168C4F20000814227D144
:1026100043F63004002500F5D8300095C4F20204DA
:10262000216841F002012160216801F0020100915E
:1026300000990421059103210491012103911221A4
:102640000291C021019101A9FFF72AFE009520699E
:1026500040F400102061206900F400100090009800
:1026600006B0B0BD40F20C0040F65821C2F20000A6
:10267000C2F2000100780A6810440860704780B513
:1026800043F60040C4F20200016841F400710160A9
:10269000016841F480610160016841F4807101606A
:1026A000032000F086F8002000F004F800F028F87D
:1026B000002080BDB0B5044640F20C004FF47A71A2
:1026C000C2F200000078B1FBF0F040F20801C2F263
:1026D00000010968B1FBF0F000F08AFC01250F2C25
:1026E0000CD858B94FF0FF3021460022002500F0E9
:1026F00032F840F21000C2F2000004602846B0BD7B
:1027000082B043F6400100200190C4F202014A6801
:1027100042F480424A604A6802F480420192019A7F
:102720000090086840F080500860086800F0805011
:102730000090009802B0704700280BDB00F01F01EA
:102740000122400902FA01F14EF20012CEF200021B
:1027500042F82010704710B500F00F034EF60C5EE3
:1027600000F1604CB0F1FF3FA3F10403CEF2000E84
:10277000734403F10C04C8BF0CF56444DEF8000098
:102780004FF0FF3CC0F30220C31E80F0070038BFAB
:102790000023042828BF04200CFA00F021EA0000DE
:1027A0000CFA03F1984022EA01010843000120706D
:1027B00010BD4EF60C514FF6FF03CEF200010A6831
:1027C0001A4060F30A2242F0806040F0FD70086019
:1027D000704700002DE9F041002800F09C8043F68E
:1027E000000804460D46C4F20208D8F8000400F0C0
:1027F0000F00884208D288F80054D8F8000400F08E
:102800000F00A84240F087802068810717D5410754
:1028100042BFD8F8081041F4E051C8F80810010789
:1028200042BFD8F8081041F46041C8F80810D8F841
:102830000810A26821F0F0011143C8F80810C00781
:102840002FD06068811E022904D2D8F800108901B7
:102850000BD460E0012804D1D8F80010890304D417
:1028600059E0D8F80010890755D5D8F8081021F09C
:1028700003010843C8F80800FFF7F1FD064641F2DE
:10288000883700BFD8F80800616800F00C00B0EB92
:10289000810F06D0FFF7E3FD801BB842F2D9032475
:1028A0003AE0D8F8000400F00F00A84207D988F8F1
:1028B0000054D8F8000400F00F00A8422BD1206883
:1028C000410707D5D8F80810E26821F4E051114318
:1028D000C8F80810000708D5D8F80800216920F4C6
:1028E000604040EAC100C8F8080000F03EF8D8F89F
:1028F000081046F24C520024C0F60002C1F3031146
:10290000515CC84040F20801C2F20001086000209A
:10291000FFF7D0FE00E001242046BDE8F08140F240
:10292000080043F6080146F25C52C2F20000C4F20D
:102930000201C0F6000200680968C1F38221515CFF
:10294000C840704740F2080043F6080146F25C5266
:10295000C2F20000C4F20201C0F600020068096879
:10296000C1F34231515CC840704710B543F60404CE
:10297000C4F20204606800F00C0008280AD00428A1
:1029800019BF42F20040C0F2F40047F64000C0F226
:102990007D1010BD226820680023400202F03F0233
:1029A00047F64000C0F27D105CBF42F20040C0F22A
:1029B000F4002168C1F38811A0FB0101FDF700FCC0
:1029C00021680222C1F3014102EB4101B0FBF1F0A9
:1029D00010BD00002DE9F04182B0002800F0148104
:1029E0000446007843F60006C4F20206C0072FD062
:1029F000B06800F00C00042823D0B06800F00C0090
:102A0000082802D1706840021BD46768B7F5803F80
:102A100007D03068B7F5A02F40F01A8140F480202D
:102A20003060306840F480303060FFF718FD0546B4
:102A3000306880030CD4FFF712FD401B6428F7D9DF
:102A4000A8E03068800303D56068002800F0DC80CF
:102A5000207880072ED5B06810F00C0F07D0B06832
:102A600000F00C00082809D17068400206D43068D4
:102A7000800718D5E068012815D0C5E0E16800207E
:102A8000C4F24720002900F0878001210160FFF790
:102A9000E6FC05463068800705D4FFF7E0FC401BE4
:102AA0000228F7D976E03068216920F0F80040EA82
:102AB000C10030602078000725D5606988B100200A
:102AC0000121C4F24720C0F8801EFFF7C8FC05466C
:102AD000706F800717D4FFF7C2FC401B0228F7D99C
:102AE00058E000200021C4F24720C0F8801EFFF704
:102AF000B6FC0546706F800705D5FFF7B0FC401B9C
:102B00000228F7D946E02078400775D5306C4FF0A1
:102B10000008C0000CD4CDF804804FF00108306CE0
:102B200040F080503064306C00F08050019001988B
:102B300047F20007C4F200073868C0050FD43868B0
:102B400040F480703860FFF78AFC05463868C0059D
:102B500005D4FFF784FC401B0228F7D91AE0A768C8
:102B6000012F05D0306F052F27D140F004003067CA
:102B7000306F40F001003067FFF771FC054641F20D
:102B8000883700BF306F80072FD4FFF768FC401BE9
:102B9000B842F7D9032038E000210160FFF75FFC5D
:102BA000054600BF306880077FF584AFFFF757FC0C
:102BB000411B03200229F5D927E020F001003067EE
:102BC000306F20F004003067FFF749FC0546002F06
:102BD000D5D141F28837306F800706D5FFF73FFC2B
:102BE000411B0320B942F6D90FE0B8F1000F1EBF18
:102BF000306C20F080503064A769002F60D0B0683E
:102C000000F00C00082803D1012002B0BDE8F081DB
:102C100040F200080020C4F24728C8F86000FFF71F
:102C20001EFC0546022F09D13068800128D5FFF728
:102C300016FC411B03200229F6D9E6E73068800123
:102C40003ED5FFF70CFC411B03200329F6D3DCE73C
:102C500020F480303060306820F480203060FFF74E
:102C6000FEFB0546002F7FF4E3AE306880037FF55E
:102C7000EFAEFFF7F4FB411B03206429F5D9C4E74D
:102C800004F11C078FCF0843D90340EA82104FF6A6
:102C9000FF72914340EA0760A1F5803108437060FC
:102CA0000120C8F86000FFF7DAFB044630688001B5
:102CB00006D4FFF7D4FB011B03200229F6D9A4E7B1
:102CC0000020A2E770B504460079012804BF022065
:102CD00070BD012020716079012813D102200D46BA
:102CE0006071FFF7BCFB064620684168C9070DD13B
:102CF000FFF7B5FB801B0328F6D30120022160718A
:102D0000A16009E00420A060012005E08068E06087
:102D100028600120607100200021217170BD10B574
:102D200000F10C042146FFF7CDFF00280CBF2068FE
:102D3000002010BDA0B110B50446407920B9002094
:102D40002071204600F00EF80220607120680168B2
:102D500041F004010160012060710020A06010BDFD
:102D60000120704740F600010068C5F20601884264
:102D700018BF704781B00020009043F63400C4F2C1
:102D80000200016841F040010160006800F040006D
:102D90000090009801B0704770B5C8B30026054692
:102DA0004FF0000C866290F8510030B9284685F843
:102DB000506000F030F8D5F828C0022185F8511095
:102DC00029680A6822F040020A60D5E90123D5E9A2
:102DD00003041A4310436A6920431043AA6902F4AA
:102DE00000731843EB6918432B6A184340EA0C0040
:102DF0000860042000EA12406A6A10434860C8690B
:102E000020F40060C86101206E6585F8510000E083
:102E10000126304670BD10B586B0044601A81421C5
:102E2000FDF706FA43F200002168C4F20100814276
:102E300026D143F63002002100F550400091C4F243
:102E40000202536943F480535361536903F480537E
:102E50000093009B0091136843F001031360126814
:102E600002F001020092009A052205920322CDE9A8
:102E7000031202210291E021019101A9FFF710FA4A
:102E800006B010BD2DE9F04381B0044690F8500023
:102E9000012801D10220A8E04FF001091D46164685
:102EA0000F4684F85090FFF7DAFA804694F8510004
:102EB000012857D10120002F00F09280002E00F051
:102EC0008F80032084F8510000206065E686A68686
:102ED0002763A087A063C4E91000E087A168206889
:102EE000B1F5004F02BF016841F480410160016803
:102EF00049065EBF016841F0400101606268711ED1
:102F0000E368B1FA81F1B2FA82F24909B3F5006FD0
:102F10004FEA521241EA020126D131B137F8021BC1
:102F2000C1602763E18E0139E186E18E00293FD03F
:102F30006E1C00E020688168890707D4FFF78FFACC
:102F400066B1A0EB0800A84208D348E0216B31F835
:102F5000022BC2602163E08E0138E086E08E0028FB
:102F6000E8D125E002203BE039B139780173206BCC
:102F700001302063E08E0138E086E08EC0B16E1C27
:102F800020688168890707D4FFF769FA6EB1A0EB62
:102F90000800A84209D322E0216B09780173206B55
:102FA00001302063E08E0138E086E08E0028E7D112
:102FB00020462946424602F073F908B12020606598
:102FC000A06838B9002000902068C168009180682E
:102FD00000900098606D002818BF012000E00320D9
:102FE000002184F8501084F8519001B0BDE8F083BE
:102FF000411E0020B0EB116F1CBF012070474EF244
:103000001002F023CEF2000251604EF62351CEF2B0
:1030100000010B70072190601160704790F83C3000
:103020000222012B19D010B580F83D200268D2F899
:1030300004E0D2F808C0D1E900342EF07001194341
:1030400051602CF08001214391600022012180F821
:103050003C2080F83D10BDE8104010467047B0B1EC
:1030600010B5044690F83D0028B9002084F83C00D3
:10307000204600F00EF80220211D84F83D00206853
:1030800002F07DFA012084F83D00002010BD0120EF
:10309000704782B040F200410068C4F200018842EB
:1030A00012D0B0F1804F1ED10020019043F64000B5
:1030B000C4F20200016841F001010160006800F003
:1030C0000100019001980EE00020009043F64000BE
:1030D000C4F20200016841F002010160006800F0E2
:1030E00002000090009802B0704790F83C30022235
:1030F000012B00F0BF8080B580F83D20012280F8D0
:103100003C204FF67772D0F800C0DCF8083023EA94
:103110000202CCF808200B683F2B1BDD5F2B1FDD64
:10312000602B4DD0B3F5005F69D0702B40F09A80D2
:10313000D1E90123C9681A4342EA0121DCF80820D9
:1031400022F47F421143CCF80810DCF8081041F05B
:10315000770185E01F2B27DC53B3102B28D081E0AB
:10316000402B5ED0502B7DD1D1F804E0C968DCF84B
:103170002030DCF8202022F00102CCF82020DCF8FE
:10318000182022F0F00242EA0111CCF8181023F0C6
:103190000A0141EA0E01CCF82010DCF8081041F0D9
:1031A000570121F020015BE0202B01D0302B59D1B9
:1031B000DCF8081021F07001194341F007014FE0DD
:1031C0004A68C968DCF8203023F01003CCF82030BE
:1031D000DCF8183023F4704343EA0131DCF8203086
:1031E000CCF8181023F0A00141EA0211CCF820100D
:1031F000DCF8081041F0670121F0100130E0D1E95E
:103200000123C9681A4342EA0121DCF8082022F4AC
:103210007F421143CCF80810DCF8081041F48041DB
:103220001EE0D1F804E0C968DCF82030DCF820208A
:1032300022F00102CCF82020DCF8182022F0F00265
:1032400042EA0111CCF8181023F00A0141EA0E01FC
:10325000CCF82010DCF8081041F0470121F03001D3
:10326000CCF808100022012180F83C2080F83D10A5
:10327000BDE880401046704710B586B0044601A8EE
:103280001421FCF7D5FF40F200412068C4F2000190
:1032900088421DD0B0F1804F39D143F63001002073
:1032A0000090C4F202010A6842F001020A60096853
:1032B00001F001010091009901210591CDE9030080
:1032C00002200290082001900020C4F202001BE0BE
:1032D00043F6300100200090C4F202010A6842F077
:1032E00004020A60096801F00401009100990221BA
:1032F000CDE90401CDE902104FF4E0700190002007
:10330000C4F2020000F5006001A9FEF7C9FF06B093
:1033100010BD000070B50D4690F83C100446022028
:10332000012908BF70BD84F83D004FEAB2000126B4
:10333000032884F83C6036D8DFE800F0020A122245
:103340002068294602F0AAF9206850F8181F0EE0FC
:103350002068294602F0D2F9206850F8181F16E0BC
:103360002068294602F0FEF9206850F81C1F41F041
:1033700008010160016821F00401016029690FE082
:103380002068294602F022FA206850F81C1F41F4F8
:1033900000610160016821F480610160296909020E
:1033A000026811430160002084F83C0084F83D600D
:1033B00070BDB0B110B5044690F83D0028B90020AA
:1033C00084F83C00204600F00EF80220211D84F80D
:1033D0003D00206802F0D3F8012084F83D00002071
:1033E00010BD012070477047006801F01F010122E5
:1033F00002FA01F1026A8A430262026A114340F250
:103400000042016240F48061C4F20102914202BFB5
:10341000416C41F400414164816801F007010629D3
:103420001EBF016841F0010101600020704750B3E8
:1034300010B5044690F8390028B9002084F8380007
:10344000204600F022F8242084F839002068C16862
:1034500021F40051C160204602F0E0F920680169C2
:1034600021F490410161416921F02A014161C16863
:1034700041F40051C16000202021E06384F839103C
:1034800084F83A1010BD0120704710B586B004468C
:1034900001A81421FCF7CCFE41F200002168C4F21F
:1034A0000100814228D143F63002002100F570402E
:1034B0000091C4F20202536943F01003536153694F
:1034C00003F010030093009B0091116841F001018B
:1034D0001160116801F00101009100990721059127
:1034E0000321049101210391022102914FF4C06153
:1034F000019101A9FEF7D4FE06B010BD2DE9F041FF
:10350000044690F8390020280AD10E4601200029EF
:103510004AD01746002A47D094F83800012802D133
:103520000220BDE8F08100201D46E063012084F800
:103530003800212084F83900FEF791FF8046E784A7
:10354000A7841EE0E08C802142462B460138E084AF
:103550002046A76802F0C2FAB7F5805F0CD1D0B957
:10356000318820686FF35F2141602069002814BF13
:103570000136023605E000BF68B9206816F8011B65
:103580004160E08C0028DDD12046402142462B4698
:1035900002F0A4FA10B10320BDE8F0810020202140
:1035A00084F8380084F83910BDE8F081FEE70000A7
:1035B0002DE9F04182B040F230200024C2F2000038
:1035C000047040F23720C2F20000047040F22C2058
:1035D000C2F20000047040F23920C2F20000047010
:1035E00040F23320C2F200000470002000F062F9C3
:1035F0004FF6FF700021F022F0230090002000F031
:10360000C5F840A014214FF6E07200234FF6E07891
:103610000090FA20FDF770FD3CA046214FF6E072C5
:1036200000230090FA20FDF767FD40F24B6702206F
:10363000C2F20007A7F8800040F22E20C2F200007C
:10364000017811B197F8824003E0012187F88240A8
:10365000017040F2242040F2473546F69C56012185
:103660002246C2F20000C2F20005C0F600068170D8
:103670002846314602F0D6FA40F23D2497F88320DE
:103680003146C2F20004204602F0CCFAFA2028218A
:103690004FF6E07200230095FDF72EFDFA205A2127
:1036A0004FF6E07200230094FDF726FD97F88000A6
:1036B00010B30020782100BF00EB800278323A542A
:1036C0003A18013082F8401097F880209042F3D3E6
:1036D00092B1A8F53070002485B200BF3919385D69
:1036E0000522052391F84010009500F02DF897F879
:1036F000800001348442F1D306A002B0BDE8F0415D
:1037000002F012BF53434F52453A00004C45564514
:103710004C3A0000E6B8B8E6888FE5BC80E5A78B98
:1037200021E8AFB7E68C89E4BBBBE6848FE696B9A7
:10373000E59091E994AEE8AEA9E89B87E8BF90E5F3
:103740008AA82E2E2E0D00002DE9F04381B00546EB
:103750001044B0F5A07F16D889461944F02912D834
:10376000DDF820805F1C002486B200BF04EB090056
:103770003246CDF8008081B228460B46FDF7C4FEE4
:103780000134A742F2D101B0BDE8F0832DE9F04148
:1037900082B004461044B0F5A07F2AD85F180D46C9
:1037A000F02F26D886B2DDF82080204629462B4609
:1037B0003246CDF80080FDF7A7FEB9B2204632466A
:1037C000CDF800800B46FDF79FFE681C2246CDF821
:1037D000008085B2781E87B2204629463B46FDF719
:1037E00093FE3046294632463B46CDF80080FDF731
:1037F0008BFE02B0BDE8F08180B582B0FF201021C1
:1038000001228DF8070040F60000C4F20200FEF726
:1038100021FE3220FEF766F940F62C100DF107016B
:1038200001220323C2F20000FFF72CFB02B080BD8F
:1038300070B5E8B341F600060C460546C4F2020630
:1038400030464FF480610022FEF704FE30464FF40C
:1038500000610022FEF7FEFD30464FF48051002249
:10386000FEF7F8FD30464FF400510022FEF7F2FD5E
:103870002046FEF737F930464FF480610122FEF70B
:10388000E9FD30464FF400610122FEF7E3FD3046CA
:103890004FF480510122FEF7DDFD30464FF4005118
:1038A0000122FEF7D7FD2046FEF71CF9013DC7D1E6
:1038B00070BD0000F0B581B005460020002140F247
:1038C0003F12EF23002600F02EF92C0AEDB200BFC4
:1038D000F02700BF204600F06BF9284600F068F999
:1038E000013FF7D10136B6F5A07F04BF01B0F0BDAE
:1038F000EEE780B5FFF780FF00F0FEF8CB2000F088
:103900007BF9392000F054F92C2000F051F9002007
:1039100000F04EF9342000F04BF9022000F048F995
:10392000CF2000F069F9002000F042F9C12000F03A
:103930003FF9302000F03CF9E82000F05DF98520E7
:1039400000F036F9002000F033F9782000F030F96B
:10395000EA2000F051F9002000F02AF9002000F0E0
:1039600027F9ED2000F048F9642000F021F9032048
:1039700000F01EF9122000F01BF9812000F018F968
:10398000F72000F039F9202000F012F9C02000F0F3
:1039900033F9232000F00CF9C12000F02DF910209C
:1039A00000F006F9C52000F027F93E2000F000F9EC
:1039B000282000F0FDF8C72000F01EF9862000F056
:1039C000F7F8362000F018F9E82000F0F1F83A2076
:1039D00000F012F9552000F0EBF8B12000F00CF9DE
:1039E000002000F0E5F8182000F0E2F8B62000F022
:1039F00003F9082000F0DCF8822000F0D9F8272035
:103A000000F0D6F8F22000F0F7F8002000F0D0F82F
:103A1000262000F0F1F8012000F0CAF8E02000F0C4
:103A2000EBF80F2000F0C4F8312000F0C1F82B2093
:103A300000F0BEF80C2000F0BBF80E2000F0B8F843
:103A4000082000F0B5F84E2000F0B2F8F12000F0A8
:103A5000AFF8372000F0ACF8072000F0A9F81020EC
:103A600000F0A6F8032000F0A3F80E2000F0A0F864
:103A7000092000F09DF8002000F09AF8E12000F005
:103A8000BBF8002000F094F80E2000F091F814200C
:103A900000F08EF8032000F08BF8112000F088F879
:103AA000072000F085F8312000F082F8C12000F0F6
:103AB0007FF8482000F07CF8082000F079F80F200B
:103AC00000F076F80C2000F073F8312000F070F868
:103AD000362000F06DF80F2000F06AF8112000F099
:103AE0008BF87820FDF7FEFF292000F085F82C20C8
:103AF000BDE8804000F080B810B540F60004102109
:103B00000022C4F202042046FEF7A4FC6420FDF764
:103B1000E9FF204610210122FEF79CFC3220BDE87F
:103B20001040FDF7DFBFF0B581B007462A201C46E4
:103B300016460D4600F060F8380A00F039F8F8B281
:103B400000F036F8300A00F033F8F0B200F030F848
:103B50002B2000F051F8280A00F02AF8E8B200F013
:103B600027F8200A00F024F8E0B200F021F82C2019
:103B700001B0BDE8F04000F03FB8B0B505462A20DE
:103B80000C4600F039F8280A00F012F8E8B200F00C
:103B90000FF82B2000F030F8200A00F009F8E0B20E
:103BA00000F006F82C20BDE8B04000F025B8000079
:103BB000B0B540F60004054620210022C4F20204FC
:103BC0002046FEF747FCA4F5006010210122FEF715
:103BD00041FC40F62C10C2F20000006881688907A1
:103BE000FCD5C56081688907FCD5204620210122CB
:103BF000BDE8B040FEF72EBCB0B540F60004054667
:103C000020210022C4F202042046FEF723FCA4F582
:103C1000006010210022FEF71DFC40F62C10C2F2BD
:103C20000000006881688907FCD5C5608168890744
:103C3000FCD5204620210122BDE8B040FEF70ABC99
:103C400040F2004002210122C4F20200FEF702BC51
:103C500040F2004004210122C4F20200FEF7FABB48
:103C600080B540F2004002210022C4F20200FEF7BB
:103C7000F1FB3220BDE88040FDF734BF80B540F253
:103C8000004004210022C4F20200FEF7E3FB3220D0
:103C9000BDE88040FDF726BFB0B5044640F23A20AB
:103CA000C2F20000007850B940F68415C2F2000557
:103CB0002846FFF77EFB28460C21FFF795FB40F6D0
:103CC000841004EB8401C2F2000049000068016422
:103CD000B0BD00002DE9F041002852D041F60007A8
:103CE00014460D4680460026C4F2020738464FF4BB
:103CF00080610022FEF7AEFB2846FDF7F3FE384652
:103D00004FF480610122FEF7A5FB2046FDF7EAFE95
:103D100038464FF400610022FEF79CFB2846FDF771
:103D2000E1FE38464FF400610122FEF793FB204686
:103D3000FDF7D8FE38464FF480510022FEF78AFB8B
:103D40002846FDF7CFFE38464FF480510122FEF79A
:103D500081FB2046FDF7C6FE38464FF40051002295
:103D6000FEF778FB2846FDF7BDFE38464FF40051BC
:103D70000122FEF76FFB2046FDF7B4FE01364645F3
:103D8000B4D3BDE8F08110B540F23E34C2F2000475
:103D9000207801280DD140F22720C2F200000078DF
:103DA000C0B940F20400C2F20000007800F01AFB33
:103DB000207878B940F22720C2F20000007801286C
:103DC00008D140F20400C2F200000078BDE81040C3
:103DD000FDF74AB810BDB0B584B040F2F07042F2C1
:103DE00000020123002401254FF48031C2F20000BB
:103DF000C4F20102C0F60073C46280F82040057668
:103E0000836280F83040C561C0E90021C0E9024406
:103E1000C0E90445CDE90244CDE90044FDF76BFC5F
:103E200008B1FCF7EFFF40F2F07069460294CDE96B
:103E30000055C2F20000FDF7D7FB08B1FCF7E2FF26
:103E400004B0B0BDB0B584B040F6380042F2001204
:103E50000123002401254FF48031C2F20000C4F296
:103E60000102C0F60073C46280F8204005768362C8
:103E700080F83040C561C0E90021C0E90244C0E9D2
:103E80000445CDE90244CDE90044FDF734FC08B116
:103E9000FCF7B8FF0220CDE901546946009040F6D6
:103EA0003800C2F20000FDF79FFB08B1FCF7AAFF43
:103EB00004B0B0BDB0B584B040F6800042F200223C
:103EC0000123002401254FF48031C2F20000C4F226
:103ED0000102C0F60073C46280F820400576836258
:103EE00080F83040C561C0E90021C0E90244C0E962
:103EF0000445CDE90244CDE90044FDF7FCFB08B1DF
:103F0000FCF780FF0D20CDE901546946009040F692
:103F10008000C2F20000FDF767FB08B1FCF772FFFA
:103F200004B0B0BD2DE9F04F87B043F63000002655
:103F300000250022CDE905660196C4F20200C4F214
:103F40000205016841F020010160016801F02001D3
:103F5000019101990196016841F0800101600168B9
:103F600001F08001019101990196016841F004017D
:103F70000160016801F00401019101990196016855
:103F800041F001010160016801F001010191019915
:103F90000196016841F002010160016801F002012F
:103FA000019101990196016841F0080101600168E1
:103FB00001F00801019101990196016841F0400169
:103FC00001601021006800F040000190019828462F
:103FD000FEF740FA05F50068302100224FF0300B63
:103FE0004046FEF737FA05F5806A072101220124D1
:103FF0005046FEF72FFA05F5C0594FF4F84101225B
:104000004846FEF727FA022002AF029000200494EF
:104010003946C1F21100039005F5A050FEF740F9B2
:10402000102002A9059651C128463946FEF738F9F5
:1040300003A8CDF808B04FF0030B394680E85008CC
:104040004046FEF72DF950463946CDE9046BCDE9DF
:104050000244FEF725F906200596CDE903463946C8
:1040600002905046FEF71CF900254FF4C050394627
:1040700002904046C1F2110504940395FEF710F931
:104080003520394602900020CDE90354C4F20200E5
:1040900000F54060FEF704F94FF4705002A9059650
:1040A00051C148463946FEF7FBF8112039460390C6
:1040B0004FF4804002904846CDE90466FEF7F0F8E0
:1040C0000820CDE90354394602905046FEF7E8F83F
:1040D000062000210022FEF73EFB0620FEF72CFB07
:1040E000072000210022FEF736FB0720FEF724FB05
:1040F000082000210022FEF72EFB0820FEF71CFB03
:10410000092000210022FEF726FB0920FEF714FB00
:104110000A2000210022FEF71EFB0A20FEF70CFBFE
:10412000172000210022FEF716FB1720FEF704FBE4
:10413000282000210022FEF70EFB2820FEF7FCFAC3
:1041400007B0BDE8F08F80B540F6C80048F2A06324
:1041500045F200414FF4804C0022C2F20000C0F250
:104160000103C4F200010262C0E90013C0E90222A7
:10417000C0E904C2C0E90622FEF777F9002814BF9F
:10418000BDE8804080BDFCF73DBE80B540F61C1008
:1041900040F60001C2F20000C5F206010160FEF720
:1041A000C9FD002814BFBDE8804080BDFCF72ABED1
:1041B00010B540F62C1043F200044FF482724FF415
:1041C000007C4FF0010E02230021C2F20000C4F275
:1041D0000104C0E900420A22C0E90211C0E9043E1C
:1041E000C0E906C1C0E90811C0E90A12FEF7D4FD12
:1041F000002814BFBDE8104010BDFCF703BE10B589
:104200008EB0002401A81C21CDE90C44CDE90A445C
:10421000CDE90844FCF70CF840F6841040F2E73191
:1042200053224FF08043C2F200008461C0E90032A3
:10423000C0E902410461FEF712FF08B1FCF7E2FD9C
:104240004FF480500AA90A9040F68410C2F2000090
:10425000FEF74BFF08B1FCF7D5FD40F68410C2F223
:104260000000FFF7A6F808B1FCF7CCFD40F684107B
:10427000002408A9C2F20000CDE90844FEF7CEFEF2
:1042800008B1FCF7BFFD60200594CDE9024401A907
:104290000C22019040F68410C2F20000FFF73AF8B9
:1042A00008B1FCF7AFFD40F68410C2F20000FEF743
:1042B000E3FF0EB010BD10B58EB0002401A81C2184
:1042C000CDE90C44CDE90A44CDE90844FBF7B0FF41
:1042D00040F6C41040F2004340F2E7315322C2F2EC
:1042E0000000C4F200038461C0E90032C0E9024169
:1042F0000461FEF7B4FE08B1FCF784FD4FF4805072
:104300000AA90A9040F6C410C2F20000FEF7EDFEC2
:1043100008B1FCF777FD40F6C410C2F20000FFF7C9
:1043200048F808B1FCF76EFD40F6C410002408A957
:10433000C2F20000CDE90844FEF770FE08B1FCF7B8
:1043400061FD4FF4FA700594039401A900220290D4
:104350006020019040F6C410C2F20000FEF7DAFFC0
:1043600008B1FCF74FFD40F6C41001A90422C2F2C7
:104370000000FEF7CFFF08B1FCF744FD40F6C41083
:1043800001A90822C2F20000FEF7C4FF08B1FCF741
:1043900039FD40F6C410C2F20000FEF76DFF0EB00A
:1043A00010BD80B540F6042041F2000200214FF01C
:1043B0000C0C4FF4E133C2F20000C4F20102C0E978
:1043C0000023C0E90211C0E9041CC0E90611FFF78F
:1043D0002EF8002814BFBDE8804080BDFCF712BD58
:1043E000FEE7000070B582B040F2403604464FF65A
:1043F000FE75C2F200063078D8B940F2FF50FFF7E0
:1044000059FAAFA008214FF6FE7240F2FF53009018
:104410006E20FCF745FFA5F5AF701E214FF4967294
:104420001E2380B200901420FDF76EF83078013022
:104430003070032C6BD0022C00F0CF80012C40F0A8
:104440003C8140F23F34C2F20004207848BB46F67B
:10445000F640322140F2FF5240F2FF53C0F6000016
:1044600000901420FCF71CFF46F612505A2140F22F
:10447000FF5240F2FF53C0F6000000901420FCF7FA
:104480000FFF46F6DA40822140F2FF5240F2FF531E
:10449000C0F6000000901420FCF702FF20780130E5
:1044A000207046F6F64032214FF6FE7240F2FF537E
:1044B000C0F6000000901420FCF7F2FE46F67250A1
:1044C0005A214FF6FE7240F2FF53C0F600000090F2
:1044D0001420FCF7E5FE46F6365082214FF6FE72B8
:1044E00040F2FF53C0F6000000901420FCF7D8FE05
:1044F00046F62E50DC214FF6FE7240F2FF53C0F616
:1045000000000090E120FCF7F7FD0120CAE040F236
:104510003F34C2F20004207848BB46F6F640322110
:1045200040F2FF5240F2FF53C0F60000009014200A
:10453000FCF7B6FE46F612505A2140F2FF5240F206
:10454000FF53C0F6000000901420FCF7A9FE46F6C9
:10455000DA40822140F2FF5240F2FF53C0F60000E1
:1045600000901420FCF79CFE20780130207046F665
:10457000525032214FF6FE7240F2FF53C0F6000057
:1045800000901420FCF78CFE46F672505A214FF62C
:10459000FE7240F2FF53C0F6000000901420FCF7BA
:1045A0007FFE46F6DA4082214FF6FE7240F2FF535C
:1045B000C0F6000000901420FCF772FE46F62E5064
:1045C000DC214FF6FE7240F2FF53C0F6000000906F
:1045D000E120FCF791FD032064E040F23F34C2F299
:1045E0000004207848BB46F6F640322140F2FF52E4
:1045F00040F2FF53C0F6000000901420FCF750FE7C
:1046000046F612505A2140F2FF5240F2FF53C0F6D4
:10461000000000901420FCF743FE46F6DA408221A9
:1046200040F2FF5240F2FF53C0F600000090142009
:10463000FCF736FE20780130207046F652503221C9
:104640004FF6FE7240F2FF53C0F6000000901420B7
:10465000FCF726FE46F612505A214FF6FE7240F243
:10466000FF53C0F6000000901420FCF719FE46F638
:10467000365082214FF6FE7240F2FF53C0F6000022
:1046800000901420FCF70CFE46F62E50DC214FF66D
:10469000FE7240F2FF53C0F600000090E120FCF7EC
:1046A0002BFD02200090A5F5AF70C82140F2FF530A
:1046B00082B24FF48C70FCF7DBFE02B070BD00BF1D
:1046C0002D48616E6448654C64436F6E2D00000098
:1046D000B0B52DED028B40F2F074C2F2000420461A
:1046E000FDF788F940F63800C2F20000FDF782F9C4
:1046F00040F68000C2F20000FDF77CF92046FF2161
:10470000FDF720F908BB40F2F070C2F20000FCF7A0
:10471000EFFF0446FBF700FF9FED510B53EC102B0E
:10472000FBF791FD9FED500B53EC102BFBF78BFD2E
:1047300040F2D87241EC100B40F64820C2F2000261
:10474000C2F20000146080ED000B40F63800FF213B
:10475000C2F20000FDF7F6F808BB40F63800C2F2DE
:104760000000FCF7C5FF0446FBF7D6FE9FED3C0BAF
:1047700053EC102BFBF767FD9FED3B0B53EC102B1D
:10478000FBF761FD40F2DC7241EC100B40F650206B
:10479000C2F20002C2F20000146080ED000B40F68D
:1047A0008000FF21C2F20000FDF7CCF808BB40F604
:1047B0008000C2F20000FCF79BFF0446FBF7ACFE52
:1047C0009FED270B53EC102BFBF73DFD9FED260BC8
:1047D00053EC102BFBF737FD40F2E07241EC100B6D
:1047E00040F2E870C2F20002C2F20000146080EDF4
:1047F000000B40F650209FED1E0BC2F2000090ED22
:10480000001B53EC102B54EC115B28462146FBF7A0
:1048100016FE9FED198BC0B99FED190B2846214656
:1048200053EC102BFBF741FE78B99FED170B2A468E
:10483000234651EC100BFBF778FD9FED150B53EC65
:10484000102BFBF700FD41EC180B40F2D070C2F2C8
:10485000000080ED008BBDEC028BB0BD00BF00BF3F
:104860006666666666660A40000000000000303F2B
:1048700000000000000000000000000000D08440A4
:104880000000000000000840000000000000F03FB1
:104890000000000000004A40704700002DE9F04F82
:1048A00081B040F205004BF6BA244FF6BD75C2F256
:1048B00000000078013803285BD8DFE800F0020E22
:1048C000213B05F123001E210822082380B200901D
:1048D0003220FEF739FF00940AE032201E21082220
:1048E00008230094FEF730FF05F1230080B200900A
:1048F00080201E2108220823FEF726FF009411E0E5
:1049000032201E21082208230094FEF71DFF80207C
:104910001E21082208230094FEF716FF05F123004C
:1049200080B20090C1201E2108220823FEF70CFF50
:10493000009418E032201E21082208230094FEF77C
:1049400003FF80201E21082208230094FEF7FCFEAE
:10495000C1201E21082208230094FEF7F5FE05F170
:10496000230080B20090F8201E2108220823FEF7C1
:10497000EBFE40F21A08C2F2000898F800000A287C
:104980000DD1012078214FF6BD724BF6BA2300906D
:104990001920FCF76DFD00200090372001E0009009
:1049A000282078214FF6BD724BF6BA23FCF760FD44
:1049B00040F22109C2F2000999F800000A280DD13D
:1049C000012078214FF478424BF6BA2300906920F9
:1049D000FCF74EFD00200090872001E00090782039
:1049E00078214FF478424BF6BA23FCF741FD40F2B0
:1049F0001F0AC2F2000A9AF800000A280DD101200D
:104A000078214FF4FC624BF6BA230090A520FCF706
:104A10002FFD00200090C32001E00090B4207821F9
:104A20004FF4FC624BF6BA23FCF722FD40F21E075E
:104A3000C2F2000738780A280CD1012078211F2201
:104A40004BF6BA230090E120FCF712FD0020009005
:104A5000FF2001E00090F02078211F224BF6BA23BE
:104A6000FCF706FD98F80000FFF716F93A789AF877
:104A7000001099F80000FCF7C6F940F2200BC2F2D2
:104A8000000B9BF800000A2817D198F800000A28AC
:104A900013D0012078214BF6BA224BF6BA230090AE
:104AA0001920FCF7E5FC002078214BF6BA224BF6E2
:104AB000BA2300903720FCF7DBFC40F21D05C2F260
:104AC000000528780A2817D199F800000A2813D081
:104AD000012078214BF6BA224BF6BA2300906920C8
:104AE000FCF7C6FC002078214BF6BA224BF6BA231D
:104AF00000908720FCF7BCFC40F21C06C2F20006C6
:104B000030780A2817D19AF800000A2813D001201B
:104B100078214BF6BA224BF6BA230090A520FCF779
:104B2000A7FC002078214BF6BA224BF6BA2300905E
:104B3000C320FCF79DFC40F21B043878C2F200044D
:104B400021780A2916D10A2814D0012078214BF6A1
:104B5000BA224BF6BA230090E120FCF789FC002032
:104B600078214BF6BA224BF6BA230090FF20FCF7CF
:104B70007FFC387898F8001099F800209AF80030F7
:104B800020708BF800102A703370009004A001F0A0
:104B900039F8642001B0BDE8F04FFCF7A3BF00BFB7
:104BA0004C45443A25642020E7BAA23A25642020E7
:104BB000E7BBBF3A25642020E8939D3A25640D0A9F
:104BC00000000000704700002DE9F04F81B040F276
:104BD000190440F23B2840F238260020C2F20004BB
:104BE000C2F20008C2F20006207088F80000307897
:104BF00028B140F239200121C2F20000017040F2D8
:104C00002B25C2F20005287828B140F22C20012182
:104C1000C2F20000017040F22F2AC2F2000A9AF894
:104C2000000028B140F230200121C2F200000170E2
:104C300040F2362BC2F2000B9BF8000028B140F284
:104C400037200121C2F20000017000F0A0FB40F209
:104C50004B67C2F2000797F880000138395C0539CC
:104C6000E12905D8384490F840000538E2284DD3B2
:104C7000012087F88100207838B901203221E8220C
:104C8000FBF7EAFD207801302070FBF709FE97F86A
:104C90008100002840F07D8140F2392140F2332923
:104CA0004FF62054C2F20001C2F20009097899F8C7
:104CB0000000012901D1022804D1012862D12978FC
:104CC00001295FD1387897F840100022052300921F
:104CD0000522FEF739FD97F88000411E01291ADBF5
:104CE000AC465E46D346C246002307F1400200258B
:104CF000581C0135395CF954105CD054EBB297F86C
:104D00008000411E9942F3DC654607E097F8810078
:104D10000128B0D0BDE75E46D346C246384410F8FD
:104D2000020C785497F88000384490F83E1005390A
:104D300080F83F1097F8800098B14FF0000800BF4E
:104D400007EB080117F808000522052391F8401029
:104D50000094FEF7F9FC97F8800008F101088045FF
:104D6000EED32878D046DA46B34640F23826002102
:104D7000C2F20006002806BF012089F8000099F859
:104D80000000317040F22C21C2F2000109780129A3
:104D900001D1012804D102284ED1317801294BD10B
:104DA000387897F840100022052300920522FEF77C
:104DB000CBFC97F880002E46411E012910DB002312
:104DC00007F14002002500BF581C0135395CF95439
:104DD000105CD054EBB297F88000411E9942F3DC8E
:104DE000384410F8020C785497F88000384490F852
:104DF0003E10053180F83F1097F8800070B1002513
:104E00007919785D0522052391F840100094FEF78A
:104E10009BFC97F8800001358542F1D340F23820A1
:104E20000021C2F200000078002806BF022089F8A5
:104E3000000099F80000317040F23021C2F2000108
:104E40000978012901D1042805D103284CD19BF808
:104E50000010012948D1387897F840100022052326
:104E600000920522FEF770FC97F88010481E01287A
:104E700010DB002307F14002002600BF581C01365A
:104E8000395CF954105CD054F3B297F88010481E86
:104E90009842F3DC394411F8021C0539395497F86B
:104EA0008000384490F83E1080F83F1097F880005A
:104EB00070B100257919785D0522052391F840101D
:104EC0000094FEF741FC97F8800001358542F1D34C
:104ED0009BF800000021002806BF032089F800008D
:104EE00099F800008AF8001040F23721C2F2000160
:104EF0000978012901D1032805D1042849D19AF85C
:104F00000000012845D1387897F840100022052389
:104F100000920522FEF718FC97F88010481E012821
:104F200010DB002307F14002002600BF581C0136A9
:104F3000395CF954105CD054F3B297F88010481ED5
:104F40009842F3DC394411F8021C0531395497F8C2
:104F50008000384490F83E1080F83F1097F88000A9
:104F600070B100257919785D0522052391F840106C
:104F70000094FEF7E9FB97F8800001358542F1D3F4
:104F80009AF8000010B9042089F8000000208BF87E
:104F9000000097F88000042819D3397800230122F3
:104FA0001E463B44DD788D4207D193F8433097F895
:104FB0004050AB4208BF87F88120731C04368642FC
:104FC000EED3402803D1FBF7F7FC97F8800040F2BE
:104FD000242B0138C2F2000B395C9BF8002091426F
:104FE00040F08B8038449BF8011090F840008842D4
:104FF00040F0838098F8000048B9022032211E2238
:10500000FEF768FE98F80000013088F8000040F2D2
:10501000473846F69C5497F88220C2F20008C0F642
:1050200000044046214600F0FDFDFA202821002220
:105030000023CDF800804FF00009FCF75DF840F246
:105040003D2697F883202146C2F20006304600F044
:10505000E9FDFA205A21002200230096FCF74CF8C3
:105060009BF800009BF8011005220523CDF8009065
:10507000FEF76AFB97F880009BF80010013087F874
:10508000800057FA80F000F8011C9BF8011097F897
:105090008000384480F83F1097F8820097F883101A
:1050A00001310A3087F8831087F88200C2B2404687
:1050B000214600F0B7FD97F883203046214600F0E6
:1050C000B1FD4FF6205028210023CDF80080CFF607
:1050D000FF7000F5307084B2FA202246FCF70CF81D
:1050E000FA205A21224600230096FCF705F80120F9
:1050F0008BF8020062A001F017FA9BF8020000286A
:1051000056D0012840F0AD8040F61C144AF6AB267C
:105110004CF6CD48C2F20004CAF6AA26CCF6CC481A
:105120002046FDF7FCFD002800D54042A0FB0612FA
:10513000510901EB4101A0EB011000EB8000C1B26D
:10514000A1FB08239A0802EB8202891A042908BFEE
:1051500001308BF800002046FDF7E1FD002800D566
:105160004042A0FB0612510901EB4101A0EB0110E6
:1051700000EB80008BF8010097F88000A8B19BF845
:1051800000300022002100BFBD5CAB4204D1BD183D
:1051900095F84050AB4205D0013201318242F3D341
:1051A00001E000BFD1B28142BAD100208BF80200E9
:1051B00097F88100002854D140F61C19C2F200096A
:1051C0004846FDF7ACFD002800D5404248F21F5686
:1051D000642440F24A68C5F2EB16C2F20008A0FB54
:1051E0000612510901FB14006A3888F8000048468D
:1051F000FDF795FD002800D54042A0FB061240F2C5
:10520000496A5109C2F2000A01FB14006A388AF89F
:1052100000004846FDF783FD002800D54042A0FB72
:1052200006120523510901FB140040F248616A3857
:10523000C2F20001087098F80010C0B201F0F80145
:10524000090241EAD0009AF8001001F0FC0140EA9E
:10525000C1029BF800009BF8011000920522FEF7A6
:1052600073FA97F883004FF47A7100EB80004042A4
:1052700001EB800001B0BDE8F04FFCF733BC00BF8C
:10528000E59083E588B0E9A39FE789A921E7BBA75B
:10529000E7BBADE58AA0E6B2B9EFBC810D00000026
:1052A00010B582B0044640F2080013460A4649F69B
:1052B0008171C2F20000C1F25E610068A0FB0101D1
:1052C000480D4FF47A71484301906068B0F5827FD1
:1052D0000AD12046802100F013F870B1606D40F0D3
:1052E00020006065032009E0019830B10198013881
:1052F0000190206880680006F6D4002002B010BD3E
:105300002DE9F041804600680F4681683940B94276
:105310000ED11D461646541C34B1FDF7A0F8411BB2
:10532000D8F80000B14206D281683940B942F3D0C2
:105330000020BDE8F081416821F0E0014160D8F82B
:105340000410B1F5827F0BD1D8F80810B1F5004FE9
:1053500002D0B1F5806F03D1016821F040010160F6
:10536000D8F82810B1F5005F07D1016821F4005189
:105370000160016841F400510160002088F850008C
:10538000012088F851000320BDE8F08170472DE925
:10539000F04381B040F24848FA20B42100220023B3
:1053A000C2F20008CDF80080FBF7A6FE40F2485993
:1053B0004FF49170B42100220023C2F20009CDF80D
:1053C0000090FBF799FE40F22406FA20DC2100222F
:1053D0000023C2F200060096FBF78EFE40F224176F
:1053E0004FF49170DC2100220023C2F200070097E5
:1053F000FBF782FE40F24B6546F69C54C2F2000574
:10540000C0F6000495F880002146284410F8012CCD
:10541000404600F007FC95F880002146284490F8AB
:105420003F20484600F0FEFB40F22425304621464E
:10543000C2F200052A7800F0F5FB6A78384621466A
:1054400000F0F0FBFA20B4214FF6FF720023CDF8F4
:105450000080FBF751FE4FF49170B4214FF6FF72BC
:105460000023CDF80090FBF747FEFA20DC214FF631
:10547000FF7200230096FBF73FFE4FF49170DC2192
:105480004FF6FF7200230097FBF736FE01B0BDE830
:10549000F083FDF7E7B8B0B592B043F640000024C2
:1054A0000225CDE90A44CDE908440194C4F2020082
:1054B000016841F080510160006800F08050019067
:1054C0000198019447F20000C4F20000016841F421
:1054D00080410160006800F480400190019807203D
:1054E00011904FF4A87010950F9019200E904FF462
:1054F0008000CDE90C504FF4A020079001200690C9
:1055000006A8FDF767FA4FF48050052105904FF487
:10551000A05004900F20CDE90254019001A8FDF79E
:1055200059F912B0B0BD4EF608504FF0000CCEF253
:105530000000D0F8801041F47001C0F8801043F6EC
:105540000001C4F202010A6842F001020A60C1F8D7
:1055500008C04FF6FF720B68CFF6F6621A400A6079
:1055600043F21002C2F200424A600A6822F480222A
:105570000A60C1F80CC04FF000610160704740F64E
:10558000FF3C0268C4F2000C60450DDCB0F1804FB6
:105590001BD040F20043C4F20003984215D040F6FD
:1055A0000003C4F200030EE040F60043C4F200031F
:1055B00098420AD040F20043C4F20103984204D05A
:1055C0000023C4F20103984203D14B6822F0700219
:1055D0001A4341F6FF73C4F2000398420DDC6045A4
:1055E0001FDCB0F1804F3FD040F20043C4F2000313
:1055F000984239D040F6000321E043F6FF73C4F22D
:10560000010398421EDC42F20003C4F200039842F8
:105610002AD00023C4F20103984225D040F200436F
:105620001EE040F60043C4F2000398421CD041F64D
:105630000003C4F20003984216D041F60043C4F2BE
:1056400000030FE044F20003C4F2010398420BD0C0
:1056500044F60003C4F20103984205D044F200432B
:10566000C4F20103984203D1CB6822F440721A437A
:105670004B6922F080021A4340F200430260C4F2F8
:1056800001038A68C2620A68826240F480629A42B8
:1056900004BF0969016301214161704770B5026A65
:1056A00022F001020262036AD0F804E082698C6889
:1056B000D1F800C023F0020322F07302234340F22A
:1056C00000444CEA020C40F48062C4F20104A2429D
:1056D0000CD1CE68D1E905452EF44072224342EA4E
:1056E000050E23F00C0226F004031343C0F804E077
:1056F000C0F818C049684163036270BD70B5026AA2
:1057000022F010020262026AD0F804E083698C6819
:10571000D1F800C022F0200223F4E64342EA04124A
:1057200040F2004443EA0C2C40F48063C4F20104CC
:10573000A3420FD1CE68D1E905452EF4406322F093
:10574000C00243EA840343EA850E6FF0400303EA94
:1057500006131A43C0F804E0C0F818C04968816312
:10576000026270BD70B5026A22F480720262026A3F
:10577000D0F804E0C3698C68D1F800C022F400724C
:1057800023F0730342EA042240F200444CEA030C83
:1057900040F48063C4F20104A3420FD1CE68D1E982
:1057A00005452EF4405322F4406243EA041340F2CC
:1057B000FF4443EA051E3302A3431A43C0F804E042
:1057C000C0F81CC04968C163026270BDB0B5026A0E
:1057D00022F480520262D0F820C04368D0F81CE066
:1057E0008A680D682CF4005444EA023C2EF4E64228
:1057F00040F2004442EA052240F48065C4F201040C
:10580000A54202BF4D6923F4804343EA85134360F8
:10581000C26149680164C0F820C0B0BD2DE9F04301
:1058200081B00446006849F20C650169E26821F420
:10583000405111430161A168D4E90423E769C668B6
:105840001143AE43B7F5004F41EA030141EA0701B6
:1058500041EA0601C1604169A26921F4407141EA4F
:105860000201416141F2004140F48060C4F2010153
:1058700045D1884240F08880FDF764F8D4F8048070
:105880008146FDF75FF865680646FDF75BF86168DD
:10589000192778434900B0FBF1F048F21F51C5F2D7
:1058A000EB11A0FB01235A09642302FB130206FB40
:1058B00007F36E00B3FBF6F3181A4FEA48031044DF
:1058C000322202EBC000A0FB01024FF4F87000EAA4
:1058D000121009FB07F2B2FBF3F2A2FB01126FF008
:1058E0000F0101EA520100EB0108FDF72BF8616896
:1058F00078434900B0FBF1F6FDF724F886E08842D2
:1059000040F08A80FDF71EF8D4F804808146FDF748
:1059100019F865680646FDF715F861681927784398
:105920008900B0FBF1F048F21F51C5F2EB11A0FB6A
:1059300001235A09642302FB130206FB07F3AE009E
:10594000B3FBF6F3181A4FEA88031044322202EB35
:105950000010A0FB0102F02000EA521009FB07F240
:10596000B2FBF3F2A2FB01126FF00F0101EA520148
:1059700000EB0108FCF7E6FF616878438900B0FBA3
:10598000F1F6FCF7DFFF88E0FCF7C9FFD4F80480EC
:105990008146FCF7C4FF65680646FCF7C0FF6168F6
:1059A000192778434900B0FBF1F048F21F51C5F2C6
:1059B000EB11A0FB01235A09642302FB130206FB2F
:1059C00007F36E00B3FBF6F3181A4FEA48031044CE
:1059D000322202EBC000A0FB01024FF4F87000EA93
:1059E000121009FB07F2B2FBF3F2A2FB01126FF0F7
:1059F0000F0101EA520100EB0108FCF790FF61681A
:105A000078434900B0FBF1F6FCF789FF6168784301
:105A100007220323490045E0FCF781FFD4F8048006
:105A20008146FCF77CFF65680646FCF778FF6168F5
:105A3000192778438900B0FBF1F048F21F51C5F2F5
:105A4000EB11A0FB01235A09642302FB130206FB9E
:105A500007F3AE00B3FBF6F3181A4FEA88031044BD
:105A6000322202EB0010A0FB0102F02000EA5210EB
:105A700009FB07F2B2FBF3F2A2FB01126FF00F0178
:105A800001EA520100EB0108FCF749FF6168784325
:105A90008900B0FBF1F6FCF742FF616878430F2202
:105AA00004238900B0FBF1F0311A48F21F57C5F208
:105AB000EB17A0FB07656E09642506FB150008447B
:105AC00098403230A0FB070102EA5110216840EAF9
:105AD0000800886001B0BDE8F08300002DE9F041C6
