:020000040800F2
:10000000700400209D010008BB130008C50E000805
:10001000B9130008A90200089915000800000000A3
:10002000000000000000000000000000AD14000807
:10003000AB02000800000000BD130008AF14000868
:10004000B7010008B7010008B7010008B7010008B0
:10005000B7010008B7010008B7010008B7010008A0
:10006000B7010008B7010008B7010008B701000890
:10007000B7010008B7010008B7010008B701000880
:10008000B7010008B7010008B7010008B701000870
:10009000B7010008B7010008B7010008B701000860
:1000A000B7010008B7010008B7010008B701000850
:1000B000B7010008B7010008B7010008B701000840
:1000C000B7010008B7010008B7010008B701000830
:1000D000B7010008B7010008B7010008B701000820
:1000E000B7010008B7010008B7010008B701000810
:1000F000B7010008B7010008B7010008B701000800
:10010000B7010008B7010008B7010008B7010008EF
:10011000B7010008B7010008B7010008B7010008DF
:10012000B7010008B7010008B7010008B7010008CF
:10013000B7010008B7010008B7010008B7010008BF
:10014000B7010008B7010008B7010008B7010008AF
:10015000B7010008B7010008B7010008B70100089F
:10016000B7010008B7010008B7010008B70100088F
:10017000B7010008B7010008B7010008000000003F
:10018000B7010008B7010008DFF80CD000F07AF8DA
:1001900000480047D1150008700400200648804739
:1001A00006480047FEE7FEE7FEE7FEE7FEE7FEE75C
:1001B000FEE7FEE7FEE7FEE73F15000889010008BD
:1001C0002DE9F05F0546002092469B46884606468C
:1001D000814640241BE0284641464746224600F01F
:1001E00041F853465A46C01A914110D31146184659
:1001F000224600F028F82D1A67EB01084F462246E8
:100200000120002100F01FF817EB00094E41201ECD
:10021000A4F10104DFDC484631462A464346BDE8E6
:10022000F09FD2B201E000F8012B491EFBD27047CB
:100230000022F6E710B513460A4604461946FFF7B2
:10024000F0FF204610BD202A04DB203A00FA02F11C
:10025000002070479140C2F1200320FA03F31943B4
:1002600090407047202A04DB203A21FA02F0002156
:10027000704721FA02F3D040C2F1200291400843B6
:1002800019467047064C074D06E0E06840F0010350
:1002900094E8070098471034AC42F6D3FFF778FF94
:1002A000341C0008541C0008FEE77047704700002B
:1002B0002DE9F04F89B01546129A019005911078FA
:1002C000002800F0C580019F1C464FF0800800BF49
:1002D00041B20897B1F1FF3F06DD0D2876D10598B0
:1002E000019F10300590AEE007F1080A002102924C
:1002F00002E000BF0298007841F61142039101EB41
:100300000111C0F6000212F81120824256D141F6C6
:100310001140C0F6000000EB410B02999BF8010070
:10032000497888424AD10021CDF810B005980026BE
:10033000079100EB01090BEB410090F902B0480076
:10034000069000BF28FA06F010EA0B0F04D0B81987
:100350001FFA89F12A4605E0A54206D0B8191FFA0E
:1003600089F1224680B200F076F80136082EE9D1F4
:100370000698DDF810B0002740F00100584490F9CD
:10038000026000BF28FA07F0304205D00AEB0700F0
:100390001FFA89F12A4606E0A54207D00AEB0700BA
:1003A0001FFA89F1224680B200F055F80137082F74
:1003B000E8D10799089F01311029B7D1039901317C
:1003C000322997D1029A103702323DE04FF6006190
:1003D00002924FF0000A4FF000092028C0F20F01EE
:1003E0000A4601EB001102F5F87288BF01EA020922
:1003F000059841F220610027C0F6000100EB0A0BCE
:100400000AEB09000E5C00BF28FA07F0304205D065
:1004100008981FFA8BF12A4606E000BFA54207D0D4
:1004200008981FFA8BF12246384480B200F013F886
:100430000137082FE8D10AF1010ABAF1100FD7D11C
:10044000089F029A08370132107800287FF440AFE5
:1004500009B0BDE8F08F10B5144600F0B4FE200AD4
:1004600000F0CCFEE0B2BDE8104000F0C7BE0000D6
:10047000B0B5044600F0E3F8054640F20400611C04
:10048000C2F20000007818BF044400BF00F0D7F8A3
:10049000401BA042FAD3B0BD2DE9F04F82B041F627
:1004A000004343F6004B08224FF0010A00264FF0AC
:1004B000000CC4F20203C4F2010B984200F13E4367
:1004C00008BF072203F1FF734FEAB327072F4FF04E
:1004D000000738BF4FEAB322009200BF0A680AFA49
:1004E0000CF812EA080F00F09A80D1F804E04EF000
:1004F0001002122A12D106F01C020F2303FA02F492
:100500006FF0030303EA5C0505442B6AA3430C69FF
:1005100004FA02F21A432A62D1F804E003230468C1
:100520000EF00302BEF1120F03FA07F302FA07F20C
:1005300024EA03046FEA030942EA0402026014D8C1
:100540000AFA0EF212F0061F0FD08268CB6802EA98
:100550000902BB401A438260CEF30012436802FADC
:100560000CF223EA08031A434260C2688B6802EA6D
:100570000902BB401A43C2605FEACE024FD5002297
:1005800006F00C050F24019243F64402AC40C4F27D
:1005900002021346126842F480421A601A6802F49A
:1005A000804201922CF00302019B5A444FF608430B
:1005B000CFF6FF739E46D358A343009C04FA05F57B
:1005C0002B4342F80E30DBF800204D6842EA080366
:1005D000EC0358BF22EA0803CBF80030AC03DBF889
:1005E000042042EA080358BF22EA0803CBF804308B
:1005F000EC02DBF8082042EA080358BF22EA0803AD
:1006000043F60C42CBF80830AD02C4F201021446A6
:10061000126842EA080358BF22EA080323600CF17B
:10062000010C02370436BCF1100F04BF02B0BDE864
:10063000F08F53E7002A08BF09048161704740F238
:100640006800C2F200000068704740F2040040F207
:100650006801C2F20000C2F2000100780A6810448A
:100660000860704780B543F60040C4F2020001689C
:1006700041F400710160016841F48061016001682A
:1006800041F480710160032000F077F8002000F051
:1006900004F800F028F8002080BDB0B5044640F210
:1006A00004004FF47A71C2F200000078B1FBF0F060
:1006B00040F20001C2F200010968B1FBF0F000F065
:1006C000EBFB01250F2C0CD858B94FF0FF30214619
:1006D0000022002500F023F840F20800C2F20000DA
:1006E00004602846B0BD82B043F64001002001906E
:1006F000C4F202014A6842F480424A604A6802F445
:1007000080420192019A0090086840F08050086091
:10071000086800F080500090009802B0704710B553
:1007200000F00F034EF60C5E00F1604CB0F1FF3F9D
:10073000A3F10403CEF2000E734403F10C04C8BF0E
:100740000CF56444DEF800004FF0FF3CC0F30220DB
:10075000C31E80F0070038BF0023042828BF0420F0
:100760000CFA00F021EA00000CFA03F1984022EAAA
:10077000010108430001207010BD4EF60C514FF6E8
:10078000FF03CEF200010A681A4060F30A2242F029
:10079000806040F0FD700860704700002DE9F04176
:1007A000002800F09C8043F6000804460D46C4F281
:1007B0000208D8F8000400F00F00884208D288F838
:1007C0000054D8F8000400F00F00A84240F08780E1
:1007D0002068810717D5410742BFD8F8081041F4B7
:1007E000E051C8F80810010742BFD8F8081041F4DA
:1007F0006041C8F80810D8F80810A26821F0F0018C
:100800001143C8F80810C0072FD06068811E022964
:1008100004D2D8F8001089010BD460E0012804D17B
:10082000D8F80010890304D459E0D8F800108907DB
:1008300055D5D8F8081021F003010843C8F808007E
:10084000FFF7FDFE064641F2883700BFD8F80800E2
:10085000616800F00C00B0EB810F06D0FFF7EFFEEF
:10086000801BB842F2D903243AE0D8F8000400F023
:100870000F00A84207D988F80054D8F8000400F007
:100880000F00A8422BD12068410707D5D8F80810DF
:10089000E26821F4E0511143C8F80810000708D5B8
:1008A000D8F80800216920F4604040EAC100C8F887
:1008B000080000F018F8D8F8081041F2106200247F
:1008C000C0F60002C1F30311515CC84040F20001C0
:1008D000C2F2000108600020FFF7DFFE00E0012403
:1008E0002046BDE8F08110B543F60404C4F20204CA
:1008F000606800F00C0008280AD0042819BF42F2F2
:100900000040C0F2F40047F64000C0F27D1010BD78
:10091000226820680023400202F03F0247F64000B0
:10092000C0F27D105CBF42F20040C0F2F4002168CA
:10093000C1F38811A0FB0101FFF742FC21680222EC
:10094000C1F3014102EB4101B0FBF1F010BD000029
:100950002DE9F04182B0002800F0148104460078AF
:1009600043F60006C4F20206C0072FD0B06800F0BC
:100970000C00042823D0B06800F00C00082802D135
:10098000706840021BD46768B7F5803F07D03068B5
:10099000B7F5A02F40F01A8140F480203060306815
:1009A00040F480303060FFF74AFE0546306880032F
:1009B0000CD4FFF744FE401B6428F7D9A8E0306848
:1009C000800303D56068002800F0DC802078800771
:1009D0002ED5B06810F00C0F07D0B06800F00C00F6
:1009E000082809D17068400206D43068800718D5FD
:1009F000E068012815D0C5E0E1680020C4F2472076
:100A0000002900F0878001210160FFF718FE0546EC
:100A10003068800705D4FFF712FE401B0228F7D983
:100A200076E03068216920F0F80040EAC1003060CB
:100A30002078000725D5606988B100200121C4F223
:100A40004720C0F8801EFFF7FAFD0546706F80074B
:100A500017D4FFF7F4FD401B0228F7D958E0002017
:100A60000021C4F24720C0F8801EFFF7E8FD0546CC
:100A7000706F800705D5FFF7E2FD401B0228F7D90C
:100A800046E02078400775D5306C4FF00008C00074
:100A90000CD4CDF804804FF00108306C40F0805049
:100AA0003064306C00F080500190019847F20007EC
:100AB000C4F200073868C0050FD4386840F480706D
:100AC0003860FFF7BCFD05463868C00505D4FFF760
:100AD000B6FD401B0228F7D91AE0A768012F05D000
:100AE000306F052F27D140F004003067306F40F0A1
:100AF00001003067FFF7A3FD054641F2883700BFCC
:100B0000306F80072FD4FFF79AFD401BB842F7D90A
:100B1000032038E000210160FFF791FD054600BF8A
:100B2000306880077FF584AFFFF789FD411B032004
:100B30000229F5D927E020F001003067306F20F05E
:100B400004003067FFF77BFD0546002FD5D141F249
:100B50008837306F800706D5FFF771FD411B0320F2
:100B6000B942F6D90FE0B8F1000F1EBF306C20F08B
:100B700080503064A769002F60D0B06800F00C008E
:100B8000082803D1012002B0BDE8F08140F200083E
:100B90000020C4F24728C8F86000FFF750FD054662
:100BA000022F09D13068800128D5FFF748FD411B8D
:100BB00003200229F6D9E6E7306880013ED5FFF729
:100BC0003EFD411B03200329F6D3DCE720F48030EF
:100BD0003060306820F480203060FFF730FD05463B
:100BE000002F7FF4E3AE306880037FF5EFAEFFF7B0
:100BF00026FD411B03206429F5D9C4E704F11C0735
:100C00008FCF0843D90340EA82104FF6FF72914319
:100C100040EA0760A1F58031084370600120C8F800
:100C20006000FFF70CFD04463068800106D4FFF732
:100C300006FD011B03200229F6D9A4E70020A2E744
:100C400070B5C8B3002605464FF0000C866290F8D8
:100C5000510030B9284685F8506000F030F8D5F8DA
:100C600028C0022185F8511029680A6822F0400244
:100C70000A60D5E90123D5E903041A4310436A69E0
:100C800020431043AA6902F400731843EB69184328
:100C90002B6A184340EA0C000860042000EA124066
:100CA0006A6A10434860C86920F40060C861012086
:100CB0006E6585F8510000E00126304670BD10B524
:100CC00086B0044601A81421FFF7B2FA43F20000EF
:100CD0002168C4F20100814226D143F6300200218E
:100CE00000F550400091C4F20202536943F480536E
:100CF0005361536903F480530093009B0091136880
:100D000043F001031360126802F001020092009A9E
:100D1000052205920322CDE9031202210291E0216E
:100D2000019101A9FFF7B8FB06B010BD2DE9F04312
:100D300081B0044690F85000012801D10220A8E0BB
:100D40004FF001091D4616460F4684F85090FFF7F4
:100D500076FC804694F85100012857D10120002FDD
:100D600000F09280002E00F08F80032084F8510064
:100D700000206065E686A6862763A087A063C4E995
:100D80001000E087A1682068B1F5004F02BF01683C
:100D900041F480410160016849065EBF016841F08D
:100DA000400101606268711EE368B1FA81F1B2FA34
:100DB00082F24909B3F5006F4FEA521241EA02018B
:100DC00026D131B137F8021BC1602763E18E0139AA
:100DD000E186E18E00293FD06E1C00E0206881682A
:100DE000890707D4FFF72BFC66B1A0EB0800A842E7
:100DF00008D348E0216B31F8022BC2602163E08EFA
:100E00000138E086E08E0028E8D125E002203BE0B2
:100E100039B139780173206B01302063E08E0138DD
:100E2000E086E08EC0B16E1C20688168890707D417
:100E3000FFF705FC6EB1A0EB0800A84209D322E041
:100E4000216B09780173206B01302063E08E01383B
:100E5000E086E08E0028E7D120462946424600F091
:100E6000AFFA08B120206065A06838B90020009072
:100E70002068C1680091806800900098606D00282B
:100E800018BF012000E00320002184F8501084F8EE
:100E9000519001B0BDE8F083411E0020B0EB116F0E
:100EA0001CBF012070474EF21002F023CEF2000268
:100EB00051604EF62351CEF200010B700721906075
:100EC00011607047FEE780B582B0FF20102101223B
:100ED0008DF8070040F60000C4F20200FFF7AAFBFD
:100EE0003220FFF7C5FA40F210000DF10701012290
:100EF0000323C2F20000FFF719FF02B080BD00001B
:100F0000F0B581B005460020002140F23F12EF23EA
:100F1000002600F02EF92C0AEDB200BFF02700BF2A
:100F2000204600F06BF9284600F068F9013FF7D140
:100F30000136B6F5A07F04BF01B0F0BDEEE780B585
:100F4000FFF7C1FF00F0FEF8CB2000F07BF939205D
:100F500000F054F92C2000F051F9002000F04EF977
:100F6000342000F04BF9022000F048F9CF2000F0C7
:100F700069F9002000F042F9C12000F03FF930206B
:100F800000F03CF9E82000F05DF9852000F036F92A
:100F9000002000F033F9782000F030F9EA2000F06A
:100FA00051F9002000F02AF9002000F027F9ED2087
:100FB00000F048F9642000F021F9032000F01EF948
:100FC000122000F01BF9812000F018F9F72000F042
:100FD00039F9202000F012F9C02000F033F9232065
:100FE00000F00CF9C12000F02DF9102000F006F9F6
:100FF000C52000F027F93E2000F000F9282000F07D
:10100000FDF8C72000F01EF9862000F0F7F8362022
:1010100000F018F9E82000F0F1F83A2000F012F999
:10102000552000F0EBF8B12000F00CF9002000F0A2
:10103000E5F8182000F0E2F8B62000F003F90820E7
:1010400000F0DCF8822000F0D9F8272000F0D6F874
:10105000F22000F0F7F8002000F0D0F8262000F091
:10106000F1F8012000F0CAF8E02000F0EBF80F20C2
:1010700000F0C4F8312000F0C1F82B2000F0BEF8D9
:101080000C2000F0BBF80E2000F0B8F8082000F0AB
:10109000B5F84E2000F0B2F8F12000F0AFF837209C
:1010A00000F0ACF8072000F0A9F8102000F0A6F836
:1010B000032000F0A3F80E2000F0A0F8092000F0B3
:1010C0009DF8002000F09AF8E12000F0BBF8002025
:1010D00000F094F80E2000F091F8142000F08EF843
:1010E000032000F08BF8112000F088F8072000F0B2
:1010F00085F8312000F082F8C12000F07FF8482008
:1011000000F07CF8082000F079F80F2000F076F865
:101110000C2000F073F8312000F070F8362000F059
:101120006DF80F2000F06AF8112000F08BF878209D
:10113000FFF79EF9292000F085F82C20BDE88040BB
:1011400000F080B810B540F6000410210022C4F26F
:1011500002042046FFF76EFA6420FFF789F9204663
:1011600010210122FFF766FA3220BDE81040FFF798
:101170007FB9F0B581B007462A201C4616460D46B9
:1011800000F060F8380A00F039F8F8B200F036F8EC
:10119000300A00F033F8F0B200F030F82B2000F005
:1011A00051F8280A00F02AF8E8B200F027F8200ADF
:1011B00000F024F8E0B200F021F82C2001B0BDE8E6
:1011C000F04000F03FB8B0B505462A200C4600F0CC
:1011D00039F8280A00F012F8E8B200F00FF82B20D6
:1011E00000F030F8200A00F009F8E0B200F006F84C
:1011F0002C20BDE8B04000F025B80000B0B540F6A6
:101200000004054620210022C4F202042046FFF714
:1012100011FAA4F5006010210122FFF70BFA40F249
:101220001000C2F20000006881688907FCD5C56023
:1012300081688907FCD5204620210122BDE8B04005
:10124000FFF7F8B9B0B540F60004054620210022AA
:10125000C4F202042046FFF7EDF9A4F50060102166
:101260000022FFF7E7F940F21000C2F20000006828
:1012700081688907FCD5C56081688907FCD520464F
:1012800020210122BDE8B040FFF7D4B92DE9F04F8D
:1012900087B043F630000027002600224FF01008E8
:1012A00006970197C4F20200C4F20206016841F0F9
:1012B00080010160016801F08001019101990197AD
:1012C000016841F001010160016801F00101019133
:1012D00001990197016841F004010160016801F082
:1012E0000401019101990197016841F00201016037
:1012F0001021006800F00200019001983046FFF7CD
:1013000099F906F50065302100224FF0300A284691
:10131000FFF790F906F580644FF4004101224FF485
:1013200000494FF0010B2046FFF784F9CDE904771F
:10133000CDE9028B0DF1080830464146FFF7ACF8C5
:10134000032628464146CDE90476CDE902ABFFF7F6
:10135000A3F820464146CDE90476CDE9029BFFF78C
:101360009BF807B0BDE8F08F10B540F2100043F2D3
:1013700000044FF482724FF4007C4FF0010E022300
:101380000021C2F20000C4F20104C0E900420A22B6
:10139000C0E90211C0E9043EC0E906C1C0E9081174
:1013A000C0E90A12FFF74CFC002814BFBDE810404A
:1013B00010BDFEF77BBF0000FEE7704770470000DE
:1013C00010B582B0044640F2000013460A4649F6C2
:1013D0008171C2F20000C1F25E610068A0FB0101F0
:1013E000480D4FF47A71484301906068B0F5827FF0
:1013F0000AD12046802100F013F870B1606D40F0F2
:1014000020006065032009E0019830B1019801389F
:101410000190206880680006F6D4002002B010BD5C
:101420002DE9F041804600680F4681683940B94295
:101430000ED11D461646541C34B1FFF700F9411B6E
:10144000D8F80000B14206D281683940B942F3D0E1
:101450000020BDE8F081416821F0E0014160D8F84A
:101460000410B1F5827F0BD1D8F80810B1F5004F08
:1014700002D0B1F5806F03D1016821F04001016015
:10148000D8F82810B1F5005F07D1016821F40051A8
:101490000160016841F400510160002088F85000AB
:1014A000012088F851000320BDE8F0817047FFF764
:1014B000CCB870B592B006AC1421201DFEF7B8FE72
:1014C00043F64000002502260195C4F2020001689F
:1014D00041F080510160006800F080500190019857
:1014E000019547F20000C4F20000016841F4804118
:1014F0000160006800F48040019001980420119080
:10150000A82010960F9008200E901020CDE90C65B1
:101510000A900120099020460696FFF719FA4FF429
:101520008050052105904FF4A05004900F20CDE984
:101530000265019001A8FFF731F912B070BD4EF6B7
:1015400008504FF0000CCEF20000D0F8801041F4AB
:101550007001C0F8801043F60001C4F202010A686D
:1015600042F001020A60C1F808C04FF6FF720B6832
:10157000CFF6F6621A400A6043F21002C2F200424D
:101580004A600A6822F480220A60C1F80CC04FF059
:101590000061016070470000FEE7000082B04FF676
:1015A000FF70FFF7ADFC05A4322005214FF478420F
:1015B0004FF6FF730094FEF77BFEF5E73C4265654E
:1015C000662043616B652053797374656D3E00003E
:1015D000FFF748F8FFF76DFFFFF758FEFFF7C4FE6F
:1015E000FFF7ADFC4FF6FF70FFF78AFCFFF7D6FF61
:1015F000FCE702E008C8121F08C1002AFAD17047B0
:101600007047002001E001C1121F002AFBD1704782
:1016100000000000000000000102030406070809A2
:1016200000000000000000000000000000000000BA
:1016300000101010101010101010000010100000FA
:1016400000006C6C24240000000001000000000079
:101650000024242424FE48484848FC9090909000A0
:1016600000103C549290503814121292547810008A
:101670000000225C94A8481010242A5254880000CC
:10168000000030484850206E54948C888A740000C2
:1016900000003030101000000000000000000000CA
:1016A0000004081010202020202020101008040022
:1016B00000804020201010101010102020408000CA
:1016C00000000000105438103854100000000000D2
:1016D00000000010101010FE10101010000000008C
:1016E00000000000000000000000000010102000BA
:1016F00000000000000000FE0000000000000000EC
:1017000000000000000000000000000010100000B9
:1017100000000404080810102020404080800000D1
:1017200000003844828282828282828244380000B1
:10173000000010701010101010101010107C00001D
:1017400000003844828204081020408284FC00009B
:101750000000384482020438040202824438000047
:101760000000040C141424244444FE04040E00005D
:101770000000FC808080B8C482020282847800006D
:1017800000003C428280B8C48282828244380000D9
:1017900000007E42820404080808101010100000A7
:1017A00000003844828244384482828244380000F7
:1017B0000000384482828282463A02824438000025
:1017C00000000000101000000000101000000000D9
:1017D00000000000101000000000001010200000A9
:1017E000000000000618608060180600000000007D
:1017F000000000000000FE0000FE000000000000ED
:1018000000000000C0300C020C30C00000000000DE
:1018100000384482820204081010100010100000EA
:1018200000003844829AAAAAAAAAAA9680423C003A
:10183000000010101028282844447C4444EE000086
:101840000000FC424242427C4242424242FC0000D2
:1018500000003C4482808080808082824438000086
:101860000000F844424242424242424244F80000F0
:101870000000FC444240447C4440404244FC0000A0
:101880000000FC444240447C4440404040F00000A2
:101890000000344C828080808E8484844C3400002C
:1018A0000000EE444444447C4444444444EE00007C
:1018B00000007C101010101010101010107C000090
:1018C00000003E080808080808080888887000001A
:1018D0000000EE44484850605048484444EE000040
:1018E0000000E040404040404040404244FC000096
:1018F0000000C6446C6C6C545454444444EE0000E4
:101900000000CE4464646454544C4C4C44E40000E5
:1019100000003844828282828282828244380000BF
:101920000000F844424242447840404040E0000019
:101930000000384482828282828282BA443C020061
:101940000000F048444444487048444444E60000E1
:1019500000003C44828040300C0202824478000047
:1019600000007C549210101010101010103800005D
:101970000000EE4444444444444444444438000099
:101980000000EE4444444428282828101010000089
:101990000000EE445454545454542828282800007D
:1019A0000000EE44442828101028284444EE00008B
:1019B0000000EE44442828281010101010380000B1
:1019C00000007E44840808102020408284FC00002F
:1019D000001C1010101010101010101010101C000F
:1019E0000000EE445454FE54545428282828000083
:1019F0000070101010101010101010101010700047
:101A000000304884000000000000000000000000DA
:101A10000000000000000000000000000000FE00C8
:101A20000040200000000000000000000000000056
:101A30000000000000007884047C84848C76000020
:101A40000000C04040405864424242426458000096
:101A5000000000000000384480808080443800008E
:101A600000000C040404344C848484844C3600004C
:101A7000000000000000788484FC808084780000EE
:101A8000000018242020F8202020202020700000B2
:101A90000000000000003A444478807C82827C0090
:101AA0000000C040404058644444444444EE0000B8
:101AB000000010100000301010101010103800003E
:101AC0000000101000003010101010101090600076
:101AD0000000C04040405C485060504844EE000068
:101AE00000003010101010111010101010390000EC
:101AF000000000000000ACD29292929292D60000B8
:101B000000000000000058E44444444444EE000057
:101B100000000000000038448282828244380000C5
:101B2000000000000000D864424242645840E000D7
:101B3000000000000000364C8484844C34040E0005
:101B40000000000000006C302020202020700000E9
:101B50000000000000007888846018844478000049
:101B6000000000202020F820202020202418000041
:101B7000000000000000C64242424242463A0000D5
:101B8000000000000000EE44442828281010000047
:101B9000000000000000EE444454542828280000AF
:101BA000000000000000EE442810102844EE000061
:101BB000000000000000EE444428281010A0C000DF
:101BC0000000000000007E448810204284FC0000D9
:101BD000000C1010101010601010101010100C00DD
:101BE0000010101010101010101010101010100015
:101BF00000C0202020202018202020202020C000ED
:101C000000000000000000728C00000000000000D6
:101C100000000000000000000000000000000000C4
:101C200000000000000000000000000000000000B4
:101C300000000000581C00080000002010000000F8
:101C4000F2150008681C0008100000206004000065
:101C500002160008000000000024F400010000004B
:081C600010000000000000006C
:040000050800018965
:00000001FF
