:020000040800F2
:10000000700400209D010008F91C00081D14000860
:100010006D1A0008A9020008D51E000800000000A3
:10002000000000000000000000000000E91D0008C2
:10003000AB02000800000000FB1C0008EB1D0008DC
:10004000B7010008B7010008B7010008B7010008B0
:10005000B7010008B7010008AD020008C902000896
:10006000CF020008D5020008DB020008B701000833
:10007000B7010008B7010008B7010008B701000880
:10008000B7010008B7010008B7010008B701000870
:10009000B7010008B7010008B7010008E102000835
:1000A000B7010008B7010008B7010008B701000850
:1000B000B7010008B7010008B7010008B701000840
:1000C000B7010008B7010008B7010008B701000830
:1000D000B7010008B7010008B7010008B701000820
:1000E000B3020008B7010008B7010008B701000813
:1000F000B7010008B7010008B7010008B701000800
:10010000B7010008B7010008B7010008B7010008EF
:10011000B7010008B7010008B7010008B7010008DF
:10012000B7010008B7010008B7010008B7010008CF
:10013000B7010008B7010008B7010008B7010008BF
:10014000B7010008B7010008B7010008B7010008AF
:10015000B7010008B7010008B7010008B70100089F
:10016000B7010008B7010008B7010008B70100088F
:10017000B7010008B7010008B7010008000000003F
:10018000B7010008B7010008DFF80CD000F07AF8DA
:1001900000480047F51E000870040020064880470C
:1001A00006480047FEE7FEE7FEE7FEE7FEE7FEE75C
:1001B000FEE7FEE7FEE7FEE77B1E00088901000878
:1001C0002DE9F05F0546002092469B46884606468C
:1001D000814640241BE0284641464746224600F01F
:1001E00041F853465A46C01A914110D31146184659
:1001F000224600F028F82D1A67EB01084F462246E8
:100200000120002100F01FF817EB00094E41201ECD
:10021000A4F10104DFDC484631462A464346BDE8E6
:10022000F09FD2B201E000F8012B491EFBD27047CB
:100230000022F6E710B513460A4604461946FFF7B2
:10024000F0FF204610BD202A04DB203A00FA02F11C
:10025000002070479140C2F1200320FA03F31943B4
:1002600090407047202A04DB203A21FA02F0002156
:10027000704721FA02F3D040C2F1200291400843B6
:1002800019467047064C074D06E0E06840F0010350
:1002900094E8070098471034AC42F6D3FFF778FF94
:1002A000642D0008842D0008FEE77047012000F04F
:1002B0007ABB80B54FF4006000F075FB4FF48050BE
:1002C000BDE8804000F06FBB022000F06CBB042052
:1002D00000F069BB082000F066BB102000F063BB93
:1002E000202000F060BB70472DE9F04F89B0154623
:1002F000129A019005911078002800F0C580019FA6
:100300001C464FF0800800BF41B20897B1F1FF3F93
:1003100006DD0D2876D10598019F10300590AEE0DE
:1003200007F1080A0021029202E000BF029800785B
:1003300042F23552039101EB0111C0F6000212F8AE
:100340001120824256D142F23550C0F6000000EB37
:10035000410B02999BF80100497888424AD100215B
:10036000CDF810B005980026079100EB01090BEBC2
:10037000410090F902B04800069000BF28FA06F04C
:1003800010EA0B0F04D0B8191FFA89F12A4605E0CC
:10039000A54206D0B8191FFA89F1224680B200F0B2
:1003A0000EFA0136082EE9D10698DDF810B00027C4
:1003B00040F00100584490F9026000BF28FA07F0AD
:1003C000304205D00AEB07001FFA89F12A4606E001
:1003D000A54207D00AEB07001FFA89F1224680B236
:1003E00000F0EDF90137082FE8D10799089F013196
:1003F0001029B7D103990131322997D1029A1037C8
:1004000002323DE04FF6006102924FF0000A4FF0D9
:1004100000092028C0F20F010A4601EB001102F585
:10042000F87288BF01EA0209059841F64471002775
:10043000C0F6000100EB0A0B0AEB09000E5C00BFDE
:1004400028FA07F0304205D008981FFA8BF12A46A7
:1004500006E000BFA54207D008981FFA8BF122469C
:10046000384480B200F0ABF90137082FE8D10AF127
:10047000010ABAF1100FD7D1089F029A083701324A
:10048000107800287FF440AF09B0BDE8F08F00007D
:100490002DE9F04F89B0044612980591019000783B
:1004A000002800F0D9804FF600619A4615464FF0BB
:1004B0008009C0F20F0101F5F871009141B2089472
:1004C000B1F1FF3F38DD4FF600614FF0000B4FF008
:1004D00000082028C0F20F0101EB0011009888BF2E
:1004E00001EA0008059841F644710024C0F60001B5
:1004F0000BEB00060BEB08000F5C00BF29FA04F0C1
:10050000384203D00898B1B22A4604E0554506D0D7
:100510000898B1B25246204480B200F050F901343C
:10052000082CEBD10BF1010BBBF1100FDAD1089CB9
:100530000820012188E000BF04F1100804F1080B35
:100540000022CDF80C8001E0019800784A21029247
:10055000514342F25752C0F60002515C81426CD1C5
:1005600042F25751029A4A20C0F6000102FB0010E5
:10057000019904904078497888425ED1002200BFFA
:10058000049902EB4200002706920844079090F974
:1005900002800598161800BF29FA07F010EA080F24
:1005A00004D0E019B1B22A4605E000BF554505D098
:1005B000E019B1B2524680B200F001F90137082FBC
:1005C000EAD10798DDF80C80002490F9037000BF91
:1005D00029FA04F0384205D00BEB0400B1B22A46E8
:1005E00006E000BF554506D00BEB0400B1B2524601
:1005F00080B200F0E4F80134082CE9D10798002417
:1006000090F9047029FA04F0384205D008EB040090
:10061000B1B22A4606E000BF554506D008EB0400FB
:10062000B1B2524680B200F0CAF80134082CE9D1C8
:10063000069A089C0132182AA2D1029A0132142A81
:100640007FF482AF18200221044401984218405CD4
:10065000019200287FF432AF09B0BDE8F08F0000AE
:100660002DE9F04F85B0CDE9010142F2E2510E983B
:100670001C4615468026C0F6000101EBC010002183
:10068000009000BF0298DDF804A04FF0000903912C
:100690000F18009800EB8100049000BF04984FF001
:1006A000000810F809B000BF26FA08F010EA0B0F96
:1006B00004D00AEB0800B9B22A4605E0A54206D0EC
:1006C0000AEB0800B9B2224680B200F078F808F1CF
:1006D0000108B8F1080FE7D109F101090AF1080A88
:1006E000B9F1040FDAD103990131202904BF05B013
:1006F000BDE8F08FC6E700002DE9F04F83B01E463D
:1007000090460C46054601F00AF8311B4FF0FF3ABF
:10071000A8EB05084FF0FF39B1F1FF3FC8BF4FF01C
:10072000010AB8F1FF3FC8BF4FF00109002900D509
:100730004942B8F1000F4FEA410048BFC8F1000834
:1007400002904FEA4800884501901ADD02984FF068
:10075000FF36A0EB080B0198474200BF0C9AA8B2E5
:10076000A1B200F02CF80298BBF1FF3F06F10106A0
:100770004D445844C4BF3844544446458346EDDB99
:100780001AE001984FF0FF36471A0298C0F1000BAB
:100790000C9A8846A8B2A1B200F011F80198B7F1FE
:1007A000FF3F06F10106414654443844C4BF584453
:1007B0004D4446450746EBDB03B0BDE8F08F10B56E
:1007C000144600F0ACFF200A00F0C4FFE0B2BDE820
:1007D000104000F0BFBF0000B0B5044600F0CDF9F6
:1007E000054640F20800611CC2F20000007818BF04
:1007F000044400BF00F0C1F9401BA042FAD3B0BDD1
:1008000010B50F281FDC0138072800F2AE80DFE8A2
:1008100000F0044BAC64ACACAC881E2001F069FB6A
:1008200040F2004001210124C4F2020000F5006002
:1008300000F092F9002800F0988040F21000C2F217
:100840000000047010BDB0F5006F13DA102800F03E
:100850008D80202840F089801E2001F04AFB40F264
:1008600000402021C4F2020000F50060BDE8104005
:1008700000F072B900F08880B0F5805F75D11E205D
:1008800001F037FB40F200444FF48051C4F20204FF
:1008900004F5806000F060F9002866D02046012150
:1008A000BDE8104000F05DB91E2001F022FB40F2CF
:1008B00000400221C4F2020000F5805000F04CF923
:1008C000002852D040F200000121C2F20000017065
:1008D00040F21100C2F2000046E01E2001F009FBC8
:1008E00040F200400421C4F2020000F5006000F074
:1008F00033F9D0B340F21100C2F2000000780128B1
:1009000033D140F212000021C2F20000017040F227
:100910000000C2F20000017801298CBF01390321D7
:1009200022E01E2001F0E5FA40F200400821C4F266
:10093000020000F011F9002808BF10BD40F21100BC
:10094000C2F20000007801280FD140F2120000210D
:10095000C2F20000017040F20000C2F20000017813
:10096000032934BF01310121017010BD1E2001F0A7
:10097000C0FA40F200401021C4F2020000F500600D
:10098000BDE8104000F0E8B81E2001F0B2FA40F2D5
:1009900000404FF40061C4F2020000F58060BDE841
:1009A000104000F0D9B843F61441C4F201010A68BE
:1009B000024214BF08607047FFF722BF2DE9F04FD5
:1009C00082B041F6004343F6004B08224FF0010A83
:1009D00000264FF0000CC4F20203C4F2010B98424F
:1009E00000F13E4308BF072203F1FF734FEAB3272C
:1009F000072F4FF0000738BF4FEAB322009200BF25
:100A00000A680AFA0CF812EA080F00F09A80D1F886
:100A100004E04EF01002122A12D106F01C020F233D
:100A200003FA02F46FF0030303EA5C0505442B6A42
:100A3000A3430C6904FA02F21A432A62D1F804E0D3
:100A4000032304680EF00302BEF1120F03FA07F34A
:100A500002FA07F224EA03046FEA030942EA0402F5
:100A6000026014D80AFA0EF212F0061F0FD0826844
:100A7000CB6802EA0902BB401A438260CEF300123F
:100A8000436802FA0CF223EA08031A434260C26880
:100A90008B6802EA0902BB401A43C2605FEACE02D9
:100AA0004FD5002206F00C050F24019243F64402B4
:100AB000AC40C4F202021346126842F480421A604B
:100AC0001A6802F4804201922CF00302019B5A44FE
:100AD0004FF60843CFF6FF739E46D358A343009CBE
:100AE00004FA05F52B4342F80E30DBF800204D6880
:100AF00042EA0803EC0358BF22EA0803CBF80030AF
:100B0000AC03DBF8042042EA080358BF22EA0803DA
:100B1000CBF80430EC02DBF8082042EA080358BFA7
:100B200022EA080343F60C42CBF80830AD02C4F2C7
:100B300001021446126842EA080358BF22EA080379
:100B400023600CF1010C02370436BCF1100F04BF16
:100B500002B0BDE8F08F53E70069084018BF0120DC
:100B6000704742690A408A4208BF090481617047A0
:100B7000002A08BF09048161704740F26C00C2F28C
:100B800000000068704740F2080040F26C01C2F2B9
:100B90000000C2F2000100780A6810440860704743
:100BA00080B543F60040C4F20200016841F40071D0
:100BB0000160016841F480610160016841F4807165
:100BC0000160032000F086F8002000F004F800F037
:100BD00028F8002080BDB0B5044640F208004FF46C
:100BE0007A71C2F200000078B1FBF0F040F204012B
:100BF000C2F200010968B1FBF0F000F0F9FB012539
:100C00000F2C0CD858B94FF0FF3021460022002598
:100C100000F032F840F20C00C2F2000004602846F6
:100C2000B0BD82B043F6400100200190C4F2020141
:100C30004A6842F480424A604A6802F48042019263
:100C4000019A0090086840F080500860086800F041
:100C500080500090009802B0704700280BDB00F035
:100C60001F010122400902FA01F14EF20012CEF2F8
:100C7000000242F82010704710B500F00F034EF646
:100C80000C5E00F1604CB0F1FF3FA3F10403CEF223
:100C9000000E734403F10C04C8BF0CF56444DEF885
:100CA00000004FF0FF3CC0F30220C31E80F007009D
:100CB00038BF0023042828BF04200CFA00F021EAE2
:100CC00000000CFA03F1984022EA010108430001F8
:100CD000207010BD4EF60C514FF6FF03CEF200010E
:100CE0000A681A4060F30A2242F0806040F0FD700A
:100CF000086070472DE9F041002800F09C8043F621
:100D0000000804460D46C4F20208D8F8000400F0BA
:100D10000F00884208D288F80054D8F8000400F088
:100D20000F00A84240F087802068810717D541074F
:100D300042BFD8F8081041F4E051C8F80810010784
:100D400042BFD8F8081041F46041C8F80810D8F83C
:100D50000810A26821F0F0011143C8F80810C0077C
:100D60002FD06068811E022904D2D8F800108901B2
:100D70000BD460E0012804D1D8F80010890304D412
:100D800059E0D8F80010890755D5D8F8081021F097
:100D900003010843C8F80800FFF7EFFE064641F2DA
:100DA000883700BFD8F80800616800F00C00B0EB8D
:100DB000810F06D0FFF7E1FE801BB842F2D9032471
:100DC0003AE0D8F8000400F00F00A84207D988F8EC
:100DD0000054D8F8000400F00F00A8422BD120687E
:100DE000410707D5D8F80810E26821F4E051114313
:100DF000C8F80810000708D5D8F80800216920F4C1
:100E0000604040EAC100C8F8080000F018F8D8F8BF
:100E1000081041F634720024C0F60002C1F3031139
:100E2000515CC84040F20401C2F200010860002099
:100E3000FFF7D1FE00E001242046BDE8F08110B5A7
:100E400043F60404C4F20204606800F00C000828B1
:100E50000AD0042819BF42F20040C0F2F40047F65D
:100E60004000C0F27D1010BD2268206800234002BF
:100E700002F03F0247F64000C0F27D105CBF42F234
:100E80000040C0F2F4002168C1F38811A0FB010109
:100E9000FFF796F921680222C1F3014102EB4101FB
:100EA000B0FBF1F010BD00002DE9F04182B0002848
:100EB00000F014810446007843F60006C4F20206EE
:100EC000C0072FD0B06800F00C00042823D0B06811
:100ED00000F00C00082802D1706840021BD467683B
:100EE000B7F5803F07D03068B7F5A02F40F01A81E2
:100EF00040F480203060306840F480303060FFF78C
:100F00003CFE0546306880030CD4FFF736FE401BDC
:100F10006428F7D9A8E03068800303D5606800280A
:100F200000F0DC80207880072ED5B06810F00C0F20
:100F300007D0B06800F00C00082809D170684002A2
:100F400006D43068800718D5E068012815D0C5E0C0
:100F5000E1680020C4F24720002900F087800121C9
:100F60000160FFF70AFE05463068800705D4FFF7E9
:100F700004FE401B0228F7D976E03068216920F092
:100F8000F80040EAC10030602078000725D560698C
:100F900088B100200121C4F24720C0F8801EFFF76D
:100FA000ECFD0546706F800717D4FFF7E6FD401B88
:100FB0000228F7D958E000200021C4F24720C0F8E9
:100FC000801EFFF7DAFD0546706F800705D5FFF735
:100FD000D4FD401B0228F7D946E02078400775D59C
:100FE000306C4FF00008C0000CD4CDF804804FF0F6
:100FF0000108306C40F080503064306C00F080505C
:101000000190019847F20007C4F200073868C00554
:101010000FD4386840F480703860FFF7AEFD0546A5
:101020003868C00505D4FFF7A8FD401B0228F7D992
:101030001AE0A768012F05D0306F052F27D140F0A7
:1010400004003067306F40F001003067FFF795FD16
:10105000054641F2883700BF306F80072FD4FFF775
:101060008CFD401BB842F7D9032038E00021016015
:10107000FFF783FD054600BF306880077FF584AF2A
:10108000FFF77BFD411B03200229F5D927E020F063
:1010900001003067306F20F004003067FFF76DFD0E
:1010A0000546002FD5D141F28837306F800706D52D
:1010B000FFF763FD411B0320B942F6D90FE0B8F1F9
:1010C000000F1EBF306C20F080503064A769002FE5
:1010D00060D0B06800F00C00082803D1012002B0F5
:1010E000BDE8F08140F200080020C4F24728C8F8AB
:1010F0006000FFF742FD0546022F09D130688001EC
:1011000028D5FFF73AFD411B03200229F6D9E6E76F
:10111000306880013ED5FFF730FD411B03200329D5
:10112000F6D3DCE720F480303060306820F4802093
:101130003060FFF722FD0546002F7FF4E3AE3068F4
:1011400080037FF5EFAEFFF718FD411B03206429F4
:10115000F5D9C4E704F11C078FCF0843D90340EA4F
:1011600082104FF6FF72914340EA0760A1F580318B
:10117000084370600120C8F86000FFF7FEFC0446D9
:101180003068800106D4FFF7F8FC011B0320022918
:10119000F6D9A4E70020A2E770B5C8B3002605463B
:1011A0004FF0000C866290F8510030B9284685F85F
:1011B000506000F030F8D5F828C0022185F85110B1
:1011C00029680A6822F040020A60D5E90123D5E9BE
:1011D00003041A4310436A6920431043AA6902F4C6
:1011E00000731843EB6918432B6A184340EA0C005C
:1011F0000860042000EA12406A6A10434860C86927
:1012000020F40060C86101206E6585F8510000E09F
:101210000126304670BD10B586B0044601A81421E1
:10122000FFF706F843F200002168C4F20100814292
:1012300026D143F63002002100F550400091C4F25F
:101240000202536943F480535361536903F480539A
:101250000093009B0091136843F001031360126830
:1012600002F001020092009A052205920322CDE9C4
:10127000031202210291E021019101A9FFF79EFBD7
:1012800006B010BD2DE9F04381B0044690F850003F
:10129000012801D10220A8E04FF001091D461646A1
:1012A0000F4684F85090FFF768FC804694F8510090
:1012B000012857D10120002F00F09280002E00F06D
:1012C0008F80032084F8510000206065E686A686A2
:1012D0002763A087A063C4E91000E087A1682068A5
:1012E000B1F5004F02BF016841F48041016001681F
:1012F00049065EBF016841F0400101606268711EED
:10130000E368B1FA81F1B2FA82F24909B3F5006FEC
:101310004FEA521241EA020126D131B137F8021BDD
:10132000C1602763E18E0139E186E18E00293FD05B
:101330006E1C00E020688168890707D4FFF71DFC58
:1013400066B1A0EB0800A84208D348E0216B31F851
:10135000022BC2602163E08E0138E086E08E002817
:10136000E8D125E002203BE039B139780173206BE8
:1013700001302063E08E0138E086E08EC0B16E1C43
:1013800020688168890707D4FFF7F7FB6EB1A0EBEF
:101390000800A84209D322E0216B09780173206B71
:1013A00001302063E08E0138E086E08E0028E7D12E
:1013B00020462946424600F0A1FC08B12020606585
:1013C000A06838B9002000902068C168009180684A
:1013D00000900098606D002818BF012000E00320F5
:1013E000002184F8501084F8519001B0BDE8F083DA
:1013F000411E0020B0EB116F1CBF012070474EF260
:101400001002F023CEF2000251604EF62351CEF2CC
:1014100000010B700721906011607047FEE780B5F6
:1014200082B0FF20102101228DF8070040F6000055
:10143000C4F20200FFF79CFB3220FFF7CDF940F227
:1014400014000DF1070101220323C2F20000FFF78F
:1014500019FF02B080BD0000F0B581B00546002044
:10146000002140F23F12EF23002600F02EF92C0A53
:10147000EDB200BFF02700BF204600F06BF9284610
:1014800000F068F9013FF7D10136B6F5A07F04BF3F
:1014900001B0F0BDEEE780B5FFF7C1FF00F0FEF848
:1014A000CB2000F07BF9392000F054F92C2000F01B
:1014B00051F9002000F04EF9342000F04BF90220E1
:1014C00000F048F9CF2000F069F9002000F042F95F
:1014D000C12000F03FF9302000F03CF9E82000F096
:1014E0005DF9852000F036F9002000F033F978200E
:1014F00000F030F9EA2000F051F9002000F02AF95C
:10150000002000F027F9ED2000F048F9642000F0F9
:1015100021F9032000F01EF9122000F01BF98120B0
:1015200000F018F9F72000F039F9202000F012F946
:10153000C02000F033F9232000F00CF9C12000F0A6
:101540002DF9102000F006F9C52000F027F93E2003
:1015500000F000F9282000F0FDF8C72000F01EF987
:10156000862000F0F7F8362000F018F9E82000F0A7
:10157000F1F83A2000F012F9552000F0EBF8B12014
:1015800000F00CF9002000F0E5F8182000F0E2F877
:10159000B62000F003F9082000F0DCF8822000F00B
:1015A000D9F8272000F0D6F8F22000F0F7F8002054
:1015B00000F0D0F8262000F0F1F8012000F0CAF881
:1015C000E02000F0EBF80F2000F0C4F8312000F02C
:1015D000C1F82B2000F0BEF80C2000F0BBF80E2064
:1015E00000F0B8F8082000F0B5F84E2000F0B2F88E
:1015F000F12000F0AFF8372000F0ACF8072000F041
:10160000A9F8102000F0A6F8032000F0A3F80E209F
:1016100000F0A0F8092000F09DF8002000F09AF8F2
:10162000E12000F0BBF8002000F094F80E2000F05C
:1016300091F8142000F08EF8032000F08BF81120B0
:1016400000F088F8072000F085F8312000F082F8DB
:10165000C12000F07FF8482000F07CF8082000F05E
:1016600079F80F2000F076F80C2000F073F83120A4
:1016700000F070F8362000F06DF80F2000F06AF8E6
:10168000112000F08BF87820FFF7A6F8292000F051
:1016900085F82C20BDE8804000F080B810B540F6F9
:1016A000000410210022C4F202042046FFF760FA71
:1016B0006420FFF791F8204610210122FFF758FA25
:1016C0003220BDE81040FFF787B8F0B581B007467B
:1016D0002A201C4616460D4600F060F8380A00F035
:1016E00039F8F8B200F036F8300A00F033F8F0B20A
:1016F00000F030F82B2000F051F8280A00F02AF80A
:10170000E8B200F027F8200A00F024F8E0B200F078
:1017100021F82C2001B0BDE8F04000F03FB8B0B592
:1017200005462A200C4600F039F8280A00F012F885
:10173000E8B200F00FF82B2000F030F8200A00F09B
:1017400009F8E0B200F006F82C20BDE8B04000F047
:1017500025B80000B0B540F600040546202100225F
:10176000C4F202042046FFF703FAA4F5006010213A
:101770000122FFF7FDF940F21400C2F200000068F8
:1017800081688907FCD5C56081688907FCD520463A
:1017900020210122BDE8B040FFF7EAB9B0B540F61C
:1017A0000004054620210022C4F202042046FFF76F
:1017B000DFF9A4F5006010210022FFF7D9F940F20B
:1017C0001400C2F20000006881688907FCD5C5607A
:1017D00081688907FCD5204620210122BDE8B04060
:1017E000FFF7C6B940F21100C2F2000000780128EC
:1017F00018BF704740F20000C2F20000007800F00D
:1018000037B92DE9F04F87B043F63000002540F29C
:1018100000090022CDE905550195C4F20200C4F289
:101820000209016841F020010160016801F0200116
:10183000019101990195016841F080010160016801
:1018400001F08001019101990195016841F00101C8
:101850000160016801F001010191019901950168A0
:1018600041F004010160016801F004010191019956
:101870000195016841F002010160016801F0020177
:10188000019101990195016841F008010160016829
:1018900001F00801019101990195016841F04001B1
:1018A00001601021006800F0400001900198484656
:1018B000FFF75EF909F50064302100224FF0300B8C
:1018C0002046FFF755F909F58060012101224FF00C
:1018D00001080646FFF74CF909F5C05A4FF4F841E4
:1018E00001225046FFF744F9022002AF0290002087
:1018F000CDF810803946C1F21100039009F5A050CF
:10190000FFF75CF81020CDE904553946CDE902080F
:101910004846FFF753F8CDF808B04FF0030B2046C8
:101920003946CDF814B0CDE90385FFF747F83046C6
:101930003946CDE9045BCDE90288B346FFF73EF8AE
:1019400000264FF4C050394602902046C1F21106DD
:10195000CDF810800396FFF731F83520CDE9036804
:101960003946029009F54060FFF728F84FF47050AF
:101970000595CDE90385394602905046FFF71EF8DC
:101980001120CDE90455394603904FF48040029070
:101990005046FFF713F80820CDE903683946029056
:1019A0005846FFF70BF8062000210022FFF764F9E4
:1019B0000620FFF752F9072000210022FFF75CF90B
:1019C0000720FFF74AF9082000210022FFF754F909
:1019D0000820FFF742F9092000210022FFF74CF907
:1019E0000920FFF73AF90A2000210022FFF744F905
:1019F0000A20FFF732F9172000210022FFF73CF9F7
:101A00001720FFF72AF9282000210022FFF734F9D8
:101A10002820FFF722F907B0BDE8F08F10B540F29B
:101A2000140043F200044FF482724FF4007C4FF034
:101A3000010E02230021C2F20000C4F20104C0E939
:101A400000420A22C0E90211C0E9043EC0E906C111
:101A5000C0E90811C0E90A12FFF79EFB002814BF75
:101A6000BDE8104010BDFEF73EBC0000FEE70000E0
:101A700010B582B003285CD0022800F0B1800128A4
:101A800040F00E8140F21204C2F20004207830B916
:101A90004FF6FF70FFF7E0FC20780130207042F233
:101AA000A15005214BF204124FF6FF73C0F600005F
:101AB00000906E20FEF7ECFC4FF6A0601E214FF464
:101AC00096721E2300901420FEF716FE83A032218A
:101AD0004BF204124FF6FF7300901420FEF7D8FC6F
:101AE00042F2D5505A214BF204124FF6FF73C0F662
:101AF000000000901420FEF7CBFC42F2AF50822190
:101B00004BF204124FF6FF73C0F600000090142051
:101B1000FEF7BEFC42F2B650DC214BF204124FF647
:101B2000FF73C0F600000090E120FEF7DDFB01200E
:101B3000ACE040F21204C2F20004207830B94FF653
:101B4000FF70FFF789FC20780130207042F2A1502D
:101B500005214BF204124FF6FF73C0F6000000900F
:101B60006E20FEF795FC4FF6A0601E214FF4967292
:101B70001E2300901420FEF7BFFD42F2BE5032211A
:101B80004BF204124FF6FF73C0F6000000901420D1
:101B9000FEF77EFC42F2D5505A214BF204124FF66A
:101BA000FF73C0F6000000901420FEF771FC3DA00A
:101BB00082214BF204124FF6FF7300901420FEF7BF
:101BC00067FC42F2B650DC214BF204124FF6FF7371
:101BD000C0F600000090E120FEF786FB032055E0F0
:101BE00040F21204C2F20004207830B94FF6FF70C0
:101BF000FFF732FC20780130207042F2A15005211D
:101C00004BF204124FF6FF73C0F6000000906E20F6
:101C1000FEF73EFC4FF6A0601E214FF496721E2385
:101C200000901420FEF768FD42F2BE5032214BF2C4
:101C300004124FF6FF73C0F6000000901420FEF768
:101C400027FC1FA05A214BF204124FF6FF7300909D
:101C50001420FEF71DFC42F2AF5082214BF2041219
:101C60004FF6FF73C0F6000000901420FEF710FC42
:101C700042F2B650DC214BF204124FF6FF73C0F66D
:101C800000000090E120FEF72FFB022000904FF4AF
:101C90008C70C8214FF478424FF6FF73FEF7E0FCDA
:101CA00002B010BD47616D65333A2020202020200E
:101CB000202020202020202020203C2D000000007B
:101CC00047616D65323A5465747269732020202033
:101CD000202020202020203C2D00000047616D6541
:101CE000313A476C7574746F6E6F757320536E6103
:101CF0006B65203C2D0000007047704710B582B026
:101D0000044640F2040013460A4649F68171C2F2C5
:101D10000000C1F25E610068A0FB0101480D4FF4B4
:101D20007A71484301906068B0F5827F0AD12046FD
:101D3000802100F013F870B1606D40F02000606504
:101D4000032009E0019830B1019801380190206822
:101D500080680006F6D4002002B010BD2DE9F041E5
:101D6000804600680F4681683940B9420ED11D4651
:101D70001646541C34B1FEF700FF411BD8F8000092
:101D8000B14206D281683940B942F3D00020BDE8A3
:101D9000F081416821F0E0014160D8F80410B1F50C
:101DA000827F0BD1D8F80810B1F5004F02D0B1F501
:101DB000806F03D1016821F040010160D8F828103C
:101DC000B1F5005F07D1016821F40051016001689D
:101DD00041F400510160002088F85000012088F88B
:101DE00051000320BDE8F0817047FEF7CCBE70B50E
:101DF00092B006AC1421201DFEF71AFA43F64000FB
:101E0000002502260195C4F20200016841F08051CC
:101E10000160006800F0805001900198019547F240
:101E20000000C4F20000016841F4804101600068D4
:101E300000F480400190019804201190A820109691
:101E40000F9008200E901020CDE90C650A9001201B
:101E5000099020460696FFF727F84FF48050052199
:101E600005904FF4A05004900F20CDE90265019039
:101E700001A8FEF73FFF12B070BD4EF608504FF0BC
:101E8000000CCEF20000D0F8801041F47001C0F8D0
:101E9000801043F60001C4F202010A6842F0010218
:101EA0000A60C1F808C04FF6FF720B68CFF6F66201
:101EB0001A400A6043F21002C2F200424A600A6805
:101EC00022F480220A60C1F80CC04FF0006101606A
:101ED00070470000FEE700004FF6FF70FFF7BCFA06
:101EE00040F211000121C2F200000170FFF77AFCFC
:101EF000FCE77047FEF754FEFFF779FFFFF781FC20
:101F0000FFF78CFDFFF7C7FA4FF6FF70FFF7A4FA53
:101F1000FFF7E2FFFCE702E008C8121F08C1002A31
:101F2000FAD170477047002001E001C1121F002A5A
:101F3000FBD1704700000000000000000102030414
:101F40000607080900000000000000000000000073
:101F500000000000001010101010101010100000F1
:101F60001010000000006C6C242400000000010030
:101F7000000000000024242424FE48484848FC9027
:101F80009090900000103C5492905038141212928D
:101F9000547810000000225C94A8481010242A52A3
:101FA00054880000000030484850206E54948C88BB
:101FB0008A740000000030301010000000000000A3
:101FC0000000000000040810102020202020201015
:101FD0001008040000804020201010101010102065
:101FE00020408000000000001054381038541000C9
:101FF0000000000000000010101010FE1010101063
:1020000000000000000000000000000000000000D0
:102010001010200000000000000000FE0000000082
:1020200000000000000000000000000000000000B0
:102030001010000000000404080810102020404088
:102040008080000000003844828282828282828204
:102050004438000000001070101010101010101004
:10206000107C000000003844828204081020408266
:1020700084FC00000000384482020438040202821A
:10208000443800000000040C141424244444FE04CA
:10209000040E00000000FC808080B8C4820202822E
:1020A0008478000000003C428280B8C48282828230
:1020B0004438000000007E42820404080808101022
:1020C000101000000000384482824438448282822A
:1020D000443800000000384482828282463A0282FC
:1020E0004438000000000000101000000000101034
:1020F00000000000000000001010000000000010B0
:102100001020000000000000061860806018060023
:1021100000000000000000000000FE0000FE0000C3
:102120000000000000000000C0300C020C30C000B5
:1021300000000000003844828202040810101000E1
:102140001010000000003844829AAAAAAAAAAA96EF
:1021500080423C00000010101028282844447C4491
:1021600044EE00000000FC424242427C42424242B5
:1021700042FC000000003C4482808080808082829B
:10218000443800000000F844424242424242424287
:1021900044F800000000FC444240447C444040427B
:1021A00044FC00000000FC444240447C4440404069
:1021B00040F000000000344C828080808E84848453
:1021C0004C3400000000EE444444447C4444444405
:1021D00044EE000000007C101010101010101010C1
:1021E000107C000000003E0808080808080808885D
:1021F000887000000000EE44484850605048484451
:1022000044EE00000000E04040404040404040427A
:1022100044FC00000000C6446C6C6C5454544444AC
:1022200044EE00000000CE4464646454544C4C4CB2
:1022300044E40000000038448282828282828282EA
:10224000443800000000F844424242447840404094
:1022500040E000000000384482828282828282BA9A
:10226000443C02000000F048444444487048444460
:1022700044E6000000003C44828040300C020282B0
:102280004478000000007C549210101010101010C0
:10229000103800000000EE444444444444444444A4
:1022A000443800000000EE44444444282828281004
:1022B000101000000000EE44545454545454282884
:1022C000282800000000EE44442828101028284444
:1022D00044EE00000000EE4444282828101010109E
:1022E0001038000000007E4484080810202040823E
:1022F00084FC0000001C10101010101010101010A2
:1023000010101C000000EE445454FE54545428286D
:10231000282800000070101010101010101010105D
:102320001010700000304884000000000000000021
:10233000000000000000000000000000000000009D
:102340000000FE000040200000000000000000002F
:10235000000000000000000000007884047C8484F9
:102360008C7600000000C040404058644242424227
:102370006458000000000000000038448080808025
:102380004438000000000C040404344C8484848429
:102390004C360000000000000000788484FC80803F
:1023A00084780000000018242020F820202020201D
:1023B000207000000000000000003A444478807C57
:1023C00082827C000000C040404058644444444441
:1023D00044EE00000000101000003010101010102B
:1023E0001038000000001010000030101010101005
:1023F000109060000000C04040405C485060504871
:1024000044EE0000000030101010101110101010D9
:1024100010390000000000000000ACD292929292AD
:1024200092D6000000000000000058E444444444F8
:1024300044EE0000000000000000384482828282E6
:1024400044380000000000000000D86442424264AA
:102450005840E000000000000000364C8484844CAA
:1024600034040E000000000000006C30202020200A
:10247000207000000000000000007888846018844C
:1024800044780000000000202020F8202020202098
:1024900024180000000000000000C64242424242F0
:1024A000463A0000000000000000EE4444282828BE
:1024B00010100000000000000000EE4444545428B6
:1024C00028280000000000000000EE44281010281A
:1024D00044EE0000000000000000EE4444282810F4
:1024E00010A0C0000000000000007E4488102042C0
:1024F00084FC0000000C1010101010601010101060
:1025000010100C00001010101010101010101010EF
:102510001010100000C02020202020182020202093
:102520002020C00000000000000000728C000000AD
:10253000000000000000000000000000000000009B
:10254000000000000000000000000000000000008B
:10255000000000000000000000000000000000007B
:10256000000000000000000000000000000000006B
:10257000000000000000000000000000000000005B
:10258000000000000000000000000000000000004B
:10259000000000000000000000000000000000003B
:1025A000002D48616E6448656C64436F6E2D004772
:1025B000616D65333A0043686F6F73653A00476138
:1025C0006D65313A476C7574746F6E6F7573205317
:1025D0006E616B650047616D65323A54657472696E
:1025E000730000000000001FE000003FF000003F0B
:1025F000F000001FE0000180060003C00F0003C0D0
:102600000F0003C00F0003C00F0003C00F0003C082
:102610000F0003C00F0003C00F0003000300000001
:10262000000000000000000000000300030003C0E1
:102630000F0003C00F0003C00F0003C00F0003C052
:102640000F0003C00F0003C00F0003C00F00018084
:102650000600001FE000003FF000003FF000001FF8
:10266000E000000000000000000000008000000109
:102670008000000380000007800000078000000742
:10268000800000078000000780000007800000072E
:10269000800000078000000780000001800000002B
:1026A00000000000000000000000000180000007A2
:1026B00080000007800000078000000780000007FE
:1026C00080000007800000078000000780000007EE
:1026D00080000003800000018000000080000000F6
:1026E000000000000000001FE000003FF00000FFBD
:1026F000F00001FFE0000000060000000F000000F5
:102700000F0000000F0000000F0000000F0000008D
:102710000F0000000F0000000F00001FE300007F0B
:10272000F800007FF800001FE0000300000003C075
:10273000000003C0000003C0000003C0000003C08D
:10274000000003C0000003C0000003C000000180BF
:102750000000001FF000003FF800003FFC00001FD9
:10276000FE000000000003FF800001FFC00000FF2A
:10277000C000007F80000000180000003C00000046
:102780003C0000003C0000003C0000003C00000059
:102790003C0000003C0000003C00007F8C0001FF7A
:1027A000E00001FFF000007F800000000C0000004E
:1027B0003C0000003C0000003C0000003C00000029
:1027C0003C0000003C0000003C0000003C00000019
:1027D0001800007F800000FFC00001FFC00003FF61
:1027E0008000000000000000000002000100030063
:1027F00003000380070003C00F0003C00F0003C0E5
:102800000F0003C00F0003C00F0003C00F0003C080
:102810000F0003C00F0003C00F00031FE300007F81
:10282000F800007FFC00001FE00000000300000033
:102830000F0000000F0000000F0000000F0000005C
:102840000F0000000F0000000F0000000F0000004C
:102850000F0000000700000003000000010000005E
:10286000000000000000001FFC00003FF800003FD7
:10287000F000001FE0000180000003C0000003C062
:10288000000003C0000003C0000003C0000003C03C
:10289000000003C0000003C00000031FE000007F31
:1028A000F800007FF800001FE000000003000000B7
:1028B0000F0000000F0000000F0000000F000000DC
:1028C0000F0000000F0000000F0000000F000000CC
:1028D0000600003FE000007FF00000FFF00001FF75
:1028E000E00000000000001FFC00003FF800003F77
:1028F000F000001FE0000180000003C0000003C0E2
:10290000000003C0000003C0000003C0000003C0BB
:10291000000003C0000003C00000031FE000007FB0
:10292000F800007FFC00001FE0000300030003C06C
:102930000F0003C00F0003C00F0003C00F0003C04F
:102940000F0003C00F0003C00F0003C00F00018081
:102950000600001FE000003FF000003FF000001FF5
:10296000E0000000000007FFE00003FFC00001FFDF
:10297000880000FF18000000380000007800000008
:102980007800000078000000780000007800000067
:1029900078000000780000007800000018000000B7
:1029A000000000000000000000000000180000000F
:1029B0007800000078000000780000007800000037
:1029C0007800000078000000780000007800000027
:1029D0007800000038000000180000000800000027
:1029E000000000000000001FE000003FF000003F7A
:1029F000F000001FE0000180060003C00F0003C0CC
:102A00000F0003C00F0003C00F0003C00F0003C07E
:102A10000F0003C00F0003C00F00031FE300007F7F
:102A2000F800007FFC00001FE0000300030003C06B
:102A30000F0003C00F0003C00F0003C00F0003C04E
:102A40000F0003C00F0003C00F0003C00F00018080
:102A50000600001FE000003FF000003FF000001FF4
:102A6000E00000000000001FE000003FF000003F19
:102A7000F000001FE0000180060003C00F0003C04B
:102A80000F0003C00F0003C00F0003C00F0003C0FE
:102A90000F0003C00F0003C00F00031FE300007FFF
:102AA000F800007FFC00001FE000000003000000B1
:102AB0000F0000000F0000000F0000000F000000DA
:102AC0000F0000000F0000000F0000000F000000CA
:102AD0000600001FE000003FF000007FF00000FF54
:102AE000E000000000000000000000000000000006
:102AF00000000000000000000000000000000000D6
:102B000000000000000000000000000000000000C5
:102B100000000000000000000000000000000000B5
:102B200000000000000000000000000000000000A5
:102B3000000000000000007800000078000000782D
:102B4000000000780000007800000078000000001D
:102B50000000000000000000000000000000000075
:102B60000000000000000000000000000000000065
:102B70000000000000000000000000000000000055
:102B8000000000070000000F8000000F8000000F11
:102B900080000007000000000000000000000000AE
:102BA000000000000000000000000000000000071E
:102BB0000000000F8000000F8000000F8000000761
:102BC0000000000000000000000000000000000005
:102BD00000000000000000000000000000000000F5
:102BE00000000000000000000000000000000000E5
:102BF000000007C006000FE0060000000C003018BF
:102C00001800301818003018300030183000301814
:102C100060003008C00007C0C0000FE08000000066
:102C2000000000000FE0000607C000063018000C8E
:102C30003018000C301800183018003030180030F0
:102C400030180060000000C00FE000C007C00000A6
:102C50000000000000000000000000000000000074
:102C60000000000000000000000000000000000064
:102C7000000000000000000000000700E0000887DE
:102C8000FC00088E030008980180071800800030BF
:102C900000000030000000700000006000000060D4
:102CA0000000006000000060000000600000007094
:102CB0000000003000000030000000380000001864
:102CC0000100000C03000007FC000001F000000000
:102CD00000000000000000000000000000000000F4
:102CE00000000000000000000000000000000000E4
:102CF00000000000000000000000000000000000D4
:102D000000000000000000000000000000000000C3
:102D10000000000000000000000000000000003F74
:102D2000F000007FF000007FE00000FFC000000026
:102D30000000000000000000000000000000000093
:102D40000000000000000000000000000000000083
:102D50000000000000000000000000000000000073
:102D600000000000882D0008000000201000000076
:102D7000161F0008982D00081000002060040000B5
:102D8000261F000800000000010000000024F400DD
:082D900001000000100000002A
:040000050800018965
:00000001FF
