:020000040800F2
:10000000581000209D01000899440008653200083E
:100010006D400008B1070008E95600080000000024
:10002000000000000000000000000000394F000840
:10003000FB07000800000000914700083F5000083F
:10004000B7010008B7010008B7010008B7010008B0
:10005000B7010008B7010008150A0008310A0008B6
:10006000370A00083D0A0008430A0008B7010008E3
:10007000B7010008B7010008B7010008B701000880
:10008000B7010008B7010008B7010008B701000870
:10009000B7010008B7010008B7010008490A0008C5
:1000A000B7010008B7010008B7010008B701000850
:1000B000B7010008B7010008B7010008B701000840
:1000C000B7010008B7010008B7010008B701000830
:1000D000B7010008B7010008B7010008B701000820
:1000E0001B0A0008B7010008B7010008B7010008A3
:1000F000B7010008B7010008B7010008B701000800
:10010000B7010008B7010008B7010008B7010008EF
:10011000B7010008B7010008B7010008B7010008DF
:10012000B7010008B7010008B7010008B7010008CF
:10013000B7010008B7010008B7010008B7010008BF
:10014000B7010008B7010008B7010008B7010008AF
:10015000B7010008B7010008B7010008B70100089F
:10016000B7010008B7010008B7010008B70100088F
:10017000B7010008B7010008B7010008000000003F
:10018000B7010008B7010008DFF80CD000F0ECFA66
:10019000004800477557000858100020064880475F
:1001A00006480047FEE7FEE7FEE7FEE7FEE7FEE75C
:1001B000FEE7FEE7FEE7FEE7D350000889010008EE
:1001C0002DE9F05F0546002092469B46884606468C
:1001D000814640241BE0284641464746224600F01F
:1001E00010F953465A46C01A914110D31146184689
:1001F000224600F0F7F82D1A67EB01084F46224619
:100200000120002100F0EEF817EB00094E41201EFE
:10021000A4F10104DFDC484631462A464346BDE8E6
:10022000F09FD2B201E000F8012B491EFBD27047CB
:100230000022F6E710B513460A4604461946FFF7B2
:10024000F0FF204610BD2DE9FE4F81EA030404F0C3
:10025000004421F0004100944FF0000B23F00043D4
:1002600050EA01045ED052EA03045BD0C3F30A549F
:10027000C1F30A552C44A4F2F3340194A0FB0254B8
:10028000C1F3130141F48011C3F3130343F480134A
:1002900001FB024400FB034E840A970A44EA81549E
:1002A00047EA8357A4FB076802958D0A05FB07857B
:1002B0004FEA932C04FB0C542705029D4FEA065885
:1002C00047EA1637B5EB08056EEB070C870E920E62
:1002D00047EA811742EA8312A7FB0201B6EB0B0142
:1002E00064EB00042B0D43EA0C335E1844EB1C5006
:1002F000DA465146E7FB0201C5F313044FEA0B331C
:1003000043EA14534FEA0432019C43EA0603A4F182
:100310000C040294009CCDE900B400F091F803B005
:10032000BDE8F08F00200146F9E730B5041E71F1F9
:10033000000404DB4FF00044404264EB0101141E52
:1003400073F1000405DB1C464FF00043524263EB9F
:100350000403801A994101D3012030BD002030BD33
:1003600030B5041E71F1000404DB4FF0004440423C
:1003700064EB0101141E73F1000405DB1C464FF011
:100380000043524263EB0403101A8B4101D3012056
:1003900030BD002030BD0EB5C10F80EAE0700844CA
:1003A000CA07002140F233438DE80E000A460B468F
:1003B00000F046F803B000BD30B50B460146002002
:1003C0002022012409E021FA02F59D4205D303FA17
:1003D00002F5491B04FA02F52844151EA2F1010298
:1003E000F1DC30BD202A04DB203A00FA02F10020C3
:1003F00070479140C2F1200320FA03F31943904063
:100400007047202A04DB203A21FA02F000217047CD
:1004100021FA02F3D040C2F120029140084319466C
:10042000704710B5141E73F1000408DA401C41F146
:10043000000192185B411A4301D120F0010010BD68
:100440002DE9F04D92469B4611B1B1FA81F202E0DE
:10045000B0FA80F220329046FFF7C4FF04460F4600
:1004600040EA0A0041EA0B0153465A46084313D0BA
:10047000114653EA010019D0C8F140025046FFF777
:10048000C0FF05460E46504659464246FFF7AAFFB2
:10049000084305D0012004E020463946BDE8F08D30
:1004A0000020054346EAE0762C4337430A9863056B
:1004B000E40AA0EB08000022FD0A44EA47540A308F
:1004C00002D500200146E9E7010510196941DDE97F
:1004D000084500196941BDE8F04DA2E72DE9FE4F3E
:1004E000804681EA0300C00F0C46009021F00041D5
:1004F00023F00045B8EB0200A94105D24046214651
:1005000090461C460B46024623F00040104347D05D
:10051000270DC7F30A00C3F30A510290401A019055
:1005200040286BDAC3F3130040F4801B0098924616
:1005300020B10023D2EB030A63EB0B0B0198594661
:10054000C0F140025046FFF74DFF06460D465046AB
:100550005946019A00F01AF910EB08006141002495
:1005600087EA115284EAE7731A4340D0009A62B3D3
:10057000019A012A4FEA075215DC001B61EB0201C8
:100580004FF0004202EA0752CDE90042001C41F55B
:10059000801132462B46FFF753FF03B0BDE8F08FC2
:1005A00040462146F9E7001B61EB0201001C41F5C2
:1005B000801300185B412018A2F5001747EB0301D8
:1005C00040EAD570B6196D4111E06D084FEA360664
:1005D00045EAC0754FEA0752001B61EB0201001C9F
:1005E00041F5801149084FEA300000195141324667
:1005F0002B4603B0BDE8F04FFFF713BF0098012270
:1006000040000023D0EB020263EBE0730098214628
:100610004FEAE074B8EB000061EB0401E9E783F016
:1006200000435BE781F0004158E72DE9F04D81EA96
:10063000030404F0004B21F0004514464FF0000A7B
:1006400023F0004150EA050220D054EA01021DD0F7
:10065000C5F30A570246C5F31303C1F31300C1F3F0
:100660000A5640F4801543F48013A7EB0608101BCC
:10067000D64608F2FD3873EB050002D308F10108F5
:1006800001E092185B41B8F1000F03DA0020014647
:10069000BDE8F08D00204FF48011064684460EE040
:1006A000171B73EB050705D3121B63EB050306430A
:1006B0004CEA010C49084FEA300092185B4150EABD
:1006C0000107EDD152EA030012D082EA040083EA66
:1006D0000501084305D0101BAB4106D201220023BF
:1006E00006E000224FF0004302E06FF001025310D9
:1006F0001AEB06004CEB085110EB0A0041EB0B0122
:10070000BDE8F04DFFF78DBEC1F30A52C1F31301EE
:1007100040F2FF3341F480119A4202DA0020014690
:10072000704740F233439A42A2F2334202DC524213
:10073000FFF767BEFFF756BE30B5041E71F1000427
:1007400004DB4FF00044404264EB0101141E73F1DE
:10075000000405DB1C464FF00043524263EB0403E8
:10076000994208BF904230BD064C074D06E0E06854
:1007700040F0010394E8070098471034AC42F6D3E8
:10078000FFF706FD4070000860700008202A06DBB5
:10079000CB17203A41FA02F043EAE07306E041FA4F
:1007A00002F3D040C2F1200291400843194670473D
:1007B000FEE700002DE9F041E8B141F60007904660
:1007C0000D4606460024C4F2020700BF38464FF427
:1007D0008041002201F09AFC284600F0EBFF3846E9
:1007E0004FF48041012201F091FC404600F0E2FF0D
:1007F0000134B442EAD3BDE8F0817047F0B581B06E
:1008000040F2181040F2283440F229350021C2F29B
:100810000000C2F20004C2F2000501700120207045
:10082000287828B9002002F07FFE2878013028704F
:100830004FF4784000214FF4A072F023002600907E
:10084000002002F0DDFD18A064214FF6FF720023A6
:100850000090642000F0B8FA17A096214FF6FF72BE
:10086000002300903C2000F0AFFA1AA0AA214FF616
:10087000FF72002300903C2000F0A6FA1BA005F0B8
:100880001DFC40F23437C2F20007387850B140F610
:100890004900C2F20000A0F8826002F0E5FC3E7060
:1008A00026702E7001B0F0BD4D4953534F4E204677
:1008B00041494C4544212000507265737320274301
:1008C0004F4E4649524D2720746F20526573746114
:1008D000727400005072657373202752455455524C
:1008E0004E272020746F204D656E75004D4953537F
:1008F000494F4E204641494C4544EFBC8157616900
:1009000074696E6720666F7220757365722061630B
:1009100074696F6E2E2E2E200D000000F0B581B090
:1009200040F23034012040F23135C2F20004C2F20C
:100930000005207040F64900C2F2000090F88310D4
:10094000013180F88310287828B9002002F0ECFDEE
:100950002878013028704FF4FC6000214FF4A07219
:10096000F02300260090002002F04AFD10A0642130
:100970004FF6E07200230090642000F025FA11A0E9
:1009800096214FF6E072002300903C2000F01CFA04
:1009900014A005F093FB40F22737C2F20007387825
:1009A00020B102F061FC3E7026702E7001B0F0BDE7
:1009B0004D495353494F4E205355434345535321BB
:1009C00000000000507265737320E28098436F6EE0
:1009D0006669726DE2809920746F20436F6E74694E
:1009E000756500004D495353494F4E2053554343BD
:1009F000455353EFBC8157616974696E6720666F18
:100A000072207573657220616374696F6E2E2E2E6D
:100A1000200D0000012001F093BA80B54FF4006072
:100A200001F08EFA4FF48050BDE8804001F088BAA2
:100A3000022001F085BA042001F082BA082001F0FA
:100A40007FBA102001F07CBA202001F079BA0000B2
:100A50002DE9F04381B003F083FC40F23C443220A6
:100A60003C2149F6D37249F6D373C2F200040094D4
:100A700000F0AAF940F6CD053220782149F6D3726C
:100A800049F6D373C2F20005009500F09DF940F2DB
:100A900018063220B42149F6D37249F6D373C2F254
:100AA0000006009600F090F940F6404846F69C0794
:100AB0002046C2F20008C0F6000798ED000B394648
:100AC00053EC102B04F078FE40F64849284639468E
:100AD000C2F2000999ED000B53EC102B04F06CFEF0
:100AE00040F6E0103946C2F2000090ED000B3046AF
:100AF00053EC102B04F060FE32203C2142F24342C2
:100B000049F6D373009400F05FF93220782142F265
:100B1000434249F6D373009500F056F93220B421D0
:100B200042F2434249F6D373009600F04DF99FED2F
:100B3000120B99ED001B53EC102B51EC110BFFF72E
:100B40000FFC10B902F0E0FE01E002F0C1FE9FEDE3
:100B50000C0B98ED001B53EC102B51EC110BFFF715
:100B6000E4FB20B901B0BDE8F04302F0BFBE01B024
:100B7000BDE8F04302F09EBE9A9999999999F13F88
:100B80009A9999999999B93F7047F0B581B00546FE
:100B900040F2393016460C46C2F20000007890B997
:100BA00040F6BC37C2F20007384602F05EFA38461B
:100BB000002102F075FA3846042102F071FA384635
:100BC000082102F06DFA40F6BC3006EB8601C2F255
:100BD000000049000068416305EB8501490081631D
:100BE00004EB84014900C16301B0F0BD70B582B06F
:100BF00003281CD0022800F0828001281CBF02B00C
:100C000070BD40F22C3040F233340121C2F20000BA
:100C1000C2F200040170207820B902F025FB207890
:100C20000130207002B0BDE8704003F0B3BD40F267
:100C30003F5040F240540121C2F20000C2F20004D1
:100C400001702078002855D14BF6BA2002F06CFCD8
:100C50006FF0420000214FF4A072F02300254230D3
:100C600086B20020009602F0CBFB642000216422B3
:100C7000F023009600F0B0FA45A03C214FF6BD727B
:100C80004BF6BA2300901E2000F09EF842A03C21B3
:100C90004FF478424BF6BA230090782000F094F895
:100CA0003EA03C214FF4FC624BF6BA230090B420E6
:100CB00000F08AF83BA03C211F224BF6BA2300909B
:100CC000F02000F081F840F24450C2F200000570BC
:100CD00040F24350C2F20000057040F24250C2F2AE
:100CE0000000057040F24150C2F20000057020780B
:100CF0000130207002B0BDE8704003F0CFBB40F27D
:100D0000211040F222140121C2F20000C2F20004BC
:100D10000170207898BB49F6D37002F005FC4CF6C0
:100D2000C34000214FF4A072F0230090002002F095
:100D300067FB4EF6A45003214FF49D72EA23009006
:100D4000032002F05DFB4EF6A45006214FF49A7288
:100D5000E423CFF6FF7000F5835080B200900620A8
:100D600002F04EFB11A014214FF4784249F6D373E0
:100D70000090142000F028F8207801302070FFF750
:100D800067FE4FF4FA7002B0BDE8704000F012BD8B
:100D90004C454450574D00005265640047726565EC
:100DA0006E000000426C756500000000456E7669BB
:100DB000726F6E6D656E7420496E666F726D6174D0
:100DC000696F6E3A000000002DE9F04F89B01546BA
:100DD000129A019005911078002800F0C580019FBB
:100DE0001C464FF0800800BF41B20897B1F1FF3FA9
:100DF00006DD0D2876D10598019F10300590AEE0F4
:100E000007F1080A0021029202E000BF0298007870
:100E100046F2E962039101EB0111C0F6000212F8FB
:100E20001120824256D146F2E960C0F6000000EB84
:100E3000410B02999BF80100497888424AD1002170
:100E4000CDF810B005980026079100EB01090BEBD7
:100E5000410090F902B04800069000BF28FA06F061
:100E600010EA0B0F04D0B8191FFA89F12A4605E0E1
:100E7000A54206D0B8191FFA89F1224680B200F0C7
:100E80000EFA0136082EE9D10698DDF810B00027D9
:100E900040F00100584490F9026000BF28FA07F0C2
:100EA000304205D00AEB07001FFA89F12A4606E016
:100EB000A54207D00AEB07001FFA89F1224680B24B
:100EC00000F0EDF90137082FE8D10799089F0131AB
:100ED0001029B7D103990131322997D1029A1037DD
:100EE00002323DE04FF6006102924FF0000A4FF0EF
:100EF00000092028C0F20F010A4601EB001102F59B
:100F0000F87288BF01EA0209059846F2F801002745
:100F1000C0F6000100EB0A0B0AEB09000E5C00BFF3
:100F200028FA07F0304205D008981FFA8BF12A46BC
:100F300006E000BFA54207D008981FFA8BF12246B1
:100F4000384480B200F0ABF90137082FE8D10AF13C
:100F5000010ABAF1100FD7D1089F029A083701325F
:100F6000107800287FF440AF09B0BDE8F08F000092
:100F70002DE9F04F89B00446129805910190007850
:100F8000002800F0D9804FF600619A4615464FF0D0
:100F90008009C0F20F0101F5F871009141B2089487
:100FA000B1F1FF3F38DD4FF600614FF0000B4FF01D
:100FB00000082028C0F20F0101EB0011009888BF43
:100FC00001EA0008059846F2F8010024C0F6000185
:100FD0000BEB00060BEB08000F5C00BF29FA04F0D6
:100FE000384203D00898B1B22A4604E0554506D0ED
:100FF0000898B1B25246204480B200F050F9013452
:10100000082CEBD10BF1010BBBF1100FDAD1089CCE
:101010000820012188E000BF04F1100804F1080B4A
:101020000022CDF80C8001E0019800784A2102925C
:10103000514346F2D772C0F60002515C81426CD136
:1010400046F2D771029A4A20C0F6000102FB001056
:10105000019904904078497888425ED1002200BF0F
:10106000049902EB4200002706920844079090F989
:1010700002800598161800BF29FA07F010EA080F39
:1010800004D0E019B1B22A4605E000BF554505D0AD
:10109000E019B1B2524680B200F001F90137082FD1
:1010A000EAD10798DDF80C80002490F9037000BFA6
:1010B00029FA04F0384205D00BEB0400B1B22A46FD
:1010C00006E000BF554506D00BEB0400B1B2524616
:1010D00080B200F0E4F80134082CE9D1079800242C
:1010E00090F9047029FA04F0384205D008EB0400A6
:1010F000B1B22A4606E000BF554506D008EB040011
:10110000B1B2524680B200F0CAF80134082CE9D1DD
:10111000069A089C0132182AA2D1029A0132142A96
:101120007FF482AF18200221044401984218405CE9
:10113000019200287FF432AF09B0BDE8F08F0000C3
:101140002DE9F04F85B0CDE9010146F6BC010E98BE
:101150001C4615468026C0F6000101EBC010002198
:10116000009000BF0298DDF804A04FF00009039141
:101170000F18009800EB8100049000BF04984FF016
:10118000000810F809B000BF26FA08F010EA0B0FAB
:1011900004D00AEB0800B9B22A4605E0A54206D001
:1011A0000AEB0800B9B2224680B200F078F808F1E4
:1011B0000108B8F1080FE7D109F101090AF1080A9D
:1011C000B9F1040FDAD103990131202904BF05B028
:1011D000BDE8F08FC6E700002DE9F04F83B01E4652
:1011E00090460C46054602F002FB311B4FF0FF3AD9
:1011F000A8EB05084FF0FF39B1F1FF3FC8BF4FF032
:10120000010AB8F1FF3FC8BF4FF00109002900D51E
:101210004942B8F1000F4FEA410048BFC8F1000849
:1012200002904FEA4800884501901ADD02984FF07D
:10123000FF36A0EB080B0198474200BF0C9AA8B2FA
:10124000A1B200F02CF80298BBF1FF3F06F10106B5
:101250004D445844C4BF3844544446458346EDDBAE
:101260001AE001984FF0FF36471A0298C0F1000BC0
:101270000C9A8846A8B2A1B200F011F80198B7F113
:10128000FF3F06F10106414654443844C4BF584468
:101290004D4446450746EBDB03B0BDE8F08F10B583
:1012A000144602F0A4FA200A02F0BCFAE0B2BDE84B
:1012B000104002F0B7BA000070B581B00022009271
:1012C00090F83C20012A01D1022176E0012280F829
:1012D0003C20D1F800E01FFA8EFCBEF10A0F4FEA65
:1012E0004C0212FA8EF204D303681E3A03F10C0486
:1012F00002E0036803F1100407252668954026EAFA
:10130000050525608D6805FA02F225682A432260EA
:101310004A68062A05D802EB820203F13401053A35
:101320000BE002EB82040C2A87BF03F12C01A4F12D
:10133000410203F13001A4F123021F240D689440FF
:101340000CFA02F225EA04040C600E6832430A60CB
:1013500042F20431C4F20101A1F54172934229D154
:10136000BEF1120F04D10A6842F480020A6021E043
:101370002EF00102102A1DD10A68BEF1100F42F4AE
:1013800000020A6016D140F208014DF68362C2F2F3
:101390000001C4F21B320968A1FB0212910C01EB9F
:1013A0008101490002E000BF0099013900910099D4
:1013B0000029F9D1002180F83C10084601B070BD29
:1013C0000068C06C7047002847D010B50446006C18
:1013D00030B9204600F09BF8002084F83C0060649F
:1013E000206CC0063BD4206C41F202110123C0F6F0
:1013F000007388430230206442F20430C4F20100DA
:10140000016821F4403101606168026811430160A4
:101410002068416821F4807141602169426842EA94
:1014200001214160416821F040714160A16842683A
:1014300011434160816821F400618160E168826844
:1014400011438160A16A826822F0706299428260D1
:10145000826806D122F040510CE001207047012043
:1014600051E011438160816821F040518160E16A5F
:10147000826811438160816821F002018160217ED0
:10148000826842EA4101816094F82020416882B17B
:1014900041F400614EF200024160CFF6FF724168F4
:1014A00021F460414160616A02EB413142681143BD
:1014B00001E021F4006141600022C16ACFF6F072C0
:1014C00021F47001C162E16902EB0151C26A11436A
:1014D000C162816821F40071816094F830108268E3
:1014E00042EA41218160816821F480618160616903
:1014F000826842EA81210122816000206064216CBF
:1015000062F301012164002184F83C1010BD10B584
:1015100086B0044601A81421FEF78AFE42F200219B
:101520002068C4F20101884229D042F20011C4F2BD
:101530000101884247D042F20001C4F20101884211
:1015400065D143F6300100200090C4F202014A69DF
:1015500042F480724A614A6902F480720092009AF1
:1015600000900A6842F001020A60096801F0010176
:1015700000910099039003200290022040E043F67E
:10158000300100200090C4F202014A6942F48062F6
:101590004A614A6902F480620092009A00900A68E7
:1015A00042F004020A60096801F004010091009908
:1015B000039003200290082001900020C4F2020052
:1015C00000F5006020E043F6300100200090C4F2F6
:1015D00002014A6942F400724A614A6902F40072E7
:1015E0000092009A00900A6842F001020A600968BD
:1015F00001F0010100910099039003200290042062
:1016000001900020C4F2020001A900F0A5FC06B080
:1016100010BD0000F0B581B0044600680D46816839
:10162000490544BF80685FEAC0500AD400F073FDEA
:10163000064620680168890718D4CDB36F1C09D00D
:101640000DE0002084F83C00206C40F02000206475
:1016500001202BE00168890708D4002FFAD000F0A0
:101660005AFD801BA84223D82068F3E76FF01201CF
:101670000160216C41F400712164816811F0405FC8
:1016800013D1217E89B9C16A11F4700F02D080682C
:1016900040050AD4206C20F480702064206CC004C3
:1016A0005EBF206C40F001002064002001B0F0BD5E
:1016B000002084F83C00206C40F0040020640320EB
:1016C000F4E7000081B00021009190F83C1001295E
:1016D00001D102206CE0012180F83C1001688A6889
:1016E000D20719D18A684DF68363C4F21B3342F0E6
:1016F00001028A6040F20802C2F200021268A2FBF4
:1017000003239A0C02EB420202E000BF009A013A66
:101710000092009A002AF9D18A68D20747D0026C59
:1017200040F201739A4302F5807202644A685205DE
:1017300004D5026C012363F30D320264026C0023B2
:10174000D20444BF436C23F00603002280F83C20FF
:1017500043646FF02200086042F20000C4F201000E
:10176000D0F80423D20603D0814220D1806817E04C
:10177000814214D042F20022C4F2010291420AD006
:1017800042F20012C4F20102914210D1D0F80403D7
:10179000C0060CD103E0D0F80403C00607D4886863
:1017A00010F0405F03D1886840F0804088600020DE
:1017B00001B07047B0B5044600F0ADFC054640F2FC
:1017C0000C00611CC2F20000007818BF044400BF86
:1017D00000F0A1FC401BA042FAD3B0BD10B50F2809
:1017E00037DC0138072800F2AA83DFE810F0080090
:1017F000BB00A8032201A803A803A803A80128206E
:1018000003F0A4FF40F200400121C4F2020000F501
:10181000006000F06FFC002800F0918340F23C5023
:10182000C2F200000178012940F0BD8200210122AE
:10183000017040F22630C2F20000027040F23E50C9
:10184000C2F20000017040F23D50C2F2000001708F
:10185000B1E2B0F5006F69DA102800F0F4812028B9
:1018600040F06D83282003F071FF40F200402021FA
:10187000C4F2020000F5006000F03CFC002800F01B
:101880005E8340F22630C2F200000078002800F0AB
:10189000568340F22C30C2F200000078A8B340F228
:1018A000283040F23031C2F20000C2F2000100786C
:1018B0000978084340F23731C2F200010978084341
:1018C00040F22A31C2F200010978084340F22E3179
:1018D000C2F200010978014340F22F30C2F2000049
:1018E0000278114311D140F2383100220123C2F2B3
:1018F0000001027040F22B300A7040F23531C2F222
:101900000000C2F2000102700B7040F23F50C2F2C0
:1019100000000078002800F0128340F20500C2F2B7
:1019200000000178042980F07382F2E200F0F18176
:10193000B0F5805F40F00383282003F007FF40F2FA
:1019400000444FF48051C4F2020404F5806000F0BA
:10195000D1FB002800F0F38220460121BDE81040B1
:1019600000F0CDBB282003F0F1FE40F20040022140
:10197000C4F2020000F5805000F0BCFB002800F02B
:10198000DE8240F2040101200022C2F20001087050
:1019900040F23C51C2F20001087040F23E51C2F2E6
:1019A00000010A7040F23D51C2F200010A7040F29B
:1019B0002631C2F200010A7040F22C31C2F200015D
:1019C0000A7040F22831C2F200010A7040F2303150
:1019D000C2F200010A7040F23431C2F200010A7012
:1019E00040F23331C2F200010A7040F22931C2F2F2
:1019F00000010A7040F23131C2F200010A7040F277
:101A00002111C2F200010A7040F22211C2F200015B
:101A10000A7040F23F51C2F200010A7040F2405198
:101A2000C2F200010A7040F20501C2F20001087022
:101A300010BD282003F08AFE40F200400421C4F2C9
:101A4000020000F5006000F055FB002800F07782EE
:101A500040F23C50C2F20000007801280FD140F261
:101A60003D500021C2F20000017040F20400C2F2B9
:101A7000000001784A1E022938BF0322027040F29A
:101A80002630C2F200000078002800F0588240F2B0
:101A90002C30C2F200000078A8B340F2283040F2A7
:101AA0003031C2F20000C2F2000100780978084328
:101AB00040F22A31C2F200010978084340F22E3187
:101AC000C2F200010978084340F23531C2F2000148
:101AD0000978014340F22B30C2F200000278114332
:101AE00011D140F2363100220123C2F2000102700E
:101AF0000A7040F23731C2F200010B7040F22F3110
:101B0000C2F200010A7040F23F50C2F200000078B9
:101B1000002800F0148240F20500C2F200000078B4
:101B20000138032800F20B82DFE810F00400E20124
:101B3000E701EC0140F21910C2F20000E6E12820B2
:101B400003F004FE40F200400821C4F2020000F05D
:101B5000D1FA002800F0F38140F23C50C2F20000BC
:101B6000007801280FD140F23D500021C2F2000060
:101B7000017040F20400C2F2000001784A1C022900
:101B800088BF0122027040F22630C2F200000078C5
:101B9000002800F0D48140F22C30C2F2000000781E
:101BA000A8B340F2283040F23031C2F20000C2F255
:101BB000000100780978084340F23731C2F2000191
:101BC0000978084340F22E31C2F200010978084337
:101BD00040F23531C2F200010978014340F2383059
:101BE000C2F200000278114311D140F236310022D6
:101BF0000123C2F2000102700A7040F22A31C2F2DF
:101C000000010B7040F22F31C2F200010A7040F265
:101C10003F50C2F200000078002800F0908140F2AE
:101C20000500C2F2000000780138032800F2878125
:101C3000DFE810F00400720177017C0140F2191016
:101C4000C2F2000076E1282003F080FD40F200405F
:101C50001021C4F2020000F5006000F04BFA0028E9
:101C600000F06D8140F22630C2F2000000780028BA
:101C700000F0658140F22C30C2F200000078A8B379
:101C800040F2283040F23031C2F20000C2F20001CE
:101C900000780978084340F23731C2F20001097830
:101CA000084340F22A31C2F200010978084340F2A9
:101CB0003531C2F200010978014340F23630C2F2F8
:101CC00000000278114311D100210122017040F27D
:101CD0002E30C2F20000027040F23830C2F2000032
:101CE000017040F22B30C2F20000017040F23F5010
:101CF000C2F200000078002800F0218140F20500C7
:101D0000C2F20000017801299EBF0421017010BDBC
:101D100012E1282003F01AFD40F200404FF4006168
:101D2000C4F2020000F5806000F0E4F9002800F041
:101D3000068140F22630C2F200000178002900F04E
:101D4000FE8040F22C31C2F200010A78002A00F035
:101D5000948040F22832C2F200021378002B5AD04D
:101D600040F204030124C2F200031C7040F23C5311
:101D7000C2F200031C700023037040F230300B707D
:101D80001370C2F20000037040F23430C2F200005F
:101D9000037040F23330C2F20000037040F2293089
:101DA000C2F20000A2E040F22630C2F20000007849
:101DB000002800F0C48040F22C30C2F2000000780D
:101DC00088B140F22831C2F20001097859B140F2DD
:101DD00029310022C2F200010A7040F2343101229E
:101DE000C2F200010A70002800F0A98040F23030F1
:101DF000C2F200000078002800F0A18040F23130EB
:101E00000021C2F20000017040F22730C2F200004F
:101E10000121017010BD40F2303EC2F2000E9EF86A
:101E2000004054B340F23C53012440F2040CC2F28F
:101E30000003C2F2000C1C7000238CF800400370F9
:101E400040F234300B7013708EF80030C2F2000094
:101E5000037040F22730C2F20000037040F23330CA
:101E6000C2F20000037040F22930C2F20000037099
:101E700040F23130C2F2000038E040F22111C2F2EB
:101E800000010A789AB140F204020123C2F2000272
:101E9000137040F23C52C2F2000213700022027032
:101EA00040F222100A70C2F20000027010BD40F22F
:101EB0003F51C2F200010A78002A08BF10BD40F26B
:101EC00004020123C2F20002137040F23C52C2F23B
:101ED000000213700022027040F240500A70C2F2F9
:101EE0000000027040F20500C2F20000037026E01C
:101EF00040F22010C2F2000008E040F21E10C2F2D0
:101F0000000003E040F21D10C2F200000178092930
:101F100015D80131017010BD40F22010C2F200004E
:101F200008E040F21E10C2F2000003E040F21D1073
:101F3000C2F20000017811B10139017010BD10BD6D
:101F400043F61441C4F201010A68024214BF08605A
:101F50007047FFF743BC00002DE9F04F82B041F617
:101F6000004343F6004B08224FF0010A00264FF0D1
:101F7000000CC4F20203C4F2010B984200F13E438C
:101F800008BF072203F1FF734FEAB327072F4FF073
:101F9000000738BF4FEAB322009200BF0A680AFA6E
:101FA0000CF812EA080F00F09A80D1F804E04EF025
:101FB0001002122A12D106F01C020F2303FA02F4B7
:101FC0006FF0030303EA5C0505442B6AA3430C6925
:101FD00004FA02F21A432A62D1F804E003230468E7
:101FE0000EF00302BEF1120F03FA07F302FA07F232
:101FF00024EA03046FEA030942EA0402026014D8E7
:102000000AFA0EF212F0061F0FD08268CB6802EABD
:102010000902BB401A438260CEF30012436802FA01
:102020000CF223EA08031A434260C2688B6802EA92
:102030000902BB401A43C2605FEACE024FD50022BC
:1020400006F00C050F24019243F64402AC40C4F2A2
:1020500002021346126842F480421A601A6802F4BF
:10206000804201922CF00302019B5A444FF6084330
:10207000CFF6FF739E46D358A343009C04FA05F5A0
:102080002B4342F80E30DBF800204D6842EA08038B
:10209000EC0358BF22EA0803CBF80030AC03DBF8AE
:1020A000042042EA080358BF22EA0803CBF80430B0
:1020B000EC02DBF8082042EA080358BF22EA0803D2
:1020C00043F60C42CBF80830AD02C4F201021446CC
:1020D000126842EA080358BF22EA080323600CF1A1
:1020E000010C02370436BCF1100F04BF02B0BDE88A
:1020F000F08F53E70069084018BF0120704742691C
:102100000A408A4208BF090481617047002A08BF5B
:1021100009048161704740F65040C2F20000006837
:102120007047B0B568B3044690F83D0028B9002068
:1021300084F83C00204600F0B9F8242084F83D00E3
:102140002068016821F00101016000F044FA48F2C2
:10215000804140F600120023C0F21E01C0F23D0291
:1021600088424FF0000138BF0121904248F2A1623D
:1021700038BF01236568C0F20102954238BF0B46A3
:102180000BB10120B0BD4DF68361C4F21B31A0FB41
:10219000011221684B6823F03F0343EA92434B60EE
:1021A000930C0A6A22F03F0C48F2A062C0F20102CE
:1021B000954213D85A1C01384CF6FF7342EA0C02C0
:1021C0000A626A00B0FBF2F001306FF31F3004289E
:1021D00098BF0420CA6922EA030C3EE04FF49672CD
:1021E000A0F1010E5A4344F6D353C1F26203A2FB9D
:1021F0000323012202EB93124CF6FF7342EA0C0216
:102200000A62CA6922EA030CA36843B119200422B6
:102210006843BEFBF0F0013062F31F3006E005EBCF
:102220004500BEFBF0F001306FF31F30000509D010
:1022300053B1192004226843BEFBF0F0013062F371
:102240001F3008E0012008E005EB4500BEFBF0F080
:1022500001306FF31F3040F4004040EA0C00C861C9
:102260000868D4E9072320F0C000104348F2FF3289
:102270001843086088689043D4E903231843104347
:102280008860C868D4E9052320F0FF001043184394
:10229000C860086840F00100086000202021206428
:1022A00084F83D10206384F83E00B0BDB0B586B020
:1022B000044601A81421FDF7BBFF45F20040216848
:1022C000C4F20000814227D143F63004002500F516
:1022D000D8300095C4F20204216841F00201216067
:1022E000216801F002010091009904210591032168
:1022F00004910121039112210291C021019101A9B0
:10230000FFF72AFE0095206940F400102061206943
:1023100000F400100090009806B0B0BD40F20C0030
:1023200040F65041C2F20000C2F2000100780A6893
:1023300010440860704780B543F60040C4F20200C4
:10234000016841F400710160016841F4806101603D
:10235000016841F480710160032000F086F80020DC
:1023600000F004F800F028F8002080BDB0B5044665
:1023700040F20C004FF47A71C2F200000078B1FB19
:10238000F0F040F20801C2F200010968B1FBF0F080
:1023900000F08AFC01250F2C0CD858B94FF0FF3003
:1023A00021460022002500F032F840F21000C2F26F
:1023B000000004602846B0BD82B043F64001002012
:1023C0000190C4F202014A6842F480424A604A68BD
:1023D00002F480420192019A0090086840F0805017
:1023E0000860086800F080500090009802B07047C4
:1023F00000280BDB00F01F010122400902FA01F165
:102400004EF20012CEF2000242F82010704710B5D2
:1024100000F00F034EF60C5E00F1604CB0F1FF3F90
:10242000A3F10403CEF2000E734403F10C04C8BF01
:102430000CF56444DEF800004FF0FF3CC0F30220CE
:10244000C31E80F0070038BF0023042828BF0420E3
:102450000CFA00F021EA00000CFA03F1984022EA9D
:10246000010108430001207010BD4EF60C514FF6DB
:10247000FF03CEF200010A681A4060F30A2242F01C
:10248000806040F0FD700860704700002DE9F04169
:10249000002800F09C8043F6000804460D46C4F274
:1024A0000208D8F8000400F00F00884208D288F82B
:1024B0000054D8F8000400F00F00A84240F08780D4
:1024C0002068810717D5410742BFD8F8081041F4AA
:1024D000E051C8F80810010742BFD8F8081041F4CD
:1024E0006041C8F80810D8F80810A26821F0F0017F
:1024F0001143C8F80810C0072FD06068811E022958
:1025000004D2D8F8001089010BD460E0012804D16E
:10251000D8F80010890304D459E0D8F800108907CE
:1025200055D5D8F8081021F003010843C8F8080071
:10253000FFF7F1FD064641F2883700BFD8F80800E2
:10254000616800F00C00B0EB810F06D0FFF7E3FDEF
:10255000801BB842F2D903243AE0D8F8000400F016
:102560000F00A84207D988F80054D8F8000400F0FA
:102570000F00A8422BD12068410707D5D8F80810D2
:10258000E26821F4E0511143C8F80810000708D5AB
:10259000D8F80800216920F4604040EAC100C8F87A
:1025A000080000F03EF8D8F8081046F2E0020024D7
:1025B000C0F60002C1F30311515CC84040F20801AB
:1025C000C2F2000108600020FFF7D0FE00E0012405
:1025D0002046BDE8F08140F2080043F6080146F2CB
:1025E000F002C2F20000C4F20201C0F6000200686C
:1025F0000968C1F38221515CC840704740F208006D
:1026000043F6080146F2F002C2F20000C4F20201F1
:10261000C0F6000200680968C1F34231515CC8404D
:10262000704710B543F60404C4F20204606800F079
:102630000C0008280AD0042819BF42F20040C0F25A
:10264000F40047F64000C0F27D1010BD22682068FB
:102650000023400202F03F0247F64000C0F27D1026
:102660005CBF42F20040C0F2F4002168C1F388115F
:10267000A0FB0101FDF7A4FD21680222C1F3014185
:1026800002EB4101B0FBF1F010BD00002DE9F0417B
:1026900082B0002800F014810446007843F600065A
:1026A000C4F20206C0072FD0B06800F00C00042866
:1026B00023D0B06800F00C00082802D170684002F6
:1026C0001BD46768B7F5803F07D03068B7F5A02FF7
:1026D00040F01A8140F480203060306840F480304F
:1026E0003060FFF718FD0546306880030CD4FFF713
:1026F00012FD401B6428F7D9A8E03068800303D599
:102700006068002800F0DC80207880072ED5B06853
:1027100010F00C0F07D0B06800F00C00082809D1A9
:102720007068400206D43068800718D5E068012838
:1027300015D0C5E0E1680020C4F24720002900F070
:10274000878001210160FFF7E6FC054630688007BD
:1027500005D4FFF7E0FC401B0228F7D976E030688B
:10276000216920F0F80040EAC100306020780007BD
:1027700025D5606988B100200121C4F24720C0F846
:10278000801EFFF7C8FC0546706F800717D4FFF75F
:10279000C2FC401B0228F7D958E000200021C4F2F7
:1027A0004720C0F8801EFFF7B6FC0546706F800713
:1027B00005D5FFF7B0FC401B0228F7D946E020788A
:1027C000400775D5306C4FF00008C0000CD4CDF830
:1027D00004804FF00108306C40F080503064306C61
:1027E00000F080500190019847F20007C4F2000702
:1027F0003868C0050FD4386840F480703860FFF73F
:102800008AFC05463868C00505D4FFF784FC401BE8
:102810000228F7D91AE0A768012F05D0306F052FDD
:1028200027D140F004003067306F40F0010030677E
:10283000FFF771FC054641F2883700BF306F800713
:102840002FD4FFF768FC401BB842F7D9032038E0CB
:1028500000210160FFF75FFC054600BF306880077C
:102860007FF584AFFFF757FC411B03200229F5D900
:1028700027E020F001003067306F20F0040030675F
:10288000FFF749FC0546002FD5D141F28837306F5C
:10289000800706D5FFF73FFC411B0320B942F6D95C
:1028A0000FE0B8F1000F1EBF306C20F08050306494
:1028B000A769002F60D0B06800F00C00082803D191
:1028C000012002B0BDE8F08140F200080020C4F20F
:1028D0004728C8F86000FFF71EFC0546022F09D103
:1028E0003068800128D5FFF716FC411B0320022920
:1028F000F6D9E6E7306880013ED5FFF70CFC411BB6
:1029000003200329F6D3DCE720F480303060306800
:1029100020F480203060FFF7FEFB0546002F7FF497
:10292000E3AE306880037FF5EFAEFFF7F4FB411BA9
:1029300003206429F5D9C4E704F11C078FCF0843AD
:10294000D90340EA82104FF6FF72914340EA0760D4
:10295000A1F58031084370600120C8F86000FFF7DE
:10296000DAFB04463068800106D4FFF7D4FB011B74
:1029700003200229F6D9A4E70020A2E770B5044697
:102980000079012804BF022070BD01202071607908
:10299000012813D102200D466071FFF7BCFB0646EB
:1029A00020684168C9070DD1FFF7B5FB801B0328DC
:1029B000F6D3012002216071A16009E00420A0602B
:1029C000012005E08068E06028600120607100203F
:1029D0000021217170BD10B500F10C042146FFF7F4
:1029E000CDFF00280CBF2068002010BDA0B110B59D
:1029F0000446407920B900202071204600F00EF8EE
:102A0000022060712068016841F00401016001202A
:102A100060710020A06010BD0120704740F60001E9
:102A20000068C5F20601884218BF704781B00020D7
:102A3000009043F63400C4F20200016841F0400106
:102A40000160006800F040000090009801B07047FD
:102A500070B5C8B3002605464FF0000C866290F8AA
:102A6000510030B9284685F8506000F030F8D5F8AC
:102A700028C0022185F8511029680A6822F0400216
:102A80000A60D5E90123D5E903041A4310436A69B2
:102A900020431043AA6902F400731843EB691843FA
:102AA0002B6A184340EA0C000860042000EA124038
:102AB0006A6A10434860C86920F40060C861012058
:102AC0006E6585F8510000E00126304670BD10B5F6
:102AD00086B0044601A81421FDF7AAFB43F20000CA
:102AE0002168C4F20100814226D143F63002002160
:102AF00000F550400091C4F20202536943F4805340
:102B00005361536903F480530093009B0091136851
:102B100043F001031360126802F001020092009A70
:102B2000052205920322CDE9031202210291E02140
:102B3000019101A9FFF710FA06B010BD2DE9F0438D
:102B400081B0044690F85000012801D10220A8E08D
:102B50004FF001091D4616460F4684F85090FFF7C6
:102B6000DAFA804694F85100012857D10120002F4D
:102B700000F09280002E00F08F80032084F8510036
:102B800000206065E686A6862763A087A063C4E967
:102B90001000E087A1682068B1F5004F02BF01680E
:102BA00041F480410160016849065EBF016841F05F
:102BB000400101606268711EE368B1FA81F1B2FA06
:102BC00082F24909B3F5006F4FEA521241EA02015D
:102BD00026D131B137F8021BC1602763E18E01397C
:102BE000E186E18E00293FD06E1C00E020688168FC
:102BF000890707D4FFF78FFA66B1A0EB0800A84257
:102C000008D348E0216B31F8022BC2602163E08ECB
:102C10000138E086E08E0028E8D125E002203BE084
:102C200039B139780173206B01302063E08E0138AF
:102C3000E086E08EC0B16E1C20688168890707D4E9
:102C4000FFF769FA6EB1A0EB0800A84209D322E0B1
:102C5000216B09780173206B01302063E08E01380D
:102C6000E086E08E0028E7D120462946424602F061
:102C7000EDF808B120206065A06838B90020009008
:102C80002068C1680091806800900098606D0028FD
:102C900018BF012000E00320002184F8501084F8C0
:102CA000519001B0BDE8F083411E0020B0EB116FE0
:102CB0001CBF012070474EF21002F023CEF200023A
:102CC00051604EF62351CEF200010B700721906047
:102CD0001160704790F83C300222012B19D010B5DA
:102CE00080F83D200268D2F804E0D2F808C0D1E9AB
:102CF00000342EF07001194351602CF08001214303
:102D000091600022012180F83C2080F83D10BDE850
:102D1000104010467047B0B110B5044690F83D0021
:102D200028B9002084F83C00204600F00EF802206C
:102D3000211D84F83D00206802F0F7F9012084F895
:102D40003D00002010BD0120704782B040F20041DC
:102D50000068C4F20001884212D0B0F1804F1ED149
:102D60000020019043F64000C4F20200016841F0E7
:102D700001010160006800F00100019001980EE07F
:102D80000020009043F64000C4F20200016841F0C8
:102D900002010160006800F002000090009802B09B
:102DA000704790F83C300222012B00F0BF8080B5C4
:102DB00080F83D20012280F83C204FF67772D0F851
:102DC00000C0DCF8083023EA0202CCF808200B68C7
:102DD0003F2B1BDD5F2B1FDD602B4DD0B3F5005F5C
:102DE00069D0702B40F09A80D1E90123C9681A4359
:102DF00042EA0121DCF8082022F47F421143CCF89A
:102E00000810DCF8081041F0770185E01F2B27DC63
:102E100053B3102B28D081E0402B5ED0502B7DD1B6
:102E2000D1F804E0C968DCF82030DCF8202022F07A
:102E30000102CCF82020DCF8182022F0F00242EA4F
:102E40000111CCF8181023F00A0141EA0E01CCF868
:102E50002010DCF8081041F0570121F020015BE060
:102E6000202B01D0302B59D1DCF8081021F0700153
:102E7000194341F007014FE04A68C968DCF8203087
:102E800023F01003CCF82030DCF8183023F4704322
:102E900043EA0131DCF82030CCF8181023F0A0010F
:102EA00041EA0211CCF82010DCF8081041F067016B
:102EB00021F0100130E0D1E90123C9681A4342EA48
:102EC0000121DCF8082022F47F421143CCF80810DD
:102ED000DCF8081041F480411EE0D1F804E0C96834
:102EE000DCF82030DCF8202022F00102CCF8202091
:102EF000DCF8182022F0F00242EA0111CCF8181098
:102F000023F00A0141EA0E01CCF82010DCF8081089
:102F100041F0470121F03001CCF8081000220121D6
:102F200080F83C2080F83D10BDE880401046704796
:102F300010B586B0044601A81421FDF779F940F2D6
:102F400000412068C4F2000188421DD0B0F1804FDA
:102F500039D143F6300100200090C4F202010A6822
:102F600042F001020A60096801F001010091009934
:102F700001210591CDE90300022002900820019073
:102F80000020C4F202001BE043F630010020009054
:102F9000C4F202010A6842F004020A60096801F002
:102FA0000401009100990221CDE90401CDE902104C
:102FB0004FF4E07001900020C4F2020000F50060C0
:102FC00001A9FEF7C9FF06B010BD000070B50D469F
:102FD00090F83C1004460220012908BF70BD84F817
:102FE0003D004FEAB2000126032884F83C6036D841
:102FF000DFE800F0020A12222068294602F024F9D4
:10300000206850F8181F0EE02068294602F04CF99D
:10301000206850F8181F16E02068294602F078F959
:10302000206850F81C1F41F008010160016821F080
:103030000401016029690FE02068294602F09CF92B
:10304000206850F81C1F41F400610160016821F400
:103050008061016029690902026811430160002052
:1030600084F83C0084F83D6070BDB0B110B50446F2
:1030700090F83D0028B9002084F83C00204600F07C
:103080000EF80220211D84F83D00206802F04DF862
:10309000012084F83D00002010BD012070477047DA
:1030A000006801F01F01012202FA01F1026A8A435D
:1030B0000262026A114340F20042016240F4806100
:1030C000C4F20102914202BF416C41F400414164EB
:1030D000816801F0070106291EBF016841F0010166
:1030E00001600020704750B310B5044690F83900D5
:1030F00028B9002084F83800204600F022F8242067
:1031000084F839002068C16821F40051C16020466C
:1031100002F05AF92068016921F490410161416986
:1031200021F02A014161C16841F40051C1600020D1
:103130002021E06384F8391084F83A1010BD012092
:10314000704710B586B0044601A81421FDF770F849
:1031500041F200002168C4F20100814228D143F607
:103160003002002100F570400091C4F20202536960
:1031700043F010035361536903F010030093009B65
:103180000091116841F001011160116801F0010125
:1031900000910099072105910321049101210391D8
:1031A000022102914FF4C061019101A9FEF7D4FE02
:1031B00006B010BD2DE9F041044690F839002028F2
:1031C0000AD10E46012000294AD01746002A47D0CE
:1031D00094F83800012802D10220BDE8F0810020D7
:1031E0001D46E063012084F83800212084F839006E
:1031F000FEF791FF8046E784A7841EE0E08C8021E3
:1032000042462B460138E0842046A76802F03CFA8B
:10321000B7F5805F0CD1D0B9318820686FF35F219A
:1032200041602069002814BF0136023605E000BF66
:1032300068B9206816F8011B4160E08C0028DDD1D8
:103240002046402142462B4602F01EFA10B10320D0
:10325000BDE8F0810020202184F8380084F839107E
:10326000BDE8F081FEE70000F0B581B040F22F30FC
:103270000024C2F20000047040F23630C2F20000B6
:10328000047040F22B30C2F20000047040F238307B
:10329000C2F20000047040F23230C2F2000004704A
:1032A000002000F041F96FF01F000021F022F02310
:1032B0001F3080B20090002000F0A2F83BA0142143
:1032C0004FF6E07200230090FA20FDF77DFD39A053
:1032D00046214FF6E07200230090FA20FDF774FDBE
:1032E00040F649070220C2F20007A7F8800040F22A
:1032F0002D30C2F20000017811B197F8824003E04E
:10330000012187F88240017040F2233040F2455598
:1033100046F6B90601212246C2F20000C2F20005BB
:10332000C0F6000681702846314602F045FA40F2A8
:103330003C3497F883203146C2F20004204602F064
:103340003BFAFA2028214FF6E07200230095FDF7A2
:103350003BFDFA205A214FF6E07200230094FDF75E
:1033600033FD97F88000F8B10020782100EB80024F
:1033700078323A543A18013082F8401097F8802099
:103380009042F3D382B1002449F666653919385D5D
:1033900005220523009591F8401000F00FF897F8EA
:1033A000800001348442F1D301B0F0BD53434F5249
:1033B000453A00004C4556454C3A00002DE9F04393
:1033C00081B005461044B0F5A07F16D8894619444F
:1033D000F02912D8DDF820805F1C002486B200BFDF
:1033E00004EB09003246CDF8008081B228460B4636
:1033F000FDF7F2FE0134A742F2D101B0BDE8F0833F
:103400002DE9F04182B004461044B0F5A07F2AD8DF
:103410005F180D46F02F26D886B2DDF820802046B2
:1034200029462B463246CDF80080FDF7D5FEB9B2CD
:1034300020463246CDF800800B46FDF7CDFE681CD5
:103440002246CDF8008085B2781E87B220462946F4
:103450003B46FDF7C1FE3046294632463B46CDF895
:103460000080FDF7B9FE02B0BDE8F08180B582B002
:10347000FF20102101228DF8070040F60000C4F261
:103480000200FEF743FE3220FEF794F940F62430A6
:103490000DF1070101220323C2F20000FFF74EFBEA
:1034A00002B080BD70B5E8B341F600060C46054693
:1034B000C4F2020630464FF480610022FEF726FE79
:1034C00030464FF400610022FEF720FE30464FF4F4
:1034D00080510022FEF71AFE30464FF400510022C0
:1034E000FEF714FE2046FEF765F930464FF4806182
:1034F0000122FEF70BFE30464FF400610122FEF779
:1035000005FE30464FF480510122FEF7FFFD3046A4
:103510004FF400510122FEF7F9FD2046FEF74AF96B
:10352000013DC7D170BD0000F0B581B00546002057
:10353000002140F23F12EF23002600F02EF92C0A62
:10354000EDB200BFF02700BF204600F06BF928461F
:1035500000F068F9013FF7D10136B6F5A07F04BF4E
:1035600001B0F0BDEEE780B5FFF780FF00F0FEF898
:10357000CB2000F07BF9392000F054F92C2000F02A
:1035800051F9002000F04EF9342000F04BF90220F0
:1035900000F048F9CF2000F069F9002000F042F96E
:1035A000C12000F03FF9302000F03CF9E82000F0A5
:1035B0005DF9852000F036F9002000F033F978201D
:1035C00000F030F9EA2000F051F9002000F02AF96B
:1035D000002000F027F9ED2000F048F9642000F009
:1035E00021F9032000F01EF9122000F01BF98120C0
:1035F00000F018F9F72000F039F9202000F012F956
:10360000C02000F033F9232000F00CF9C12000F0B5
:103610002DF9102000F006F9C52000F027F93E2012
:1036200000F000F9282000F0FDF8C72000F01EF996
:10363000862000F0F7F8362000F018F9E82000F0B6
:10364000F1F83A2000F012F9552000F0EBF8B12023
:1036500000F00CF9002000F0E5F8182000F0E2F886
:10366000B62000F003F9082000F0DCF8822000F01A
:10367000D9F8272000F0D6F8F22000F0F7F8002063
:1036800000F0D0F8262000F0F1F8012000F0CAF890
:10369000E02000F0EBF80F2000F0C4F8312000F03B
:1036A000C1F82B2000F0BEF80C2000F0BBF80E2073
:1036B00000F0B8F8082000F0B5F84E2000F0B2F89D
:1036C000F12000F0AFF8372000F0ACF8072000F050
:1036D000A9F8102000F0A6F8032000F0A3F80E20AF
:1036E00000F0A0F8092000F09DF8002000F09AF802
:1036F000E12000F0BBF8002000F094F80E2000F06C
:1037000091F8142000F08EF8032000F08BF81120BF
:1037100000F088F8072000F085F8312000F082F8EA
:10372000C12000F07FF8482000F07CF8082000F06D
:1037300079F80F2000F076F80C2000F073F83120B3
:1037400000F070F8362000F06DF80F2000F06AF8F5
:10375000112000F08BF87820FEF72CF8292000F0DB
:1037600085F82C20BDE8804000F080B810B540F608
:10377000000410210022C4F202042046FEF7C6FC19
:103780006420FEF717F8204610210122FEF7BEFC48
:103790003220BDE81040FEF70DB8F0B581B0074605
:1037A0002A201C4616460D4600F060F8380A00F044
:1037B00039F8F8B200F036F8300A00F033F8F0B219
:1037C00000F030F82B2000F051F8280A00F02AF819
:1037D000E8B200F027F8200A00F024F8E0B200F088
:1037E00021F82C2001B0BDE8F04000F03FB8B0B5A2
:1037F00005462A200C4600F039F8280A00F012F895
:10380000E8B200F00FF82B2000F030F8200A00F0AA
:1038100009F8E0B200F006F82C20BDE8B04000F056
:1038200025B80000B0B540F600040546202100226E
:10383000C4F202042046FEF769FCA4F500601021E2
:103840000122FEF763FC40F62430C2F2000000685B
:1038500081688907FCD5C56081688907FCD5204649
:1038600020210122BDE8B040FEF750BCB0B540F6C3
:103870000004054620210022C4F202042046FEF77F
:1038800045FCA4F5006010210022FEF73FFC40F645
:103890002430C2F20000006881688907FCD5C56049
:1038A00081688907FCD5204620210122BDE8B0406F
:1038B000FEF72CBC80B540F2004002210122C4F288
:1038C0000200FEF723FC3220BDE88040FDF772BF06
:1038D00080B540F2004004210122C4F20200FEF74C
:1038E00015FC3220BDE88040FDF764BF80B540F292
:1038F000004002210022C4F20200FEF707FC322041
:10390000BDE88040FDF756BF80B540F2004004217D
:103910000022C4F20200FEF7F9FB3220BDE880402D
:10392000FDF748BFB0B5044640F23930C2F200009E
:10393000007850B940F67C35C2F200052846FFF702
:1039400094FB28460C21FFF7ABFB40F67C3004EBE0
:103950008401C2F20000490000680164B0BD0000AB
:103960002DE9F041002852D041F6000714460D46DB
:1039700080460026C4F2020738464FF480610022D8
:10398000FEF7C4FB2846FDF715FF38464FF480616B
:103990000122FEF7BBFB2046FDF70CFF38464FF433
:1039A00000610022FEF7B2FB2846FDF703FF384610
:1039B0004FF400610122FEF7A9FB2046FDF7FAFE55
:1039C00038464FF480510022FEF7A0FB2846FDF751
:1039D000F1FE38464FF480510122FEF797FB204656
:1039E000FDF7E8FE38464FF400510022FEF78EFB4B
:1039F0002846FDF7DFFE38464FF400510122FEF75E
:103A000085FB2046FDF7D6FE01364645B4D3BDE81A
:103A1000F08110B540F23C54C2F200042078012835
:103A20000DD140F22630C2F200000078C0B940F259
:103A30000400C2F20000007800F01AFB207878B988
:103A400040F22630C2F200000078012808D140F28E
:103A50000400C2F200000078BDE81040FDF7C6B8CF
:103A600010BDB0B584B040F6E81042F20002012368
:103A7000002401254FF48031C2F20000C4F201029B
:103A8000C0F60073C46280F820400576836280F837
:103A90003040C561C0E90021C0E90244C0E90445E5
:103AA000CDE90244CDE90044FDF78DFC08B1FDF7F6
:103AB0006BF840F6E81069460294CDE90055C2F271
:103AC0000000FDF7F9FB08B1FDF75EF804B0B0BDEA
:103AD000B0B584B040F6302042F200120123002439
:103AE00001254FF48031C2F20000C4F20102C0F699
:103AF0000073C46280F820400576836280F830400D
:103B0000C561C0E90021C0E90244C0E90445CDE92E
:103B10000244CDE90044FDF756FC08B1FDF734F846
:103B20000220CDE901546946009040F63020C2F2EF
:103B30000000FDF7C1FB08B1FDF726F804B0B0BDE9
:103B4000B0B584B040F6782042F200220123002470
:103B500001254FF48031C2F20000C4F20102C0F628
:103B60000073C46280F820400576836280F830409C
:103B7000C561C0E90021C0E90244C0E90445CDE9BE
:103B80000244CDE90044FDF71EFC08B1FCF7FCFF40
:103B90000D20CDE901546946009040F67820C2F22C
:103BA0000000FDF789FB08B1FCF7EEFF04B0B0BDE3
:103BB0002DE9F04F87B043F63000002600250022A3
:103BC000CDE905660196C4F20200C4F2020501685F
:103BD00041F020010160016801F02001019101998B
:103BE0000196016841F080010160016801F08001E7
:103BF000019101990196016841F004010160016899
:103C000001F00401019101990196016841F001015F
:103C10000160016801F001010191019901960168BB
:103C200041F002010160016801F002010191019976
:103C30000196016841F008010160016801F0080186
:103C4000019101990196016841F040010160102144
:103C5000006800F04000019001982846FEF756FAEF
:103C600005F50068302100224FF0300B4046FEF78A
:103C70004DFA05F5806A0721012201245046FEF71E
:103C800045FA05F5C0594FF4F84101224846FEF7C0
:103C90003DFA022002AF0290002004943946C1F29E
:103CA0001100039005F5A050FEF756F9102002A967
:103CB000059651C128463946FEF74EF903A8CDF8BE
:103CC00008B04FF0030B394680E850084046FEF735
:103CD00043F950463946CDE9046BCDE90244FEF77D
:103CE0003BF906200596CDE9034639460290504639
:103CF000FEF732F900254FF4C05039460290404695
:103D0000C1F2110504940395FEF726F935203946D2
:103D100002900020CDE90354C4F2020000F5406097
:103D2000FEF71AF94FF4705002A9059651C14846A2
:103D30003946FEF711F91120394603904FF48040BF
:103D400002904846CDE90466FEF706F90820CDE961
:103D50000354394602905046FEF7FEF80620002133
:103D60000022FEF754FB0620FEF742FB072000214D
:103D70000022FEF74CFB0720FEF73AFB082000214B
:103D80000022FEF744FB0820FEF732FB0920002149
:103D90000022FEF73CFB0920FEF72AFB0A20002147
:103DA0000022FEF734FB0A20FEF722FB1720002139
:103DB0000022FEF72CFB1720FEF71AFB282000211B
:103DC0000022FEF724FB2820FEF712FB07B0BDE817
:103DD000F08F80B540F6C02048F2A06345F2004164
:103DE0004FF4804C0022C2F20000C0F20103C4F282
:103DF00000010262C0E90013C0E90222C0E904C266
:103E0000C0E90622FEF78DF9002814BFBDE8804006
:103E100080BDFCF7B9BE80B540F6143040F6000115
:103E2000C2F20000C5F206010160FEF7DFFD0028C6
:103E300014BFBDE8804080BDFCF7A6BE10B540F6BB
:103E4000243043F200044FF482724FF4007C4FF0B0
:103E5000010E02230021C2F20000C4F20104C0E9F5
:103E600000420A22C0E90211C0E9043EC0E906C1CD
:103E7000C0E90811C0E90A12FEF7EAFD002814BFE4
:103E8000BDE8104010BDFCF77FBE10B58EB0002419
:103E900001A81C21CDE90C44CDE90A44CDE9084430
:103EA000FCF7C6F940F67C3040F2E73153224FF080
:103EB0008043C2F200008461C0E90032C0E90241DF
:103EC0000461FEF728FF08B1FCF75EFE4FF4805056
:103ED0000AA90A9040F67C30C2F20000FEF761FFAA
:103EE00008B1FCF751FE40F67C30C2F20000FFF74B
:103EF000BCF808B1FCF748FE40F67C30002408A965
:103F0000C2F20000CDE90844FEF7E4FE08B1FCF778
:103F10003BFE60200594CDE9024401A90C220190EA
:103F200040F67C30C2F20000FFF750F808B1FCF711
:103F30002BFE40F67C30C2F20000FEF7F9FF0EB017
:103F400010BD10B58EB0002401A81C21CDE90C4491
:103F5000CDE90A44CDE90844FCF76AF940F6BC30E3
:103F600040F2004340F2E7315322C2F20000C4F2B3
:103F700000038461C0E90032C0E902410461FEF738
:103F8000CAFE08B1FCF700FE4FF480500AA90A905F
:103F900040F6BC30C2F20000FEF703FF08B1FCF7A8
:103FA000F3FD40F6BC30C2F20000FFF75EF808B146
:103FB000FCF7EAFD40F6BC30002408A9C2F200007C
:103FC000CDE90844FEF786FE08B1FCF7DDFD4FF4AD
:103FD000FA700594039401A90022029060200190D8
:103FE00040F6BC30C2F20000FEF7F0FF08B1FCF76B
:103FF000CBFD40F6BC3001A90422C2F20000FEF75E
:10400000E5FF08B1FCF7C0FD40F6BC3001A908226D
:10401000C2F20000FEF7DAFF08B1FCF7B5FD40F68A
:10402000BC30C2F20000FEF783FF0EB010BD80B5B9
:1040300040F6FC3041F2000200214FF00C0C4FF42E
:10404000E133C2F20000C4F20102C0E90023C0E97A
:104050000211C0E9041CC0E90611FFF744F800286A
:1040600014BFBDE8804080BDFCF78EBDFEE70000B8
:1040700070B582B040F23E5604464FF6FE75C2F26D
:1040800000063078D8B940F2FF50FFF74DFAAFA0E4
:1040900008214FF6FE7240F2FF5300906E20FCF7AD
:1040A00067FFA5F5AF701E214FF496721E2380B2F4
:1040B00000901420FDF790F8307801303070032C18
:1040C0006BD0022C00F0CF80012C40F03C8140F2FC
:1040D0003D54C2F20004207848BB46F63D00322130
:1040E00040F2FF5240F2FF53C0F60000009014204F
:1040F000FCF73EFF46F659005A2140F2FF5240F2CB
:10410000FF53C0F6000000901420FCF731FF46F684
:104110002100822140F2FF5240F2FF53C0F600001E
:1041200000901420FCF724FF20780130207046F620
:104130003D0032214FF6FE7240F2FF53C0F6000000
:1041400000901420FCF714FF46F6A0005A214FF609
:10415000FE7240F2FF53C0F6000000901420FCF7FE
:1041600007FF46F67D0082214FF6FE7240F2FF53B4
:10417000C0F6000000901420FCF7FAFE46F6750029
:10418000DC214FF6FE7240F2FF53C0F600000090B3
:10419000E120FCF719FE0120CAE040F23D54C2F2D2
:1041A0000004207848BB46F63D00322140F2FF5221
:1041B00040F2FF53C0F6000000901420FCF7D8FE38
:1041C00046F659005A2140F2FF5240F2FF53C0F622
:1041D000000000901420FCF7CBFE46F6210082215F
:1041E00040F2FF5240F2FF53C0F60000009014204E
:1041F000FCF7BEFE20780130207046F68A0032219E
:104200004FF6FE7240F2FF53C0F6000000901420FB
:10421000FCF7AEFE46F6A0005A214FF6FE7240F2C1
:10422000FF53C0F6000000901420FCF7A1FE46F6F4
:10423000210082214FF6FE7240F2FF53C0F60000CB
:1042400000901420FCF794FE46F67500DC214FF632
:10425000FE7240F2FF53C0F600000090E120FCF730
:10426000B3FD032064E040F23D54C2F20004207824
:1042700048BB46F63D00322140F2FF5240F2FF5368
:10428000C0F6000000901420FCF772FE46F65900BC
:104290005A2140F2FF5240F2FF53C0F60000009056
:1042A0001420FCF765FE46F62100822140F2FF5201
:1042B00040F2FF53C0F6000000901420FCF758FEB7
:1042C00020780130207046F68A0032214FF6FE72C7
:1042D00040F2FF53C0F6000000901420FCF748FEA7
:1042E00046F659005A214FF6FE7240F2FF53C0F6CF
:1042F000000000901420FCF73BFE46F67D00822172
:104300004FF6FE7240F2FF53C0F6000000901420FA
:10431000FCF72EFE46F67500DC214FF6FE7240F2E9
:10432000FF53C0F600000090E120FCF74DFD022095
:104330000090A5F5AF70C82140F2FF5382B24FF450
:104340008C70FCF7FDFE02B070BD00BF2D48616EA1
:104350006448654C64436F6E2D000000000000004F
:1043600010B540F6E814C2F200042046FDF7AAF9A1
:1043700040F63020C2F20000FDF7A4F940F67820A4
:10438000C2F20000FDF79EF92046FF21FDF742F939
:1043900008BB40F6E810C2F20000FDF711F8044631
:1043A000FBF7F9FF9FED380B53EC102BFBF74BFF9E
:1043B0009FED370B53EC102BFBF745FF40F6D01267
:1043C00041EC100B40F64040C2F20002C2F2000085
:1043D000146080ED000B40F63020FF21C2F2000097
:1043E000FDF718F908BB40F63020C2F20000FCF7D8
:1043F000E7FF0446FBF7CFFF9FED230B53EC102B99
:10440000FBF721FF9FED220B53EC102BFBF71BFF5B
:1044100040F6D41241EC100B40F64840C2F20002C4
:10442000C2F20000146080ED000B40F67820FF21FE
:10443000C2F20000FDF7EEF800B110BD40F67820A2
:10444000C2F20000FCF7BCFF0446FBF7A4FF9FED9F
:104450000E0B53EC102BFBF7F6FE9FED0D0B53EC00
:10446000102BFBF7F0FE40F6D81241EC100B40F693
:10447000E010C2F20002C2F20000146080ED000BF6
:1044800010BD00BF00BF00BF6666666666660A4074
:10449000000000000000303F704700002DE9F04FA1
:1044A00081B040F205004BF6BA244FF6BD75C2F25A
:1044B00000000078013803285BD8DFE800F0020E26
:1044C000213B05F123001E210822082380B2009021
:1044D0003220FEF773FF00940AE032201E210822EA
:1044E00008230094FEF76AFF05F1230080B20090D4
:1044F00080201E2108220823FEF760FF009411E0AF
:1045000032201E21082208230094FEF757FF802046
:104510001E21082208230094FEF750FF05F1230016
:1045200080B20090C1201E2108220823FEF746FF1A
:10453000009418E032201E21082208230094FEF780
:104540003DFF80201E21082208230094FEF736FF3D
:10455000C1201E21082208230094FEF72FFF05F139
:10456000230080B20090F8201E2108220823FEF7C5
:1045700025FF40F21918C2F2000898F800000A2836
:104580000DD1012078214FF6BD724BF6BA23009071
:104590001920FCF7D5FD00200090372001E00090A5
:1045A000282078214FF6BD724BF6BA23FCF7C8FDE0
:1045B00040F22019C2F2000999F800000A280DD132
:1045C000012078214FF478424BF6BA2300906920FD
:1045D000FCF7B6FD00200090872001E000907820D5
:1045E00078214FF478424BF6BA23FCF7A9FD40F24C
:1045F0001E1AC2F2000A9AF800000A280DD1012002
:1046000078214FF4FC624BF6BA230090A520FCF70A
:1046100097FD00200090C32001E00090B420782195
:104620004FF4FC624BF6BA23FCF78AFD40F21D17EB
:10463000C2F2000738780A280CD1012078211F2205
:104640004BF6BA230090E120FCF77AFD00200090A1
:10465000FF2001E00090F02078211F224BF6BA23C2
:10466000FCF76EFD98F80000FFF75CF93A789AF8CD
:10467000001099F80000FCF788FA40F21F1BC2F204
:10468000000B9BF800000A2817D198F800000A28B0
:1046900013D0012078214BF6BA224BF6BA230090B2
:1046A0001920FCF74DFD002078214BF6BA224BF67D
:1046B000BA2300903720FCF743FD40F21C15C2F2EC
:1046C000000528780A2817D199F800000A2813D085
:1046D000012078214BF6BA224BF6BA2300906920CC
:1046E000FCF72EFD002078214BF6BA224BF6BA23B8
:1046F00000908720FCF724FD40F21B16C2F2000652
:1047000030780A2817D19AF800000A2813D001201F
:1047100078214BF6BA224BF6BA230090A520FCF77D
:104720000FFD002078214BF6BA224BF6BA230090F9
:10473000C320FCF705FD40F21A143878C2F20004D9
:1047400021780A2916D10A2814D0012078214BF6A5
:10475000BA224BF6BA230090E120FCF7F1FC0020CE
:1047600078214BF6BA224BF6BA230090FF20FCF7D3
:10477000E7FC3878207098F800008BF8000099F872
:10478000000028709AF80000307001B0BDE8F08F8A
:10479000704700002DE9F04F81B040F2181640F24A
:1047A0003A3840F237350020C2F20006C2F2000863
:1047B000C2F20005307088F80000287828B140F275
:1047C00038300121C2F20000017040F22A39C2F2F1
:1047D000000999F8000028B140F22B300121C2F203
:1047E0000000017040F22E3AC2F2000A9AF800006E
:1047F00028B140F22F300121C2F20000017040F2D6
:10480000353BC2F2000B9BF8000028B140F2363075
:104810000121C2F20000017000F08FFB40F6490751
:10482000C2F2000797F880000138395C0539E129A8
:1048300005D8384490F840000538E22870D30120AC
:1048400087F88100307838B901203221E822FBF75F
:10485000B1FF307801303070FBF7D0FF97F881005E
:10486000002840F0838140F2383140F23230C2F209
:104870000001C2F2000009780078012901D1022864
:1048800005D101285BD199F80010012957D138785A
:1048900097F840100022052300920522FEF78EFDB6
:1048A00097F880004446411E01290FDB002307F1E1
:1048B00040020026581C0136395CF954105CD05473
:1048C000F3B297F88000411E9942F3DC384410F8A7
:1048D000020C785497F88000384490F83E1005395F
:1048E00080F83F1097F8800088B100264FF4784890
:1048F000B919B85D0522052391F84010CDF8008064
:10490000FEF75CFD97F8800001368642F0D399F8F7
:10491000000058B140F23230C2F2000000780BE0E3
:1049200097F8810001283FF48DAF99E740F23231CA
:104930000120C2F200010870A0460021297040F257
:104940002B31C2F200010978012901D1012804D1DB
:10495000022852D1297801294FD1387897F8401090
:104960000022052300920522FEF728FD97F880001B
:10497000411E012910DB002307F14002002600BF81
:10498000581C0136395CF954105CD054F3B297F8D6
:104990008000411E9942F3DC384410F8020C785430
:1049A00097F88000384490F83E10053180F83F10A9
:1049B00097F8800080B100264FF47844B919B85DAB
:1049C0000522052391F840100094FEF7F7FC97F8B4
:1049D000800001368642F1D3287828B140F2323087
:1049E000C2F20000007805E040F232310220C2F24B
:1049F00000010870002189F8001040F22F31C2F246
:104A000000010978012901D1042805D1032853D1D7
:104A10009BF8001001294FD1387897F840100022F8
:104A2000052300920522FEF7C9FC97F88010481E66
:104A300001280FDB002307F140020026581C013635
:104A4000395CF954105CD054F3B297F88010481ECA
:104A50009842F3DC394411F8021C0539395497F8AF
:104A60008000384490F83E1080F83F1097F880009E
:104A700080B100244FF478453919385D05220523AB
:104A800091F840100095FEF799FC97F880000134EA
:104A90008442F1D39BF8000028B140F23230C2F2D8
:104AA0000000007805E040F232310320C2F200013C
:104AB000087000218AF8001040F23631C2F200017D
:104AC0000978012901D1032805D104284ED19AF88B
:104AD000000001284AD1387897F8401000220523B9
:104AE00000920522FEF76AFC97F88010481E012804
:104AF00010DB002307F14002002600BF581C0136DE
:104B0000395CF954105CD054F3B297F88010481E09
:104B10009842F3DC394411F8021C0531395497F8F6
:104B20008000384490F83E1080F83F1097F88000DD
:104B300080B100244FF478453919385D05220523EA
:104B400091F840100095FEF739FC97F88000013489
:104B50008442F1D39AF8000028B940F2323104209F
:104B6000C2F20001087000208BF8000097F8800066
:104B700004281AD339780023012200BF1E463B4483
:104B8000DD788D4207D193F8433097F84050AB421F
:104B900008BF87F88120731C04368642EED3402874
:104BA00003D1FBF7BBFE97F8800040F2233B0138AE
:104BB000C2F2000B395C9BF80020914240F08380E8
:104BC00038449BF8011090F8400088427BD198F857
:104BD000000048B9022032211E22FEF7C1FE98F8DB
:104BE0000000013088F8000040F2455846F6B9044C
:104BF00097F88220C2F20008C0F600044046214621
:104C000000F0DAFDFA20282100220023CDF80080F0
:104C10004FF00009FCF7D8F840F23C3697F88320B3
:104C20002146C2F20006304600F0C6FDFA205A21A5
:104C3000002200230096FCF7C7F89BF800009BF8C1
:104C4000011005220523CDF80090FEF7B7FB97F879
:104C500080009BF80010013087F8800057FA80F040
:104C600000F8011C9BF8011097F88000384480F888
:104C70003F1097F8820097F8831001310A3087F8C7
:104C8000831087F88200C2B24046214600F094FDAE
:104C900097F883203046214600F08EFDFA20282127
:104CA0004FF6E0720023CDF80080FCF78DF8FA2073
:104CB0005A214FF6E07200230096FCF785F8012098
:104CC0008BF8020006E09BF80200002856D001286D
:104CD00040F0AD8040F614344AF6AB264CF6CD4891
:104CE000C2F20004CAF6AA26CCF6CC482046FDF74C
:104CF00072FE002800D54042A0FB0612510901EBCC
:104D00004101A0EB011000EB8000C1B2A1FB082320
:104D10009A0802EB8202891A042908BF01308BF835
:104D200000002046FDF757FE002800D54042A0FBBA
:104D30000612510901EB4101A0EB011000EB8000CC
:104D40008BF8010097F88000A8B19BF80030002292
:104D5000002100BFBD5CAB4204D1BD1895F84050A6
:104D6000AB4205D0013201318242F3D301E000BFF2
:104D7000D1B28142BAD100208BF8020097F88100AD
:104D8000002854D140F61439C2F200094846FDF714
:104D900022FE002800D5404248F21F56642440F607
:104DA0004808C5F2EB16C2F20008A0FB0612510932
:104DB00001FB14006A3888F800004846FDF70BFE36
:104DC000002800D54042A0FB061240F6470A5109D0
:104DD000C2F2000A01FB14006A388AF80000484653
:104DE000FDF7F9FD002800D54042A0FB061205237F
:104DF000510901FB140040F646016A38C2F2000175
:104E0000087098F80010C0B201F0F801090241EAF8
:104E1000D0009AF8001001F0FC0140EAC1029BF8B2
:104E200000009BF8011000920522FEF7C7FA97F8E0
:104E300083004FF47A7100EB8000404201EB800068
:104E400001B0BDE8F04FFCF7B5BC000010B582B072
:104E5000044640F2080013460A4649F68171C2F240
:104E60000000C1F25E610068A0FB0101480D4FF433
:104E70007A71484301906068B0F5827F0AD120467C
:104E8000802100F013F870B1606D40F02000606583
:104E9000032009E0019830B10198013801902068A1
:104EA00080680006F6D4002002B010BD2DE9F04164
:104EB000804600680F4681683940B9420ED11D46D0
:104EC0001646541C34B1FDF726F9411BD8F80000F2
:104ED000B14206D281683940B942F3D00020BDE822
:104EE000F081416821F0E0014160D8F80410B1F58B
:104EF000827F0BD1D8F80810B1F5004F02D0B1F580
:104F0000806F03D1016821F040010160D8F82810BA
:104F1000B1F5005F07D1016821F40051016001681B
:104F200041F400510160002088F85000012088F809
:104F300051000320BDE8F08170472DE9F04381B0B6
:104F400040F24668FA20B42100220023C2F2000891
:104F5000CDF80080FBF738FF40F246794FF49170AE
:104F6000B42100220023C2F20009CDF80090FBF723
:104F70002BFF40F22316FA20DC2100220023C2F28C
:104F800000060096FBF720FF40F223274FF49170B4
:104F9000DC2100220023C2F200070097FBF714FF78
:104FA00040F6490546F6B904C2F20005C0F6000411
:104FB00095F880002146284410F8012C404600F066
:104FC000FBFB95F880002146284490F83F20484696
:104FD00000F0F2FB40F2233530462146C2F20005D4
:104FE0002A7800F0E9FB6A783846214600F0E4FBB5
:104FF000FA20B4214FF6FF720023CDF80080FBF7B2
:10500000E3FE4FF49170B4214FF6FF720023CDF808
:105010000090FBF7D9FEFA20DC214FF6FF72002347
:105020000096FBF7D1FE4FF49170DC214FF6FF7232
:1050300000230097FBF7C8FE01B0BDE8F083FDF741
:105040006DB9B0B592B043F6400000240225CDE919
:105050000A44CDE908440194C4F20200016841F019
:1050600080510160006800F0805001900198019427
:1050700047F20000C4F20000016841F48041016081
:10508000006800F4804001900198072011904FF4CF
:10509000A87010950F9019200E904FF48000CDE964
:1050A0000C504FF4A02007900120069006A8FDF7B1
:1050B000EDFA4FF48050052105904FF4A050049074
:1050C0000F20CDE90254019001A8FDF7DFF912B0DD
:1050D000B0BD4EF608504FF0000CCEF20000D0F8F4
:1050E000801041F47001C0F8801043F60001C4F252
:1050F00002010A6842F001020A60C1F808C04FF6D6
:10510000FF720B68CFF6F6621A400A6043F2100293
:10511000C2F200424A600A6822F480220A60C1F8A2
:105120000CC04FF000610160704740F6FF3C026820
:10513000C4F2000C60450DDCB0F1804F1BD040F292
:105140000043C4F20003984215D040F60003C4F2B5
:1051500000030EE040F60043C4F2000398420AD078
:1051600040F20043C4F20103984204D00023C4F289
:105170000103984203D14B6822F070021A4341F6B2
:10518000FF73C4F2000398420DDC60451FDCB0F1F0
:10519000804F3FD040F20043C4F20003984239D020
:1051A00040F6000321E043F6FF73C4F20103984286
:1051B0001EDC42F20003C4F2000398422AD000230E
:1051C000C4F20103984225D040F200431EE040F6AD
:1051D0000043C4F2000398421CD041F60003C4F21D
:1051E0000003984216D041F60043C4F200030FE0DA
:1051F00044F20003C4F2010398420BD044F60003CA
:10520000C4F20103984205D044F20043C4F2010302
:10521000984203D1CB6822F440721A434B6922F0C2
:1052200080021A4340F200430260C4F201038A681C
:10523000C2620A68826240F480629A4204BF0969CD
:10524000016301214161704770B5026A22F00102D9
:105250000262036AD0F804E082698C68D1F800C069
:1052600023F0020322F07302234340F200444CEA8D
:10527000020C40F48062C4F20104A2420CD1CE6858
:10528000D1E905452EF44072224342EA050E23F08F
:105290000C0226F004031343C0F804E0C0F818C061
:1052A00049684163036270BD70B5026A22F0100262
:1052B0000262026AD0F804E083698C68D1F800C009
:1052C00022F0200223F4E64342EA041240F20044B2
:1052D00043EA0C2C40F48063C4F20104A3420FD1D2
:1052E000CE68D1E905452EF4406322F0C00243EABE
:1052F000840343EA850E6FF0400303EA06131A4362
:10530000C0F804E0C0F818C049688163026270BD4B
:1053100070B5026A22F480720262026AD0F804E078
:10532000C3698C68D1F800C022F4007223F07303C3
:1053300042EA042240F200444CEA030C40F4806349
:10534000C4F20104A3420FD1CE68D1E905452EF481
:10535000405322F4406243EA041340F2FF4443EA1C
:10536000051E3302A3431A43C0F804E0C0F81CC072
:105370004968C163026270BDB0B5026A22F480520E
:105380000262D0F820C04368D0F81CE08A680D683B
:105390002CF4005444EA023C2EF4E64240F200446D
:1053A00042EA052240F48065C4F20104A54202BF2E
:1053B0004D6923F4804343EA85134360C261496821
:1053C0000164C0F820C0B0BD2DE9F04381B00446AF
:1053D000006849F20C650169E26821F4405111430B
:1053E0000161A168D4E90423E769C6681143AE43AB
:1053F000B7F5004F41EA030141EA070141EA06011E
:10540000C1604169A26921F4407141EA0201416130
:1054100041F2004140F48060C4F2010145D188426C
:1054200040F08880FDF7EAF8D4F804808146FDF763
:10543000E5F865680646FDF7E1F8616819277843E5
:105440004900B0FBF1F048F21F51C5F2EB11A0FB8F
:1054500001235A09642302FB130206FB07F36E00C3
:10546000B3FBF6F3181A4FEA48031044322202EB5A
:10547000C000A0FB01024FF4F87000EA121009FB13
:1054800007F2B2FBF3F2A2FB01126FF00F0101EA87
:10549000520100EB0108FDF7B1F86168784349005B
:1054A000B0FBF1F6FDF7AAF886E0884240F08A806A
:1054B000FDF7A4F8D4F804808146FDF79FF86568ED
:1054C0000646FDF79BF86168192778438900B0FB11
:1054D000F1F048F21F51C5F2EB11A0FB01235A096C
:1054E000642302FB130206FB07F3AE00B3FBF6F3E3
:1054F000181A4FEA88031044322202EB0010A0FB76
:105500000102F02000EA521009FB07F2B2FBF3F2AD
:10551000A2FB01126FF00F0101EA520100EB01083A
:10552000FDF76CF8616878438900B0FBF1F6FDF790
:1055300065F888E0FDF74FF8D4F804808146FDF760
:105540004AF865680646FDF746F86168192778430A
:105550004900B0FBF1F048F21F51C5F2EB11A0FB7E
:1055600001235A09642302FB130206FB07F36E00B2
:10557000B3FBF6F3181A4FEA48031044322202EB49
:10558000C000A0FB01024FF4F87000EA121009FB02
:1055900007F2B2FBF3F2A2FB01126FF00F0101EA76
:1055A000520100EB0108FDF716F8616878434900E5
:1055B000B0FBF1F6FDF70FF861687843072203238B
:1055C000490045E0FDF707F8D4F804808146FDF76F
:1055D00002F865680646FCF7FEFF61681927784304
:1055E0008900B0FBF1F048F21F51C5F2EB11A0FBAE
:1055F00001235A09642302FB130206FB07F3AE00E2
:10560000B3FBF6F3181A4FEA88031044322202EB78
:105610000010A0FB0102F02000EA521009FB07F283
:10562000B2FBF3F2A2FB01126FF00F0101EA52018B
:1056300000EB0108FCF7CFFF616878438900B0FBFD
:10564000F1F6FCF7C8FF616878430F220423890054
:10565000B0FBF1F0311A48F21F57C5F2EB17A0FB6F
:1056600007656E09642506FB150008449840323032
:10567000A0FB070102EA5110216840EA0800886097
:1056800001B0BDE8F08300002DE9F0410446006858
:105690000F4601683940B9420FD01D4690465E1C46
:1056A0003EB16DB1FCF737FDA0EB08012068A942BF
:1056B00006D801683940B942F2D10020BDE8F08136
:1056C000C16821F4D071C160416921F001014161DB
:1056D0002020002184F8390084F8381084F83A003A
:1056E0000320BDE8F0810000FEE7000040F23B30FF
:1056F000012140F2456511A4C2F20000C2F200058A
:10570000017040F23C50C2F200000170FEF781F9D6
:1057100028780028FAD16420FCF74CF803203221C5
:105720003222FBF747F802201E21FDF7BBFE204680
:1057300000F0C4FC287801302870E7E748656C6CFD
:105740006F2048756D616E210D000000704710B527
:1057500082B004468DF8070040F6FC300DF10701D9
:1057600001220A23C2F20000FDF724FD204602B008
:1057700010BD0000FCF7DFFDFFF763FCFEF718FA31
:10578000FEF75CFBFEF747FBFEF76BF9FEF7A0F9AF
:10579000FEF71FFBFEF779FBFEF7D3FBFEF747FC96
:1057A000FEF7CEF9FDF7DFFE4FF6FF70FDF7BCFE0A
:1057B000FFF79CFFFCE700000FB4084B10B504A9ED
:1057C00002AA039800F0DEF8044602A9002000F0C7
:1057D00070FC204610BC5DF814FB0000B3600008AC
:1057E00002E008C8121F08C1002AFAD170477047AA
:1057F000002001E001C1121F002AFBD17047000008
:105800002DE9FF5F82B00021DDE90430020DDDF8F3
:1058100040B0034318D044F61050A2F2FF32424386
:105820001514119801281FD0A5EB0B00401C5FEA4E
:10583000000A4FF000064E4FDFF83891B046504650
:1058400015D5CAF1000413E0119801244AA30128D8
:1058500001D16FEA0B010298119AC0E90031C0E949
:10586000024206B0BDE8F09FCBF10000DFE704463E
:105870000021404A491842EB0450CDE9001012E0E3
:10588000E00707D032463B4640464946FAF7DBFC84
:105890008046894632463B4610461946FAF7D3FC05
:1058A00006460F466410002CEAD1DDE90401DDE96B
:1058B0000023BAF1000F06DAFAF7C5FC42464B4660
:1058C000FAF7C1FC05E0FAF7B0FE42464B46FAF79C
:1058D000ACFE04460E460022284BFAF72DFF03D8F3
:1058E0004FF0FF30014607E00022254B20463146AD
:1058F000FAF7F4FDFAF708FF102409E0002C0ADBA0
:105900000A220023FAF75CFC039B30321A55641E0E
:1059100050EA0102F2D1641C039AC4F11103144449
:10592000119A012A03D0012208430DD10AE008434D
:1059300004D000204FF0110B119072E7A3EB0B0580
:105940006D1E0DE05B4504DD4FF0000205F1010521
:1059500004E003DA4FF00002A5F10105002AECD0C3
:1059600002981199C0E90231C0E9004579E70000C9
:10597000000014400000F03F300000000000F04341
:105980000000E03F2DE9FF4F95B09B468946064653
:1059900000250FE2252877D100242746F84A012167
:1059A000059400E0044316F8013F203B01FA03F0A0
:1059B0001042F7D130782A2811D06FF02F033078B9
:1059C000A0F13002092A16D8059A44F0020402EB2D
:1059D000820203EB42021044761C0590EFE759F86F
:1059E000042B0592002A03DA504244F40054059037
:1059F00044F00204761C30782E2816D116F8010FD8
:105A000044F004042A280DD06FF02F023078A0F162
:105A10003003092B09D807EB870302EB4303C718B0
:105A2000761CF3E759F8047B761C30786C280FD08D
:105A300006DC4C2817D068280DD06A2814D104E061
:105A4000742810D07A280FD10DE044F400140AE035
:105A500044F4801401E044F440147278824202D18C
:105A600004F58014761C761C307866280BD013DC85
:105A7000582877D009DC002875D04528F6D046286C
:105A8000F4D047281AD19DE118E0632835D0642866
:105A900079D0652812D195E1702873D008DC672889
:105AA000F1D069286FD06E280DD06F2806D1B5E0EF
:105AB00073282CD0752875D0782874D05A46179939
:105AC00090476D1C75E1C4F30250022809D00328E9
:105AD0000DD0D9F8001004280DD00D6009F104098B
