:020000040800F2
:10000000700400209D0100082B140008CD0D00088D
:1000100029140008A90200080916000800000000C1
:100020000000000000000000000000001D15000896
:10003000AB020008000000002D1400081F15000886
:10004000B7010008B7010008B7010008B7010008B0
:10005000B7010008B7010008AD020008BB020008A4
:10006000C1020008C7020008CD020008B70100085D
:10007000B7010008B7010008B7010008B701000880
:10008000B7010008B7010008B7010008B701000870
:10009000B7010008B7010008B7010008D302000843
:1000A000B7010008B7010008B7010008B701000850
:1000B000B7010008B7010008B7010008B701000840
:1000C000B7010008B7010008B7010008B701000830
:1000D000B7010008B7010008B7010008B701000820
:1000E000B3020008B7010008B7010008B701000813
:1000F000B7010008B7010008B7010008B701000800
:10010000B7010008B7010008B7010008B7010008EF
:10011000B7010008B7010008B7010008B7010008DF
:10012000B7010008B7010008B7010008B7010008CF
:10013000B7010008B7010008B7010008B7010008BF
:10014000B7010008B7010008B7010008B7010008AF
:10015000B7010008B7010008B7010008B70100089F
:10016000B7010008B7010008B7010008B70100088F
:10017000B7010008B7010008B7010008000000003F
:10018000B7010008B7010008DFF80CD000F07AF8DA
:1001900000480047251600087004002006488047E4
:1001A00006480047FEE7FEE7FEE7FEE7FEE7FEE75C
:1001B000FEE7FEE7FEE7FEE7AF150008890100084D
:1001C0002DE9F05F0546002092469B46884606468C
:1001D000814640241BE0284641464746224600F01F
:1001E00041F853465A46C01A914110D31146184659
:1001F000224600F028F82D1A67EB01084F462246E8
:100200000120002100F01FF817EB00094E41201ECD
:10021000A4F10104DFDC484631462A464346BDE8E6
:10022000F09FD2B201E000F8012B491EFBD27047CB
:100230000022F6E710B513460A4604461946FFF7B2
:10024000F0FF204610BD202A04DB203A00FA02F11C
:10025000002070479140C2F1200320FA03F31943B4
:1002600090407047202A04DB203A21FA02F0002156
:10027000704721FA02F3D040C2F1200291400843B6
:1002800019467047064C074D06E0E06840F0010350
:1002900094E8070098471034AC42F6D3FFF778FF94
:1002A0007416000894160008FEE77047012000F05D
:1002B00051B84FF4805000F04DB8022000F04AB819
:1002C000042000F047B8082000F044B8102000F0E7
:1002D00041B8202000F03EB8704710B5144600F039
:1002E0002EFF200A00F046FFE0B2BDE8104000F00B
:1002F00041BF0000B0B5044600F017F9054640F2D2
:100300000400611CC2F20000007818BF044400BF62
:1003100000F00BF9401BA042FAD3B0BDB0F5805FEE
:1003200011D0012818BF704780B51420FFF7E2FFF5
:1003300040F200400121C4F2020000F50060BDE877
:10034000804000F0E1B840F200400121C4F2020018
:1003500000F0DFB843F61441C4F201010A6802421A
:1003600014BF08607047FFF7D9BF00002DE9F04FB8
:1003700082B041F6004343F6004B08224FF0010AD9
:1003800000264FF0000CC4F20203C4F2010B9842A5
:1003900000F13E4308BF072203F1FF734FEAB32782
:1003A000072F4FF0000738BF4FEAB322009200BF7B
:1003B0000A680AFA0CF812EA080F00F09A80D1F8DD
:1003C00004E04EF01002122A12D106F01C020F2394
:1003D00003FA02F46FF0030303EA5C0505442B6A99
:1003E000A3430C6904FA02F21A432A62D1F804E02A
:1003F000032304680EF00302BEF1120F03FA07F3A1
:1004000002FA07F224EA03046FEA030942EA04024B
:10041000026014D80AFA0EF212F0061F0FD082689A
:10042000CB6802EA0902BB401A438260CEF3001295
:10043000436802FA0CF223EA08031A434260C268D6
:100440008B6802EA0902BB401A43C2605FEACE022F
:100450004FD5002206F00C050F24019243F644020A
:10046000AC40C4F202021346126842F480421A60A1
:100470001A6802F4804201922CF00302019B5A4454
:100480004FF60843CFF6FF739E46D358A343009C14
:1004900004FA05F52B4342F80E30DBF800204D68D6
:1004A00042EA0803EC0358BF22EA0803CBF8003005
:1004B000AC03DBF8042042EA080358BF22EA080331
:1004C000CBF80430EC02DBF8082042EA080358BFFE
:1004D00022EA080343F60C42CBF80830AD02C4F21E
:1004E00001021446126842EA080358BF22EA0803D0
:1004F00023600CF1010C02370436BCF1100F04BF6D
:1005000002B0BDE8F08F53E70069084018BF012032
:10051000704742690A408A4208BF090481617047F6
:10052000002A08BF09048161704740F26800C2F2E6
:1005300000000068704740F2040040F26801C2F217
:100540000000C2F2000100780A6810440860704799
:1005500080B543F60040C4F20200016841F4007126
:100560000160016841F480610160016841F48071BB
:100570000160032000F086F8002000F004F800F08D
:1005800028F8002080BDB0B5044640F204004FF4C6
:100590007A71C2F200000078B1FBF0F040F2000185
:1005A000C2F200010968B1FBF0F000F0F9FB01258F
:1005B0000F2C0CD858B94FF0FF30214600220025EF
:1005C00000F032F840F20800C2F200000460284651
:1005D000B0BD82B043F6400100200190C4F2020198
:1005E0004A6842F480424A604A6802F480420192BA
:1005F000019A0090086840F080500860086800F098
:1006000080500090009802B0704700280BDB00F08B
:100610001F010122400902FA01F14EF20012CEF24E
:10062000000242F82010704710B500F00F034EF69C
:100630000C5E00F1604CB0F1FF3FA3F10403CEF279
:10064000000E734403F10C04C8BF0CF56444DEF8DB
:1006500000004FF0FF3CC0F30220C31E80F00700F3
:1006600038BF0023042828BF04200CFA00F021EA38
:1006700000000CFA03F1984022EA0101084300014E
:10068000207010BD4EF60C514FF6FF03CEF2000164
:100690000A681A4060F30A2242F0806040F0FD7060
:1006A000086070472DE9F041002800F09C8043F677
:1006B000000804460D46C4F20208D8F8000400F011
:1006C0000F00884208D288F80054D8F8000400F0DF
:1006D0000F00A84240F087802068810717D54107A6
:1006E00042BFD8F8081041F4E051C8F808100107DB
:1006F00042BFD8F8081041F46041C8F80810D8F893
:100700000810A26821F0F0011143C8F80810C007D2
:100710002FD06068811E022904D2D8F80010890108
:100720000BD460E0012804D1D8F80010890304D468
:1007300059E0D8F80010890755D5D8F8081021F0ED
:1007400003010843C8F80800FFF7EFFE064641F230
:10075000883700BFD8F80800616800F00C00B0EBE3
:10076000810F06D0FFF7E1FE801BB842F2D90324C7
:100770003AE0D8F8000400F00F00A84207D988F842
:100780000054D8F8000400F00F00A8422BD12068D4
:10079000410707D5D8F80810E26821F4E051114369
:1007A000C8F80810000708D5D8F80800216920F417
:1007B000604040EAC100C8F8080000F018F8D8F816
:1007C000081041F264620024C0F60002C1F3031174
:1007D000515CC84040F20001C2F2000108600020F4
:1007E000FFF7D1FE00E001242046BDE8F08110B5FE
:1007F00043F60404C4F20204606800F00C00082808
:100800000AD0042819BF42F20040C0F2F40047F6B3
:100810004000C0F27D1010BD226820680023400215
:1008200002F03F0247F64000C0F27D105CBF42F28A
:100830000040C0F2F4002168C1F38811A0FB01015F
:10084000FFF7BEFC21680222C1F3014102EB410126
:10085000B0FBF1F010BD00002DE9F04182B000289E
:1008600000F014810446007843F60006C4F2020644
:10087000C0072FD0B06800F00C00042823D0B06867
:1008800000F00C00082802D1706840021BD4676891
:10089000B7F5803F07D03068B7F5A02F40F01A8138
:1008A00040F480203060306840F480303060FFF7E2
:1008B0003CFE0546306880030CD4FFF736FE401B33
:1008C0006428F7D9A8E03068800303D56068002861
:1008D00000F0DC80207880072ED5B06810F00C0F77
:1008E00007D0B06800F00C00082809D170684002F9
:1008F00006D43068800718D5E068012815D0C5E017
:10090000E1680020C4F24720002900F0878001211F
:100910000160FFF70AFE05463068800705D4FFF73F
:1009200004FE401B0228F7D976E03068216920F0E8
:10093000F80040EAC10030602078000725D56069E2
:1009400088B100200121C4F24720C0F8801EFFF7C3
:10095000ECFD0546706F800717D4FFF7E6FD401BDE
:100960000228F7D958E000200021C4F24720C0F83F
:10097000801EFFF7DAFD0546706F800705D5FFF78B
:10098000D4FD401B0228F7D946E02078400775D5F2
:10099000306C4FF00008C0000CD4CDF804804FF04C
:1009A0000108306C40F080503064306C00F08050B2
:1009B0000190019847F20007C4F200073868C005AB
:1009C0000FD4386840F480703860FFF7AEFD0546FC
:1009D0003868C00505D4FFF7A8FD401B0228F7D9E9
:1009E0001AE0A768012F05D0306F052F27D140F0FE
:1009F00004003067306F40F001003067FFF795FD6D
:100A0000054641F2883700BF306F80072FD4FFF7CB
:100A10008CFD401BB842F7D9032038E0002101606B
:100A2000FFF783FD054600BF306880077FF584AF80
:100A3000FFF77BFD411B03200229F5D927E020F0B9
:100A400001003067306F20F004003067FFF76DFD64
:100A50000546002FD5D141F28837306F800706D583
:100A6000FFF763FD411B0320B942F6D90FE0B8F14F
:100A7000000F1EBF306C20F080503064A769002F3B
:100A800060D0B06800F00C00082803D1012002B04B
:100A9000BDE8F08140F200080020C4F24728C8F801
:100AA0006000FFF742FD0546022F09D13068800142
:100AB00028D5FFF73AFD411B03200229F6D9E6E7C6
:100AC000306880013ED5FFF730FD411B032003292C
:100AD000F6D3DCE720F480303060306820F48020EA
:100AE0003060FFF722FD0546002F7FF4E3AE30684B
:100AF00080037FF5EFAEFFF718FD411B032064294B
:100B0000F5D9C4E704F11C078FCF0843D90340EAA5
:100B100082104FF6FF72914340EA0760A1F58031E1
:100B2000084370600120C8F86000FFF7FEFC04462F
:100B30003068800106D4FFF7F8FC011B032002296E
:100B4000F6D9A4E70020A2E770B5C8B30026054691
:100B50004FF0000C866290F8510030B9284685F8B5
:100B6000506000F030F8D5F828C0022185F8511007
:100B700029680A6822F040020A60D5E90123D5E914
:100B800003041A4310436A6920431043AA6902F41C
:100B900000731843EB6918432B6A184340EA0C00B2
:100BA0000860042000EA12406A6A10434860C8697D
:100BB00020F40060C86101206E6585F8510000E0F6
:100BC0000126304670BD10B586B0044601A8142138
:100BD000FFF72EFB43F200002168C4F201008142BE
:100BE00026D143F63002002100F550400091C4F2B6
:100BF0000202536943F480535361536903F48053F1
:100C00000093009B0091136843F001031360126886
:100C100002F001020092009A052205920322CDE91A
:100C2000031202210291E021019101A9FFF79EFB2D
:100C300006B010BD2DE9F04381B0044690F8500095
:100C4000012801D10220A8E04FF001091D461646F7
:100C50000F4684F85090FFF768FC804694F85100E6
:100C6000012857D10120002F00F09280002E00F0C3
:100C70008F80032084F8510000206065E686A686F8
:100C80002763A087A063C4E91000E087A1682068FB
:100C9000B1F5004F02BF016841F480410160016875
:100CA00049065EBF016841F0400101606268711E43
:100CB000E368B1FA81F1B2FA82F24909B3F5006F43
:100CC0004FEA521241EA020126D131B137F8021B34
:100CD000C1602763E18E0139E186E18E00293FD0B2
:100CE0006E1C00E020688168890707D4FFF71DFCAF
:100CF00066B1A0EB0800A84208D348E0216B31F8A8
:100D0000022BC2602163E08E0138E086E08E00286D
:100D1000E8D125E002203BE039B139780173206B3E
:100D200001302063E08E0138E086E08EC0B16E1C99
:100D300020688168890707D4FFF7F7FB6EB1A0EB45
:100D40000800A84209D322E0216B09780173206BC7
:100D500001302063E08E0138E086E08E0028E7D184
:100D600020462946424600F063FB08B1202060651A
:100D7000A06838B9002000902068C16800918068A0
:100D800000900098606D002818BF012000E003204B
:100D9000002184F8501084F8519001B0BDE8F08330
:100DA000411E0020B0EB116F1CBF012070474EF2B6
:100DB0001002F023CEF2000251604EF62351CEF223
:100DC00000010B700721906011607047FEE7000082
:100DD0002DE9F04F83B08D1A1C4606465318019139
:100DE000A8B20293834227D9B11A971902FB02FADB
:100DF0001FFA81FB009100BF5F4518D90199DDF80A
:100E00000090401A00FB00F8584600BF801B00FB12
:100E10000080504505D81FFA89F0A9B22246FFF795
:100E20005CFA09F101091FFA89F08742EED8013511
:100E30000299A8B28142DFD803B0BDE8F08F80B537
:100E400082B0FF20102101228DF8070040F600003B
:100E5000C4F20200FFF764FB3220FFF74BFA40F2C6
:100E600010000DF1070101220323C2F20000FFF779
:100E7000E1FE02B080BD0000F0B581B00546002063
:100E8000002140F23F12EF23002600F02EF92C0A39
:100E9000EDB200BFF02700BF204600F06BF92846F6
:100EA00000F068F9013FF7D10136B6F5A07F04BF25
:100EB00001B0F0BDEEE780B5FFF7C1FF00F0FEF82E
:100EC000CB2000F07BF9392000F054F92C2000F001
:100ED00051F9002000F04EF9342000F04BF90220C7
:100EE00000F048F9CF2000F069F9002000F042F945
:100EF000C12000F03FF9302000F03CF9E82000F07C
:100F00005DF9852000F036F9002000F033F97820F3
:100F100000F030F9EA2000F051F9002000F02AF941
:100F2000002000F027F9ED2000F048F9642000F0DF
:100F300021F9032000F01EF9122000F01BF9812096
:100F400000F018F9F72000F039F9202000F012F92C
:100F5000C02000F033F9232000F00CF9C12000F08C
:100F60002DF9102000F006F9C52000F027F93E20E9
:100F700000F000F9282000F0FDF8C72000F01EF96D
:100F8000862000F0F7F8362000F018F9E82000F08D
:100F9000F1F83A2000F012F9552000F0EBF8B120FA
:100FA00000F00CF9002000F0E5F8182000F0E2F85D
:100FB000B62000F003F9082000F0DCF8822000F0F1
:100FC000D9F8272000F0D6F8F22000F0F7F800203A
:100FD00000F0D0F8262000F0F1F8012000F0CAF867
:100FE000E02000F0EBF80F2000F0C4F8312000F012
:100FF000C1F82B2000F0BEF80C2000F0BBF80E204A
:1010000000F0B8F8082000F0B5F84E2000F0B2F873
:10101000F12000F0AFF8372000F0ACF8072000F026
:10102000A9F8102000F0A6F8032000F0A3F80E2085
:1010300000F0A0F8092000F09DF8002000F09AF8D8
:10104000E12000F0BBF8002000F094F80E2000F042
:1010500091F8142000F08EF8032000F08BF8112096
:1010600000F088F8072000F085F8312000F082F8C1
:10107000C12000F07FF8482000F07CF8082000F044
:1010800079F80F2000F076F80C2000F073F831208A
:1010900000F070F8362000F06DF80F2000F06AF8CC
:1010A000112000F08BF87820FFF724F9292000F0B8
:1010B00085F82C20BDE8804000F080B810B540F6DF
:1010C000000410210022C4F202042046FFF728FA8F
:1010D0006420FFF70FF9204610210122FFF720FAC4
:1010E0003220BDE81040FFF705B9F0B581B00746E2
:1010F0002A201C4616460D4600F060F8380A00F01B
:1011000039F8F8B200F036F8300A00F033F8F0B2EF
:1011100000F030F82B2000F051F8280A00F02AF8EF
:10112000E8B200F027F8200A00F024F8E0B200F05E
:1011300021F82C2001B0BDE8F04000F03FB8B0B578
:1011400005462A200C4600F039F8280A00F012F86B
:10115000E8B200F00FF82B2000F030F8200A00F081
:1011600009F8E0B200F006F82C20BDE8B04000F02D
:1011700025B80000B0B540F6000405462021002245
:10118000C4F202042046FFF7CBF9A4F50060102159
:101190000122FFF7C5F940F21000C2F2000000681A
:1011A00081688907FCD5C56081688907FCD5204620
:1011B00020210122BDE8B040FFF7B2B9B0B540F63A
:1011C0000004054620210022C4F202042046FFF755
:1011D000A7F9A4F5006010210022FFF7A1F940F261
:1011E0001000C2F20000006881688907FCD5C56064
:1011F00081688907FCD5204620210122BDE8B04046
:10120000FFF78EB92DE9F04F87B043F63000002587
:1012100040F200080022102606950195C4F2020053
:10122000C4F20208016841F080010160016801F028
:101230008001019101990195016841F0010101606E
:10124000016801F00101019101990195016841F0E6
:1012500004010160016801F0040101910199019507
:10126000016841F002010160016801F00201019191
:1012700001990195016841F008010160016801F0E0
:101280000801019101990195016841F04001016057
:101290001021006800F04000019001984046FFF7DF
:1012A0003FF908F50067302100224FF0300B384637
:1012B000FFF736F908F58064012101224FF0010A99
:1012C0002046FFF72DF908F5C0594FF4F8410122E7
:1012D0004846FFF725F9CDE90455CDE9026A02AE8B
:1012E00040463146FFF742F8CDF808B04FF0030B07
:1012F00038463146CDF814B0CDE903A5FFF736F8EE
:1013000020463146CDE9045BCDE902AAFFF72EF86D
:1013100000244FF4805004953146C1F21104039427
:1013200002903846FFF722F83F20CDE903453146C9
:10133000029008F54060FFF719F84FF470500595DA
:10134000CDE903A5314602904846FFF70FF811207A
:10135000CDE90455314603904FF480400290484651
:10136000FFF704F8062000210022FFF75DF90620B0
:10137000FFF74BF9072000210022FFF755F907205E
:10138000FFF743F9082000210022FFF74DF908205C
:10139000FFF73BF9092000210022FFF745F909205A
:1013A000FFF733F90A2000210022FFF73DF90A2058
:1013B000FFF72BF9172000210022FFF735F917203E
:1013C000FFF723F9282000210022FFF72DF928201C
:1013D000FFF71BF907B0BDE8F08F10B540F2100021
:1013E00043F200044FF482724FF4007C4FF0010E80
:1013F00002230021C2F20000C4F20104C0E900424D
:101400000A22C0E90211C0E9043EC0E906C1C0E9F0
:101410000811C0E90A12FFF797FB002814BFBDE8C6
:10142000104010BDFEF758BFFEE770477047000040
:1014300010B582B0044640F2000013460A4649F651
:101440008171C2F20000C1F25E610068A0FB01017F
:10145000480D4FF47A71484301906068B0F5827F7F
:101460000AD12046802100F013F870B1606D40F081
:1014700020006065032009E0019830B1019801382F
:101480000190206880680006F6D4002002B010BDEC
:101490002DE9F041804600680F4681683940B94225
:1014A0000ED11D461646541C34B1FFF73EF8411BC1
:1014B000D8F80000B14206D281683940B942F3D071
:1014C0000020BDE8F081416821F0E0014160D8F8DA
:1014D0000410B1F5827F0BD1D8F80810B1F5004F98
:1014E00002D0B1F5806F03D1016821F040010160A5
:1014F000D8F82810B1F5005F07D1016821F4005138
:101500000160016841F400510160002088F850003A
:10151000012088F851000320BDE8F0817047FFF7F3
:101520000AB870B592B006AC1421201DFEF780FEFB
:1015300043F64000002502260195C4F2020001682E
:1015400041F080510160006800F0805001900198E6
:10155000019547F20000C4F20000016841F48041A7
:101560000160006800F4804001900198042011900F
:10157000A82010960F9008200E901020CDE90C6541
:101580000A900120099020460696FFF765F94FF46E
:101590008050052105904FF4A05004900F20CDE914
:1015A0000265019001A8FFF77DF812B070BD4EF6FC
:1015B00008504FF0000CCEF20000D0F8801041F43B
:1015C0007001C0F8801043F60001C4F202010A68FD
:1015D00042F001020A60C1F808C04FF6FF720B68C2
:1015E000CFF6F6621A400A6043F21002C2F20042DD
:1015F0004A600A6822F480220A60C1F80CC04FF0E9
:101600000061016070470000FEE700004FF6FF70C8
:10161000FFF732FCA02078211E224FF4FC63FFF775
:10162000D7FBF7E7FEF794FFFFF77BFFFFF7EAFD35
:10163000FFF7D3FEFFF73FFC4FF6FF70FFF71CFCF0
:10164000FFF7E4FFFCE702E008C8121F08C1002A08
:10165000FAD170477047002001E001C1121F002A33
:10166000FBD17047000000000000000001020304ED
:101670000607080998160008000000201000000066
:1016800046160008A816000810000020600400009C
:1016900056160008000000000024F40001000000BD
:0816A000100000000000000032
:040000050800018965
:00000001FF
